{
  "contractName": "EHR",
  "abi": [
    {
      "constant": true,
      "inputs": [],
      "name": "medicinesCount",
      "outputs": [
        {
          "name": "",
          "type": "int256"
        }
      ],
      "payable": false,
      "stateMutability": "view",
      "type": "function",
      "signature": "0x0496649a"
    },
    {
      "constant": true,
      "inputs": [
        {
          "name": "",
          "type": "int256"
        }
      ],
      "name": "prescriptions",
      "outputs": [
        {
          "name": "regularVisitID",
          "type": "int256"
        },
        {
          "name": "referral",
          "type": "string"
        },
        {
          "name": "followUp",
          "type": "string"
        },
        {
          "name": "lab",
          "type": "string"
        },
        {
          "name": "numberOfMedicines",
          "type": "int256"
        },
        {
          "name": "medicineOffset",
          "type": "int256"
        }
      ],
      "payable": false,
      "stateMutability": "view",
      "type": "function",
      "signature": "0x2c5e6460"
    },
    {
      "constant": true,
      "inputs": [],
      "name": "prescriptionsCount",
      "outputs": [
        {
          "name": "",
          "type": "int256"
        }
      ],
      "payable": false,
      "stateMutability": "view",
      "type": "function",
      "signature": "0x39aaa6e8"
    },
    {
      "constant": true,
      "inputs": [
        {
          "name": "",
          "type": "int256"
        }
      ],
      "name": "labVisits",
      "outputs": [
        {
          "name": "labVisitID",
          "type": "int256"
        },
        {
          "name": "patientID",
          "type": "int256"
        },
        {
          "name": "clinicID",
          "type": "int256"
        },
        {
          "name": "visitHeartRate",
          "type": "int256"
        },
        {
          "name": "visitTemperature",
          "type": "int256"
        },
        {
          "name": "testType",
          "type": "string"
        },
        {
          "name": "testResult",
          "type": "string"
        }
      ],
      "payable": false,
      "stateMutability": "view",
      "type": "function",
      "signature": "0x3e2bd0c2"
    },
    {
      "constant": true,
      "inputs": [
        {
          "name": "",
          "type": "int256"
        }
      ],
      "name": "regularVisits",
      "outputs": [
        {
          "name": "regularVisitID",
          "type": "int256"
        },
        {
          "name": "patientID",
          "type": "int256"
        },
        {
          "name": "clinicID",
          "type": "int256"
        },
        {
          "name": "visitHeartRate",
          "type": "int256"
        },
        {
          "name": "visitTemperature",
          "type": "int256"
        },
        {
          "name": "diagnosis",
          "type": "string"
        },
        {
          "name": "visitType",
          "type": "uint8"
        }
      ],
      "payable": false,
      "stateMutability": "view",
      "type": "function",
      "signature": "0x6151b7cd"
    },
    {
      "constant": true,
      "inputs": [],
      "name": "regularVisitsCount",
      "outputs": [
        {
          "name": "",
          "type": "int256"
        }
      ],
      "payable": false,
      "stateMutability": "view",
      "type": "function",
      "signature": "0x62e59cf7"
    },
    {
      "constant": true,
      "inputs": [
        {
          "name": "",
          "type": "int256"
        }
      ],
      "name": "patients",
      "outputs": [
        {
          "name": "patientID",
          "type": "int256"
        },
        {
          "name": "patientAddress",
          "type": "address"
        },
        {
          "name": "clinicID",
          "type": "int256"
        },
        {
          "name": "name",
          "type": "string"
        },
        {
          "name": "age",
          "type": "int256"
        },
        {
          "name": "weight",
          "type": "int256"
        },
        {
          "name": "height",
          "type": "int256"
        },
        {
          "name": "gender",
          "type": "string"
        },
        {
          "name": "initialHeartRate",
          "type": "int256"
        },
        {
          "name": "initialTemperature",
          "type": "int256"
        },
        {
          "name": "numberOfRegularVisits",
          "type": "int256"
        },
        {
          "name": "numberOfLabVisits",
          "type": "int256"
        }
      ],
      "payable": false,
      "stateMutability": "view",
      "type": "function",
      "signature": "0x7b9fc959"
    },
    {
      "constant": true,
      "inputs": [
        {
          "name": "",
          "type": "int256"
        }
      ],
      "name": "clinics",
      "outputs": [
        {
          "name": "clinicID",
          "type": "int256"
        },
        {
          "name": "clinicAddress",
          "type": "address"
        },
        {
          "name": "location",
          "type": "string"
        },
        {
          "name": "numberOfPatients",
          "type": "int256"
        }
      ],
      "payable": false,
      "stateMutability": "view",
      "type": "function",
      "signature": "0x7fc08cc6"
    },
    {
      "constant": true,
      "inputs": [],
      "name": "labVisitsCount",
      "outputs": [
        {
          "name": "",
          "type": "int256"
        }
      ],
      "payable": false,
      "stateMutability": "view",
      "type": "function",
      "signature": "0x8aa08e1d"
    },
    {
      "constant": true,
      "inputs": [
        {
          "name": "",
          "type": "int256"
        }
      ],
      "name": "medicines",
      "outputs": [
        {
          "name": "medicineId",
          "type": "int256"
        },
        {
          "name": "regularVisitID",
          "type": "int256"
        },
        {
          "name": "name",
          "type": "string"
        },
        {
          "name": "dose",
          "type": "string"
        },
        {
          "name": "period",
          "type": "string"
        }
      ],
      "payable": false,
      "stateMutability": "view",
      "type": "function",
      "signature": "0xb675e5d7"
    },
    {
      "constant": true,
      "inputs": [],
      "name": "patientsCount",
      "outputs": [
        {
          "name": "",
          "type": "int256"
        }
      ],
      "payable": false,
      "stateMutability": "view",
      "type": "function",
      "signature": "0xb6b1289d"
    },
    {
      "constant": true,
      "inputs": [],
      "name": "clinicsCount",
      "outputs": [
        {
          "name": "",
          "type": "int256"
        }
      ],
      "payable": false,
      "stateMutability": "view",
      "type": "function",
      "signature": "0xc249bf7e"
    },
    {
      "inputs": [],
      "payable": false,
      "stateMutability": "nonpayable",
      "type": "constructor",
      "signature": "constructor"
    },
    {
      "constant": false,
      "inputs": [
        {
          "name": "_clinicAddress",
          "type": "address"
        },
        {
          "name": "_location",
          "type": "string"
        }
      ],
      "name": "createClinic",
      "outputs": [],
      "payable": false,
      "stateMutability": "nonpayable",
      "type": "function",
      "signature": "0xb99d1b10"
    },
    {
      "constant": false,
      "inputs": [
        {
          "name": "_patientAddress",
          "type": "address"
        },
        {
          "name": "_clinicID",
          "type": "int256"
        },
        {
          "name": "_name",
          "type": "string"
        },
        {
          "name": "_age",
          "type": "int256"
        },
        {
          "name": "_weight",
          "type": "int256"
        },
        {
          "name": "_height",
          "type": "int256"
        },
        {
          "name": "_gender",
          "type": "string"
        },
        {
          "name": "_initialHeartRate",
          "type": "int256"
        },
        {
          "name": "_initialTemperature",
          "type": "int256"
        }
      ],
      "name": "createPatient",
      "outputs": [],
      "payable": false,
      "stateMutability": "nonpayable",
      "type": "function",
      "signature": "0x3b73cdf1"
    },
    {
      "constant": false,
      "inputs": [
        {
          "name": "_patientID",
          "type": "int256"
        },
        {
          "name": "_clinicID",
          "type": "int256"
        },
        {
          "name": "_visitHeartRate",
          "type": "int256"
        },
        {
          "name": "_visitTemperature",
          "type": "int256"
        },
        {
          "name": "_diagnosis",
          "type": "string"
        },
        {
          "name": "_visitType",
          "type": "uint8"
        },
        {
          "name": "_referral",
          "type": "string"
        },
        {
          "name": "_followUp",
          "type": "string"
        },
        {
          "name": "_lab",
          "type": "string"
        },
        {
          "name": "_numberOfMedicines",
          "type": "int256"
        }
      ],
      "name": "createRegularVisit",
      "outputs": [],
      "payable": false,
      "stateMutability": "nonpayable",
      "type": "function",
      "signature": "0x45a4e119"
    },
    {
      "constant": false,
      "inputs": [
        {
          "name": "_patientID",
          "type": "int256"
        },
        {
          "name": "_clinicID",
          "type": "int256"
        },
        {
          "name": "_visitHeartRate",
          "type": "int256"
        },
        {
          "name": "_visitTemperature",
          "type": "int256"
        },
        {
          "name": "_testType",
          "type": "string"
        },
        {
          "name": "_testResult",
          "type": "string"
        }
      ],
      "name": "createLabVisit",
      "outputs": [],
      "payable": false,
      "stateMutability": "nonpayable",
      "type": "function",
      "signature": "0x80391760"
    },
    {
      "constant": false,
      "inputs": [
        {
          "name": "_regularVisitID",
          "type": "int256"
        },
        {
          "name": "_referral",
          "type": "string"
        },
        {
          "name": "_followUp",
          "type": "string"
        },
        {
          "name": "_lab",
          "type": "string"
        },
        {
          "name": "_numberOfMedicines",
          "type": "int256"
        }
      ],
      "name": "createPrescription",
      "outputs": [],
      "payable": false,
      "stateMutability": "nonpayable",
      "type": "function",
      "signature": "0x483cf89a"
    },
    {
      "constant": false,
      "inputs": [
        {
          "name": "_regularVisitID",
          "type": "int256"
        },
        {
          "name": "_name",
          "type": "string"
        },
        {
          "name": "_dose",
          "type": "string"
        },
        {
          "name": "_period",
          "type": "string"
        }
      ],
      "name": "createMedicine",
      "outputs": [],
      "payable": false,
      "stateMutability": "nonpayable",
      "type": "function",
      "signature": "0x9955f2b4"
    }
  ],
  "bytecode": "0x608060405260006001556000600255600060035560006004556000600555600060065534801561002e57600080fd5b5060008054600160a060020a03191633179055612042806100506000396000f3fe6080604052600436106100fb5763ffffffff7c01000000000000000000000000000000000000000000000000000000006000350416630496649a81146101005780632c5e64601461012757806339aaa6e8146102aa5780633b73cdf1146102bf5780633e2bd0c21461042857806345a4e11914610510578063483cf89a1461077e5780636151b7cd1461094857806362e59cf714610a225780637b9fc95914610a375780637fc08cc614610b975780638039176014610c605780638aa08e1d14610db25780639955f2b414610dc7578063b675e5d714610f8f578063b6b1289d146110c9578063b99d1b10146110de578063c249bf7e146111a1575b600080fd5b34801561010c57600080fd5b506101156111b6565b60408051918252519081900360200190f35b34801561013357600080fd5b506101516004803603602081101561014a57600080fd5b50356111bc565b60405180878152602001806020018060200180602001868152602001858152602001848103845289818151815260200191508051906020019080838360005b838110156101a8578181015183820152602001610190565b50505050905090810190601f1680156101d55780820380516001836020036101000a031916815260200191505b5084810383528851815288516020918201918a019080838360005b838110156102085781810151838201526020016101f0565b50505050905090810190601f1680156102355780820380516001836020036101000a031916815260200191505b50848103825287518152875160209182019189019080838360005b83811015610268578181015183820152602001610250565b50505050905090810190601f1680156102955780820380516001836020036101000a031916815260200191505b50995050505050505050505060405180910390f35b3480156102b657600080fd5b50610115611391565b3480156102cb57600080fd5b5061042660048036036101208110156102e357600080fd5b600160a060020a038235169160208101359181019060608101604082013564010000000081111561031357600080fd5b82018360208201111561032557600080fd5b8035906020019184600183028401116401000000008311171561034757600080fd5b91908080601f01602080910402602001604051908101604052809392919081815260200183838082843760009201919091525092958435956020860135956040810135955091935091506080810190606001356401000000008111156103ac57600080fd5b8201836020820111156103be57600080fd5b803590602001918460018302840111640100000000831117156103e057600080fd5b91908080601f0160208091040260200160405190810160405280939291908181526020018383808284376000920191909152509295505082359350505060200135611397565b005b34801561043457600080fd5b506104526004803603602081101561044b57600080fd5b50356114d7565b604051808881526020018781526020018681526020018581526020018481526020018060200180602001838103835285818151815260200191508051906020019080838360005b838110156104b1578181015183820152602001610499565b50505050905090810190601f1680156104de5780820380516001836020036101000a031916815260200191505b508381038252845181528451602091820191860190808383600083811015610268578181015183820152602001610250565b34801561051c57600080fd5b50610426600480360361014081101561053457600080fd5b81359160208101359160408201359160608101359181019060a08101608082013564010000000081111561056757600080fd5b82018360208201111561057957600080fd5b8035906020019184600183028401116401000000008311171561059b57600080fd5b91908080601f016020809104026020016040519081016040528093929190818152602001838380828437600092019190915250929560ff8535169590949093506040810192506020013590506401000000008111156105f957600080fd5b82018360208201111561060b57600080fd5b8035906020019184600183028401116401000000008311171561062d57600080fd5b91908080601f016020809104026020016040519081016040528093929190818152602001838380828437600092019190915250929594936020810193503591505064010000000081111561068057600080fd5b82018360208201111561069257600080fd5b803590602001918460018302840111640100000000831117156106b457600080fd5b91908080601f016020809104026020016040519081016040528093929190818152602001838380828437600092019190915250929594936020810193503591505064010000000081111561070757600080fd5b82018360208201111561071957600080fd5b8035906020019184600183028401116401000000008311171561073b57600080fd5b91908080601f016020809104026020016040519081016040528093929190818152602001838380828437600092019190915250929550509135925061163b915050565b34801561078a57600080fd5b50610426600480360360a08110156107a157600080fd5b813591908101906040810160208201356401000000008111156107c357600080fd5b8201836020820111156107d557600080fd5b803590602001918460018302840111640100000000831117156107f757600080fd5b91908080601f016020809104026020016040519081016040528093929190818152602001838380828437600092019190915250929594936020810193503591505064010000000081111561084a57600080fd5b82018360208201111561085c57600080fd5b8035906020019184600183028401116401000000008311171561087e57600080fd5b91908080601f01602080910402602001604051908101604052809392919081815260200183838082843760009201919091525092959493602081019350359150506401000000008111156108d157600080fd5b8201836020820111156108e357600080fd5b8035906020019184600183028401116401000000008311171561090557600080fd5b91908080601f0160208091040260200160405190810160405280939291908181526020018383808284376000920191909152509295505091359250611748915050565b34801561095457600080fd5b506109726004803603602081101561096b57600080fd5b5035611804565b60405180888152602001878152602001868152602001858152602001848152602001806020018360028111156109a457fe5b60ff168152602001828103825284818151815260200191508051906020019080838360005b838110156109e15781810151838201526020016109c9565b50505050905090810190601f168015610a0e5780820380516001836020036101000a031916815260200191505b509850505050505050505060405180910390f35b348015610a2e57600080fd5b506101156118e1565b348015610a4357600080fd5b50610a6160048036036020811015610a5a57600080fd5b50356118e7565b604051808d81526020018c600160a060020a0316600160a060020a031681526020018b8152602001806020018a81526020018981526020018881526020018060200187815260200186815260200185815260200184815260200183810383528c818151815260200191508051906020019080838360005b83811015610af0578181015183820152602001610ad8565b50505050905090810190601f168015610b1d5780820380516001836020036101000a031916815260200191505b5083810382528851815288516020918201918a019080838360005b83811015610b50578181015183820152602001610b38565b50505050905090810190601f168015610b7d5780820380516001836020036101000a031916815260200191505b509e50505050505050505050505050505060405180910390f35b348015610ba357600080fd5b50610bc160048036036020811015610bba57600080fd5b5035611a62565b6040518085815260200184600160a060020a0316600160a060020a0316815260200180602001838152602001828103825284818151815260200191508051906020019080838360005b83811015610c22578181015183820152602001610c0a565b50505050905090810190601f168015610c4f5780820380516001836020036101000a031916815260200191505b509550505050505060405180910390f35b348015610c6c57600080fd5b50610426600480360360c0811015610c8357600080fd5b81359160208101359160408201359160608101359181019060a081016080820135640100000000811115610cb657600080fd5b820183602082011115610cc857600080fd5b80359060200191846001830284011164010000000083111715610cea57600080fd5b91908080601f0160208091040260200160405190810160405280939291908181526020018383808284376000920191909152509295949360208101935035915050640100000000811115610d3d57600080fd5b820183602082011115610d4f57600080fd5b80359060200191846001830284011164010000000083111715610d7157600080fd5b91908080601f016020809104026020016040519081016040528093929190818152602001838380828437600092019190915250929550611b1e945050505050565b348015610dbe57600080fd5b50610115611be3565b348015610dd357600080fd5b5061042660048036036080811015610dea57600080fd5b81359190810190604081016020820135640100000000811115610e0c57600080fd5b820183602082011115610e1e57600080fd5b80359060200191846001830284011164010000000083111715610e4057600080fd5b91908080601f0160208091040260200160405190810160405280939291908181526020018383808284376000920191909152509295949360208101935035915050640100000000811115610e9357600080fd5b820183602082011115610ea557600080fd5b80359060200191846001830284011164010000000083111715610ec757600080fd5b91908080601f0160208091040260200160405190810160405280939291908181526020018383808284376000920191909152509295949360208101935035915050640100000000811115610f1a57600080fd5b820183602082011115610f2c57600080fd5b80359060200191846001830284011164010000000083111715610f4e57600080fd5b91908080601f016020809104026020016040519081016040528093929190818152602001838380828437600092019190915250929550611be9945050505050565b348015610f9b57600080fd5b50610fb960048036036020811015610fb257600080fd5b5035611c93565b60405180868152602001858152602001806020018060200180602001848103845287818151815260200191508051906020019080838360005b8381101561100a578181015183820152602001610ff2565b50505050905090810190601f1680156110375780820380516001836020036101000a031916815260200191505b50848103835286518152865160209182019188019080838360005b8381101561106a578181015183820152602001611052565b50505050905090810190601f1680156110975780820380516001836020036101000a031916815260200191505b5084810382528551815285516020918201918701908083836000838110156109e15781810151838201526020016109c9565b3480156110d557600080fd5b50610115611e5c565b3480156110ea57600080fd5b506104266004803603604081101561110157600080fd5b600160a060020a03823516919081019060408101602082013564010000000081111561112c57600080fd5b82018360208201111561113e57600080fd5b8035906020019184600183028401116401000000008311171561116057600080fd5b91908080601f016020809104026020016040519081016040528093929190818152602001838380828437600092019190915250929550611e62945050505050565b3480156111ad57600080fd5b50610115611f75565b60065481565b600b602090815260009182526040918290208054600180830180548651600293821615610100026000190190911692909204601f8101869004860283018601909652858252919492939092908301828280156112595780601f1061122e57610100808354040283529160200191611259565b820191906000526020600020905b81548152906001019060200180831161123c57829003601f168201915b50505060028085018054604080516020601f60001961010060018716150201909416959095049283018590048502810185019091528181529596959450909250908301828280156112eb5780601f106112c0576101008083540402835291602001916112eb565b820191906000526020600020905b8154815290600101906020018083116112ce57829003601f168201915b5050505060038301805460408051602060026001851615610100026000190190941693909304601f810184900484028201840190925281815294959493509083018282801561137b5780601f106113505761010080835404028352916020019161137b565b820191906000526020600020905b81548152906001019060200180831161135e57829003601f168201915b5050505050908060040154908060050154905086565b60055481565b6001805481018082556040805161018081018252828152600160a060020a038d811660208084019182528385018f8152606085018f8152608086018f905260a086018e905260c086018d905260e086018c905261010086018b905261012086018a90526000610140870181905261016087018190529788526008835295909620845181559151968201805473ffffffffffffffffffffffffffffffffffffffff191697909316969096179091559251600284015590518051919361146392600385019290910190611f7b565b506080820151600482015560a0820151600582015560c0820151600682015560e0820151805161149d916007840191602090910190611f7b565b5061010082015160088201556101208201516009820155610140820151600a82015561016090910151600b90910155505050505050505050565b600a602052806000526040600020600091509050806000015490806001015490806002015490806003015490806004015490806005018054600181600116156101000203166002900480601f0160208091040260200160405190810160405280929190818152602001828054600181600116156101000203166002900480156115a15780601f10611576576101008083540402835291602001916115a1565b820191906000526020600020905b81548152906001019060200180831161158457829003601f168201915b5050505060068301805460408051602060026001851615610100026000190190941693909304601f81018490048402820184019092528181529495949350908301828280156116315780601f1061160657610100808354040283529160200191611631565b820191906000526020600020905b81548152906001019060200180831161161457829003601f168201915b5050505050905087565b60008a815260086020908152604091829020600a01805460019081019091556003805490910190819055825160e0810184529081529081018c90529081018a9052606081018990526080810188905260a0810187905260c081018660028111156116a157fe5b815250600960006003548152602001908152602001600020600082015181600001556020820151816001015560408201518160020155606082015181600301556080820151816004015560a0820151816005019080519060200190611707929190611f7b565b5060c082015160068201805460ff1916600183600281111561172557fe5b021790555090505061173c60035485858585611748565b50505050505050505050565b6005805460019081019091556040805160c0810182528781526020808201888152828401889052606083018790526080830186905260065460a084015260008a8152600b835293909320825181559251805192946117ae93908501929190910190611f7b565b50604082015180516117ca916002840191602090910190611f7b565b50606082015180516117e6916003840191602090910190611f7b565b506080820151600482015560a0909101516005909101555050505050565b6009602052806000526040600020600091509050806000015490806001015490806002015490806003015490806004015490806005018054600181600116156101000203166002900480601f0160208091040260200160405190810160405280929190818152602001828054600181600116156101000203166002900480156118ce5780601f106118a3576101008083540402835291602001916118ce565b820191906000526020600020905b8154815290600101906020018083116118b157829003601f168201915b5050506006909301549192505060ff1687565b60035481565b600860209081526000918252604091829020805460018083015460028085015460038601805489516101009682161596909602600019011692909204601f81018890048802850188019098528784529396600160a060020a039092169593949390919083018282801561199b5780601f106119705761010080835404028352916020019161199b565b820191906000526020600020905b81548152906001019060200180831161197e57829003601f168201915b505050600484015460058501546006860154600787018054604080516020601f60026000196101006001881615020190951694909404938401819004810282018101909252828152989995989497509295509091830182828015611a405780601f10611a1557610100808354040283529160200191611a40565b820191906000526020600020905b815481529060010190602001808311611a2357829003601f168201915b50505050509080600801549080600901549080600a01549080600b015490508c565b60076020908152600091825260409182902080546001808301546002808501805488516101009582161595909502600019011691909104601f81018790048702840187019097528683529295600160a060020a0390911694919291830182828015611b0e5780601f10611ae357610100808354040283529160200191611b0e565b820191906000526020600020905b815481529060010190602001808311611af157829003601f168201915b5050505050908060030154905084565b6000868152600860209081526040808320600b0180546001908101909155600480548201808255835160e0810185528181528086018d81528186018d8152606083018d8152608084018d815260a085018d815260c086018d9052958b52600a8a5297909920835181559151958201959095559351600285015595516003840155925190820155905180519192611bbc92600585019290910190611f7b565b5060c08201518051611bd8916006840191602090910190611f7b565b505050505050505050565b60045481565b600680546001908101918290556040805160a081018252838152602080820189815282840189815260608401899052608084018890526000968752600c8352939095208251815594519385019390935590518051919392611c5292600285019290910190611f7b565b5060608201518051611c6e916003840191602090910190611f7b565b5060808201518051611c8a916004840191602090910190611f7b565b50505050505050565b600c6020908152600091825260409182902080546001808301546002808501805488519481161561010002600019011691909104601f810187900487028401870190975286835292959094919291830182828015611d325780601f10611d0757610100808354040283529160200191611d32565b820191906000526020600020905b815481529060010190602001808311611d1557829003601f168201915b5050505060038301805460408051602060026001851615610100026000190190941693909304601f8101849004840282018401909252818152949594935090830182828015611dc25780601f10611d9757610100808354040283529160200191611dc2565b820191906000526020600020905b815481529060010190602001808311611da557829003601f168201915b5050505060048301805460408051602060026001851615610100026000190190941693909304601f8101849004840282018401909252818152949594935090830182828015611e525780601f10611e2757610100808354040283529160200191611e52565b820191906000526020600020905b815481529060010190602001808311611e3557829003601f168201915b5050505050905085565b60015481565b600054600160a060020a03163314611edb57604080517f08c379a000000000000000000000000000000000000000000000000000000000815260206004820152601d60248201527f536f7272792c20796f7520617265206e6f7420617574686f72697a6564000000604482015290519081900360640190fd5b60028054600190810180835560408051608081018252828152600160a060020a0387811660208084019182528385018981526000606086018190529687526007825294909520835181559051958101805473ffffffffffffffffffffffffffffffffffffffff191696909216959095179055905180519194611f639390850192910190611f7b565b50606082015181600301559050505050565b60025481565b828054600181600116156101000203166002900490600052602060002090601f016020900481019282601f10611fbc57805160ff1916838001178555611fe9565b82800160010185558215611fe9579182015b82811115611fe9578251825591602001919060010190611fce565b50611ff5929150611ff9565b5090565b61201391905b80821115611ff55760008155600101611fff565b9056fea165627a7a723058205410a0e308de2bfd2cdf8c1f547431c6970a4eadcc0b83fb5e009f0dc54326640029",
  "source": "pragma solidity ^0.5.0;\n\n// Creating a regular visit --> creates a prescription --> creates medicines\n\n// Only 1 admin\n\n/******************* ROLES OF ADMINS ********************/\n// Admin can add clinics\n\n/******************* ROLES OF CLINICS ********************/\n// Clinics can add patients\n\ncontract EHR {\n    address systemAdmin;\n\n    enum VisitTypes {\n        periodicCheckup,\n        caseManagement,\n        complain\n    }\n\n    int256 public patientsCount = 0;\n    int256 public clinicsCount = 0;\n    int256 public regularVisitsCount = 0;\n    int256 public labVisitsCount = 0;\n    int256 public prescriptionsCount = 0;\n    int256 public medicinesCount = 0;\n\n    struct Clinic {\n        int256 clinicID;\n        address clinicAddress;\n        string location;\n        int256 numberOfPatients;\n    }\n\n    struct Patient {\n        int256 patientID;\n        address patientAddress;\n        int256 clinicID;\n        string name;\n        int256 age;\n        int256 weight;\n        int256 height;\n        string gender;\n        int256 initialHeartRate;\n        int256 initialTemperature;\n        int256 numberOfRegularVisits;\n        int256 numberOfLabVisits;\n    }\n\n    struct RegularVisit {\n        int256 regularVisitID;\n        int256 patientID;\n        int256 clinicID;\n        int256 visitHeartRate;\n        int256 visitTemperature;\n        string diagnosis;\n        VisitTypes visitType;\n    }\n\n    struct LabVisit {\n        int256 labVisitID;\n        int256 patientID;\n        int256 clinicID;\n        int256 visitHeartRate;\n        int256 visitTemperature;\n        string testType;\n        string testResult;\n    }\n\n    struct Prescription {\n        int256 regularVisitID;\n        string referral;\n        string followUp;\n        string lab;\n        int256 numberOfMedicines;\n        int256 medicineOffset;\n    }\n\n    struct Medicine {\n        int256 medicineId;\n        int256 regularVisitID;\n        string name;\n        string dose;\n        string period;\n    }\n\n    mapping(int256 => Clinic) public clinics;\n    mapping(int256 => Patient) public patients;\n    mapping(int256 => RegularVisit) public regularVisits;\n    mapping(int256 => LabVisit) public labVisits;\n    mapping(int256 => Prescription) public prescriptions;\n    mapping(int256 => Medicine) public medicines;\n\n    constructor() public {\n        systemAdmin = msg.sender;\n    }\n\n    function createClinic(address _clinicAddress, string memory _location)\n        public\n    {\n        require(msg.sender == systemAdmin, \"Sorry, you are not authorized\");\n\n        clinicsCount++;\n        clinics[clinicsCount] = Clinic(\n            clinicsCount,\n            _clinicAddress,\n            _location,\n            0\n        );\n    }\n\n    function createPatient(\n        address _patientAddress,\n        int256 _clinicID,\n        string memory _name,\n        int256 _age,\n        int256 _weight,\n        int256 _height,\n        string memory _gender,\n        int256 _initialHeartRate,\n        int256 _initialTemperature\n    ) public {\n        patientsCount++;\n        patients[patientsCount] = Patient(\n            patientsCount,\n            _patientAddress,\n            _clinicID,\n            _name,\n            _age,\n            _weight,\n            _height,\n            _gender,\n            _initialHeartRate,\n            _initialTemperature,\n            0,\n            0\n        );\n    }\n\n    function createRegularVisit(\n        int256 _patientID,\n        int256 _clinicID,\n        int256 _visitHeartRate,\n        int256 _visitTemperature,\n        string memory _diagnosis,\n        VisitTypes _visitType,\n        string memory _referral,\n        string memory _followUp,\n        string memory _lab,\n        int256 _numberOfMedicines\n    ) public {\n        // VisitTypes temp = VisitTypes.periodicCheckup;\n        // if (_visitType == 0) {\n        //     temp = VisitTypes.periodicCheckup;\n        // } else if (_visitType == 1) {\n        //     temp = VisitTypes.caseManagement;\n        // } else {\n        //     temp = VisitTypes.complain;\n        // }\n\n        patients[_patientID].numberOfRegularVisits =\n            patients[_patientID].numberOfRegularVisits +\n            1;\n\n        regularVisitsCount++;\n\n        regularVisits[regularVisitsCount] = RegularVisit(\n            regularVisitsCount,\n            _patientID,\n            _clinicID,\n            _visitHeartRate,\n            _visitTemperature,\n            _diagnosis,\n            _visitType\n        );\n\n        createPrescription(\n            regularVisitsCount,\n            _referral,\n            _followUp,\n            _lab,\n            _numberOfMedicines\n        );\n    }\n\n    function createLabVisit(\n        int256 _patientID,\n        int256 _clinicID,\n        int256 _visitHeartRate,\n        int256 _visitTemperature,\n        string memory _testType,\n        string memory _testResult\n    ) public {\n        patients[_patientID].numberOfLabVisits =\n            patients[_patientID].numberOfLabVisits +\n            1;\n\n        labVisitsCount++;\n        labVisits[labVisitsCount] = LabVisit(\n            labVisitsCount,\n            _patientID,\n            _clinicID,\n            _visitHeartRate,\n            _visitTemperature,\n            _testType,\n            _testResult\n        );\n    }\n\n    function createPrescription(\n        int256 _regularVisitID,\n        string memory _referral,\n        string memory _followUp,\n        string memory _lab,\n        int256 _numberOfMedicines\n    ) public {\n        prescriptionsCount++;\n        prescriptions[_regularVisitID] = Prescription(\n            _regularVisitID,\n            _referral,\n            _followUp,\n            _lab,\n            _numberOfMedicines,\n            medicinesCount\n        );\n    }\n\n    function createMedicine(\n        int256 _regularVisitID,\n        string memory _name,\n        string memory _dose,\n        string memory _period\n    ) public {\n        medicinesCount++;\n        medicines[medicinesCount] = Medicine(\n            medicinesCount,\n            _regularVisitID,\n            _name,\n            _dose,\n            _period\n        );\n    }\n}\n",
  "sourcePath": "/Users/sarah/GUC/Semester 10/Security/security-project/contracts/EHR.sol",
  "compiler": {
    "name": "solc",
    "version": "0.5.0+commit.1d4f565a.Emscripten.clang"
  },
  "schemaVersion": "3.0.1",
  "updatedAt": "2022-06-09T19:38:52.474Z",
  "devdoc": {
    "methods": {}
  },
  "userdoc": {
    "methods": {},
    "notice": "***************** ROLES OF CLINICS *******************"
  }
}