{
  "contractName": "EHR",
  "abi": [
    {
      "constant": true,
      "inputs": [],
      "name": "patients",
      "outputs": [
        {
          "name": "",
          "type": "uint256"
        }
      ],
      "payable": false,
      "stateMutability": "view",
      "type": "function",
      "signature": "0x134a25c5"
    },
    {
      "constant": true,
      "inputs": [],
      "name": "regularVisits",
      "outputs": [
        {
          "name": "",
          "type": "uint256"
        }
      ],
      "payable": false,
      "stateMutability": "view",
      "type": "function",
      "signature": "0x81260d94"
    },
    {
      "constant": true,
      "inputs": [],
      "name": "labVisits",
      "outputs": [
        {
          "name": "",
          "type": "uint256"
        }
      ],
      "payable": false,
      "stateMutability": "view",
      "type": "function",
      "signature": "0xc1e75db0"
    },
    {
      "constant": true,
      "inputs": [],
      "name": "clinics",
      "outputs": [
        {
          "name": "",
          "type": "uint256"
        }
      ],
      "payable": false,
      "stateMutability": "view",
      "type": "function",
      "signature": "0xda5a9986"
    }
  ],
  "bytecode": "0x60806040526000805560006001556000600255600060035534801561002357600080fd5b5060ff806100326000396000f3fe608060405260043610605c5763ffffffff7c0100000000000000000000000000000000000000000000000000000000600035041663134a25c58114606157806381260d94146085578063c1e75db0146097578063da5a99861460a9575b600080fd5b348015606c57600080fd5b50607360bb565b60408051918252519081900360200190f35b348015609057600080fd5b50607360c1565b34801560a257600080fd5b50607360c7565b34801560b457600080fd5b50607360cd565b60005481565b60025481565b60035481565b6001548156fea165627a7a72305820c509f6be58557f60c41af042c57d65ca071233541baa2e0e279637f59a60bb2a0029",
  "source": "pragma solidity ^0.5.0;\n\ncontract EHR {\n  uint public patients = 0;\n  uint public clinics = 0;\n  uint public regularVisits = 0;\n  uint public labVisits = 0;\n} ",
  "sourcePath": "/Users/sarah/GUC/Semester 10/Security/security-project/contracts/EHR.sol",
  "compiler": {
    "name": "solc",
    "version": "0.5.0+commit.1d4f565a.Emscripten.clang"
  },
  "schemaVersion": "3.0.1",
  "updatedAt": "2022-06-07T18:13:56.678Z",
  "devdoc": {
    "methods": {}
  },
  "userdoc": {
    "methods": {}
  }
}