{
  "contractName": "EHR",
  "abi": [
    {
      "constant": true,
      "inputs": [],
      "name": "medicinesCount",
      "outputs": [
        {
          "name": "",
          "type": "int256"
        }
      ],
      "payable": false,
      "stateMutability": "view",
      "type": "function",
      "signature": "0x0496649a"
    },
    {
      "constant": true,
      "inputs": [
        {
          "name": "",
          "type": "int256"
        }
      ],
      "name": "prescriptions",
      "outputs": [
        {
          "name": "regularVisitID",
          "type": "int256"
        },
        {
          "name": "referral",
          "type": "string"
        },
        {
          "name": "followUp",
          "type": "string"
        },
        {
          "name": "lab",
          "type": "string"
        },
        {
          "name": "numberOfMedicines",
          "type": "int256"
        },
        {
          "name": "medicineOffset",
          "type": "int256"
        }
      ],
      "payable": false,
      "stateMutability": "view",
      "type": "function",
      "signature": "0x2c5e6460"
    },
    {
      "constant": true,
      "inputs": [],
      "name": "prescriptionsCount",
      "outputs": [
        {
          "name": "",
          "type": "int256"
        }
      ],
      "payable": false,
      "stateMutability": "view",
      "type": "function",
      "signature": "0x39aaa6e8"
    },
    {
      "constant": true,
      "inputs": [
        {
          "name": "",
          "type": "int256"
        }
      ],
      "name": "labVisits",
      "outputs": [
        {
          "name": "labVisitID",
          "type": "int256"
        },
        {
          "name": "patientID",
          "type": "int256"
        },
        {
          "name": "clinicID",
          "type": "int256"
        },
        {
          "name": "visitHeartRate",
          "type": "int256"
        },
        {
          "name": "visitTemperature",
          "type": "int256"
        },
        {
          "name": "testType",
          "type": "string"
        },
        {
          "name": "testResult",
          "type": "string"
        }
      ],
      "payable": false,
      "stateMutability": "view",
      "type": "function",
      "signature": "0x3e2bd0c2"
    },
    {
      "constant": true,
      "inputs": [
        {
          "name": "",
          "type": "int256"
        }
      ],
      "name": "regularVisits",
      "outputs": [
        {
          "name": "regularVisitID",
          "type": "int256"
        },
        {
          "name": "patientID",
          "type": "int256"
        },
        {
          "name": "clinicID",
          "type": "int256"
        },
        {
          "name": "visitHeartRate",
          "type": "int256"
        },
        {
          "name": "visitTemperature",
          "type": "int256"
        },
        {
          "name": "diagnosis",
          "type": "string"
        }
      ],
      "payable": false,
      "stateMutability": "view",
      "type": "function",
      "signature": "0x6151b7cd"
    },
    {
      "constant": true,
      "inputs": [],
      "name": "regularVisitsCount",
      "outputs": [
        {
          "name": "",
          "type": "int256"
        }
      ],
      "payable": false,
      "stateMutability": "view",
      "type": "function",
      "signature": "0x62e59cf7"
    },
    {
      "constant": true,
      "inputs": [
        {
          "name": "",
          "type": "address"
        }
      ],
      "name": "availableClinics",
      "outputs": [
        {
          "name": "",
          "type": "bool"
        }
      ],
      "payable": false,
      "stateMutability": "view",
      "type": "function",
      "signature": "0x64cb4303"
    },
    {
      "constant": true,
      "inputs": [
        {
          "name": "",
          "type": "int256"
        }
      ],
      "name": "patients",
      "outputs": [
        {
          "name": "patientID",
          "type": "int256"
        },
        {
          "name": "patientAddress",
          "type": "address"
        },
        {
          "name": "hashMessage",
          "type": "bytes32"
        },
        {
          "name": "data",
          "type": "string"
        }
      ],
      "payable": false,
      "stateMutability": "view",
      "type": "function",
      "signature": "0x7b9fc959"
    },
    {
      "constant": true,
      "inputs": [
        {
          "name": "",
          "type": "int256"
        }
      ],
      "name": "clinics",
      "outputs": [
        {
          "name": "clinicID",
          "type": "int256"
        },
        {
          "name": "clinicAddress",
          "type": "address"
        },
        {
          "name": "hashMessage",
          "type": "bytes32"
        },
        {
          "name": "data",
          "type": "string"
        }
      ],
      "payable": false,
      "stateMutability": "view",
      "type": "function",
      "signature": "0x7fc08cc6"
    },
    {
      "constant": true,
      "inputs": [],
      "name": "labVisitsCount",
      "outputs": [
        {
          "name": "",
          "type": "int256"
        }
      ],
      "payable": false,
      "stateMutability": "view",
      "type": "function",
      "signature": "0x8aa08e1d"
    },
    {
      "constant": true,
      "inputs": [
        {
          "name": "",
          "type": "int256"
        }
      ],
      "name": "medicines",
      "outputs": [
        {
          "name": "medicineId",
          "type": "int256"
        },
        {
          "name": "regularVisitID",
          "type": "int256"
        },
        {
          "name": "name",
          "type": "string"
        },
        {
          "name": "dose",
          "type": "string"
        },
        {
          "name": "period",
          "type": "string"
        }
      ],
      "payable": false,
      "stateMutability": "view",
      "type": "function",
      "signature": "0xb675e5d7"
    },
    {
      "constant": true,
      "inputs": [],
      "name": "patientsCount",
      "outputs": [
        {
          "name": "",
          "type": "int256"
        }
      ],
      "payable": false,
      "stateMutability": "view",
      "type": "function",
      "signature": "0xb6b1289d"
    },
    {
      "constant": true,
      "inputs": [],
      "name": "clinicsCount",
      "outputs": [
        {
          "name": "",
          "type": "int256"
        }
      ],
      "payable": false,
      "stateMutability": "view",
      "type": "function",
      "signature": "0xc249bf7e"
    },
    {
      "inputs": [],
      "payable": false,
      "stateMutability": "nonpayable",
      "type": "constructor",
      "signature": "constructor"
    },
    {
      "constant": false,
      "inputs": [
        {
          "name": "_clinicAddress",
          "type": "address"
        },
        {
          "name": "_hash",
          "type": "bytes32"
        },
        {
          "name": "_signature",
          "type": "bytes"
        },
        {
          "name": "_data",
          "type": "string"
        }
      ],
      "name": "createClinic",
      "outputs": [],
      "payable": false,
      "stateMutability": "nonpayable",
      "type": "function",
      "signature": "0x5bad2e54"
    },
    {
      "constant": true,
      "inputs": [
        {
          "name": "_id",
          "type": "int256"
        }
      ],
      "name": "getClinic",
      "outputs": [
        {
          "components": [
            {
              "name": "clinicID",
              "type": "int256"
            },
            {
              "name": "clinicAddress",
              "type": "address"
            },
            {
              "name": "hashMessage",
              "type": "bytes32"
            },
            {
              "name": "data",
              "type": "string"
            }
          ],
          "name": "",
          "type": "tuple"
        }
      ],
      "payable": false,
      "stateMutability": "view",
      "type": "function",
      "signature": "0x29fee749"
    },
    {
      "constant": false,
      "inputs": [
        {
          "name": "_patientAddress",
          "type": "address"
        },
        {
          "name": "_hash",
          "type": "bytes32"
        },
        {
          "name": "_signature",
          "type": "bytes"
        },
        {
          "name": "_data",
          "type": "string"
        }
      ],
      "name": "createPatient",
      "outputs": [],
      "payable": false,
      "stateMutability": "nonpayable",
      "type": "function",
      "signature": "0xc9573f93"
    },
    {
      "constant": true,
      "inputs": [
        {
          "name": "_id",
          "type": "int256"
        },
        {
          "name": "_sender",
          "type": "address"
        }
      ],
      "name": "getPatient",
      "outputs": [
        {
          "components": [
            {
              "name": "patientID",
              "type": "int256"
            },
            {
              "name": "patientAddress",
              "type": "address"
            },
            {
              "name": "hashMessage",
              "type": "bytes32"
            },
            {
              "name": "data",
              "type": "string"
            }
          ],
          "name": "",
          "type": "tuple"
        }
      ],
      "payable": false,
      "stateMutability": "view",
      "type": "function",
      "signature": "0x23370c78"
    },
    {
      "constant": true,
      "inputs": [
        {
          "name": "_a",
          "type": "address"
        }
      ],
      "name": "isClinic",
      "outputs": [
        {
          "name": "",
          "type": "bool"
        }
      ],
      "payable": false,
      "stateMutability": "view",
      "type": "function",
      "signature": "0x67644a81"
    },
    {
      "constant": true,
      "inputs": [
        {
          "name": "a",
          "type": "string"
        },
        {
          "name": "b",
          "type": "string"
        }
      ],
      "name": "compareStrings",
      "outputs": [
        {
          "name": "",
          "type": "bool"
        }
      ],
      "payable": false,
      "stateMutability": "pure",
      "type": "function",
      "signature": "0xbed34bba"
    },
    {
      "constant": true,
      "inputs": [
        {
          "name": "hash",
          "type": "bytes32"
        },
        {
          "name": "signature",
          "type": "bytes"
        }
      ],
      "name": "recover",
      "outputs": [
        {
          "name": "",
          "type": "address"
        }
      ],
      "payable": false,
      "stateMutability": "pure",
      "type": "function",
      "signature": "0x19045a25"
    }
  ],
  "bytecode": "0x608060405260006001556000600255600060035560006004556000600555600060065534801561002e57600080fd5b5060008054600160a060020a0319163317815573df252f4b48dc5954ca39822e41479cd5b1ff72c99052600d6020527fa32271cd11767bb72198043ce610e6c88189c30b05cefa676cc9009869e6282b805460ff19166001179055611807806100986000396000f3fe6080604052600436106101115763ffffffff7c01000000000000000000000000000000000000000000000000000000006000350416630496649a811461011657806319045a251461014157806323370c781461016e57806329fee7491461019b5780632c5e6460146101bb57806339aaa6e8146101ed5780633e2bd0c2146102025780635bad2e54146102355780636151b7cd1461025757806362e59cf71461028957806364cb43031461029e57806367644a81146102cb5780637b9fc959146102eb5780637fc08cc61461031b5780638aa08e1d1461033b578063b675e5d714610350578063b6b1289d14610381578063bed34bba14610396578063c249bf7e146103b6578063c9573f93146103cb575b600080fd5b34801561012257600080fd5b5061012b6103eb565b60405161013891906114fc565b60405180910390f35b34801561014d57600080fd5b5061016161015c3660046112f9565b6103f1565b60405161013891906114e0565b34801561017a57600080fd5b5061018e610189366004611369565b6104d1565b6040516101389190611707565b3480156101a757600080fd5b5061018e6101b636600461134b565b6105e5565b3480156101c757600080fd5b506101db6101d636600461134b565b6106f2565b60405161013896959493929190611683565b3480156101f957600080fd5b5061012b6108c7565b34801561020e57600080fd5b5061022261021d36600461134b565b6108cd565b60405161013897969594939291906115ae565b34801561024157600080fd5b50610255610250366004611268565b610a31565b005b34801561026357600080fd5b5061027761027236600461134b565b610b30565b6040516101389695949392919061154e565b34801561029557600080fd5b5061012b610c04565b3480156102aa57600080fd5b506102be6102b9366004611242565b610c0a565b60405161013891906114ee565b3480156102d757600080fd5b506102be6102e6366004611242565b610c1f565b3480156102f757600080fd5b5061030b61030636600461134b565b610c3d565b604051610138949392919061150a565b34801561032757600080fd5b5061030b61033636600461134b565b610cfb565b34801561034757600080fd5b5061012b610d84565b34801561035c57600080fd5b5061037061036b36600461134b565b610d8a565b604051610138959493929190611623565b34801561038d57600080fd5b5061012b610f53565b3480156103a257600080fd5b506102be6103b1366004611399565b610f59565b3480156103c257600080fd5b5061012b611040565b3480156103d757600080fd5b506102556103e6366004611268565b611046565b60065481565b6000806000808451604114151561040e57600093505050506104cb565b50505060208201516040830151606084015160001a601b60ff8216101561043357601b015b8060ff16601b1415801561044b57508060ff16601c14155b1561045c57600093505050506104cb565b6040805160008152602080820180845289905260ff8416828401526060820186905260808201859052915160019260a0808401939192601f1981019281900390910190855afa1580156104b3573d6000803e3d6000fd5b5050506020604051035193505050506104cb565b5050505b92915050565b6104d9611117565b6104e282610c1f565b151561050c5760405160e560020a62461bcd028152600401610503906116f7565b60405180910390fd5b600083815260086020908152604091829020825160808101845281548152600180830154600160a060020a0316828501526002808401548387015260038401805487516101009482161594909402600019011691909104601f8101869004860283018601909652858252919492936060860193919291908301828280156105d45780601f106105a9576101008083540402835291602001916105d4565b820191906000526020600020905b8154815290600101906020018083116105b757829003601f168201915b505050505081525050905092915050565b6105ed611117565b600054600160a060020a0316331461061a5760405160e560020a62461bcd028152600401610503906116e7565b600082815260076020908152604091829020825160808101845281548152600180830154600160a060020a0316828501526002808401548387015260038401805487516101009482161594909402600019011691909104601f8101869004860283018601909652858252919492936060860193919291908301828280156106e25780601f106106b7576101008083540402835291602001916106e2565b820191906000526020600020905b8154815290600101906020018083116106c557829003601f168201915b5050505050815250509050919050565b600b602090815260009182526040918290208054600180830180548651600293821615610100026000190190911692909204601f81018690048602830186019096528582529194929390929083018282801561078f5780601f106107645761010080835404028352916020019161078f565b820191906000526020600020905b81548152906001019060200180831161077257829003601f168201915b50505060028085018054604080516020601f60001961010060018716150201909416959095049283018590048502810185019091528181529596959450909250908301828280156108215780601f106107f657610100808354040283529160200191610821565b820191906000526020600020905b81548152906001019060200180831161080457829003601f168201915b5050505060038301805460408051602060026001851615610100026000190190941693909304601f81018490048402820184019092528181529495949350908301828280156108b15780601f10610886576101008083540402835291602001916108b1565b820191906000526020600020905b81548152906001019060200180831161089457829003601f168201915b5050505050908060040154908060050154905086565b60055481565b600a602052806000526040600020600091509050806000015490806001015490806002015490806003015490806004015490806005018054600181600116156101000203166002900480601f0160208091040260200160405190810160405280929190818152602001828054600181600116156101000203166002900480156109975780601f1061096c57610100808354040283529160200191610997565b820191906000526020600020905b81548152906001019060200180831161097a57829003601f168201915b5050505060068301805460408051602060026001851615610100026000190190941693909304601f8101849004840282018401909252818152949594935090830182828015610a275780601f106109fc57610100808354040283529160200191610a27565b820191906000526020600020905b815481529060010190602001808311610a0a57829003601f168201915b5050505050905087565b6000610a3d84846103f1565b600054909150600160a060020a03808316911614610a705760405160e560020a62461bcd028152600401610503906116f7565b60028054600190810180835560408051608081018252828152600160a060020a038a811660208084019182528385018c8152606085018b815260009788526007835295909620845181559151968201805473ffffffffffffffffffffffffffffffffffffffff191697909316969096179091559251948301949094555180519192610b039260038501929091019061113d565b505050600160a060020a039094166000908152600d60205260409020805460ff1916600117905550505050565b6009602052806000526040600020600091509050806000015490806001015490806002015490806003015490806004015490806005018054600181600116156101000203166002900480601f016020809104026020016040519081016040528092919081815260200182805460018160011615610100020316600290048015610bfa5780601f10610bcf57610100808354040283529160200191610bfa565b820191906000526020600020905b815481529060010190602001808311610bdd57829003601f168201915b5050505050905086565b60035481565b600d6020526000908152604090205460ff1681565b600160a060020a03166000908152600d602052604090205460ff1690565b600860209081526000918252604091829020805460018083015460028085015460038601805489516101009682161596909602600019011692909204601f81018890048802850188019098528784529396600160a060020a0390921695939493909190830182828015610cf15780601f10610cc657610100808354040283529160200191610cf1565b820191906000526020600020905b815481529060010190602001808311610cd457829003601f168201915b5050505050905084565b600760209081526000918252604091829020805460018083015460028085015460038601805489516101009682161596909602600019011692909204601f81018890048802850188019098528784529396600160a060020a0390921695939493909190830182828015610cf15780601f10610cc657610100808354040283529160200191610cf1565b60045481565b600c6020908152600091825260409182902080546001808301546002808501805488519481161561010002600019011691909104601f810187900487028401870190975286835292959094919291830182828015610e295780601f10610dfe57610100808354040283529160200191610e29565b820191906000526020600020905b815481529060010190602001808311610e0c57829003601f168201915b5050505060038301805460408051602060026001851615610100026000190190941693909304601f8101849004840282018401909252818152949594935090830182828015610eb95780601f10610e8e57610100808354040283529160200191610eb9565b820191906000526020600020905b815481529060010190602001808311610e9c57829003601f168201915b5050505060048301805460408051602060026001851615610100026000190190941693909304601f8101849004840282018401909252818152949594935090830182828015610f495780601f10610f1e57610100808354040283529160200191610f49565b820191906000526020600020905b815481529060010190602001808311610f2c57829003601f168201915b5050505050905085565b60015481565b6000816040516020018082805190602001908083835b60208310610f8e5780518252601f199092019160209182019101610f6f565b6001836020036101000a03801982511681845116808217855250505050505090500191505060405160208183030381529060405280519060200120836040516020018082805190602001908083835b60208310610ffc5780518252601f199092019160209182019101610fdd565b6001836020036101000a0380198251168184511680821785525050505050509050019150506040516020818303038152906040528051906020012014905092915050565b60025481565b600061105284846103f1565b905061105d81610c1f565b151561107e5760405160e560020a62461bcd028152600401610503906116f7565b60018054810180825560408051608081018252828152600160a060020a0389811660208084019182528385018b8152606085018a815260009788526008835295909620845181559151968201805473ffffffffffffffffffffffffffffffffffffffff191697909316969096179091559251600284015590518051919361110d9260038501929091019061113d565b5050505050505050565b604080516080810182526000808252602082018190529181019190915260608082015290565b828054600181600116156101000203166002900490600052602060002090601f016020900481019282601f1061117e57805160ff19168380011785556111ab565b828001600101855582156111ab579182015b828111156111ab578251825591602001919060010190611190565b506111b79291506111bb565b5090565b6111d591905b808211156111b757600081556001016111c1565b90565b60006111e4823561176b565b9392505050565b60006111e482356111d5565b6000601f8201831361120857600080fd5b813561121b6112168261173f565b611718565b9150808252602083016020830185838301111561123757600080fd5b6104c7838284611787565b60006020828403121561125457600080fd5b600061126084846111d8565b949350505050565b6000806000806080858703121561127e57600080fd5b600061128a87876111d8565b945050602061129b878288016111eb565b935050604085013567ffffffffffffffff8111156112b857600080fd5b6112c4878288016111f7565b925050606085013567ffffffffffffffff8111156112e157600080fd5b6112ed878288016111f7565b91505092959194509250565b6000806040838503121561130c57600080fd5b600061131885856111eb565b925050602083013567ffffffffffffffff81111561133557600080fd5b611341858286016111f7565b9150509250929050565b60006020828403121561135d57600080fd5b600061126084846111eb565b6000806040838503121561137c57600080fd5b600061138885856111eb565b9250506020611341858286016111d8565b600080604083850312156113ac57600080fd5b823567ffffffffffffffff8111156113c357600080fd5b611318858286016111f7565b6113d88161176b565b82525050565b6113d881611776565b6113d8816111d5565b60006113fb82611767565b80845261140f816020860160208601611793565b611418816117c3565b9093016020019392505050565b601c81527f536f7272792c20796f7520617265206e6f20617574686f72697a656400000000602082015260400190565b601d81527f536f7272792c20796f7520617265206e6f7420617574686f72697a6564000000602082015260400190565b8051600090608084019061149985826113e7565b5060208301516114ac60208601826113cf565b5060408301516114bf60408601826113e7565b50606083015184820360608601526114d782826113f0565b95945050505050565b602081016104cb82846113cf565b602081016104cb82846113de565b602081016104cb82846113e7565b6080810161151882876113e7565b61152560208301866113cf565b61153260408301856113e7565b818103606083015261154481846113f0565b9695505050505050565b60c0810161155c82896113e7565b61156960208301886113e7565b61157660408301876113e7565b61158360608301866113e7565b61159060808301856113e7565b81810360a08301526115a281846113f0565b98975050505050505050565b60e081016115bc828a6113e7565b6115c960208301896113e7565b6115d660408301886113e7565b6115e360608301876113e7565b6115f060808301866113e7565b81810360a083015261160281856113f0565b905081810360c083015261161681846113f0565b9998505050505050505050565b60a0810161163182886113e7565b61163e60208301876113e7565b818103604083015261165081866113f0565b9050818103606083015261166481856113f0565b9050818103608083015261167881846113f0565b979650505050505050565b60c0810161169182896113e7565b81810360208301526116a381886113f0565b905081810360408301526116b781876113f0565b905081810360608301526116cb81866113f0565b90506116da60808301856113e7565b61167860a08301846113e7565b602080825281016104cb81611425565b602080825281016104cb81611455565b602080825281016111e48184611485565b60405181810167ffffffffffffffff8111828210171561173757600080fd5b604052919050565b600067ffffffffffffffff82111561175657600080fd5b506020601f91909101601f19160190565b5190565b60006104cb8261177b565b151590565b600160a060020a031690565b82818337506000910152565b60005b838110156117ae578181015183820152602001611796565b838111156117bd576000848401525b50505050565b601f01601f19169056fea265627a7a72305820e03214b2c3c907c917eb45e5e4b3fe0dd00d6e2eeaea33f880c5d41dd532937a6c6578706572696d656e74616cf50037",
  "source": "pragma solidity ^0.5.0;\npragma experimental ABIEncoderV2;\n\n// Creating a regular visit --> creates a prescription --> creates medicines\n// Address = public key\n// Only 1 admin\n\n/******************* ROLES OF ADMINS ********************/\n// Admin can add clinics\n\n/******************* ROLES OF CLINICS ********************/\n// Clinics can add patients\n\ncontract EHR {\n    address systemAdmin;\n\n    int256 public patientsCount = 0;\n    int256 public clinicsCount = 0;\n    int256 public regularVisitsCount = 0;\n    int256 public labVisitsCount = 0;\n    int256 public prescriptionsCount = 0;\n    int256 public medicinesCount = 0;\n\n    mapping(int256 => Clinic) public clinics;\n    mapping(int256 => Patient) public patients;\n    mapping(int256 => RegularVisit) public regularVisits;\n    mapping(int256 => LabVisit) public labVisits;\n    mapping(int256 => Prescription) public prescriptions;\n    mapping(int256 => Medicine) public medicines;\n\n    mapping(address => bool) public availableClinics;\n\n    enum VisitTypes {\n        periodicCheckup,\n        caseManagement,\n        complain\n    }\n\n    struct Clinic {\n        int256 clinicID;\n        address clinicAddress;\n        bytes32 hashMessage;\n        string data;\n    }\n\n    struct Patient {\n        int256 patientID;\n        address patientAddress;\n        bytes32 hashMessage;\n        string data;\n    }\n\n    struct RegularVisit {\n        int256 regularVisitID;\n        int256 patientID;\n        int256 clinicID;\n        int256 visitHeartRate;\n        int256 visitTemperature;\n        string diagnosis;\n        // VisitTypes visitType;\n    }\n\n    struct LabVisit {\n        int256 labVisitID;\n        int256 patientID;\n        int256 clinicID;\n        int256 visitHeartRate;\n        int256 visitTemperature;\n        string testType;\n        string testResult;\n    }\n\n    struct Prescription {\n        int256 regularVisitID;\n        string referral;\n        string followUp;\n        string lab;\n        int256 numberOfMedicines;\n        int256 medicineOffset;\n    }\n\n    struct Medicine {\n        int256 medicineId;\n        int256 regularVisitID;\n        string name;\n        string dose;\n        string period;\n    }\n\n    constructor() public {\n        systemAdmin = msg.sender;\n        address a = 0xdF252F4b48dC5954ca39822E41479cD5B1ff72c9;\n        availableClinics[a] = true;\n    }\n\n    function createClinic(\n        address _clinicAddress,\n        bytes32 _hash,\n        bytes memory _signature,\n        string memory _data\n    ) public {\n        // string memory hashedMessage\n        // string memory hashedRes = string(\n        //     abi.encodePacked(_signature, systemAdmin)\n        // );\n        // require(\n        //     compareStrings(hashedRes, hashedMessage),\n        //     \"Sorry, digest message is different\"\n        // );\n\n        address recoveredAddress = recover(_hash, _signature);\n        require(\n            recoveredAddress == systemAdmin,\n            \"Sorry, you are not authorized\"\n        );\n\n        clinicsCount++;\n        clinics[clinicsCount] = Clinic(\n            clinicsCount,\n            _clinicAddress,\n            _hash,\n            _data\n        );\n\n        availableClinics[_clinicAddress] = true;\n    }\n\n    function getClinic(int256 _id) public view returns (Clinic memory) {\n        require(msg.sender == systemAdmin, \"Sorry, you are no authorized\");\n        return clinics[_id];\n    }\n\n    function createPatient(\n        address _patientAddress,\n        bytes32 _hash,\n        bytes memory _signature,\n        string memory _data\n    ) public {\n        address recoveredAddress = recover(_hash, _signature);\n        require(isClinic(recoveredAddress), \"Sorry, you are not authorized\");\n\n        patientsCount++;\n        patients[patientsCount] = Patient(\n            patientsCount,\n            _patientAddress,\n            _hash,\n            _data\n        );\n    }\n\n    function getPatient(int256 _id, address _sender)\n        public\n        view\n        returns (Patient memory)\n    {\n        require(isClinic(_sender), \"Sorry, you are not authorized\");\n        return patients[_id];\n    }\n\n    // function createRegularVisit(\n    //     int256 _patientID,\n    //     int256 _clinicID,\n    //     int256 _visitHeartRate,\n    //     int256 _visitTemperature,\n    //     string memory _diagnosis,\n    //     VisitTypes _visitType,\n    //     string memory _referral,\n    //     string memory _followUp,\n    //     string memory _lab,\n    //     int256 _numberOfMedicines\n    // ) public {\n    //     // VisitTypes temp = VisitTypes.periodicCheckup;\n    //     // if (_visitType == 0) {\n    //     //     temp = VisitTypes.periodicCheckup;\n    //     // } else if (_visitType == 1) {\n    //     //     temp = VisitTypes.caseManagement;\n    //     // } else {\n    //     //     temp = VisitTypes.complain;\n    //     // }\n\n    //     patients[_patientID].numberOfRegularVisits =\n    //         patients[_patientID].numberOfRegularVisits +\n    //         1;\n\n    //     regularVisitsCount++;\n\n    //     regularVisits[regularVisitsCount] = RegularVisit(\n    //         regularVisitsCount,\n    //         _patientID,\n    //         _clinicID,\n    //         _visitHeartRate,\n    //         _visitTemperature,\n    //         _diagnosis,\n    //         _visitType\n    //     );\n\n    //     createPrescription(\n    //         regularVisitsCount,\n    //         _referral,\n    //         _followUp,\n    //         _lab,\n    //         _numberOfMedicines\n    //     );\n    // }\n\n    // function createLabVisit(\n    //     int256 _patientID,\n    //     int256 _clinicID,\n    //     int256 _visitHeartRate,\n    //     int256 _visitTemperature,\n    //     string memory _testType,\n    //     string memory _testResult\n    // ) public {\n    //     patients[_patientID].numberOfLabVisits =\n    //         patients[_patientID].numberOfLabVisits +\n    //         1;\n\n    //     labVisitsCount++;\n    //     labVisits[labVisitsCount] = LabVisit(\n    //         labVisitsCount,\n    //         _patientID,\n    //         _clinicID,\n    //         _visitHeartRate,\n    //         _visitTemperature,\n    //         _testType,\n    //         _testResult\n    //     );\n    // }\n\n    // function createPrescription(\n    //     int256 _regularVisitID,\n    //     string memory _referral,\n    //     string memory _followUp,\n    //     string memory _lab,\n    //     int256 _numberOfMedicines\n    // ) public {\n    //     prescriptionsCount++;\n    //     prescriptions[_regularVisitID] = Prescription(\n    //         _regularVisitID,\n    //         _referral,\n    //         _followUp,\n    //         _lab,\n    //         _numberOfMedicines,\n    //         medicinesCount\n    //     );\n    // }\n\n    // function createMedicine(\n    //     int256 _regularVisitID,\n    //     string memory _name,\n    //     string memory _dose,\n    //     string memory _period\n    // ) public {\n    //     medicinesCount++;\n    //     medicines[medicinesCount] = Medicine(\n    //         medicinesCount,\n    //         _regularVisitID,\n    //         _name,\n    //         _dose,\n    //         _period\n    //     );\n    // }\n\n    /**************************** HELPER FUNCTIONS *****************************/\n    function isClinic(address _a) public view returns (bool) {\n        return (availableClinics[_a]);\n    }\n\n    function compareStrings(string memory a, string memory b)\n        public\n        pure\n        returns (bool)\n    {\n        return keccak256(abi.encodePacked(a)) == keccak256(abi.encodePacked(b));\n    }\n\n    /**\n     * Based upon ECDSA library from OpenZeppelin Solidity\n     * https://github.com/OpenZeppelin/openzeppelin-solidity/blob/master/contracts/cryptography/ECDSA.sol\n     */\n    function recover(bytes32 hash, bytes memory signature)\n        public\n        pure\n        returns (address)\n    {\n        bytes32 r;\n        bytes32 s;\n        uint8 v;\n\n        if (signature.length != 65) {\n            return (address(0));\n        }\n\n        assembly {\n            r := mload(add(signature, 0x20))\n            s := mload(add(signature, 0x40))\n            v := byte(0, mload(add(signature, 0x60)))\n        }\n\n        if (v < 27) {\n            v += 27;\n        }\n\n        if (v != 27 && v != 28) {\n            return (address(0));\n        } else {\n            return ecrecover(hash, v, r, s);\n        }\n    }\n}\n",
  "sourcePath": "/Users/sarah/GUC/Semester 10/Security/security-project/contracts/EHR.sol",
  "compiler": {
    "name": "solc",
    "version": "0.5.0+commit.1d4f565a.Emscripten.clang"
  },
  "schemaVersion": "3.0.1",
  "updatedAt": "2022-06-10T18:50:14.077Z",
  "devdoc": {
    "methods": {}
  },
  "userdoc": {
    "methods": {
      "isClinic(address)": {
        "notice": "************************** HELPER FUNCTIONS ****************************"
      },
      "recover(bytes32,bytes)": {
        "notice": "Based upon ECDSA library from OpenZeppelin Solidity https://github.com/OpenZeppelin/openzeppelin-solidity/blob/master/contracts/cryptography/ECDSA.sol"
      }
    },
    "notice": "***************** ROLES OF CLINICS *******************"
  }
}