{
  "contractName": "EHR",
  "abi": [
    {
      "constant": true,
      "inputs": [],
      "name": "medicinesCount",
      "outputs": [
        {
          "name": "",
          "type": "int256"
        }
      ],
      "payable": false,
      "stateMutability": "view",
      "type": "function",
      "signature": "0x0496649a"
    },
    {
      "constant": true,
      "inputs": [
        {
          "name": "",
          "type": "int256"
        }
      ],
      "name": "prescriptions",
      "outputs": [
        {
          "name": "regularVisitID",
          "type": "int256"
        },
        {
          "name": "referral",
          "type": "string"
        },
        {
          "name": "followUp",
          "type": "string"
        },
        {
          "name": "lab",
          "type": "string"
        },
        {
          "name": "numberOfMedicines",
          "type": "int256"
        },
        {
          "name": "medicineOffset",
          "type": "int256"
        }
      ],
      "payable": false,
      "stateMutability": "view",
      "type": "function",
      "signature": "0x2c5e6460"
    },
    {
      "constant": true,
      "inputs": [],
      "name": "prescriptionsCount",
      "outputs": [
        {
          "name": "",
          "type": "int256"
        }
      ],
      "payable": false,
      "stateMutability": "view",
      "type": "function",
      "signature": "0x39aaa6e8"
    },
    {
      "constant": true,
      "inputs": [
        {
          "name": "",
          "type": "address"
        }
      ],
      "name": "mapClinicAddressToID",
      "outputs": [
        {
          "name": "",
          "type": "int256"
        }
      ],
      "payable": false,
      "stateMutability": "view",
      "type": "function",
      "signature": "0x3c5ff371"
    },
    {
      "constant": true,
      "inputs": [
        {
          "name": "",
          "type": "int256"
        }
      ],
      "name": "labVisits",
      "outputs": [
        {
          "name": "labVisitID",
          "type": "int256"
        },
        {
          "name": "patientID",
          "type": "int256"
        },
        {
          "name": "clinicID",
          "type": "int256"
        },
        {
          "name": "visitHeartRate",
          "type": "int256"
        },
        {
          "name": "visitTemperature",
          "type": "int256"
        },
        {
          "name": "testType",
          "type": "string"
        },
        {
          "name": "testResult",
          "type": "string"
        }
      ],
      "payable": false,
      "stateMutability": "view",
      "type": "function",
      "signature": "0x3e2bd0c2"
    },
    {
      "constant": true,
      "inputs": [
        {
          "name": "",
          "type": "int256"
        }
      ],
      "name": "regularVisits",
      "outputs": [
        {
          "name": "regularVisitID",
          "type": "int256"
        },
        {
          "name": "patientID",
          "type": "int256"
        },
        {
          "name": "clinicID",
          "type": "int256"
        },
        {
          "name": "visitHeartRate",
          "type": "int256"
        },
        {
          "name": "visitTemperature",
          "type": "int256"
        },
        {
          "name": "diagnosis",
          "type": "string"
        }
      ],
      "payable": false,
      "stateMutability": "view",
      "type": "function",
      "signature": "0x6151b7cd"
    },
    {
      "constant": true,
      "inputs": [],
      "name": "regularVisitsCount",
      "outputs": [
        {
          "name": "",
          "type": "int256"
        }
      ],
      "payable": false,
      "stateMutability": "view",
      "type": "function",
      "signature": "0x62e59cf7"
    },
    {
      "constant": true,
      "inputs": [
        {
          "name": "",
          "type": "address"
        }
      ],
      "name": "availableClinics",
      "outputs": [
        {
          "name": "",
          "type": "bool"
        }
      ],
      "payable": false,
      "stateMutability": "view",
      "type": "function",
      "signature": "0x64cb4303"
    },
    {
      "constant": true,
      "inputs": [
        {
          "name": "",
          "type": "int256"
        }
      ],
      "name": "patients",
      "outputs": [
        {
          "name": "patientID",
          "type": "int256"
        },
        {
          "name": "patientAddress",
          "type": "address"
        },
        {
          "name": "hashMessage",
          "type": "bytes32"
        },
        {
          "name": "data",
          "type": "string"
        },
        {
          "name": "addedBy",
          "type": "address"
        }
      ],
      "payable": false,
      "stateMutability": "view",
      "type": "function",
      "signature": "0x7b9fc959"
    },
    {
      "constant": true,
      "inputs": [
        {
          "name": "",
          "type": "int256"
        }
      ],
      "name": "clinics",
      "outputs": [
        {
          "name": "clinicID",
          "type": "int256"
        },
        {
          "name": "clinicAddress",
          "type": "address"
        },
        {
          "name": "hashMessage",
          "type": "bytes32"
        },
        {
          "name": "data",
          "type": "string"
        }
      ],
      "payable": false,
      "stateMutability": "view",
      "type": "function",
      "signature": "0x7fc08cc6"
    },
    {
      "constant": true,
      "inputs": [],
      "name": "labVisitsCount",
      "outputs": [
        {
          "name": "",
          "type": "int256"
        }
      ],
      "payable": false,
      "stateMutability": "view",
      "type": "function",
      "signature": "0x8aa08e1d"
    },
    {
      "constant": true,
      "inputs": [
        {
          "name": "",
          "type": "int256"
        }
      ],
      "name": "medicines",
      "outputs": [
        {
          "name": "medicineId",
          "type": "int256"
        },
        {
          "name": "regularVisitID",
          "type": "int256"
        },
        {
          "name": "name",
          "type": "string"
        },
        {
          "name": "dose",
          "type": "string"
        },
        {
          "name": "period",
          "type": "string"
        }
      ],
      "payable": false,
      "stateMutability": "view",
      "type": "function",
      "signature": "0xb675e5d7"
    },
    {
      "constant": true,
      "inputs": [],
      "name": "patientsCount",
      "outputs": [
        {
          "name": "",
          "type": "int256"
        }
      ],
      "payable": false,
      "stateMutability": "view",
      "type": "function",
      "signature": "0xb6b1289d"
    },
    {
      "constant": true,
      "inputs": [],
      "name": "clinicsCount",
      "outputs": [
        {
          "name": "",
          "type": "int256"
        }
      ],
      "payable": false,
      "stateMutability": "view",
      "type": "function",
      "signature": "0xc249bf7e"
    },
    {
      "inputs": [],
      "payable": false,
      "stateMutability": "nonpayable",
      "type": "constructor",
      "signature": "constructor"
    },
    {
      "constant": false,
      "inputs": [
        {
          "name": "_clinicAddress",
          "type": "address"
        },
        {
          "name": "_hash",
          "type": "bytes32"
        },
        {
          "name": "_signature",
          "type": "bytes"
        },
        {
          "name": "_data",
          "type": "string"
        }
      ],
      "name": "createClinic",
      "outputs": [],
      "payable": false,
      "stateMutability": "nonpayable",
      "type": "function",
      "signature": "0x5bad2e54"
    },
    {
      "constant": true,
      "inputs": [
        {
          "name": "_id",
          "type": "int256"
        }
      ],
      "name": "getClinic",
      "outputs": [
        {
          "components": [
            {
              "name": "clinicID",
              "type": "int256"
            },
            {
              "name": "clinicAddress",
              "type": "address"
            },
            {
              "name": "hashMessage",
              "type": "bytes32"
            },
            {
              "name": "data",
              "type": "string"
            }
          ],
          "name": "",
          "type": "tuple"
        }
      ],
      "payable": false,
      "stateMutability": "view",
      "type": "function",
      "signature": "0x29fee749"
    },
    {
      "constant": false,
      "inputs": [
        {
          "name": "_patientAddress",
          "type": "address"
        },
        {
          "name": "_hash",
          "type": "bytes32"
        },
        {
          "name": "_signature",
          "type": "bytes"
        },
        {
          "name": "_data",
          "type": "string"
        }
      ],
      "name": "createPatient",
      "outputs": [],
      "payable": false,
      "stateMutability": "nonpayable",
      "type": "function",
      "signature": "0xc9573f93"
    },
    {
      "constant": true,
      "inputs": [
        {
          "name": "_id",
          "type": "int256"
        }
      ],
      "name": "getPatient",
      "outputs": [
        {
          "components": [
            {
              "name": "patientID",
              "type": "int256"
            },
            {
              "name": "patientAddress",
              "type": "address"
            },
            {
              "name": "hashMessage",
              "type": "bytes32"
            },
            {
              "name": "data",
              "type": "string"
            },
            {
              "name": "addedBy",
              "type": "address"
            }
          ],
          "name": "",
          "type": "tuple"
        }
      ],
      "payable": false,
      "stateMutability": "view",
      "type": "function",
      "signature": "0xab0cca85"
    },
    {
      "constant": true,
      "inputs": [
        {
          "name": "_sender",
          "type": "address"
        }
      ],
      "name": "getMyPatientsCount",
      "outputs": [
        {
          "name": "",
          "type": "uint256"
        }
      ],
      "payable": false,
      "stateMutability": "view",
      "type": "function",
      "signature": "0x1781a297"
    },
    {
      "constant": true,
      "inputs": [
        {
          "name": "_id",
          "type": "uint256"
        },
        {
          "name": "_sender",
          "type": "address"
        }
      ],
      "name": "getMyPatients",
      "outputs": [
        {
          "components": [
            {
              "name": "patientID",
              "type": "int256"
            },
            {
              "name": "patientAddress",
              "type": "address"
            },
            {
              "name": "hashMessage",
              "type": "bytes32"
            },
            {
              "name": "data",
              "type": "string"
            },
            {
              "name": "addedBy",
              "type": "address"
            }
          ],
          "name": "",
          "type": "tuple"
        }
      ],
      "payable": false,
      "stateMutability": "view",
      "type": "function",
      "signature": "0xfa968cdc"
    },
    {
      "constant": true,
      "inputs": [
        {
          "name": "_a",
          "type": "address"
        }
      ],
      "name": "isClinic",
      "outputs": [
        {
          "name": "",
          "type": "bool"
        }
      ],
      "payable": false,
      "stateMutability": "view",
      "type": "function",
      "signature": "0x67644a81"
    },
    {
      "constant": true,
      "inputs": [
        {
          "name": "a",
          "type": "string"
        },
        {
          "name": "b",
          "type": "string"
        }
      ],
      "name": "compareStrings",
      "outputs": [
        {
          "name": "",
          "type": "bool"
        }
      ],
      "payable": false,
      "stateMutability": "pure",
      "type": "function",
      "signature": "0xbed34bba"
    },
    {
      "constant": true,
      "inputs": [
        {
          "name": "hash",
          "type": "bytes32"
        },
        {
          "name": "signature",
          "type": "bytes"
        }
      ],
      "name": "recover",
      "outputs": [
        {
          "name": "",
          "type": "address"
        }
      ],
      "payable": false,
      "stateMutability": "pure",
      "type": "function",
      "signature": "0x19045a25"
    }
  ],
  "bytecode": "0x608060405260006001556000600255600060035560006004556000600555600060065534801561002e57600080fd5b5060008054600160a060020a03191633179055611d10806100506000396000f3fe6080604052600436106101325763ffffffff7c01000000000000000000000000000000000000000000000000000000006000350416630496649a81146101375780631781a2971461016257806319045a251461018257806329fee749146101af5780632c5e6460146101dc57806339aaa6e81461020e5780633c5ff371146102235780633e2bd0c2146102435780635bad2e54146102765780636151b7cd1461029857806362e59cf7146102ca57806364cb4303146102df57806367644a811461030c5780637b9fc9591461032c5780637fc08cc61461035d5780638aa08e1d1461038d578063ab0cca85146103a2578063b675e5d7146103cf578063b6b1289d14610400578063bed34bba14610415578063c249bf7e14610435578063c9573f931461044a578063fa968cdc1461046a575b600080fd5b34801561014357600080fd5b5061014c61048a565b60405161015991906119ab565b60405180910390f35b34801561016e57600080fd5b5061014c61017d366004611682565b610490565b34801561018e57600080fd5b506101a261019d366004611739565b6104e1565b604051610159919061198f565b3480156101bb57600080fd5b506101cf6101ca36600461178b565b6105c1565b6040516101599190611bff565b3480156101e857600080fd5b506101fc6101f736600461178b565b6106ce565b60405161015996959493929190611b7b565b34801561021a57600080fd5b5061014c6108a3565b34801561022f57600080fd5b5061014c61023e366004611682565b6108a9565b34801561024f57600080fd5b5061026361025e36600461178b565b6108bb565b6040516101599796959493929190611aa6565b34801561028257600080fd5b506102966102913660046116a8565b610a1f565b005b3480156102a457600080fd5b506102b86102b336600461178b565b610b1e565b60405161015996959493929190611a46565b3480156102d657600080fd5b5061014c610bf2565b3480156102eb57600080fd5b506102ff6102fa366004611682565b610bf8565b604051610159919061199d565b34801561031857600080fd5b506102ff610327366004611682565b610c0d565b34801561033857600080fd5b5061034c61034736600461178b565b610c2b565b6040516101599594939291906119fd565b34801561036957600080fd5b5061037d61037836600461178b565b610cf8565b60405161015994939291906119b9565b34801561039957600080fd5b5061014c610db6565b3480156103ae57600080fd5b506103c26103bd36600461178b565b610dbc565b6040516101599190611c10565b3480156103db57600080fd5b506103ef6103ea36600461178b565b610eef565b604051610159959493929190611b1b565b34801561040c57600080fd5b5061014c6110b8565b34801561042157600080fd5b506102ff6104303660046117a9565b6110be565b34801561044157600080fd5b5061014c6111a5565b34801561045657600080fd5b506102966104653660046116a8565b6111ab565b34801561047657600080fd5b506103c26104853660046117df565b61136d565b60065481565b600061049b82610c0d565b15156104c55760405160e560020a62461bcd0281526004016104bc90611bef565b60405180910390fd5b50600160a060020a03166000908152600f602052604090205490565b600080600080845160411415156104fe57600093505050506105bb565b50505060208201516040830151606084015160001a601b60ff8216101561052357601b015b8060ff16601b1415801561053b57508060ff16601c14155b1561054c57600093505050506105bb565b6040805160008152602080820180845289905260ff8416828401526060820186905260808201859052915160019260a0808401939192601f1981019281900390910190855afa1580156105a3573d6000803e3d6000fd5b5050506020604051035193505050506105bb565b5050505b92915050565b6105c96114b5565b600054600160a060020a031633146105f65760405160e560020a62461bcd0281526004016104bc90611bdf565b600082815260076020908152604091829020825160808101845281548152600180830154600160a060020a0316828501526002808401548387015260038401805487516101009482161594909402600019011691909104601f8101869004860283018601909652858252919492936060860193919291908301828280156106be5780601f10610693576101008083540402835291602001916106be565b820191906000526020600020905b8154815290600101906020018083116106a157829003601f168201915b5050505050815250509050919050565b600b602090815260009182526040918290208054600180830180548651600293821615610100026000190190911692909204601f81018690048602830186019096528582529194929390929083018282801561076b5780601f106107405761010080835404028352916020019161076b565b820191906000526020600020905b81548152906001019060200180831161074e57829003601f168201915b50505060028085018054604080516020601f60001961010060018716150201909416959095049283018590048502810185019091528181529596959450909250908301828280156107fd5780601f106107d2576101008083540402835291602001916107fd565b820191906000526020600020905b8154815290600101906020018083116107e057829003601f168201915b5050505060038301805460408051602060026001851615610100026000190190941693909304601f810184900484028201840190925281815294959493509083018282801561088d5780601f106108625761010080835404028352916020019161088d565b820191906000526020600020905b81548152906001019060200180831161087057829003601f168201915b5050505050908060040154908060050154905086565b60055481565b600e6020526000908152604090205481565b600a602052806000526040600020600091509050806000015490806001015490806002015490806003015490806004015490806005018054600181600116156101000203166002900480601f0160208091040260200160405190810160405280929190818152602001828054600181600116156101000203166002900480156109855780601f1061095a57610100808354040283529160200191610985565b820191906000526020600020905b81548152906001019060200180831161096857829003601f168201915b5050505060068301805460408051602060026001851615610100026000190190941693909304601f8101849004840282018401909252818152949594935090830182828015610a155780601f106109ea57610100808354040283529160200191610a15565b820191906000526020600020905b8154815290600101906020018083116109f857829003601f168201915b5050505050905087565b6000610a2b84846104e1565b600054909150600160a060020a03808316911614610a5e5760405160e560020a62461bcd0281526004016104bc90611bef565b60028054600190810180835560408051608081018252828152600160a060020a038a811660208084019182528385018c8152606085018b815260009788526007835295909620845181559151968201805473ffffffffffffffffffffffffffffffffffffffff191697909316969096179091559251948301949094555180519192610af1926003850192909101906114db565b505050600160a060020a039094166000908152600d60205260409020805460ff1916600117905550505050565b6009602052806000526040600020600091509050806000015490806001015490806002015490806003015490806004015490806005018054600181600116156101000203166002900480601f016020809104026020016040519081016040528092919081815260200182805460018160011615610100020316600290048015610be85780601f10610bbd57610100808354040283529160200191610be8565b820191906000526020600020905b815481529060010190602001808311610bcb57829003601f168201915b5050505050905086565b60035481565b600d6020526000908152604090205460ff1681565b600160a060020a03166000908152600d602052604090205460ff1690565b600860209081526000918252604091829020805460018083015460028085015460038601805489516101009682161596909602600019011692909204601f81018890048802850188019098528784529396600160a060020a0390921695939493909190830182828015610cdf5780601f10610cb457610100808354040283529160200191610cdf565b820191906000526020600020905b815481529060010190602001808311610cc257829003601f168201915b50505060049093015491925050600160a060020a031685565b600760209081526000918252604091829020805460018083015460028085015460038601805489516101009682161596909602600019011692909204601f81018890048802850188019098528784529396600160a060020a0390921695939493909190830182828015610dac5780601f10610d8157610100808354040283529160200191610dac565b820191906000526020600020905b815481529060010190602001808311610d8f57829003601f168201915b5050505050905084565b60045481565b610dc4611559565b610dcd33610c0d565b80610de25750600054600160a060020a031633145b1515610e035760405160e560020a62461bcd0281526004016104bc90611bef565b600082815260086020908152604091829020825160a08101845281548152600180830154600160a060020a0316828501526002808401548387015260038401805487516101009482161594909402600019011691909104601f810186900486028301860190965285825291949293606086019391929190830182828015610ecb5780601f10610ea057610100808354040283529160200191610ecb565b820191906000526020600020905b815481529060010190602001808311610eae57829003601f168201915b505050918352505060049190910154600160a060020a031660209091015292915050565b600c6020908152600091825260409182902080546001808301546002808501805488519481161561010002600019011691909104601f810187900487028401870190975286835292959094919291830182828015610f8e5780601f10610f6357610100808354040283529160200191610f8e565b820191906000526020600020905b815481529060010190602001808311610f7157829003601f168201915b5050505060038301805460408051602060026001851615610100026000190190941693909304601f810184900484028201840190925281815294959493509083018282801561101e5780601f10610ff35761010080835404028352916020019161101e565b820191906000526020600020905b81548152906001019060200180831161100157829003601f168201915b5050505060048301805460408051602060026001851615610100026000190190941693909304601f81018490048402820184019092528181529495949350908301828280156110ae5780601f10611083576101008083540402835291602001916110ae565b820191906000526020600020905b81548152906001019060200180831161109157829003601f168201915b5050505050905085565b60015481565b6000816040516020018082805190602001908083835b602083106110f35780518252601f1990920191602091820191016110d4565b6001836020036101000a03801982511681845116808217855250505050505090500191505060405160208183030381529060405280519060200120836040516020018082805190602001908083835b602083106111615780518252601f199092019160209182019101611142565b6001836020036101000a0380198251168184511680821785525050505050509050019150506040516020818303038152906040528051906020012014905092915050565b60025481565b60006111b784846104e1565b90506111c281610c0d565b15156111e35760405160e560020a62461bcd0281526004016104bc90611bef565b6001805481018082556040805160a081018252828152600160a060020a0389811660208084019182528385018b8152606085018a8152898516608087015260009788526008835295909620845181559151968201805473ffffffffffffffffffffffffffffffffffffffff191697909316969096179091559251600284015590518051919361127a926003850192909101906114db565b506080919091015160049091018054600160a060020a0392831673ffffffffffffffffffffffffffffffffffffffff19918216179091558282166000908152600f602090815260408083206001805485526008845291842081548084018084559286529390942084546005909402019283558382015483830180549096169616959095179093556002808301548183015560038084018054949593946113329492860193919281161561010002600019011604611586565b506004918201549101805473ffffffffffffffffffffffffffffffffffffffff1916600160a060020a03909216919091179055505050505050565b611375611559565b61137e82610c0d565b151561139f5760405160e560020a62461bcd0281526004016104bc90611bef565b600160a060020a0382166000908152600f602052604090208054849081106113c357fe5b60009182526020918290206040805160a08101825260059390930290910180548352600180820154600160a060020a0316848601526002808301548585015260038301805485516101009482161594909402600019011691909104601f810187900487028301870190945283825293949193606086019391929091908301828280156114905780601f1061146557610100808354040283529160200191611490565b820191906000526020600020905b81548152906001019060200180831161147357829003601f168201915b505050918352505060049190910154600160a060020a03166020909101529392505050565b604080516080810182526000808252602082018190529181019190915260608082015290565b828054600181600116156101000203166002900490600052602060002090601f016020900481019282601f1061151c57805160ff1916838001178555611549565b82800160010185558215611549579182015b8281111561154957825182559160200191906001019061152e565b506115559291506115fb565b5090565b6040805160a081018252600080825260208201819052918101829052606080820152608081019190915290565b828054600181600116156101000203166002900490600052602060002090601f016020900481019282601f106115bf5780548555611549565b8280016001018555821561154957600052602060002091601f016020900482015b828111156115495782548255916001019190600101906115e0565b61161591905b808211156115555760008155600101611601565b90565b60006116248235611c74565b9392505050565b60006116248235611615565b6000601f8201831361164857600080fd5b813561165b61165682611c48565b611c21565b9150808252602083016020830185838301111561167757600080fd5b6105b7838284611c90565b60006020828403121561169457600080fd5b60006116a08484611618565b949350505050565b600080600080608085870312156116be57600080fd5b60006116ca8787611618565b94505060206116db8782880161162b565b935050604085013567ffffffffffffffff8111156116f857600080fd5b61170487828801611637565b925050606085013567ffffffffffffffff81111561172157600080fd5b61172d87828801611637565b91505092959194509250565b6000806040838503121561174c57600080fd5b6000611758858561162b565b925050602083013567ffffffffffffffff81111561177557600080fd5b61178185828601611637565b9150509250929050565b60006020828403121561179d57600080fd5b60006116a0848461162b565b600080604083850312156117bc57600080fd5b823567ffffffffffffffff8111156117d357600080fd5b61175885828601611637565b600080604083850312156117f257600080fd5b60006117fe858561162b565b925050602061178185828601611618565b61181881611c74565b82525050565b61181881611c7f565b61181881611615565b600061183b82611c70565b80845261184f816020860160208601611c9c565b61185881611ccc565b9093016020019392505050565b601c81527f536f7272792c20796f7520617265206e6f20617574686f72697a656400000000602082015260400190565b601d81527f536f7272792c20796f7520617265206e6f7420617574686f72697a6564000000602082015260400190565b805160009060808401906118d98582611827565b5060208301516118ec602086018261180f565b5060408301516118ff6040860182611827565b50606083015184820360608601526119178282611830565b95945050505050565b805160009060a08401906119348582611827565b506020830151611947602086018261180f565b50604083015161195a6040860182611827565b50606083015184820360608601526119728282611830565b9150506080830151611987608086018261180f565b509392505050565b602081016105bb828461180f565b602081016105bb828461181e565b602081016105bb8284611827565b608081016119c78287611827565b6119d4602083018661180f565b6119e16040830185611827565b81810360608301526119f38184611830565b9695505050505050565b60a08101611a0b8288611827565b611a18602083018761180f565b611a256040830186611827565b8181036060830152611a378185611830565b90506119f3608083018461180f565b60c08101611a548289611827565b611a616020830188611827565b611a6e6040830187611827565b611a7b6060830186611827565b611a886080830185611827565b81810360a0830152611a9a8184611830565b98975050505050505050565b60e08101611ab4828a611827565b611ac16020830189611827565b611ace6040830188611827565b611adb6060830187611827565b611ae86080830186611827565b81810360a0830152611afa8185611830565b905081810360c0830152611b0e8184611830565b9998505050505050505050565b60a08101611b298288611827565b611b366020830187611827565b8181036040830152611b488186611830565b90508181036060830152611b5c8185611830565b90508181036080830152611b708184611830565b979650505050505050565b60c08101611b898289611827565b8181036020830152611b9b8188611830565b90508181036040830152611baf8187611830565b90508181036060830152611bc38186611830565b9050611bd26080830185611827565b611b7060a0830184611827565b602080825281016105bb81611865565b602080825281016105bb81611895565b6020808252810161162481846118c5565b602080825281016116248184611920565b60405181810167ffffffffffffffff81118282101715611c4057600080fd5b604052919050565b600067ffffffffffffffff821115611c5f57600080fd5b506020601f91909101601f19160190565b5190565b60006105bb82611c84565b151590565b600160a060020a031690565b82818337506000910152565b60005b83811015611cb7578181015183820152602001611c9f565b83811115611cc6576000848401525b50505050565b601f01601f19169056fea265627a7a723058209e26ae2c53f1693125b5db59c4208613becb87f40439fdb22016a994c58d1c5e6c6578706572696d656e74616cf50037",
  "source": "pragma solidity ^0.5.0;\npragma experimental ABIEncoderV2;\n\n// Creating a regular visit --> creates a prescription --> creates medicines\n// Address = public key\n// Only 1 admin\n\n/******************* ROLES OF ADMINS ********************/\n// Admin can add clinics\n\n/******************* ROLES OF CLINICS ********************/\n// Clinics can add patients\n\ncontract EHR {\n    address systemAdmin;\n\n    int256 public patientsCount = 0;\n    int256 public clinicsCount = 0;\n    int256 public regularVisitsCount = 0;\n    int256 public labVisitsCount = 0;\n    int256 public prescriptionsCount = 0;\n    int256 public medicinesCount = 0;\n\n    mapping(int256 => Clinic) public clinics;\n    mapping(int256 => Patient) public patients;\n    mapping(int256 => RegularVisit) public regularVisits;\n    mapping(int256 => LabVisit) public labVisits;\n    mapping(int256 => Prescription) public prescriptions;\n    mapping(int256 => Medicine) public medicines;\n\n    mapping(address => bool) public availableClinics;\n    mapping(address => int256) public mapClinicAddressToID;\n    mapping(address => Patient[]) clinicPatients; //clinic ID -> patients\n\n    enum VisitTypes {\n        periodicCheckup,\n        caseManagement,\n        complain\n    }\n\n    struct Clinic {\n        int256 clinicID;\n        address clinicAddress;\n        bytes32 hashMessage;\n        string data;\n    }\n\n    struct Patient {\n        int256 patientID;\n        address patientAddress;\n        bytes32 hashMessage;\n        string data;\n        address addedBy;\n    }\n\n    struct RegularVisit {\n        int256 regularVisitID;\n        int256 patientID;\n        int256 clinicID;\n        int256 visitHeartRate;\n        int256 visitTemperature;\n        string diagnosis;\n        // VisitTypes visitType;\n    }\n\n    struct LabVisit {\n        int256 labVisitID;\n        int256 patientID;\n        int256 clinicID;\n        int256 visitHeartRate;\n        int256 visitTemperature;\n        string testType;\n        string testResult;\n    }\n\n    struct Prescription {\n        int256 regularVisitID;\n        string referral;\n        string followUp;\n        string lab;\n        int256 numberOfMedicines;\n        int256 medicineOffset;\n    }\n\n    struct Medicine {\n        int256 medicineId;\n        int256 regularVisitID;\n        string name;\n        string dose;\n        string period;\n    }\n\n    constructor() public {\n        systemAdmin = msg.sender;\n    }\n\n    function createClinic(\n        address _clinicAddress,\n        bytes32 _hash,\n        bytes memory _signature,\n        string memory _data\n    ) public {\n        // string memory hashedMessage\n        // string memory hashedRes = string(\n        //     abi.encodePacked(_signature, systemAdmin)\n        // );\n        // require(\n        //     compareStrings(hashedRes, hashedMessage),\n        //     \"Sorry, digest message is different\"\n        // );\n\n        address recoveredAddress = recover(_hash, _signature);\n        require(\n            recoveredAddress == systemAdmin,\n            \"Sorry, you are not authorized\"\n        );\n\n        clinicsCount++;\n        clinics[clinicsCount] = Clinic(\n            clinicsCount,\n            _clinicAddress,\n            _hash,\n            _data\n        );\n\n        availableClinics[_clinicAddress] = true;\n        // mapClinicAddressToID[_clinicAddress] = clinicsCount;\n        // clinicPatients[_clinicAddress] = [];\n    }\n\n    function getClinic(int256 _id) public view returns (Clinic memory) {\n        require(msg.sender == systemAdmin, \"Sorry, you are no authorized\");\n        return clinics[_id];\n    }\n\n    function createPatient(\n        address _patientAddress,\n        bytes32 _hash,\n        bytes memory _signature,\n        string memory _data\n    ) public {\n        address recoveredAddress = recover(_hash, _signature);\n        require(isClinic(recoveredAddress), \"Sorry, you are not authorized\");\n\n        patientsCount++;\n        patients[patientsCount] = Patient(\n            patientsCount,\n            _patientAddress,\n            _hash,\n            _data,\n            recoveredAddress\n        );\n\n        clinicPatients[recoveredAddress].push(patients[patientsCount]);\n    }\n\n    function getPatient(int256 _id) public view returns (Patient memory) {\n        require(\n            isClinic(msg.sender) || msg.sender == systemAdmin,\n            \"Sorry, you are not authorized\"\n        );\n        return patients[_id];\n    }\n\n    function getMyPatientsCount(address _sender) public view returns (uint256) {\n        require(isClinic(_sender), \"Sorry, you are not authorized\");\n        return clinicPatients[_sender].length;\n    }\n\n    function getMyPatients(uint256 _id, address _sender)\n        public\n        view\n        returns (Patient memory)\n    {\n        require(isClinic(_sender), \"Sorry, you are not authorized\");\n        return clinicPatients[_sender][_id];\n    }\n\n    // function createRegularVisit(\n    //     int256 _patientID,\n    //     int256 _clinicID,\n    //     int256 _visitHeartRate,\n    //     int256 _visitTemperature,\n    //     string memory _diagnosis,\n    //     VisitTypes _visitType,\n    //     string memory _referral,\n    //     string memory _followUp,\n    //     string memory _lab,\n    //     int256 _numberOfMedicines\n    // ) public {\n    //     // VisitTypes temp = VisitTypes.periodicCheckup;\n    //     // if (_visitType == 0) {\n    //     //     temp = VisitTypes.periodicCheckup;\n    //     // } else if (_visitType == 1) {\n    //     //     temp = VisitTypes.caseManagement;\n    //     // } else {\n    //     //     temp = VisitTypes.complain;\n    //     // }\n\n    //     patients[_patientID].numberOfRegularVisits =\n    //         patients[_patientID].numberOfRegularVisits +\n    //         1;\n\n    //     regularVisitsCount++;\n\n    //     regularVisits[regularVisitsCount] = RegularVisit(\n    //         regularVisitsCount,\n    //         _patientID,\n    //         _clinicID,\n    //         _visitHeartRate,\n    //         _visitTemperature,\n    //         _diagnosis,\n    //         _visitType\n    //     );\n\n    //     createPrescription(\n    //         regularVisitsCount,\n    //         _referral,\n    //         _followUp,\n    //         _lab,\n    //         _numberOfMedicines\n    //     );\n    // }\n\n    // function createLabVisit(\n    //     int256 _patientID,\n    //     int256 _clinicID,\n    //     int256 _visitHeartRate,\n    //     int256 _visitTemperature,\n    //     string memory _testType,\n    //     string memory _testResult\n    // ) public {\n    //     patients[_patientID].numberOfLabVisits =\n    //         patients[_patientID].numberOfLabVisits +\n    //         1;\n\n    //     labVisitsCount++;\n    //     labVisits[labVisitsCount] = LabVisit(\n    //         labVisitsCount,\n    //         _patientID,\n    //         _clinicID,\n    //         _visitHeartRate,\n    //         _visitTemperature,\n    //         _testType,\n    //         _testResult\n    //     );\n    // }\n\n    // function createPrescription(\n    //     int256 _regularVisitID,\n    //     string memory _referral,\n    //     string memory _followUp,\n    //     string memory _lab,\n    //     int256 _numberOfMedicines\n    // ) public {\n    //     prescriptionsCount++;\n    //     prescriptions[_regularVisitID] = Prescription(\n    //         _regularVisitID,\n    //         _referral,\n    //         _followUp,\n    //         _lab,\n    //         _numberOfMedicines,\n    //         medicinesCount\n    //     );\n    // }\n\n    // function createMedicine(\n    //     int256 _regularVisitID,\n    //     string memory _name,\n    //     string memory _dose,\n    //     string memory _period\n    // ) public {\n    //     medicinesCount++;\n    //     medicines[medicinesCount] = Medicine(\n    //         medicinesCount,\n    //         _regularVisitID,\n    //         _name,\n    //         _dose,\n    //         _period\n    //     );\n    // }\n\n    /**************************** HELPER FUNCTIONS *****************************/\n    function isClinic(address _a) public view returns (bool) {\n        return (availableClinics[_a]);\n    }\n\n    // function getClinicID(int256 _id) public view returns (Clinic memory) {\n    //     require(msg.sender == systemAdmin, \"Sorry, you are no authorized\");\n    //     return clinics[_id];\n    // }\n\n    function compareStrings(string memory a, string memory b)\n        public\n        pure\n        returns (bool)\n    {\n        return keccak256(abi.encodePacked(a)) == keccak256(abi.encodePacked(b));\n    }\n\n    /**\n     * Based upon ECDSA library from OpenZeppelin Solidity\n     * https://github.com/OpenZeppelin/openzeppelin-solidity/blob/master/contracts/cryptography/ECDSA.sol\n     */\n    function recover(bytes32 hash, bytes memory signature)\n        public\n        pure\n        returns (address)\n    {\n        bytes32 r;\n        bytes32 s;\n        uint8 v;\n\n        if (signature.length != 65) {\n            return (address(0));\n        }\n\n        assembly {\n            r := mload(add(signature, 0x20))\n            s := mload(add(signature, 0x40))\n            v := byte(0, mload(add(signature, 0x60)))\n        }\n\n        if (v < 27) {\n            v += 27;\n        }\n\n        if (v != 27 && v != 28) {\n            return (address(0));\n        } else {\n            return ecrecover(hash, v, r, s);\n        }\n    }\n}\n",
  "sourcePath": "/Users/sarah/GUC/Semester 10/Security/security-project/contracts/EHR.sol",
  "compiler": {
    "name": "solc",
    "version": "0.5.0+commit.1d4f565a.Emscripten.clang"
  },
  "schemaVersion": "3.0.1",
  "updatedAt": "2022-06-10T21:09:37.141Z",
  "devdoc": {
    "methods": {}
  },
  "userdoc": {
    "methods": {
      "isClinic(address)": {
        "notice": "************************** HELPER FUNCTIONS ****************************"
      },
      "recover(bytes32,bytes)": {
        "notice": "Based upon ECDSA library from OpenZeppelin Solidity https://github.com/OpenZeppelin/openzeppelin-solidity/blob/master/contracts/cryptography/ECDSA.sol"
      }
    },
    "notice": "***************** ROLES OF CLINICS *******************"
  }
}