{
  "contractName": "EHR",
  "abi": [
    {
      "constant": true,
      "inputs": [],
      "name": "regularVisitsCount",
      "outputs": [
        {
          "name": "",
          "type": "int256"
        }
      ],
      "payable": false,
      "stateMutability": "view",
      "type": "function",
      "signature": "0x62e59cf7"
    },
    {
      "constant": true,
      "inputs": [
        {
          "name": "",
          "type": "int256"
        }
      ],
      "name": "clinics",
      "outputs": [
        {
          "name": "clinicID",
          "type": "int256"
        },
        {
          "name": "location",
          "type": "string"
        },
        {
          "name": "numberOfPatients",
          "type": "int256"
        }
      ],
      "payable": false,
      "stateMutability": "view",
      "type": "function",
      "signature": "0x7fc08cc6"
    },
    {
      "constant": true,
      "inputs": [],
      "name": "labVisitsCount",
      "outputs": [
        {
          "name": "",
          "type": "int256"
        }
      ],
      "payable": false,
      "stateMutability": "view",
      "type": "function",
      "signature": "0x8aa08e1d"
    },
    {
      "constant": true,
      "inputs": [],
      "name": "patientsCount",
      "outputs": [
        {
          "name": "",
          "type": "int256"
        }
      ],
      "payable": false,
      "stateMutability": "view",
      "type": "function",
      "signature": "0xb6b1289d"
    },
    {
      "constant": true,
      "inputs": [],
      "name": "clinicsCount",
      "outputs": [
        {
          "name": "",
          "type": "int256"
        }
      ],
      "payable": false,
      "stateMutability": "view",
      "type": "function",
      "signature": "0xc249bf7e"
    },
    {
      "inputs": [],
      "payable": false,
      "stateMutability": "nonpayable",
      "type": "constructor",
      "signature": "constructor"
    },
    {
      "constant": false,
      "inputs": [
        {
          "name": "_location",
          "type": "string"
        }
      ],
      "name": "createClinic",
      "outputs": [],
      "payable": false,
      "stateMutability": "nonpayable",
      "type": "function",
      "signature": "0xff779a09"
    }
  ],
  "bytecode": "0x60806040526000805560006001556000600255600060035534801561002357600080fd5b5060408051808201909152600581527f4567797074000000000000000000000000000000000000000000000000000000602082015261006a9064010000000061006f810204565b610198565b600180548101905561007f6100db565b50604080516060810182526001805480835260208084018681526000858701819052928352600482529490912083518155935180519394859490936100c9939085019201906100fd565b50604082015181600201559050505050565b6060604051908101604052806000815260200160608152602001600081525090565b828054600181600116156101000203166002900490600052602060002090601f016020900481019282601f1061013e57805160ff191683800117855561016b565b8280016001018555821561016b579182015b8281111561016b578251825591602001919060010190610150565b5061017792915061017b565b5090565b61019591905b808211156101775760008155600101610181565b90565b610461806101a76000396000f3fe6080604052600436106100775763ffffffff7c010000000000000000000000000000000000000000000000000000000060003504166362e59cf7811461007c5780637fc08cc6146100a35780638aa08e1d14610153578063b6b1289d14610168578063c249bf7e1461017d578063ff779a0914610192575b600080fd5b34801561008857600080fd5b50610091610247565b60408051918252519081900360200190f35b3480156100af57600080fd5b506100cd600480360360208110156100c657600080fd5b503561024d565b6040518084815260200180602001838152602001828103825284818151815260200191508051906020019080838360005b838110156101165781810151838201526020016100fe565b50505050905090810190601f1680156101435780820380516001836020036101000a031916815260200191505b5094505050505060405180910390f35b34801561015f57600080fd5b506100916102fa565b34801561017457600080fd5b50610091610300565b34801561018957600080fd5b50610091610306565b34801561019e57600080fd5b50610245600480360360208110156101b557600080fd5b8101906020810181356401000000008111156101d057600080fd5b8201836020820111156101e257600080fd5b8035906020019184600183028401116401000000008311171561020457600080fd5b91908080601f01602080910402602001604051908101604052809392919081815260200183838082843760009201919091525092955061030c945050505050565b005b60025481565b6004602090815260009182526040918290208054600180830180548651600293821615610100026000190190911692909204601f8101869004860283018601909652858252919492939092908301828280156102ea5780601f106102bf576101008083540402835291602001916102ea565b820191906000526020600020905b8154815290600101906020018083116102cd57829003601f168201915b5050505050908060020154905083565b60035481565b60005481565b60015481565b600180548101905561031c610378565b50604080516060810182526001805480835260208084018681526000858701819052928352600482529490912083518155935180519394859490936103669390850192019061039a565b50604082015181600201559050505050565b6060604051908101604052806000815260200160608152602001600081525090565b828054600181600116156101000203166002900490600052602060002090601f016020900481019282601f106103db57805160ff1916838001178555610408565b82800160010185558215610408579182015b828111156104085782518255916020019190600101906103ed565b50610414929150610418565b5090565b61043291905b80821115610414576000815560010161041e565b9056fea165627a7a72305820738a0896e216bea4e6669d3b6940e0393b7bc95af909eaf6a56ea74fd76f5d130029",
  "source": "pragma solidity ^0.5.0;\n\ncontract EHR {\n    enum VisitTypes {\n        periodicCheckup,\n        caseManagement,\n        complain\n    }\n\n    int256 public patientsCount = 0;\n    int256 public clinicsCount = 0;\n    int256 public regularVisitsCount = 0;\n    int256 public labVisitsCount = 0;\n\n    struct Clinic {\n        int256 clinicID;\n        string location;\n        int256 numberOfPatients;\n        // Patient[] patients;\n        mapping(uint256 => Patient) patients;\n    }\n\n    struct Patient {\n        int256 patientID;\n        string name;\n        int256 age;\n        int256 weight;\n        int256 height;\n        string gender;\n        string initialBloodPressure;\n        string initialHeartRate;\n        string initialTemperature;\n        int256 regularVisitCounts;\n        int256 labVisitsCount;\n        int256 numberOfRegularVisits;\n        int256 numberOfLabVisits;\n        mapping(uint256 => RegularVisit) regularVisits;\n        mapping(uint256 => LabVisit) labVisits;\n    }\n\n    struct RegularVisit {\n        int256 regularVisitID;\n        int256 visitBloodPressure;\n        int256 visitHeartRate;\n        int256 visitTemperature;\n        string diagnosis;\n        VisitTypes visitType;\n        Prescription prescription;\n    }\n\n    struct LabVisit {\n        int256 labVisitID;\n        int256 visitBloodPressure;\n        int256 visitHeartRate;\n        int256 visitTemperature;\n        string testType;\n        string testResult;\n    }\n\n    struct Prescription {\n        string referral;\n        string followUp;\n        string lab;\n        int256 numberOfMedicines;\n        mapping(uint256 => Medicine) medicines;\n    }\n\n    struct Medicine {\n        string name;\n        string dose;\n        string period;\n    }\n\n    mapping(int256 => Clinic) public clinics;\n\n    constructor() public {\n        createClinic(\"Egypt\");\n    }\n\n    // mapping(uint => Patient) public patients;\n    // mapping(uint => RegularVisit) public regularVisits;\n    // mapping(uint => LabVisit) public labVisits;\n\n    function createClinic(string memory _location) public {\n        clinicsCount++;\n        // Patient[] memory emptyPatients;\n        Clinic memory _clinic = Clinic(\n            clinicsCount,\n            _location,\n            0\n            // emptyPatients\n        );\n\n        clinics[clinicsCount] = _clinic;\n    }\n}\n",
  "sourcePath": "/Users/sarah/GUC/Semester 10/Security/security-project/contracts/EHR.sol",
  "compiler": {
    "name": "solc",
    "version": "0.5.0+commit.1d4f565a.Emscripten.clang"
  },
  "schemaVersion": "3.0.1",
  "updatedAt": "2022-06-07T21:29:13.710Z",
  "devdoc": {
    "methods": {}
  },
  "userdoc": {
    "methods": {}
  }
}