{
  "contractName": "EHR",
  "abi": [
    {
      "constant": true,
      "inputs": [],
      "name": "medicinesCount",
      "outputs": [
        {
          "name": "",
          "type": "int256"
        }
      ],
      "payable": false,
      "stateMutability": "view",
      "type": "function",
      "signature": "0x0496649a"
    },
    {
      "constant": true,
      "inputs": [
        {
          "name": "",
          "type": "int256"
        }
      ],
      "name": "prescriptions",
      "outputs": [
        {
          "name": "regularVisitID",
          "type": "int256"
        },
        {
          "name": "referral",
          "type": "string"
        },
        {
          "name": "followUp",
          "type": "string"
        },
        {
          "name": "lab",
          "type": "string"
        },
        {
          "name": "numberOfMedicines",
          "type": "int256"
        },
        {
          "name": "medicineOffset",
          "type": "int256"
        }
      ],
      "payable": false,
      "stateMutability": "view",
      "type": "function",
      "signature": "0x2c5e6460"
    },
    {
      "constant": true,
      "inputs": [],
      "name": "prescriptionsCount",
      "outputs": [
        {
          "name": "",
          "type": "int256"
        }
      ],
      "payable": false,
      "stateMutability": "view",
      "type": "function",
      "signature": "0x39aaa6e8"
    },
    {
      "constant": true,
      "inputs": [
        {
          "name": "",
          "type": "int256"
        }
      ],
      "name": "labVisits",
      "outputs": [
        {
          "name": "labVisitID",
          "type": "int256"
        },
        {
          "name": "patientID",
          "type": "int256"
        },
        {
          "name": "clinicID",
          "type": "int256"
        },
        {
          "name": "visitHeartRate",
          "type": "int256"
        },
        {
          "name": "visitTemperature",
          "type": "int256"
        },
        {
          "name": "testType",
          "type": "string"
        },
        {
          "name": "testResult",
          "type": "string"
        }
      ],
      "payable": false,
      "stateMutability": "view",
      "type": "function",
      "signature": "0x3e2bd0c2"
    },
    {
      "constant": true,
      "inputs": [
        {
          "name": "",
          "type": "int256"
        }
      ],
      "name": "regularVisits",
      "outputs": [
        {
          "name": "regularVisitID",
          "type": "int256"
        },
        {
          "name": "patientID",
          "type": "int256"
        },
        {
          "name": "clinicID",
          "type": "int256"
        },
        {
          "name": "visitHeartRate",
          "type": "int256"
        },
        {
          "name": "visitTemperature",
          "type": "int256"
        },
        {
          "name": "diagnosis",
          "type": "string"
        }
      ],
      "payable": false,
      "stateMutability": "view",
      "type": "function",
      "signature": "0x6151b7cd"
    },
    {
      "constant": true,
      "inputs": [],
      "name": "regularVisitsCount",
      "outputs": [
        {
          "name": "",
          "type": "int256"
        }
      ],
      "payable": false,
      "stateMutability": "view",
      "type": "function",
      "signature": "0x62e59cf7"
    },
    {
      "constant": true,
      "inputs": [
        {
          "name": "",
          "type": "int256"
        }
      ],
      "name": "patients",
      "outputs": [
        {
          "name": "patientID",
          "type": "int256"
        },
        {
          "name": "patientAddress",
          "type": "address"
        },
        {
          "name": "hashMessage",
          "type": "bytes32"
        },
        {
          "name": "data",
          "type": "string"
        }
      ],
      "payable": false,
      "stateMutability": "view",
      "type": "function",
      "signature": "0x7b9fc959"
    },
    {
      "constant": true,
      "inputs": [
        {
          "name": "",
          "type": "int256"
        }
      ],
      "name": "clinics",
      "outputs": [
        {
          "name": "clinicID",
          "type": "int256"
        },
        {
          "name": "clinicAddress",
          "type": "address"
        },
        {
          "name": "hashMessage",
          "type": "bytes32"
        },
        {
          "name": "data",
          "type": "string"
        }
      ],
      "payable": false,
      "stateMutability": "view",
      "type": "function",
      "signature": "0x7fc08cc6"
    },
    {
      "constant": true,
      "inputs": [],
      "name": "labVisitsCount",
      "outputs": [
        {
          "name": "",
          "type": "int256"
        }
      ],
      "payable": false,
      "stateMutability": "view",
      "type": "function",
      "signature": "0x8aa08e1d"
    },
    {
      "constant": true,
      "inputs": [
        {
          "name": "",
          "type": "int256"
        }
      ],
      "name": "medicines",
      "outputs": [
        {
          "name": "medicineId",
          "type": "int256"
        },
        {
          "name": "regularVisitID",
          "type": "int256"
        },
        {
          "name": "name",
          "type": "string"
        },
        {
          "name": "dose",
          "type": "string"
        },
        {
          "name": "period",
          "type": "string"
        }
      ],
      "payable": false,
      "stateMutability": "view",
      "type": "function",
      "signature": "0xb675e5d7"
    },
    {
      "constant": true,
      "inputs": [],
      "name": "patientsCount",
      "outputs": [
        {
          "name": "",
          "type": "int256"
        }
      ],
      "payable": false,
      "stateMutability": "view",
      "type": "function",
      "signature": "0xb6b1289d"
    },
    {
      "constant": true,
      "inputs": [],
      "name": "clinicsCount",
      "outputs": [
        {
          "name": "",
          "type": "int256"
        }
      ],
      "payable": false,
      "stateMutability": "view",
      "type": "function",
      "signature": "0xc249bf7e"
    },
    {
      "inputs": [],
      "payable": false,
      "stateMutability": "nonpayable",
      "type": "constructor",
      "signature": "constructor"
    },
    {
      "constant": false,
      "inputs": [
        {
          "name": "_clinicAddress",
          "type": "address"
        },
        {
          "name": "_hash",
          "type": "bytes32"
        },
        {
          "name": "_signature",
          "type": "bytes"
        },
        {
          "name": "_data",
          "type": "string"
        }
      ],
      "name": "createClinic",
      "outputs": [],
      "payable": false,
      "stateMutability": "nonpayable",
      "type": "function",
      "signature": "0x5bad2e54"
    },
    {
      "constant": true,
      "inputs": [
        {
          "name": "_id",
          "type": "int256"
        }
      ],
      "name": "getClinic",
      "outputs": [
        {
          "components": [
            {
              "name": "clinicID",
              "type": "int256"
            },
            {
              "name": "clinicAddress",
              "type": "address"
            },
            {
              "name": "hashMessage",
              "type": "bytes32"
            },
            {
              "name": "data",
              "type": "string"
            }
          ],
          "name": "",
          "type": "tuple"
        }
      ],
      "payable": false,
      "stateMutability": "view",
      "type": "function",
      "signature": "0x29fee749"
    },
    {
      "constant": false,
      "inputs": [
        {
          "name": "_patientAddress",
          "type": "address"
        },
        {
          "name": "_hash",
          "type": "bytes32"
        },
        {
          "name": "_signature",
          "type": "bytes"
        },
        {
          "name": "_data",
          "type": "string"
        }
      ],
      "name": "createPatient",
      "outputs": [],
      "payable": false,
      "stateMutability": "nonpayable",
      "type": "function",
      "signature": "0xc9573f93"
    },
    {
      "constant": true,
      "inputs": [
        {
          "name": "_a",
          "type": "address"
        }
      ],
      "name": "isClinic",
      "outputs": [
        {
          "name": "",
          "type": "bool"
        }
      ],
      "payable": false,
      "stateMutability": "view",
      "type": "function",
      "signature": "0x67644a81"
    },
    {
      "constant": true,
      "inputs": [
        {
          "name": "a",
          "type": "string"
        },
        {
          "name": "b",
          "type": "string"
        }
      ],
      "name": "compareStrings",
      "outputs": [
        {
          "name": "",
          "type": "bool"
        }
      ],
      "payable": false,
      "stateMutability": "pure",
      "type": "function",
      "signature": "0xbed34bba"
    },
    {
      "constant": true,
      "inputs": [
        {
          "name": "hash",
          "type": "bytes32"
        },
        {
          "name": "signature",
          "type": "bytes"
        }
      ],
      "name": "recover",
      "outputs": [
        {
          "name": "",
          "type": "address"
        }
      ],
      "payable": false,
      "stateMutability": "pure",
      "type": "function",
      "signature": "0x19045a25"
    }
  ],
  "bytecode": "0x608060405260006001556000600255600060035560006004556000600555600060065534801561002e57600080fd5b5060008054600160a060020a031916331790556116a6806100506000396000f3fe6080604052600436106100fb5763ffffffff7c01000000000000000000000000000000000000000000000000000000006000350416630496649a811461010057806319045a251461012b57806329fee749146101585780632c5e64601461018557806339aaa6e8146101b75780633e2bd0c2146101cc5780635bad2e54146101ff5780636151b7cd1461022157806362e59cf71461025357806367644a81146102685780637b9fc959146102955780637fc08cc6146102c55780638aa08e1d146102e5578063b675e5d7146102fa578063b6b1289d1461032b578063bed34bba14610340578063c249bf7e14610360578063c9573f9314610375575b600080fd5b34801561010c57600080fd5b50610115610395565b604051610122919061139b565b60405180910390f35b34801561013757600080fd5b5061014b6101463660046111c8565b61039b565b604051610122919061137f565b34801561016457600080fd5b5061017861017336600461121a565b61047b565b60405161012291906115a6565b34801561019157600080fd5b506101a56101a036600461121a565b6105a8565b60405161012296959493929190611522565b3480156101c357600080fd5b5061011561077d565b3480156101d857600080fd5b506101ec6101e736600461121a565b610783565b604051610122979695949392919061144d565b34801561020b57600080fd5b5061021f61021a366004611137565b6108e7565b005b34801561022d57600080fd5b5061024161023c36600461121a565b6109fd565b604051610122969594939291906113ed565b34801561025f57600080fd5b50610115610ad1565b34801561027457600080fd5b50610288610283366004611111565b610ad7565b604051610122919061138d565b3480156102a157600080fd5b506102b56102b036600461121a565b610af5565b60405161012294939291906113a9565b3480156102d157600080fd5b506102b56102e036600461121a565b610bb3565b3480156102f157600080fd5b50610115610c3c565b34801561030657600080fd5b5061031a61031536600461121a565b610c42565b6040516101229594939291906114c2565b34801561033757600080fd5b50610115610e0b565b34801561034c57600080fd5b5061028861035b366004611238565b610e11565b34801561036c57600080fd5b50610115610ef8565b34801561038157600080fd5b5061021f610390366004611137565b610efe565b60065481565b600080600080845160411415156103b85760009350505050610475565b50505060208201516040830151606084015160001a601b60ff821610156103dd57601b015b8060ff16601b141580156103f557508060ff16601c14155b156104065760009350505050610475565b6040805160008152602080820180845289905260ff8416828401526060820186905260808201859052915160019260a0808401939192601f1981019281900390910190855afa15801561045d573d6000803e3d6000fd5b505050602060405103519350505050610475565b5050505b92915050565b610483610fe6565b600054600160a060020a031633146104d0576040517f08c379a00000000000000000000000000000000000000000000000000000000081526004016104c790611586565b60405180910390fd5b600082815260076020908152604091829020825160808101845281548152600180830154600160a060020a0316828501526002808401548387015260038401805487516101009482161594909402600019011691909104601f8101869004860283018601909652858252919492936060860193919291908301828280156105985780601f1061056d57610100808354040283529160200191610598565b820191906000526020600020905b81548152906001019060200180831161057b57829003601f168201915b5050505050815250509050919050565b600b602090815260009182526040918290208054600180830180548651600293821615610100026000190190911692909204601f8101869004860283018601909652858252919492939092908301828280156106455780601f1061061a57610100808354040283529160200191610645565b820191906000526020600020905b81548152906001019060200180831161062857829003601f168201915b50505060028085018054604080516020601f60001961010060018716150201909416959095049283018590048502810185019091528181529596959450909250908301828280156106d75780601f106106ac576101008083540402835291602001916106d7565b820191906000526020600020905b8154815290600101906020018083116106ba57829003601f168201915b5050505060038301805460408051602060026001851615610100026000190190941693909304601f81018490048402820184019092528181529495949350908301828280156107675780601f1061073c57610100808354040283529160200191610767565b820191906000526020600020905b81548152906001019060200180831161074a57829003601f168201915b5050505050908060040154908060050154905086565b60055481565b600a602052806000526040600020600091509050806000015490806001015490806002015490806003015490806004015490806005018054600181600116156101000203166002900480601f01602080910402602001604051908101604052809291908181526020018280546001816001161561010002031660029004801561084d5780601f106108225761010080835404028352916020019161084d565b820191906000526020600020905b81548152906001019060200180831161083057829003601f168201915b5050505060068301805460408051602060026001851615610100026000190190941693909304601f81018490048402820184019092528181529495949350908301828280156108dd5780601f106108b2576101008083540402835291602001916108dd565b820191906000526020600020905b8154815290600101906020018083116108c057829003601f168201915b5050505050905087565b60006108f3848461039b565b600054909150600160a060020a0380831691161461093d576040517f08c379a00000000000000000000000000000000000000000000000000000000081526004016104c790611596565b60028054600190810180835560408051608081018252828152600160a060020a038a811660208084019182528385018c8152606085018b815260009788526007835295909620845181559151968201805473ffffffffffffffffffffffffffffffffffffffff1916979093169690961790915592519483019490945551805191926109d09260038501929091019061100c565b505050600160a060020a039094166000908152600d60205260409020805460ff1916600117905550505050565b6009602052806000526040600020600091509050806000015490806001015490806002015490806003015490806004015490806005018054600181600116156101000203166002900480601f016020809104026020016040519081016040528092919081815260200182805460018160011615610100020316600290048015610ac75780601f10610a9c57610100808354040283529160200191610ac7565b820191906000526020600020905b815481529060010190602001808311610aaa57829003601f168201915b5050505050905086565b60035481565b600160a060020a03166000908152600d602052604090205460ff1690565b600860209081526000918252604091829020805460018083015460028085015460038601805489516101009682161596909602600019011692909204601f81018890048802850188019098528784529396600160a060020a0390921695939493909190830182828015610ba95780601f10610b7e57610100808354040283529160200191610ba9565b820191906000526020600020905b815481529060010190602001808311610b8c57829003601f168201915b5050505050905084565b600760209081526000918252604091829020805460018083015460028085015460038601805489516101009682161596909602600019011692909204601f81018890048802850188019098528784529396600160a060020a0390921695939493909190830182828015610ba95780601f10610b7e57610100808354040283529160200191610ba9565b60045481565b600c6020908152600091825260409182902080546001808301546002808501805488519481161561010002600019011691909104601f810187900487028401870190975286835292959094919291830182828015610ce15780601f10610cb657610100808354040283529160200191610ce1565b820191906000526020600020905b815481529060010190602001808311610cc457829003601f168201915b5050505060038301805460408051602060026001851615610100026000190190941693909304601f8101849004840282018401909252818152949594935090830182828015610d715780601f10610d4657610100808354040283529160200191610d71565b820191906000526020600020905b815481529060010190602001808311610d5457829003601f168201915b5050505060048301805460408051602060026001851615610100026000190190941693909304601f8101849004840282018401909252818152949594935090830182828015610e015780601f10610dd657610100808354040283529160200191610e01565b820191906000526020600020905b815481529060010190602001808311610de457829003601f168201915b5050505050905085565b60015481565b6000816040516020018082805190602001908083835b60208310610e465780518252601f199092019160209182019101610e27565b6001836020036101000a03801982511681845116808217855250505050505090500191505060405160208183030381529060405280519060200120836040516020018082805190602001908083835b60208310610eb45780518252601f199092019160209182019101610e95565b6001836020036101000a0380198251168184511680821785525050505050509050019150506040516020818303038152906040528051906020012014905092915050565b60025481565b6000610f0a848461039b565b9050610f1581610ad7565b1515610f4d576040517f08c379a00000000000000000000000000000000000000000000000000000000081526004016104c790611596565b60018054810180825560408051608081018252828152600160a060020a0389811660208084019182528385018b8152606085018a815260009788526008835295909620845181559151968201805473ffffffffffffffffffffffffffffffffffffffff1916979093169690961790915592516002840155905180519193610fdc9260038501929091019061100c565b5050505050505050565b604080516080810182526000808252602082018190529181019190915260608082015290565b828054600181600116156101000203166002900490600052602060002090601f016020900481019282601f1061104d57805160ff191683800117855561107a565b8280016001018555821561107a579182015b8281111561107a57825182559160200191906001019061105f565b5061108692915061108a565b5090565b6110a491905b808211156110865760008155600101611090565b90565b60006110b3823561160a565b9392505050565b60006110b382356110a4565b6000601f820183136110d757600080fd5b81356110ea6110e5826115de565b6115b7565b9150808252602083016020830185838301111561110657600080fd5b610471838284611626565b60006020828403121561112357600080fd5b600061112f84846110a7565b949350505050565b6000806000806080858703121561114d57600080fd5b600061115987876110a7565b945050602061116a878288016110ba565b935050604085013567ffffffffffffffff81111561118757600080fd5b611193878288016110c6565b925050606085013567ffffffffffffffff8111156111b057600080fd5b6111bc878288016110c6565b91505092959194509250565b600080604083850312156111db57600080fd5b60006111e785856110ba565b925050602083013567ffffffffffffffff81111561120457600080fd5b611210858286016110c6565b9150509250929050565b60006020828403121561122c57600080fd5b600061112f84846110ba565b6000806040838503121561124b57600080fd5b823567ffffffffffffffff81111561126257600080fd5b6111e7858286016110c6565b6112778161160a565b82525050565b61127781611615565b611277816110a4565b600061129a82611606565b8084526112ae816020860160208601611632565b6112b781611662565b9093016020019392505050565b601c81527f536f7272792c20796f7520617265206e6f20617574686f72697a656400000000602082015260400190565b601d81527f536f7272792c20796f7520617265206e6f7420617574686f72697a6564000000602082015260400190565b805160009060808401906113388582611286565b50602083015161134b602086018261126e565b50604083015161135e6040860182611286565b5060608301518482036060860152611376828261128f565b95945050505050565b60208101610475828461126e565b60208101610475828461127d565b602081016104758284611286565b608081016113b78287611286565b6113c4602083018661126e565b6113d16040830185611286565b81810360608301526113e3818461128f565b9695505050505050565b60c081016113fb8289611286565b6114086020830188611286565b6114156040830187611286565b6114226060830186611286565b61142f6080830185611286565b81810360a0830152611441818461128f565b98975050505050505050565b60e0810161145b828a611286565b6114686020830189611286565b6114756040830188611286565b6114826060830187611286565b61148f6080830186611286565b81810360a08301526114a1818561128f565b905081810360c08301526114b5818461128f565b9998505050505050505050565b60a081016114d08288611286565b6114dd6020830187611286565b81810360408301526114ef818661128f565b90508181036060830152611503818561128f565b90508181036080830152611517818461128f565b979650505050505050565b60c081016115308289611286565b8181036020830152611542818861128f565b90508181036040830152611556818761128f565b9050818103606083015261156a818661128f565b90506115796080830185611286565b61151760a0830184611286565b60208082528101610475816112c4565b60208082528101610475816112f4565b602080825281016110b38184611324565b60405181810167ffffffffffffffff811182821017156115d657600080fd5b604052919050565b600067ffffffffffffffff8211156115f557600080fd5b506020601f91909101601f19160190565b5190565b60006104758261161a565b151590565b600160a060020a031690565b82818337506000910152565b60005b8381101561164d578181015183820152602001611635565b8381111561165c576000848401525b50505050565b601f01601f19169056fea265627a7a7230582053b3f80655f92caa9295e15455280dee6eeb5f97c3ae9520e6cef335ca7547326c6578706572696d656e74616cf50037",
  "source": "pragma solidity ^0.5.0;\npragma experimental ABIEncoderV2;\n\n// Creating a regular visit --> creates a prescription --> creates medicines\n// Address = public key\n// Only 1 admin\n\n/******************* ROLES OF ADMINS ********************/\n// Admin can add clinics\n\n/******************* ROLES OF CLINICS ********************/\n// Clinics can add patients\n\ncontract EHR {\n    address systemAdmin;\n\n    int256 public patientsCount = 0;\n    int256 public clinicsCount = 0;\n    int256 public regularVisitsCount = 0;\n    int256 public labVisitsCount = 0;\n    int256 public prescriptionsCount = 0;\n    int256 public medicinesCount = 0;\n\n    mapping(int256 => Clinic) public clinics;\n    mapping(int256 => Patient) public patients;\n    mapping(int256 => RegularVisit) public regularVisits;\n    mapping(int256 => LabVisit) public labVisits;\n    mapping(int256 => Prescription) public prescriptions;\n    mapping(int256 => Medicine) public medicines;\n\n    mapping(address => bool) availableClinics;\n\n    enum VisitTypes {\n        periodicCheckup,\n        caseManagement,\n        complain\n    }\n\n    struct Clinic {\n        int256 clinicID;\n        address clinicAddress;\n        bytes32 hashMessage;\n        string data;\n    }\n\n    struct Patient {\n        int256 patientID;\n        address patientAddress;\n        bytes32 hashMessage;\n        string data;\n    }\n\n    struct RegularVisit {\n        int256 regularVisitID;\n        int256 patientID;\n        int256 clinicID;\n        int256 visitHeartRate;\n        int256 visitTemperature;\n        string diagnosis;\n        // VisitTypes visitType;\n    }\n\n    struct LabVisit {\n        int256 labVisitID;\n        int256 patientID;\n        int256 clinicID;\n        int256 visitHeartRate;\n        int256 visitTemperature;\n        string testType;\n        string testResult;\n    }\n\n    struct Prescription {\n        int256 regularVisitID;\n        string referral;\n        string followUp;\n        string lab;\n        int256 numberOfMedicines;\n        int256 medicineOffset;\n    }\n\n    struct Medicine {\n        int256 medicineId;\n        int256 regularVisitID;\n        string name;\n        string dose;\n        string period;\n    }\n\n    constructor() public {\n        systemAdmin = msg.sender;\n    }\n\n    function createClinic(\n        address _clinicAddress,\n        bytes32 _hash,\n        bytes memory _signature,\n        string memory _data\n    ) public {\n        // string memory hashedMessage\n        // string memory hashedRes = string(\n        //     abi.encodePacked(_signature, systemAdmin)\n        // );\n        // require(\n        //     compareStrings(hashedRes, hashedMessage),\n        //     \"Sorry, digest message is different\"\n        // );\n\n        address recoveredAddress = recover(_hash, _signature);\n        require(\n            recoveredAddress == systemAdmin,\n            \"Sorry, you are not authorized\"\n        );\n\n        clinicsCount++;\n        clinics[clinicsCount] = Clinic(\n            clinicsCount,\n            _clinicAddress,\n            _hash,\n            _data\n        );\n\n        availableClinics[_clinicAddress] = true;\n    }\n\n    function getClinic(int256 _id) public view returns (Clinic memory) {\n        require(msg.sender == systemAdmin, \"Sorry, you are no authorized\");\n        return clinics[_id];\n    }\n\n    function createPatient(\n        address _patientAddress,\n        bytes32 _hash,\n        bytes memory _signature,\n        string memory _data\n    ) public {\n        address recoveredAddress = recover(_hash, _signature);\n        require(isClinic(recoveredAddress), \"Sorry, you are not authorized\");\n\n        patientsCount++;\n        patients[patientsCount] = Patient(\n            patientsCount,\n            _patientAddress,\n            _hash,\n            _data\n        );\n    }\n\n    // function createRegularVisit(\n    //     int256 _patientID,\n    //     int256 _clinicID,\n    //     int256 _visitHeartRate,\n    //     int256 _visitTemperature,\n    //     string memory _diagnosis,\n    //     VisitTypes _visitType,\n    //     string memory _referral,\n    //     string memory _followUp,\n    //     string memory _lab,\n    //     int256 _numberOfMedicines\n    // ) public {\n    //     // VisitTypes temp = VisitTypes.periodicCheckup;\n    //     // if (_visitType == 0) {\n    //     //     temp = VisitTypes.periodicCheckup;\n    //     // } else if (_visitType == 1) {\n    //     //     temp = VisitTypes.caseManagement;\n    //     // } else {\n    //     //     temp = VisitTypes.complain;\n    //     // }\n\n    //     patients[_patientID].numberOfRegularVisits =\n    //         patients[_patientID].numberOfRegularVisits +\n    //         1;\n\n    //     regularVisitsCount++;\n\n    //     regularVisits[regularVisitsCount] = RegularVisit(\n    //         regularVisitsCount,\n    //         _patientID,\n    //         _clinicID,\n    //         _visitHeartRate,\n    //         _visitTemperature,\n    //         _diagnosis,\n    //         _visitType\n    //     );\n\n    //     createPrescription(\n    //         regularVisitsCount,\n    //         _referral,\n    //         _followUp,\n    //         _lab,\n    //         _numberOfMedicines\n    //     );\n    // }\n\n    // function createLabVisit(\n    //     int256 _patientID,\n    //     int256 _clinicID,\n    //     int256 _visitHeartRate,\n    //     int256 _visitTemperature,\n    //     string memory _testType,\n    //     string memory _testResult\n    // ) public {\n    //     patients[_patientID].numberOfLabVisits =\n    //         patients[_patientID].numberOfLabVisits +\n    //         1;\n\n    //     labVisitsCount++;\n    //     labVisits[labVisitsCount] = LabVisit(\n    //         labVisitsCount,\n    //         _patientID,\n    //         _clinicID,\n    //         _visitHeartRate,\n    //         _visitTemperature,\n    //         _testType,\n    //         _testResult\n    //     );\n    // }\n\n    // function createPrescription(\n    //     int256 _regularVisitID,\n    //     string memory _referral,\n    //     string memory _followUp,\n    //     string memory _lab,\n    //     int256 _numberOfMedicines\n    // ) public {\n    //     prescriptionsCount++;\n    //     prescriptions[_regularVisitID] = Prescription(\n    //         _regularVisitID,\n    //         _referral,\n    //         _followUp,\n    //         _lab,\n    //         _numberOfMedicines,\n    //         medicinesCount\n    //     );\n    // }\n\n    // function createMedicine(\n    //     int256 _regularVisitID,\n    //     string memory _name,\n    //     string memory _dose,\n    //     string memory _period\n    // ) public {\n    //     medicinesCount++;\n    //     medicines[medicinesCount] = Medicine(\n    //         medicinesCount,\n    //         _regularVisitID,\n    //         _name,\n    //         _dose,\n    //         _period\n    //     );\n    // }\n\n    /**************************** HELPER FUNCTIONS *****************************/\n    function isClinic(address _a) public view returns (bool) {\n        return (availableClinics[_a]);\n    }\n\n    function compareStrings(string memory a, string memory b)\n        public\n        pure\n        returns (bool)\n    {\n        return keccak256(abi.encodePacked(a)) == keccak256(abi.encodePacked(b));\n    }\n\n    /**\n     * Based upon ECDSA library from OpenZeppelin Solidity\n     * https://github.com/OpenZeppelin/openzeppelin-solidity/blob/master/contracts/cryptography/ECDSA.sol\n     */\n    function recover(bytes32 hash, bytes memory signature)\n        public\n        pure\n        returns (address)\n    {\n        bytes32 r;\n        bytes32 s;\n        uint8 v;\n\n        if (signature.length != 65) {\n            return (address(0));\n        }\n\n        assembly {\n            r := mload(add(signature, 0x20))\n            s := mload(add(signature, 0x40))\n            v := byte(0, mload(add(signature, 0x60)))\n        }\n\n        if (v < 27) {\n            v += 27;\n        }\n\n        if (v != 27 && v != 28) {\n            return (address(0));\n        } else {\n            return ecrecover(hash, v, r, s);\n        }\n    }\n}\n",
  "sourcePath": "/Users/sarah/GUC/Semester 10/Security/security-project/contracts/EHR.sol",
  "compiler": {
    "name": "solc",
    "version": "0.5.0+commit.1d4f565a.Emscripten.clang"
  },
  "schemaVersion": "3.0.1",
  "updatedAt": "2022-06-10T16:02:06.327Z",
  "devdoc": {
    "methods": {}
  },
  "userdoc": {
    "methods": {
      "isClinic(address)": {
        "notice": "************************** HELPER FUNCTIONS ****************************"
      },
      "recover(bytes32,bytes)": {
        "notice": "Based upon ECDSA library from OpenZeppelin Solidity https://github.com/OpenZeppelin/openzeppelin-solidity/blob/master/contracts/cryptography/ECDSA.sol"
      }
    },
    "notice": "***************** ROLES OF CLINICS *******************"
  }
}