{
  "contractName": "EHR",
  "abi": [
    {
      "constant": true,
      "inputs": [],
      "name": "medicinesCount",
      "outputs": [
        {
          "name": "",
          "type": "int256"
        }
      ],
      "payable": false,
      "stateMutability": "view",
      "type": "function",
      "signature": "0x0496649a"
    },
    {
      "constant": true,
      "inputs": [
        {
          "name": "",
          "type": "int256"
        }
      ],
      "name": "prescriptions",
      "outputs": [
        {
          "name": "regularVisitID",
          "type": "int256"
        },
        {
          "name": "referral",
          "type": "string"
        },
        {
          "name": "followUp",
          "type": "string"
        },
        {
          "name": "lab",
          "type": "string"
        },
        {
          "name": "numberOfMedicines",
          "type": "int256"
        },
        {
          "name": "medicineOffset",
          "type": "int256"
        }
      ],
      "payable": false,
      "stateMutability": "view",
      "type": "function",
      "signature": "0x2c5e6460"
    },
    {
      "constant": true,
      "inputs": [],
      "name": "prescriptionsCount",
      "outputs": [
        {
          "name": "",
          "type": "int256"
        }
      ],
      "payable": false,
      "stateMutability": "view",
      "type": "function",
      "signature": "0x39aaa6e8"
    },
    {
      "constant": true,
      "inputs": [
        {
          "name": "",
          "type": "int256"
        }
      ],
      "name": "labVisits",
      "outputs": [
        {
          "name": "labVisitID",
          "type": "int256"
        },
        {
          "name": "patientID",
          "type": "int256"
        },
        {
          "name": "clinicID",
          "type": "int256"
        },
        {
          "name": "visitHeartRate",
          "type": "int256"
        },
        {
          "name": "visitTemperature",
          "type": "int256"
        },
        {
          "name": "testType",
          "type": "string"
        },
        {
          "name": "testResult",
          "type": "string"
        }
      ],
      "payable": false,
      "stateMutability": "view",
      "type": "function",
      "signature": "0x3e2bd0c2"
    },
    {
      "constant": true,
      "inputs": [
        {
          "name": "",
          "type": "int256"
        }
      ],
      "name": "regularVisits",
      "outputs": [
        {
          "name": "regularVisitID",
          "type": "int256"
        },
        {
          "name": "patientID",
          "type": "int256"
        },
        {
          "name": "clinicID",
          "type": "int256"
        },
        {
          "name": "visitHeartRate",
          "type": "int256"
        },
        {
          "name": "visitTemperature",
          "type": "int256"
        },
        {
          "name": "diagnosis",
          "type": "string"
        },
        {
          "name": "visitType",
          "type": "uint8"
        }
      ],
      "payable": false,
      "stateMutability": "view",
      "type": "function",
      "signature": "0x6151b7cd"
    },
    {
      "constant": true,
      "inputs": [],
      "name": "regularVisitsCount",
      "outputs": [
        {
          "name": "",
          "type": "int256"
        }
      ],
      "payable": false,
      "stateMutability": "view",
      "type": "function",
      "signature": "0x62e59cf7"
    },
    {
      "constant": true,
      "inputs": [
        {
          "name": "",
          "type": "int256"
        }
      ],
      "name": "patients",
      "outputs": [
        {
          "name": "patientID",
          "type": "int256"
        },
        {
          "name": "patientAddress",
          "type": "address"
        },
        {
          "name": "clinicID",
          "type": "int256"
        },
        {
          "name": "name",
          "type": "string"
        },
        {
          "name": "age",
          "type": "int256"
        },
        {
          "name": "weight",
          "type": "int256"
        },
        {
          "name": "height",
          "type": "int256"
        },
        {
          "name": "gender",
          "type": "string"
        },
        {
          "name": "initialHeartRate",
          "type": "int256"
        },
        {
          "name": "initialTemperature",
          "type": "int256"
        },
        {
          "name": "numberOfRegularVisits",
          "type": "int256"
        },
        {
          "name": "numberOfLabVisits",
          "type": "int256"
        }
      ],
      "payable": false,
      "stateMutability": "view",
      "type": "function",
      "signature": "0x7b9fc959"
    },
    {
      "constant": true,
      "inputs": [
        {
          "name": "",
          "type": "int256"
        }
      ],
      "name": "clinics",
      "outputs": [
        {
          "name": "clinicID",
          "type": "int256"
        },
        {
          "name": "clinicAddress",
          "type": "address"
        },
        {
          "name": "location",
          "type": "string"
        },
        {
          "name": "numberOfPatients",
          "type": "int256"
        },
        {
          "name": "hashMessage",
          "type": "bytes32"
        }
      ],
      "payable": false,
      "stateMutability": "view",
      "type": "function",
      "signature": "0x7fc08cc6"
    },
    {
      "constant": true,
      "inputs": [],
      "name": "labVisitsCount",
      "outputs": [
        {
          "name": "",
          "type": "int256"
        }
      ],
      "payable": false,
      "stateMutability": "view",
      "type": "function",
      "signature": "0x8aa08e1d"
    },
    {
      "constant": true,
      "inputs": [
        {
          "name": "",
          "type": "int256"
        }
      ],
      "name": "medicines",
      "outputs": [
        {
          "name": "medicineId",
          "type": "int256"
        },
        {
          "name": "regularVisitID",
          "type": "int256"
        },
        {
          "name": "name",
          "type": "string"
        },
        {
          "name": "dose",
          "type": "string"
        },
        {
          "name": "period",
          "type": "string"
        }
      ],
      "payable": false,
      "stateMutability": "view",
      "type": "function",
      "signature": "0xb675e5d7"
    },
    {
      "constant": true,
      "inputs": [],
      "name": "patientsCount",
      "outputs": [
        {
          "name": "",
          "type": "int256"
        }
      ],
      "payable": false,
      "stateMutability": "view",
      "type": "function",
      "signature": "0xb6b1289d"
    },
    {
      "constant": true,
      "inputs": [],
      "name": "clinicsCount",
      "outputs": [
        {
          "name": "",
          "type": "int256"
        }
      ],
      "payable": false,
      "stateMutability": "view",
      "type": "function",
      "signature": "0xc249bf7e"
    },
    {
      "inputs": [],
      "payable": false,
      "stateMutability": "nonpayable",
      "type": "constructor",
      "signature": "constructor"
    },
    {
      "constant": false,
      "inputs": [
        {
          "name": "_clinicAddress",
          "type": "address"
        },
        {
          "name": "_location",
          "type": "string"
        },
        {
          "name": "_hash",
          "type": "bytes32"
        },
        {
          "name": "_signature",
          "type": "bytes"
        }
      ],
      "name": "createClinic",
      "outputs": [],
      "payable": false,
      "stateMutability": "nonpayable",
      "type": "function",
      "signature": "0x7ca7d668"
    },
    {
      "constant": false,
      "inputs": [
        {
          "name": "_patientAddress",
          "type": "address"
        },
        {
          "name": "_clinicID",
          "type": "int256"
        },
        {
          "name": "_name",
          "type": "string"
        },
        {
          "name": "_age",
          "type": "int256"
        },
        {
          "name": "_weight",
          "type": "int256"
        },
        {
          "name": "_height",
          "type": "int256"
        },
        {
          "name": "_gender",
          "type": "string"
        },
        {
          "name": "_initialHeartRate",
          "type": "int256"
        },
        {
          "name": "_initialTemperature",
          "type": "int256"
        }
      ],
      "name": "createPatient",
      "outputs": [],
      "payable": false,
      "stateMutability": "nonpayable",
      "type": "function",
      "signature": "0x3b73cdf1"
    },
    {
      "constant": false,
      "inputs": [
        {
          "name": "_patientID",
          "type": "int256"
        },
        {
          "name": "_clinicID",
          "type": "int256"
        },
        {
          "name": "_visitHeartRate",
          "type": "int256"
        },
        {
          "name": "_visitTemperature",
          "type": "int256"
        },
        {
          "name": "_diagnosis",
          "type": "string"
        },
        {
          "name": "_visitType",
          "type": "uint8"
        },
        {
          "name": "_referral",
          "type": "string"
        },
        {
          "name": "_followUp",
          "type": "string"
        },
        {
          "name": "_lab",
          "type": "string"
        },
        {
          "name": "_numberOfMedicines",
          "type": "int256"
        }
      ],
      "name": "createRegularVisit",
      "outputs": [],
      "payable": false,
      "stateMutability": "nonpayable",
      "type": "function",
      "signature": "0x45a4e119"
    },
    {
      "constant": false,
      "inputs": [
        {
          "name": "_patientID",
          "type": "int256"
        },
        {
          "name": "_clinicID",
          "type": "int256"
        },
        {
          "name": "_visitHeartRate",
          "type": "int256"
        },
        {
          "name": "_visitTemperature",
          "type": "int256"
        },
        {
          "name": "_testType",
          "type": "string"
        },
        {
          "name": "_testResult",
          "type": "string"
        }
      ],
      "name": "createLabVisit",
      "outputs": [],
      "payable": false,
      "stateMutability": "nonpayable",
      "type": "function",
      "signature": "0x80391760"
    },
    {
      "constant": false,
      "inputs": [
        {
          "name": "_regularVisitID",
          "type": "int256"
        },
        {
          "name": "_referral",
          "type": "string"
        },
        {
          "name": "_followUp",
          "type": "string"
        },
        {
          "name": "_lab",
          "type": "string"
        },
        {
          "name": "_numberOfMedicines",
          "type": "int256"
        }
      ],
      "name": "createPrescription",
      "outputs": [],
      "payable": false,
      "stateMutability": "nonpayable",
      "type": "function",
      "signature": "0x483cf89a"
    },
    {
      "constant": false,
      "inputs": [
        {
          "name": "_regularVisitID",
          "type": "int256"
        },
        {
          "name": "_name",
          "type": "string"
        },
        {
          "name": "_dose",
          "type": "string"
        },
        {
          "name": "_period",
          "type": "string"
        }
      ],
      "name": "createMedicine",
      "outputs": [],
      "payable": false,
      "stateMutability": "nonpayable",
      "type": "function",
      "signature": "0x9955f2b4"
    },
    {
      "constant": true,
      "inputs": [
        {
          "name": "hash",
          "type": "bytes32"
        },
        {
          "name": "signature",
          "type": "bytes"
        }
      ],
      "name": "recover",
      "outputs": [
        {
          "name": "",
          "type": "address"
        }
      ],
      "payable": false,
      "stateMutability": "pure",
      "type": "function",
      "signature": "0x19045a25"
    }
  ],
  "bytecode": "0x608060405260006001556000600255600060035560006004556000600555600060065534801561002e57600080fd5b5060008054600160a060020a031916331790556122bc806100506000396000f3fe6080604052600436106101065763ffffffff7c01000000000000000000000000000000000000000000000000000000006000350416630496649a811461010b57806319045a25146101325780632c5e64601461020857806339aaa6e81461038b5780633b73cdf1146103a05780633e2bd0c21461050957806345a4e119146105f1578063483cf89a1461085f5780636151b7cd14610a2957806362e59cf714610b035780637b9fc95914610b185780637ca7d66814610c785780637fc08cc614610dca5780638039176014610e9a5780638aa08e1d14610fec5780639955f2b414611001578063b675e5d7146111c9578063b6b1289d14611303578063c249bf7e14611318575b600080fd5b34801561011757600080fd5b5061012061132d565b60408051918252519081900360200190f35b34801561013e57600080fd5b506101ec6004803603604081101561015557600080fd5b8135919081019060408101602082013564010000000081111561017757600080fd5b82018360208201111561018957600080fd5b803590602001918460018302840111640100000000831117156101ab57600080fd5b91908080601f016020809104026020016040519081016040528093929190818152602001838380828437600092019190915250929550611333945050505050565b60408051600160a060020a039092168252519081900360200190f35b34801561021457600080fd5b506102326004803603602081101561022b57600080fd5b503561140b565b60405180878152602001806020018060200180602001868152602001858152602001848103845289818151815260200191508051906020019080838360005b83811015610289578181015183820152602001610271565b50505050905090810190601f1680156102b65780820380516001836020036101000a031916815260200191505b5084810383528851815288516020918201918a019080838360005b838110156102e95781810151838201526020016102d1565b50505050905090810190601f1680156103165780820380516001836020036101000a031916815260200191505b50848103825287518152875160209182019189019080838360005b83811015610349578181015183820152602001610331565b50505050905090810190601f1680156103765780820380516001836020036101000a031916815260200191505b50995050505050505050505060405180910390f35b34801561039757600080fd5b506101206115e0565b3480156103ac57600080fd5b5061050760048036036101208110156103c457600080fd5b600160a060020a03823516916020810135918101906060810160408201356401000000008111156103f457600080fd5b82018360208201111561040657600080fd5b8035906020019184600183028401116401000000008311171561042857600080fd5b91908080601f016020809104026020016040519081016040528093929190818152602001838380828437600092019190915250929584359560208601359560408101359550919350915060808101906060013564010000000081111561048d57600080fd5b82018360208201111561049f57600080fd5b803590602001918460018302840111640100000000831117156104c157600080fd5b91908080601f01602080910402602001604051908101604052809392919081815260200183838082843760009201919091525092955050823593505050602001356115e6565b005b34801561051557600080fd5b506105336004803603602081101561052c57600080fd5b5035611726565b604051808881526020018781526020018681526020018581526020018481526020018060200180602001838103835285818151815260200191508051906020019080838360005b8381101561059257818101518382015260200161057a565b50505050905090810190601f1680156105bf5780820380516001836020036101000a031916815260200191505b508381038252845181528451602091820191860190808383600083811015610349578181015183820152602001610331565b3480156105fd57600080fd5b50610507600480360361014081101561061557600080fd5b81359160208101359160408201359160608101359181019060a08101608082013564010000000081111561064857600080fd5b82018360208201111561065a57600080fd5b8035906020019184600183028401116401000000008311171561067c57600080fd5b91908080601f016020809104026020016040519081016040528093929190818152602001838380828437600092019190915250929560ff8535169590949093506040810192506020013590506401000000008111156106da57600080fd5b8201836020820111156106ec57600080fd5b8035906020019184600183028401116401000000008311171561070e57600080fd5b91908080601f016020809104026020016040519081016040528093929190818152602001838380828437600092019190915250929594936020810193503591505064010000000081111561076157600080fd5b82018360208201111561077357600080fd5b8035906020019184600183028401116401000000008311171561079557600080fd5b91908080601f01602080910402602001604051908101604052809392919081815260200183838082843760009201919091525092959493602081019350359150506401000000008111156107e857600080fd5b8201836020820111156107fa57600080fd5b8035906020019184600183028401116401000000008311171561081c57600080fd5b91908080601f016020809104026020016040519081016040528093929190818152602001838380828437600092019190915250929550509135925061188a915050565b34801561086b57600080fd5b50610507600480360360a081101561088257600080fd5b813591908101906040810160208201356401000000008111156108a457600080fd5b8201836020820111156108b657600080fd5b803590602001918460018302840111640100000000831117156108d857600080fd5b91908080601f016020809104026020016040519081016040528093929190818152602001838380828437600092019190915250929594936020810193503591505064010000000081111561092b57600080fd5b82018360208201111561093d57600080fd5b8035906020019184600183028401116401000000008311171561095f57600080fd5b91908080601f01602080910402602001604051908101604052809392919081815260200183838082843760009201919091525092959493602081019350359150506401000000008111156109b257600080fd5b8201836020820111156109c457600080fd5b803590602001918460018302840111640100000000831117156109e657600080fd5b91908080601f0160208091040260200160405190810160405280939291908181526020018383808284376000920191909152509295505091359250611997915050565b348015610a3557600080fd5b50610a5360048036036020811015610a4c57600080fd5b5035611a53565b6040518088815260200187815260200186815260200185815260200184815260200180602001836002811115610a8557fe5b60ff168152602001828103825284818151815260200191508051906020019080838360005b83811015610ac2578181015183820152602001610aaa565b50505050905090810190601f168015610aef5780820380516001836020036101000a031916815260200191505b509850505050505050505060405180910390f35b348015610b0f57600080fd5b50610120611b30565b348015610b2457600080fd5b50610b4260048036036020811015610b3b57600080fd5b5035611b36565b604051808d81526020018c600160a060020a0316600160a060020a031681526020018b8152602001806020018a81526020018981526020018881526020018060200187815260200186815260200185815260200184815260200183810383528c818151815260200191508051906020019080838360005b83811015610bd1578181015183820152602001610bb9565b50505050905090810190601f168015610bfe5780820380516001836020036101000a031916815260200191505b5083810382528851815288516020918201918a019080838360005b83811015610c31578181015183820152602001610c19565b50505050905090810190601f168015610c5e5780820380516001836020036101000a031916815260200191505b509e50505050505050505050505050505060405180910390f35b348015610c8457600080fd5b5061050760048036036080811015610c9b57600080fd5b600160a060020a038235169190810190604081016020820135640100000000811115610cc657600080fd5b820183602082011115610cd857600080fd5b80359060200191846001830284011164010000000083111715610cfa57600080fd5b91908080601f01602080910402602001604051908101604052809392919081815260200183838082843760009201919091525092958435959094909350604081019250602001359050640100000000811115610d5557600080fd5b820183602082011115610d6757600080fd5b80359060200191846001830284011164010000000083111715610d8957600080fd5b91908080601f016020809104026020016040519081016040528093929190818152602001838380828437600092019190915250929550611cb1945050505050565b348015610dd657600080fd5b50610df460048036036020811015610ded57600080fd5b5035611de9565b6040518086815260200185600160a060020a0316600160a060020a0316815260200180602001848152602001838152602001828103825285818151815260200191508051906020019080838360005b83811015610e5b578181015183820152602001610e43565b50505050905090810190601f168015610e885780820380516001836020036101000a031916815260200191505b50965050505050505060405180910390f35b348015610ea657600080fd5b50610507600480360360c0811015610ebd57600080fd5b81359160208101359160408201359160608101359181019060a081016080820135640100000000811115610ef057600080fd5b820183602082011115610f0257600080fd5b80359060200191846001830284011164010000000083111715610f2457600080fd5b91908080601f0160208091040260200160405190810160405280939291908181526020018383808284376000920191909152509295949360208101935035915050640100000000811115610f7757600080fd5b820183602082011115610f8957600080fd5b80359060200191846001830284011164010000000083111715610fab57600080fd5b91908080601f016020809104026020016040519081016040528093929190818152602001838380828437600092019190915250929550611eab945050505050565b348015610ff857600080fd5b50610120611f70565b34801561100d57600080fd5b506105076004803603608081101561102457600080fd5b8135919081019060408101602082013564010000000081111561104657600080fd5b82018360208201111561105857600080fd5b8035906020019184600183028401116401000000008311171561107a57600080fd5b91908080601f01602080910402602001604051908101604052809392919081815260200183838082843760009201919091525092959493602081019350359150506401000000008111156110cd57600080fd5b8201836020820111156110df57600080fd5b8035906020019184600183028401116401000000008311171561110157600080fd5b91908080601f016020809104026020016040519081016040528093929190818152602001838380828437600092019190915250929594936020810193503591505064010000000081111561115457600080fd5b82018360208201111561116657600080fd5b8035906020019184600183028401116401000000008311171561118857600080fd5b91908080601f016020809104026020016040519081016040528093929190818152602001838380828437600092019190915250929550611f76945050505050565b3480156111d557600080fd5b506111f3600480360360208110156111ec57600080fd5b5035612020565b60405180868152602001858152602001806020018060200180602001848103845287818151815260200191508051906020019080838360005b8381101561124457818101518382015260200161122c565b50505050905090810190601f1680156112715780820380516001836020036101000a031916815260200191505b50848103835286518152865160209182019188019080838360005b838110156112a457818101518382015260200161128c565b50505050905090810190601f1680156112d15780820380516001836020036101000a031916815260200191505b508481038252855181528551602091820191870190808383600083811015610ac2578181015183820152602001610aaa565b34801561130f57600080fd5b506101206121e9565b34801561132457600080fd5b506101206121ef565b60065481565b600080600080845160411415156113505760009350505050611405565b50505060208201516040830151606084015160001a601b60ff8216101561137557601b015b8060ff16601b1415801561138d57508060ff16601c14155b1561139e5760009350505050611405565b6040805160008152602080820180845289905260ff8416828401526060820186905260808201859052915160019260a0808401939192601f1981019281900390910190855afa1580156113f5573d6000803e3d6000fd5b5050506020604051035193505050505b92915050565b600b602090815260009182526040918290208054600180830180548651600293821615610100026000190190911692909204601f8101869004860283018601909652858252919492939092908301828280156114a85780601f1061147d576101008083540402835291602001916114a8565b820191906000526020600020905b81548152906001019060200180831161148b57829003601f168201915b50505060028085018054604080516020601f600019610100600187161502019094169590950492830185900485028101850190915281815295969594509092509083018282801561153a5780601f1061150f5761010080835404028352916020019161153a565b820191906000526020600020905b81548152906001019060200180831161151d57829003601f168201915b5050505060038301805460408051602060026001851615610100026000190190941693909304601f81018490048402820184019092528181529495949350908301828280156115ca5780601f1061159f576101008083540402835291602001916115ca565b820191906000526020600020905b8154815290600101906020018083116115ad57829003601f168201915b5050505050908060040154908060050154905086565b60055481565b6001805481018082556040805161018081018252828152600160a060020a038d811660208084019182528385018f8152606085018f8152608086018f905260a086018e905260c086018d905260e086018c905261010086018b905261012086018a90526000610140870181905261016087018190529788526008835295909620845181559151968201805473ffffffffffffffffffffffffffffffffffffffff19169790931696909617909155925160028401559051805191936116b2926003850192909101906121f5565b506080820151600482015560a0820151600582015560c0820151600682015560e082015180516116ec9160078401916020909101906121f5565b5061010082015160088201556101208201516009820155610140820151600a82015561016090910151600b90910155505050505050505050565b600a602052806000526040600020600091509050806000015490806001015490806002015490806003015490806004015490806005018054600181600116156101000203166002900480601f0160208091040260200160405190810160405280929190818152602001828054600181600116156101000203166002900480156117f05780601f106117c5576101008083540402835291602001916117f0565b820191906000526020600020905b8154815290600101906020018083116117d357829003601f168201915b5050505060068301805460408051602060026001851615610100026000190190941693909304601f81018490048402820184019092528181529495949350908301828280156118805780601f1061185557610100808354040283529160200191611880565b820191906000526020600020905b81548152906001019060200180831161186357829003601f168201915b5050505050905087565b60008a815260086020908152604091829020600a01805460019081019091556003805490910190819055825160e0810184529081529081018c90529081018a9052606081018990526080810188905260a0810187905260c081018660028111156118f057fe5b815250600960006003548152602001908152602001600020600082015181600001556020820151816001015560408201518160020155606082015181600301556080820151816004015560a08201518160050190805190602001906119569291906121f5565b5060c082015160068201805460ff1916600183600281111561197457fe5b021790555090505061198b60035485858585611997565b50505050505050505050565b6005805460019081019091556040805160c0810182528781526020808201888152828401889052606083018790526080830186905260065460a084015260008a8152600b835293909320825181559251805192946119fd939085019291909101906121f5565b5060408201518051611a199160028401916020909101906121f5565b5060608201518051611a359160038401916020909101906121f5565b506080820151600482015560a0909101516005909101555050505050565b6009602052806000526040600020600091509050806000015490806001015490806002015490806003015490806004015490806005018054600181600116156101000203166002900480601f016020809104026020016040519081016040528092919081815260200182805460018160011615610100020316600290048015611b1d5780601f10611af257610100808354040283529160200191611b1d565b820191906000526020600020905b815481529060010190602001808311611b0057829003601f168201915b5050506006909301549192505060ff1687565b60035481565b600860209081526000918252604091829020805460018083015460028085015460038601805489516101009682161596909602600019011692909204601f81018890048802850188019098528784529396600160a060020a0390921695939493909190830182828015611bea5780601f10611bbf57610100808354040283529160200191611bea565b820191906000526020600020905b815481529060010190602001808311611bcd57829003601f168201915b505050600484015460058501546006860154600787018054604080516020601f60026000196101006001881615020190951694909404938401819004810282018101909252828152989995989497509295509091830182828015611c8f5780601f10611c6457610100808354040283529160200191611c8f565b820191906000526020600020905b815481529060010190602001808311611c7257829003601f168201915b50505050509080600801549080600901549080600a01549080600b015490508c565b6000611cbd8383611333565b600054909150600160a060020a03808316911614611d3c57604080517f08c379a000000000000000000000000000000000000000000000000000000000815260206004820152601d60248201527f536f7272792c20796f7520617265206e6f7420617574686f72697a6564000000604482015290519081900360640190fd5b6002805460019081018083556040805160a081018252828152600160a060020a038a811660208084019182528385018c8152600060608601819052608086018d90529687526007825294909520835181559051958101805473ffffffffffffffffffffffffffffffffffffffff191696909216959095179055905180519194611dcb93908501929101906121f5565b50606082015160038201556080909101516004909101555050505050565b60076020908152600091825260409182902080546001808301546002808501805488516101009582161595909502600019011691909104601f81018790048702840187019097528683529295600160a060020a0390911694919291830182828015611e955780601f10611e6a57610100808354040283529160200191611e95565b820191906000526020600020905b815481529060010190602001808311611e7857829003601f168201915b5050505050908060030154908060040154905085565b6000868152600860209081526040808320600b0180546001908101909155600480548201808255835160e0810185528181528086018d81528186018d8152606083018d8152608084018d815260a085018d815260c086018d9052958b52600a8a5297909920835181559151958201959095559351600285015595516003840155925190820155905180519192611f49926005850192909101906121f5565b5060c08201518051611f659160068401916020909101906121f5565b505050505050505050565b60045481565b600680546001908101918290556040805160a081018252838152602080820189815282840189815260608401899052608084018890526000968752600c8352939095208251815594519385019390935590518051919392611fdf926002850192909101906121f5565b5060608201518051611ffb9160038401916020909101906121f5565b50608082015180516120179160048401916020909101906121f5565b50505050505050565b600c6020908152600091825260409182902080546001808301546002808501805488519481161561010002600019011691909104601f8101879004870284018701909752868352929590949192918301828280156120bf5780601f10612094576101008083540402835291602001916120bf565b820191906000526020600020905b8154815290600101906020018083116120a257829003601f168201915b5050505060038301805460408051602060026001851615610100026000190190941693909304601f810184900484028201840190925281815294959493509083018282801561214f5780601f106121245761010080835404028352916020019161214f565b820191906000526020600020905b81548152906001019060200180831161213257829003601f168201915b5050505060048301805460408051602060026001851615610100026000190190941693909304601f81018490048402820184019092528181529495949350908301828280156121df5780601f106121b4576101008083540402835291602001916121df565b820191906000526020600020905b8154815290600101906020018083116121c257829003601f168201915b5050505050905085565b60015481565b60025481565b828054600181600116156101000203166002900490600052602060002090601f016020900481019282601f1061223657805160ff1916838001178555612263565b82800160010185558215612263579182015b82811115612263578251825591602001919060010190612248565b5061226f929150612273565b5090565b61228d91905b8082111561226f5760008155600101612279565b9056fea165627a7a7230582000f6006cce22d953a31cd3092695f58f2d6a986c4b35df937828a98f132c30b90029",
  "source": "pragma solidity ^0.5.0;\n\n// Creating a regular visit --> creates a prescription --> creates medicines\n// Address = public key\n// Only 1 admin\n\n/******************* ROLES OF ADMINS ********************/\n// Admin can add clinics\n\n/******************* ROLES OF CLINICS ********************/\n// Clinics can add patients\n\ncontract EHR {\n    address systemAdmin;\n\n    enum VisitTypes {\n        periodicCheckup,\n        caseManagement,\n        complain\n    }\n\n    int256 public patientsCount = 0;\n    int256 public clinicsCount = 0;\n    int256 public regularVisitsCount = 0;\n    int256 public labVisitsCount = 0;\n    int256 public prescriptionsCount = 0;\n    int256 public medicinesCount = 0;\n\n    struct Clinic {\n        int256 clinicID;\n        address clinicAddress;\n        string location;\n        int256 numberOfPatients;\n        bytes32 hashMessage;\n    }\n\n    struct Patient {\n        int256 patientID;\n        address patientAddress;\n        int256 clinicID;\n        string name;\n        int256 age;\n        int256 weight;\n        int256 height;\n        string gender;\n        int256 initialHeartRate;\n        int256 initialTemperature;\n        int256 numberOfRegularVisits;\n        int256 numberOfLabVisits;\n    }\n\n    struct RegularVisit {\n        int256 regularVisitID;\n        int256 patientID;\n        int256 clinicID;\n        int256 visitHeartRate;\n        int256 visitTemperature;\n        string diagnosis;\n        VisitTypes visitType;\n    }\n\n    struct LabVisit {\n        int256 labVisitID;\n        int256 patientID;\n        int256 clinicID;\n        int256 visitHeartRate;\n        int256 visitTemperature;\n        string testType;\n        string testResult;\n    }\n\n    struct Prescription {\n        int256 regularVisitID;\n        string referral;\n        string followUp;\n        string lab;\n        int256 numberOfMedicines;\n        int256 medicineOffset;\n    }\n\n    struct Medicine {\n        int256 medicineId;\n        int256 regularVisitID;\n        string name;\n        string dose;\n        string period;\n    }\n\n    mapping(int256 => Clinic) public clinics;\n    mapping(int256 => Patient) public patients;\n    mapping(int256 => RegularVisit) public regularVisits;\n    mapping(int256 => LabVisit) public labVisits;\n    mapping(int256 => Prescription) public prescriptions;\n    mapping(int256 => Medicine) public medicines;\n\n    constructor() public {\n        systemAdmin = msg.sender;\n    }\n\n    function createClinic(\n        address _clinicAddress,\n        string memory _location,\n        bytes32 _hash,\n        bytes memory _signature\n    ) public {\n        address recoveredAddress = recover(_hash, _signature);\n        require(\n            recoveredAddress == systemAdmin,\n            \"Sorry, you are not authorized\"\n        );\n        // require(msg.sender == systemAdmin, \"Sorry, you are not authorized\");\n\n        clinicsCount++;\n        clinics[clinicsCount] = Clinic(\n            clinicsCount,\n            _clinicAddress,\n            _location,\n            0,\n            _hash\n        );\n    }\n\n    function createPatient(\n        address _patientAddress,\n        int256 _clinicID,\n        string memory _name,\n        int256 _age,\n        int256 _weight,\n        int256 _height,\n        string memory _gender,\n        int256 _initialHeartRate,\n        int256 _initialTemperature\n    ) public {\n        patientsCount++;\n        patients[patientsCount] = Patient(\n            patientsCount,\n            _patientAddress,\n            _clinicID,\n            _name,\n            _age,\n            _weight,\n            _height,\n            _gender,\n            _initialHeartRate,\n            _initialTemperature,\n            0,\n            0\n        );\n    }\n\n    function createRegularVisit(\n        int256 _patientID,\n        int256 _clinicID,\n        int256 _visitHeartRate,\n        int256 _visitTemperature,\n        string memory _diagnosis,\n        VisitTypes _visitType,\n        string memory _referral,\n        string memory _followUp,\n        string memory _lab,\n        int256 _numberOfMedicines\n    ) public {\n        // VisitTypes temp = VisitTypes.periodicCheckup;\n        // if (_visitType == 0) {\n        //     temp = VisitTypes.periodicCheckup;\n        // } else if (_visitType == 1) {\n        //     temp = VisitTypes.caseManagement;\n        // } else {\n        //     temp = VisitTypes.complain;\n        // }\n\n        patients[_patientID].numberOfRegularVisits =\n            patients[_patientID].numberOfRegularVisits +\n            1;\n\n        regularVisitsCount++;\n\n        regularVisits[regularVisitsCount] = RegularVisit(\n            regularVisitsCount,\n            _patientID,\n            _clinicID,\n            _visitHeartRate,\n            _visitTemperature,\n            _diagnosis,\n            _visitType\n        );\n\n        createPrescription(\n            regularVisitsCount,\n            _referral,\n            _followUp,\n            _lab,\n            _numberOfMedicines\n        );\n    }\n\n    function createLabVisit(\n        int256 _patientID,\n        int256 _clinicID,\n        int256 _visitHeartRate,\n        int256 _visitTemperature,\n        string memory _testType,\n        string memory _testResult\n    ) public {\n        patients[_patientID].numberOfLabVisits =\n            patients[_patientID].numberOfLabVisits +\n            1;\n\n        labVisitsCount++;\n        labVisits[labVisitsCount] = LabVisit(\n            labVisitsCount,\n            _patientID,\n            _clinicID,\n            _visitHeartRate,\n            _visitTemperature,\n            _testType,\n            _testResult\n        );\n    }\n\n    function createPrescription(\n        int256 _regularVisitID,\n        string memory _referral,\n        string memory _followUp,\n        string memory _lab,\n        int256 _numberOfMedicines\n    ) public {\n        prescriptionsCount++;\n        prescriptions[_regularVisitID] = Prescription(\n            _regularVisitID,\n            _referral,\n            _followUp,\n            _lab,\n            _numberOfMedicines,\n            medicinesCount\n        );\n    }\n\n    function createMedicine(\n        int256 _regularVisitID,\n        string memory _name,\n        string memory _dose,\n        string memory _period\n    ) public {\n        medicinesCount++;\n        medicines[medicinesCount] = Medicine(\n            medicinesCount,\n            _regularVisitID,\n            _name,\n            _dose,\n            _period\n        );\n    }\n\n    /**\n     * Based upon ECDSA library from OpenZeppelin Solidity\n     * https://github.com/OpenZeppelin/openzeppelin-solidity/blob/master/contracts/cryptography/ECDSA.sol\n     */\n    function recover(bytes32 hash, bytes memory signature)\n        public\n        pure\n        returns (address)\n    {\n        bytes32 r;\n        bytes32 s;\n        uint8 v;\n\n        if (signature.length != 65) {\n            return (address(0));\n        }\n\n        assembly {\n            r := mload(add(signature, 0x20))\n            s := mload(add(signature, 0x40))\n            v := byte(0, mload(add(signature, 0x60)))\n        }\n\n        if (v < 27) {\n            v += 27;\n        }\n\n        if (v != 27 && v != 28) {\n            return (address(0));\n        } else {\n            return ecrecover(hash, v, r, s);\n        }\n    }\n}\n",
  "sourcePath": "/Users/sarah/GUC/Semester 10/Security/security-project/contracts/EHR.sol",
  "compiler": {
    "name": "solc",
    "version": "0.5.0+commit.1d4f565a.Emscripten.clang"
  },
  "schemaVersion": "3.0.1",
  "updatedAt": "2022-06-10T09:13:05.781Z",
  "devdoc": {
    "methods": {}
  },
  "userdoc": {
    "methods": {
      "recover(bytes32,bytes)": {
        "notice": "Based upon ECDSA library from OpenZeppelin Solidity https://github.com/OpenZeppelin/openzeppelin-solidity/blob/master/contracts/cryptography/ECDSA.sol"
      }
    },
    "notice": "***************** ROLES OF CLINICS *******************"
  }
}