{
  "contractName": "EHR",
  "abi": [
    {
      "constant": true,
      "inputs": [],
      "name": "medicinesCount",
      "outputs": [
        {
          "name": "",
          "type": "int256"
        }
      ],
      "payable": false,
      "stateMutability": "view",
      "type": "function",
      "signature": "0x0496649a"
    },
    {
      "constant": true,
      "inputs": [
        {
          "name": "",
          "type": "int256"
        }
      ],
      "name": "prescriptions",
      "outputs": [
        {
          "name": "regularVisitID",
          "type": "int256"
        },
        {
          "name": "referral",
          "type": "string"
        },
        {
          "name": "followUp",
          "type": "string"
        },
        {
          "name": "lab",
          "type": "string"
        },
        {
          "name": "numberOfMedicines",
          "type": "int256"
        },
        {
          "name": "medicineOffset",
          "type": "int256"
        }
      ],
      "payable": false,
      "stateMutability": "view",
      "type": "function",
      "signature": "0x2c5e6460"
    },
    {
      "constant": true,
      "inputs": [],
      "name": "prescriptionsCount",
      "outputs": [
        {
          "name": "",
          "type": "int256"
        }
      ],
      "payable": false,
      "stateMutability": "view",
      "type": "function",
      "signature": "0x39aaa6e8"
    },
    {
      "constant": true,
      "inputs": [
        {
          "name": "",
          "type": "int256"
        }
      ],
      "name": "labVisits",
      "outputs": [
        {
          "name": "labVisitID",
          "type": "int256"
        },
        {
          "name": "patientID",
          "type": "int256"
        },
        {
          "name": "clinicID",
          "type": "int256"
        },
        {
          "name": "visitHeartRate",
          "type": "int256"
        },
        {
          "name": "visitTemperature",
          "type": "int256"
        },
        {
          "name": "testType",
          "type": "string"
        },
        {
          "name": "testResult",
          "type": "string"
        }
      ],
      "payable": false,
      "stateMutability": "view",
      "type": "function",
      "signature": "0x3e2bd0c2"
    },
    {
      "constant": true,
      "inputs": [
        {
          "name": "",
          "type": "int256"
        }
      ],
      "name": "regularVisits",
      "outputs": [
        {
          "name": "regularVisitID",
          "type": "int256"
        },
        {
          "name": "patientID",
          "type": "int256"
        },
        {
          "name": "clinicID",
          "type": "int256"
        },
        {
          "name": "visitHeartRate",
          "type": "int256"
        },
        {
          "name": "visitTemperature",
          "type": "int256"
        },
        {
          "name": "diagnosis",
          "type": "string"
        }
      ],
      "payable": false,
      "stateMutability": "view",
      "type": "function",
      "signature": "0x6151b7cd"
    },
    {
      "constant": true,
      "inputs": [],
      "name": "regularVisitsCount",
      "outputs": [
        {
          "name": "",
          "type": "int256"
        }
      ],
      "payable": false,
      "stateMutability": "view",
      "type": "function",
      "signature": "0x62e59cf7"
    },
    {
      "constant": true,
      "inputs": [
        {
          "name": "",
          "type": "address"
        }
      ],
      "name": "availableClinics",
      "outputs": [
        {
          "name": "",
          "type": "bool"
        }
      ],
      "payable": false,
      "stateMutability": "view",
      "type": "function",
      "signature": "0x64cb4303"
    },
    {
      "constant": true,
      "inputs": [
        {
          "name": "",
          "type": "int256"
        }
      ],
      "name": "patients",
      "outputs": [
        {
          "name": "patientID",
          "type": "int256"
        },
        {
          "name": "patientAddress",
          "type": "address"
        },
        {
          "name": "hashMessage",
          "type": "bytes32"
        },
        {
          "name": "data",
          "type": "string"
        },
        {
          "name": "addedBy",
          "type": "address"
        }
      ],
      "payable": false,
      "stateMutability": "view",
      "type": "function",
      "signature": "0x7b9fc959"
    },
    {
      "constant": true,
      "inputs": [
        {
          "name": "",
          "type": "int256"
        }
      ],
      "name": "clinics",
      "outputs": [
        {
          "name": "clinicID",
          "type": "int256"
        },
        {
          "name": "clinicAddress",
          "type": "address"
        },
        {
          "name": "hashMessage",
          "type": "bytes32"
        },
        {
          "name": "data",
          "type": "string"
        }
      ],
      "payable": false,
      "stateMutability": "view",
      "type": "function",
      "signature": "0x7fc08cc6"
    },
    {
      "constant": true,
      "inputs": [],
      "name": "labVisitsCount",
      "outputs": [
        {
          "name": "",
          "type": "int256"
        }
      ],
      "payable": false,
      "stateMutability": "view",
      "type": "function",
      "signature": "0x8aa08e1d"
    },
    {
      "constant": true,
      "inputs": [
        {
          "name": "",
          "type": "int256"
        }
      ],
      "name": "medicines",
      "outputs": [
        {
          "name": "medicineId",
          "type": "int256"
        },
        {
          "name": "regularVisitID",
          "type": "int256"
        },
        {
          "name": "name",
          "type": "string"
        },
        {
          "name": "dose",
          "type": "string"
        },
        {
          "name": "period",
          "type": "string"
        }
      ],
      "payable": false,
      "stateMutability": "view",
      "type": "function",
      "signature": "0xb675e5d7"
    },
    {
      "constant": true,
      "inputs": [],
      "name": "patientsCount",
      "outputs": [
        {
          "name": "",
          "type": "int256"
        }
      ],
      "payable": false,
      "stateMutability": "view",
      "type": "function",
      "signature": "0xb6b1289d"
    },
    {
      "constant": true,
      "inputs": [],
      "name": "clinicsCount",
      "outputs": [
        {
          "name": "",
          "type": "int256"
        }
      ],
      "payable": false,
      "stateMutability": "view",
      "type": "function",
      "signature": "0xc249bf7e"
    },
    {
      "inputs": [],
      "payable": false,
      "stateMutability": "nonpayable",
      "type": "constructor",
      "signature": "constructor"
    },
    {
      "constant": false,
      "inputs": [
        {
          "name": "_clinicAddress",
          "type": "address"
        },
        {
          "name": "_hash",
          "type": "bytes32"
        },
        {
          "name": "_signature",
          "type": "bytes"
        },
        {
          "name": "_data",
          "type": "string"
        }
      ],
      "name": "createClinic",
      "outputs": [],
      "payable": false,
      "stateMutability": "nonpayable",
      "type": "function",
      "signature": "0x5bad2e54"
    },
    {
      "constant": true,
      "inputs": [
        {
          "name": "_id",
          "type": "int256"
        }
      ],
      "name": "getClinic",
      "outputs": [
        {
          "components": [
            {
              "name": "clinicID",
              "type": "int256"
            },
            {
              "name": "clinicAddress",
              "type": "address"
            },
            {
              "name": "hashMessage",
              "type": "bytes32"
            },
            {
              "name": "data",
              "type": "string"
            }
          ],
          "name": "",
          "type": "tuple"
        }
      ],
      "payable": false,
      "stateMutability": "view",
      "type": "function",
      "signature": "0x29fee749"
    },
    {
      "constant": true,
      "inputs": [],
      "name": "getClinicID",
      "outputs": [
        {
          "name": "",
          "type": "int256"
        }
      ],
      "payable": false,
      "stateMutability": "view",
      "type": "function",
      "signature": "0xbc632b85"
    },
    {
      "constant": false,
      "inputs": [
        {
          "name": "_patientAddress",
          "type": "address"
        },
        {
          "name": "_hash",
          "type": "bytes32"
        },
        {
          "name": "_signature",
          "type": "bytes"
        },
        {
          "name": "_data",
          "type": "string"
        }
      ],
      "name": "createPatient",
      "outputs": [],
      "payable": false,
      "stateMutability": "nonpayable",
      "type": "function",
      "signature": "0xc9573f93"
    },
    {
      "constant": true,
      "inputs": [
        {
          "name": "_id",
          "type": "int256"
        }
      ],
      "name": "getPatient",
      "outputs": [
        {
          "components": [
            {
              "name": "patientID",
              "type": "int256"
            },
            {
              "name": "patientAddress",
              "type": "address"
            },
            {
              "name": "hashMessage",
              "type": "bytes32"
            },
            {
              "name": "data",
              "type": "string"
            },
            {
              "name": "addedBy",
              "type": "address"
            }
          ],
          "name": "",
          "type": "tuple"
        }
      ],
      "payable": false,
      "stateMutability": "view",
      "type": "function",
      "signature": "0xab0cca85"
    },
    {
      "constant": true,
      "inputs": [
        {
          "name": "_a",
          "type": "address"
        }
      ],
      "name": "isClinic",
      "outputs": [
        {
          "name": "",
          "type": "bool"
        }
      ],
      "payable": false,
      "stateMutability": "view",
      "type": "function",
      "signature": "0x67644a81"
    },
    {
      "constant": true,
      "inputs": [
        {
          "name": "a",
          "type": "string"
        },
        {
          "name": "b",
          "type": "string"
        }
      ],
      "name": "compareStrings",
      "outputs": [
        {
          "name": "",
          "type": "bool"
        }
      ],
      "payable": false,
      "stateMutability": "pure",
      "type": "function",
      "signature": "0xbed34bba"
    },
    {
      "constant": true,
      "inputs": [
        {
          "name": "hash",
          "type": "bytes32"
        },
        {
          "name": "signature",
          "type": "bytes"
        }
      ],
      "name": "recover",
      "outputs": [
        {
          "name": "",
          "type": "address"
        }
      ],
      "payable": false,
      "stateMutability": "pure",
      "type": "function",
      "signature": "0x19045a25"
    }
  ],
  "bytecode": "0x608060405260006001556000600255600060035560006004556000600555600060065534801561002e57600080fd5b5060008054600160a060020a03191633179055611a22806100506000396000f3fe60806040526004361061011c5763ffffffff7c01000000000000000000000000000000000000000000000000000000006000350416630496649a811461012157806319045a251461014c57806329fee749146101795780632c5e6460146101a657806339aaa6e8146101d85780633e2bd0c2146101ed5780635bad2e54146102205780636151b7cd1461024257806362e59cf71461027457806364cb43031461028957806367644a81146102b65780637b9fc959146102d65780637fc08cc6146103075780638aa08e1d14610337578063ab0cca851461034c578063b675e5d714610379578063b6b1289d146103aa578063bc632b85146103bf578063bed34bba146103d4578063c249bf7e146103f4578063c9573f9314610409575b600080fd5b34801561012d57600080fd5b50610136610429565b60405161014391906116bd565b60405180910390f35b34801561015857600080fd5b5061016c61016736600461147b565b61042f565b60405161014391906116a1565b34801561018557600080fd5b506101996101943660046114cd565b61050f565b6040516101439190611911565b3480156101b257600080fd5b506101c66101c13660046114cd565b610625565b6040516101439695949392919061188d565b3480156101e457600080fd5b506101366107fa565b3480156101f957600080fd5b5061020d6102083660046114cd565b610800565b60405161014397969594939291906117b8565b34801561022c57600080fd5b5061024061023b3660046113ea565b610964565b005b34801561024e57600080fd5b5061026261025d3660046114cd565b610a63565b60405161014396959493929190611758565b34801561028057600080fd5b50610136610b37565b34801561029557600080fd5b506102a96102a43660046113c4565b610b3d565b60405161014391906116af565b3480156102c257600080fd5b506102a96102d13660046113c4565b610b52565b3480156102e257600080fd5b506102f66102f13660046114cd565b610b70565b60405161014395949392919061170f565b34801561031357600080fd5b506103276103223660046114cd565b610c3d565b60405161014394939291906116cb565b34801561034357600080fd5b50610136610cfb565b34801561035857600080fd5b5061036c6103673660046114cd565b610d01565b6040516101439190611922565b34801561038557600080fd5b506103996103943660046114cd565b610e34565b60405161014395949392919061182d565b3480156103b657600080fd5b50610136610ffd565b3480156103cb57600080fd5b50610136611003565b3480156103e057600080fd5b506102a96103ef3660046114eb565b611075565b34801561040057600080fd5b5061013661115c565b34801561041557600080fd5b506102406104243660046113ea565b611162565b60065481565b6000806000808451604114151561044c5760009350505050610509565b50505060208201516040830151606084015160001a601b60ff8216101561047157601b015b8060ff16601b1415801561048957508060ff16601c14155b1561049a5760009350505050610509565b6040805160008152602080820180845289905260ff8416828401526060820186905260808201859052915160019260a0808401939192601f1981019281900390910190855afa1580156104f1573d6000803e3d6000fd5b505050602060405103519350505050610509565b5050505b92915050565b61051761126f565b600054600160a060020a0316331461054d5760405160e560020a62461bcd028152600401610544906118f1565b60405180910390fd5b600082815260076020908152604091829020825160808101845281548152600180830154600160a060020a0316828501526002808401548387015260038401805487516101009482161594909402600019011691909104601f8101869004860283018601909652858252919492936060860193919291908301828280156106155780601f106105ea57610100808354040283529160200191610615565b820191906000526020600020905b8154815290600101906020018083116105f857829003601f168201915b5050505050815250509050919050565b600b602090815260009182526040918290208054600180830180548651600293821615610100026000190190911692909204601f8101869004860283018601909652858252919492939092908301828280156106c25780601f10610697576101008083540402835291602001916106c2565b820191906000526020600020905b8154815290600101906020018083116106a557829003601f168201915b50505060028085018054604080516020601f60001961010060018716150201909416959095049283018590048502810185019091528181529596959450909250908301828280156107545780601f1061072957610100808354040283529160200191610754565b820191906000526020600020905b81548152906001019060200180831161073757829003601f168201915b5050505060038301805460408051602060026001851615610100026000190190941693909304601f81018490048402820184019092528181529495949350908301828280156107e45780601f106107b9576101008083540402835291602001916107e4565b820191906000526020600020905b8154815290600101906020018083116107c757829003601f168201915b5050505050908060040154908060050154905086565b60055481565b600a602052806000526040600020600091509050806000015490806001015490806002015490806003015490806004015490806005018054600181600116156101000203166002900480601f0160208091040260200160405190810160405280929190818152602001828054600181600116156101000203166002900480156108ca5780601f1061089f576101008083540402835291602001916108ca565b820191906000526020600020905b8154815290600101906020018083116108ad57829003601f168201915b5050505060068301805460408051602060026001851615610100026000190190941693909304601f810184900484028201840190925281815294959493509083018282801561095a5780601f1061092f5761010080835404028352916020019161095a565b820191906000526020600020905b81548152906001019060200180831161093d57829003601f168201915b5050505050905087565b6000610970848461042f565b600054909150600160a060020a038083169116146109a35760405160e560020a62461bcd02815260040161054490611901565b60028054600190810180835560408051608081018252828152600160a060020a038a811660208084019182528385018c8152606085018b815260009788526007835295909620845181559151968201805473ffffffffffffffffffffffffffffffffffffffff191697909316969096179091559251948301949094555180519192610a3692600385019290910190611295565b505050600160a060020a039094166000908152600d60205260409020805460ff1916600117905550505050565b6009602052806000526040600020600091509050806000015490806001015490806002015490806003015490806004015490806005018054600181600116156101000203166002900480601f016020809104026020016040519081016040528092919081815260200182805460018160011615610100020316600290048015610b2d5780601f10610b0257610100808354040283529160200191610b2d565b820191906000526020600020905b815481529060010190602001808311610b1057829003601f168201915b5050505050905086565b60035481565b600d6020526000908152604090205460ff1681565b600160a060020a03166000908152600d602052604090205460ff1690565b600860209081526000918252604091829020805460018083015460028085015460038601805489516101009682161596909602600019011692909204601f81018890048802850188019098528784529396600160a060020a0390921695939493909190830182828015610c245780601f10610bf957610100808354040283529160200191610c24565b820191906000526020600020905b815481529060010190602001808311610c0757829003601f168201915b50505060049093015491925050600160a060020a031685565b600760209081526000918252604091829020805460018083015460028085015460038601805489516101009682161596909602600019011692909204601f81018890048802850188019098528784529396600160a060020a0390921695939493909190830182828015610cf15780601f10610cc657610100808354040283529160200191610cf1565b820191906000526020600020905b815481529060010190602001808311610cd457829003601f168201915b5050505050905084565b60045481565b610d09611313565b610d1233610b52565b80610d275750600054600160a060020a031633145b1515610d485760405160e560020a62461bcd02815260040161054490611901565b600082815260086020908152604091829020825160a08101845281548152600180830154600160a060020a0316828501526002808401548387015260038401805487516101009482161594909402600019011691909104601f810186900486028301860190965285825291949293606086019391929190830182828015610e105780601f10610de557610100808354040283529160200191610e10565b820191906000526020600020905b815481529060010190602001808311610df357829003601f168201915b505050918352505060049190910154600160a060020a031660209091015292915050565b600c6020908152600091825260409182902080546001808301546002808501805488519481161561010002600019011691909104601f810187900487028401870190975286835292959094919291830182828015610ed35780601f10610ea857610100808354040283529160200191610ed3565b820191906000526020600020905b815481529060010190602001808311610eb657829003601f168201915b5050505060038301805460408051602060026001851615610100026000190190941693909304601f8101849004840282018401909252818152949594935090830182828015610f635780601f10610f3857610100808354040283529160200191610f63565b820191906000526020600020905b815481529060010190602001808311610f4657829003601f168201915b5050505060048301805460408051602060026001851615610100026000190190941693909304601f8101849004840282018401909252818152949594935090830182828015610ff35780601f10610fc857610100808354040283529160200191610ff3565b820191906000526020600020905b815481529060010190602001808311610fd657829003601f168201915b5050505050905085565b60015481565b600061100e33610b52565b151561102f5760405160e560020a62461bcd02815260040161054490611901565b60015b600254811361106c57600081815260076020526040902060010154600160a060020a0316331415611064579050611072565b600101611032565b50600090505b90565b6000816040516020018082805190602001908083835b602083106110aa5780518252601f19909201916020918201910161108b565b6001836020036101000a03801982511681845116808217855250505050505090500191505060405160208183030381529060405280519060200120836040516020018082805190602001908083835b602083106111185780518252601f1990920191602091820191016110f9565b6001836020036101000a0380198251168184511680821785525050505050509050019150506040516020818303038152906040528051906020012014905092915050565b60025481565b600061116e848461042f565b905061117981610b52565b151561119a5760405160e560020a62461bcd02815260040161054490611901565b6001805481018082556040805160a081018252828152600160a060020a0389811660208084019182528385018b8152606085018a8152898516608087015260009788526008835295909620845181559151968201805473ffffffffffffffffffffffffffffffffffffffff191697909316969096179091559251600284015590518051919361123192600385019290910190611295565b50608091909101516004909101805473ffffffffffffffffffffffffffffffffffffffff1916600160a060020a039092169190911790555050505050565b604080516080810182526000808252602082018190529181019190915260608082015290565b828054600181600116156101000203166002900490600052602060002090601f016020900481019282601f106112d657805160ff1916838001178555611303565b82800160010185558215611303579182015b828111156113035782518255916020019190600101906112e8565b5061130f929150611340565b5090565b6040805160a081018252600080825260208201819052918101829052606080820152608081019190915290565b61107291905b8082111561130f5760008155600101611346565b60006113668235611986565b9392505050565b60006113668235611072565b6000601f8201831361138a57600080fd5b813561139d6113988261195a565b611933565b915080825260208301602083018583830111156113b957600080fd5b6105058382846119a2565b6000602082840312156113d657600080fd5b60006113e2848461135a565b949350505050565b6000806000806080858703121561140057600080fd5b600061140c878761135a565b945050602061141d8782880161136d565b935050604085013567ffffffffffffffff81111561143a57600080fd5b61144687828801611379565b925050606085013567ffffffffffffffff81111561146357600080fd5b61146f87828801611379565b91505092959194509250565b6000806040838503121561148e57600080fd5b600061149a858561136d565b925050602083013567ffffffffffffffff8111156114b757600080fd5b6114c385828601611379565b9150509250929050565b6000602082840312156114df57600080fd5b60006113e2848461136d565b600080604083850312156114fe57600080fd5b823567ffffffffffffffff81111561151557600080fd5b61149a85828601611379565b61152a81611986565b82525050565b61152a81611991565b61152a81611072565b600061154d82611982565b8084526115618160208601602086016119ae565b61156a816119de565b9093016020019392505050565b601c81527f536f7272792c20796f7520617265206e6f20617574686f72697a656400000000602082015260400190565b601d81527f536f7272792c20796f7520617265206e6f7420617574686f72697a6564000000602082015260400190565b805160009060808401906115eb8582611539565b5060208301516115fe6020860182611521565b5060408301516116116040860182611539565b50606083015184820360608601526116298282611542565b95945050505050565b805160009060a08401906116468582611539565b5060208301516116596020860182611521565b50604083015161166c6040860182611539565b50606083015184820360608601526116848282611542565b91505060808301516116996080860182611521565b509392505050565b602081016105098284611521565b602081016105098284611530565b602081016105098284611539565b608081016116d98287611539565b6116e66020830186611521565b6116f36040830185611539565b81810360608301526117058184611542565b9695505050505050565b60a0810161171d8288611539565b61172a6020830187611521565b6117376040830186611539565b81810360608301526117498185611542565b90506117056080830184611521565b60c081016117668289611539565b6117736020830188611539565b6117806040830187611539565b61178d6060830186611539565b61179a6080830185611539565b81810360a08301526117ac8184611542565b98975050505050505050565b60e081016117c6828a611539565b6117d36020830189611539565b6117e06040830188611539565b6117ed6060830187611539565b6117fa6080830186611539565b81810360a083015261180c8185611542565b905081810360c08301526118208184611542565b9998505050505050505050565b60a0810161183b8288611539565b6118486020830187611539565b818103604083015261185a8186611542565b9050818103606083015261186e8185611542565b905081810360808301526118828184611542565b979650505050505050565b60c0810161189b8289611539565b81810360208301526118ad8188611542565b905081810360408301526118c18187611542565b905081810360608301526118d58186611542565b90506118e46080830185611539565b61188260a0830184611539565b6020808252810161050981611577565b60208082528101610509816115a7565b6020808252810161136681846115d7565b602080825281016113668184611632565b60405181810167ffffffffffffffff8111828210171561195257600080fd5b604052919050565b600067ffffffffffffffff82111561197157600080fd5b506020601f91909101601f19160190565b5190565b600061050982611996565b151590565b600160a060020a031690565b82818337506000910152565b60005b838110156119c95781810151838201526020016119b1565b838111156119d8576000848401525b50505050565b601f01601f19169056fea265627a7a7230582071573710fe5da9b18108bbd074af8c7824ba144312a7f2831dc31f169874d86e6c6578706572696d656e74616cf50037",
  "source": "pragma solidity ^0.5.0;\npragma experimental ABIEncoderV2;\n\n// Creating a regular visit --> creates a prescription --> creates medicines\n// Address = public key\n// Only 1 admin\n\n/******************* ROLES OF ADMINS ********************/\n// Admin can add clinics\n\n/******************* ROLES OF CLINICS ********************/\n// Clinics can add patients\n\ncontract EHR {\n    address systemAdmin;\n\n    int256 public patientsCount = 0;\n    int256 public clinicsCount = 0;\n    int256 public regularVisitsCount = 0;\n    int256 public labVisitsCount = 0;\n    int256 public prescriptionsCount = 0;\n    int256 public medicinesCount = 0;\n\n    mapping(int256 => Clinic) public clinics;\n    mapping(int256 => Patient) public patients;\n    mapping(int256 => RegularVisit) public regularVisits;\n    mapping(int256 => LabVisit) public labVisits;\n    mapping(int256 => Prescription) public prescriptions;\n    mapping(int256 => Medicine) public medicines;\n\n    mapping(address => bool) public availableClinics;\n    mapping(int256 => int256[]) clinicPatients; //clinic ID -> patients\n\n    enum VisitTypes {\n        periodicCheckup,\n        caseManagement,\n        complain\n    }\n\n    struct Clinic {\n        int256 clinicID;\n        address clinicAddress;\n        bytes32 hashMessage;\n        string data;\n    }\n\n    struct Patient {\n        int256 patientID;\n        address patientAddress;\n        bytes32 hashMessage;\n        string data;\n        address addedBy;\n    }\n\n    struct RegularVisit {\n        int256 regularVisitID;\n        int256 patientID;\n        int256 clinicID;\n        int256 visitHeartRate;\n        int256 visitTemperature;\n        string diagnosis;\n        // VisitTypes visitType;\n    }\n\n    struct LabVisit {\n        int256 labVisitID;\n        int256 patientID;\n        int256 clinicID;\n        int256 visitHeartRate;\n        int256 visitTemperature;\n        string testType;\n        string testResult;\n    }\n\n    struct Prescription {\n        int256 regularVisitID;\n        string referral;\n        string followUp;\n        string lab;\n        int256 numberOfMedicines;\n        int256 medicineOffset;\n    }\n\n    struct Medicine {\n        int256 medicineId;\n        int256 regularVisitID;\n        string name;\n        string dose;\n        string period;\n    }\n\n    constructor() public {\n        systemAdmin = msg.sender;\n    }\n\n    function createClinic(\n        address _clinicAddress,\n        bytes32 _hash,\n        bytes memory _signature,\n        string memory _data\n    ) public {\n        // string memory hashedMessage\n        // string memory hashedRes = string(\n        //     abi.encodePacked(_signature, systemAdmin)\n        // );\n        // require(\n        //     compareStrings(hashedRes, hashedMessage),\n        //     \"Sorry, digest message is different\"\n        // );\n\n        address recoveredAddress = recover(_hash, _signature);\n        require(\n            recoveredAddress == systemAdmin,\n            \"Sorry, you are not authorized\"\n        );\n\n        clinicsCount++;\n        clinics[clinicsCount] = Clinic(\n            clinicsCount,\n            _clinicAddress,\n            _hash,\n            _data\n        );\n\n        availableClinics[_clinicAddress] = true;\n    }\n\n    function getClinic(int256 _id) public view returns (Clinic memory) {\n        require(msg.sender == systemAdmin, \"Sorry, you are no authorized\");\n        return clinics[_id];\n    }\n\n    function getClinicID() public view returns (int256) {\n        require(isClinic(msg.sender), \"Sorry, you are not authorized\");\n\n        for (int256 i = 1; i <= clinicsCount; i++) {\n            if (clinics[i].clinicAddress == msg.sender) {\n                return i;\n            }\n        }\n        return 0;\n    }\n\n    function createPatient(\n        address _patientAddress,\n        bytes32 _hash,\n        bytes memory _signature,\n        string memory _data\n    ) public {\n        address recoveredAddress = recover(_hash, _signature);\n        require(isClinic(recoveredAddress), \"Sorry, you are not authorized\");\n\n        patientsCount++;\n        patients[patientsCount] = Patient(\n            patientsCount,\n            _patientAddress,\n            _hash,\n            _data,\n            recoveredAddress\n        );\n    }\n\n    function getPatient(int256 _id) public view returns (Patient memory) {\n        require(\n            isClinic(msg.sender) || msg.sender == systemAdmin,\n            \"Sorry, you are not authorized\"\n        );\n        return patients[_id];\n    }\n\n    // function createRegularVisit(\n    //     int256 _patientID,\n    //     int256 _clinicID,\n    //     int256 _visitHeartRate,\n    //     int256 _visitTemperature,\n    //     string memory _diagnosis,\n    //     VisitTypes _visitType,\n    //     string memory _referral,\n    //     string memory _followUp,\n    //     string memory _lab,\n    //     int256 _numberOfMedicines\n    // ) public {\n    //     // VisitTypes temp = VisitTypes.periodicCheckup;\n    //     // if (_visitType == 0) {\n    //     //     temp = VisitTypes.periodicCheckup;\n    //     // } else if (_visitType == 1) {\n    //     //     temp = VisitTypes.caseManagement;\n    //     // } else {\n    //     //     temp = VisitTypes.complain;\n    //     // }\n\n    //     patients[_patientID].numberOfRegularVisits =\n    //         patients[_patientID].numberOfRegularVisits +\n    //         1;\n\n    //     regularVisitsCount++;\n\n    //     regularVisits[regularVisitsCount] = RegularVisit(\n    //         regularVisitsCount,\n    //         _patientID,\n    //         _clinicID,\n    //         _visitHeartRate,\n    //         _visitTemperature,\n    //         _diagnosis,\n    //         _visitType\n    //     );\n\n    //     createPrescription(\n    //         regularVisitsCount,\n    //         _referral,\n    //         _followUp,\n    //         _lab,\n    //         _numberOfMedicines\n    //     );\n    // }\n\n    // function createLabVisit(\n    //     int256 _patientID,\n    //     int256 _clinicID,\n    //     int256 _visitHeartRate,\n    //     int256 _visitTemperature,\n    //     string memory _testType,\n    //     string memory _testResult\n    // ) public {\n    //     patients[_patientID].numberOfLabVisits =\n    //         patients[_patientID].numberOfLabVisits +\n    //         1;\n\n    //     labVisitsCount++;\n    //     labVisits[labVisitsCount] = LabVisit(\n    //         labVisitsCount,\n    //         _patientID,\n    //         _clinicID,\n    //         _visitHeartRate,\n    //         _visitTemperature,\n    //         _testType,\n    //         _testResult\n    //     );\n    // }\n\n    // function createPrescription(\n    //     int256 _regularVisitID,\n    //     string memory _referral,\n    //     string memory _followUp,\n    //     string memory _lab,\n    //     int256 _numberOfMedicines\n    // ) public {\n    //     prescriptionsCount++;\n    //     prescriptions[_regularVisitID] = Prescription(\n    //         _regularVisitID,\n    //         _referral,\n    //         _followUp,\n    //         _lab,\n    //         _numberOfMedicines,\n    //         medicinesCount\n    //     );\n    // }\n\n    // function createMedicine(\n    //     int256 _regularVisitID,\n    //     string memory _name,\n    //     string memory _dose,\n    //     string memory _period\n    // ) public {\n    //     medicinesCount++;\n    //     medicines[medicinesCount] = Medicine(\n    //         medicinesCount,\n    //         _regularVisitID,\n    //         _name,\n    //         _dose,\n    //         _period\n    //     );\n    // }\n\n    /**************************** HELPER FUNCTIONS *****************************/\n    function isClinic(address _a) public view returns (bool) {\n        return (availableClinics[_a]);\n    }\n\n    function compareStrings(string memory a, string memory b)\n        public\n        pure\n        returns (bool)\n    {\n        return keccak256(abi.encodePacked(a)) == keccak256(abi.encodePacked(b));\n    }\n\n    /**\n     * Based upon ECDSA library from OpenZeppelin Solidity\n     * https://github.com/OpenZeppelin/openzeppelin-solidity/blob/master/contracts/cryptography/ECDSA.sol\n     */\n    function recover(bytes32 hash, bytes memory signature)\n        public\n        pure\n        returns (address)\n    {\n        bytes32 r;\n        bytes32 s;\n        uint8 v;\n\n        if (signature.length != 65) {\n            return (address(0));\n        }\n\n        assembly {\n            r := mload(add(signature, 0x20))\n            s := mload(add(signature, 0x40))\n            v := byte(0, mload(add(signature, 0x60)))\n        }\n\n        if (v < 27) {\n            v += 27;\n        }\n\n        if (v != 27 && v != 28) {\n            return (address(0));\n        } else {\n            return ecrecover(hash, v, r, s);\n        }\n    }\n}\n",
  "sourcePath": "/Users/sarah/GUC/Semester 10/Security/security-project/contracts/EHR.sol",
  "compiler": {
    "name": "solc",
    "version": "0.5.0+commit.1d4f565a.Emscripten.clang"
  },
  "schemaVersion": "3.0.1",
  "updatedAt": "2022-06-10T20:14:02.703Z",
  "devdoc": {
    "methods": {}
  },
  "userdoc": {
    "methods": {
      "isClinic(address)": {
        "notice": "************************** HELPER FUNCTIONS ****************************"
      },
      "recover(bytes32,bytes)": {
        "notice": "Based upon ECDSA library from OpenZeppelin Solidity https://github.com/OpenZeppelin/openzeppelin-solidity/blob/master/contracts/cryptography/ECDSA.sol"
      }
    },
    "notice": "***************** ROLES OF CLINICS *******************"
  }
}