{
  "contractName": "EHR",
  "abi": [
    {
      "constant": true,
      "inputs": [],
      "name": "medicinesCount",
      "outputs": [
        {
          "name": "",
          "type": "int256"
        }
      ],
      "payable": false,
      "stateMutability": "view",
      "type": "function",
      "signature": "0x0496649a"
    },
    {
      "constant": true,
      "inputs": [
        {
          "name": "",
          "type": "int256"
        }
      ],
      "name": "prescriptions",
      "outputs": [
        {
          "name": "regularVisitID",
          "type": "int256"
        },
        {
          "name": "referral",
          "type": "string"
        },
        {
          "name": "followUp",
          "type": "string"
        },
        {
          "name": "lab",
          "type": "string"
        },
        {
          "name": "numberOfMedicines",
          "type": "int256"
        },
        {
          "name": "medicineOffset",
          "type": "int256"
        }
      ],
      "payable": false,
      "stateMutability": "view",
      "type": "function",
      "signature": "0x2c5e6460"
    },
    {
      "constant": true,
      "inputs": [],
      "name": "prescriptionsCount",
      "outputs": [
        {
          "name": "",
          "type": "int256"
        }
      ],
      "payable": false,
      "stateMutability": "view",
      "type": "function",
      "signature": "0x39aaa6e8"
    },
    {
      "constant": true,
      "inputs": [
        {
          "name": "",
          "type": "int256"
        }
      ],
      "name": "labVisits",
      "outputs": [
        {
          "name": "labVisitID",
          "type": "int256"
        },
        {
          "name": "patientID",
          "type": "int256"
        },
        {
          "name": "clinicID",
          "type": "int256"
        },
        {
          "name": "visitHeartRate",
          "type": "int256"
        },
        {
          "name": "visitTemperature",
          "type": "int256"
        },
        {
          "name": "testType",
          "type": "string"
        },
        {
          "name": "testResult",
          "type": "string"
        }
      ],
      "payable": false,
      "stateMutability": "view",
      "type": "function",
      "signature": "0x3e2bd0c2"
    },
    {
      "constant": true,
      "inputs": [
        {
          "name": "",
          "type": "int256"
        }
      ],
      "name": "regularVisits",
      "outputs": [
        {
          "name": "regularVisitID",
          "type": "int256"
        },
        {
          "name": "patientID",
          "type": "int256"
        },
        {
          "name": "clinicID",
          "type": "int256"
        },
        {
          "name": "visitHeartRate",
          "type": "int256"
        },
        {
          "name": "visitTemperature",
          "type": "int256"
        },
        {
          "name": "diagnosis",
          "type": "string"
        },
        {
          "name": "visitType",
          "type": "uint8"
        }
      ],
      "payable": false,
      "stateMutability": "view",
      "type": "function",
      "signature": "0x6151b7cd"
    },
    {
      "constant": true,
      "inputs": [],
      "name": "regularVisitsCount",
      "outputs": [
        {
          "name": "",
          "type": "int256"
        }
      ],
      "payable": false,
      "stateMutability": "view",
      "type": "function",
      "signature": "0x62e59cf7"
    },
    {
      "constant": true,
      "inputs": [
        {
          "name": "",
          "type": "int256"
        }
      ],
      "name": "patients",
      "outputs": [
        {
          "name": "patientID",
          "type": "int256"
        },
        {
          "name": "clinicID",
          "type": "int256"
        },
        {
          "name": "name",
          "type": "string"
        },
        {
          "name": "age",
          "type": "int256"
        },
        {
          "name": "weight",
          "type": "int256"
        },
        {
          "name": "height",
          "type": "int256"
        },
        {
          "name": "gender",
          "type": "string"
        },
        {
          "name": "initialHeartRate",
          "type": "int256"
        },
        {
          "name": "initialTemperature",
          "type": "int256"
        },
        {
          "name": "numberOfRegularVisits",
          "type": "int256"
        },
        {
          "name": "numberOfLabVisits",
          "type": "int256"
        }
      ],
      "payable": false,
      "stateMutability": "view",
      "type": "function",
      "signature": "0x7b9fc959"
    },
    {
      "constant": true,
      "inputs": [
        {
          "name": "",
          "type": "int256"
        }
      ],
      "name": "clinics",
      "outputs": [
        {
          "name": "clinicID",
          "type": "int256"
        },
        {
          "name": "location",
          "type": "string"
        },
        {
          "name": "numberOfPatients",
          "type": "int256"
        }
      ],
      "payable": false,
      "stateMutability": "view",
      "type": "function",
      "signature": "0x7fc08cc6"
    },
    {
      "constant": true,
      "inputs": [],
      "name": "labVisitsCount",
      "outputs": [
        {
          "name": "",
          "type": "int256"
        }
      ],
      "payable": false,
      "stateMutability": "view",
      "type": "function",
      "signature": "0x8aa08e1d"
    },
    {
      "constant": true,
      "inputs": [
        {
          "name": "",
          "type": "int256"
        }
      ],
      "name": "medicines",
      "outputs": [
        {
          "name": "medicineId",
          "type": "int256"
        },
        {
          "name": "regularVisitID",
          "type": "int256"
        },
        {
          "name": "name",
          "type": "string"
        },
        {
          "name": "dose",
          "type": "string"
        },
        {
          "name": "period",
          "type": "string"
        }
      ],
      "payable": false,
      "stateMutability": "view",
      "type": "function",
      "signature": "0xb675e5d7"
    },
    {
      "constant": true,
      "inputs": [],
      "name": "patientsCount",
      "outputs": [
        {
          "name": "",
          "type": "int256"
        }
      ],
      "payable": false,
      "stateMutability": "view",
      "type": "function",
      "signature": "0xb6b1289d"
    },
    {
      "constant": true,
      "inputs": [],
      "name": "clinicsCount",
      "outputs": [
        {
          "name": "",
          "type": "int256"
        }
      ],
      "payable": false,
      "stateMutability": "view",
      "type": "function",
      "signature": "0xc249bf7e"
    },
    {
      "inputs": [],
      "payable": false,
      "stateMutability": "nonpayable",
      "type": "constructor",
      "signature": "constructor"
    },
    {
      "constant": false,
      "inputs": [
        {
          "name": "_location",
          "type": "string"
        }
      ],
      "name": "createClinic",
      "outputs": [],
      "payable": false,
      "stateMutability": "nonpayable",
      "type": "function",
      "signature": "0xff779a09"
    },
    {
      "constant": false,
      "inputs": [
        {
          "name": "_clinicID",
          "type": "int256"
        },
        {
          "name": "_name",
          "type": "string"
        },
        {
          "name": "_age",
          "type": "int256"
        },
        {
          "name": "_weight",
          "type": "int256"
        },
        {
          "name": "_height",
          "type": "int256"
        },
        {
          "name": "_gender",
          "type": "string"
        },
        {
          "name": "_initialHeartRate",
          "type": "int256"
        },
        {
          "name": "_initialTemperature",
          "type": "int256"
        }
      ],
      "name": "createPatient",
      "outputs": [],
      "payable": false,
      "stateMutability": "nonpayable",
      "type": "function",
      "signature": "0x1d79812d"
    },
    {
      "constant": false,
      "inputs": [
        {
          "name": "_patientID",
          "type": "int256"
        },
        {
          "name": "_clinicID",
          "type": "int256"
        },
        {
          "name": "_visitHeartRate",
          "type": "int256"
        },
        {
          "name": "_visitTemperature",
          "type": "int256"
        },
        {
          "name": "_diagnosis",
          "type": "string"
        },
        {
          "name": "_visitType",
          "type": "uint8"
        },
        {
          "name": "_referral",
          "type": "string"
        },
        {
          "name": "_followUp",
          "type": "string"
        },
        {
          "name": "_lab",
          "type": "string"
        },
        {
          "name": "_numberOfMedicines",
          "type": "int256"
        }
      ],
      "name": "createRegularVisit",
      "outputs": [],
      "payable": false,
      "stateMutability": "nonpayable",
      "type": "function",
      "signature": "0x45a4e119"
    },
    {
      "constant": false,
      "inputs": [
        {
          "name": "_patientID",
          "type": "int256"
        },
        {
          "name": "_clinicID",
          "type": "int256"
        },
        {
          "name": "_visitHeartRate",
          "type": "int256"
        },
        {
          "name": "_visitTemperature",
          "type": "int256"
        },
        {
          "name": "_testType",
          "type": "string"
        },
        {
          "name": "_testResult",
          "type": "string"
        }
      ],
      "name": "createLabVisit",
      "outputs": [],
      "payable": false,
      "stateMutability": "nonpayable",
      "type": "function",
      "signature": "0x80391760"
    },
    {
      "constant": false,
      "inputs": [
        {
          "name": "_regularVisitID",
          "type": "int256"
        },
        {
          "name": "_referral",
          "type": "string"
        },
        {
          "name": "_followUp",
          "type": "string"
        },
        {
          "name": "_lab",
          "type": "string"
        },
        {
          "name": "_numberOfMedicines",
          "type": "int256"
        }
      ],
      "name": "createPrescription",
      "outputs": [],
      "payable": false,
      "stateMutability": "nonpayable",
      "type": "function",
      "signature": "0x483cf89a"
    },
    {
      "constant": false,
      "inputs": [
        {
          "name": "_regularVisitID",
          "type": "int256"
        },
        {
          "name": "_name",
          "type": "string"
        },
        {
          "name": "_dose",
          "type": "string"
        },
        {
          "name": "_period",
          "type": "string"
        }
      ],
      "name": "createMedicine",
      "outputs": [],
      "payable": false,
      "stateMutability": "nonpayable",
      "type": "function",
      "signature": "0x9955f2b4"
    }
  ],
  "bytecode": "0x608060405260008055600060015560006002556000600355600060045560006005553480156200002e57600080fd5b5060408051808201909152600581527f45677970740000000000000000000000000000000000000000000000000000006020820152620000779064010000000062000a8b810204565b60408051808201909152600381527f4b534100000000000000000000000000000000000000000000000000000000006020820152620000bf9064010000000062000a8b810204565b60408051808201909152600781527f4765726d616e79000000000000000000000000000000000000000000000000006020820152620001079064010000000062000a8b810204565b6200019860016040805190810160405280600581526020017f53617261680000000000000000000000000000000000000000000000000000008152506017603560ab6040805190810160405280600681526020017f66656d616c6500000000000000000000000000000000000000000000000000008152506044602462000aea640100000000026401000000009004565b6200022960016040805190810160405280600881526020017f4d6f68616d6d65640000000000000000000000000000000000000000000000008152506019603f60b56040805190810160405280600481526020017f6d616c65000000000000000000000000000000000000000000000000000000008152506044602462000aea640100000000026401000000009004565b620002ba60026040805190810160405280600581526020017f41686d65640000000000000000000000000000000000000000000000000000008152506019603f60b56040805190810160405280600481526020017f6d616c65000000000000000000000000000000000000000000000000000000008152506044602462000aea640100000000026401000000009004565b6200034b60026040805190810160405280600481526020017f416c6161000000000000000000000000000000000000000000000000000000008152506019603f60b56040805190810160405280600681526020017f66656d616c6500000000000000000000000000000000000000000000000000008152506044602462000aea640100000000026401000000009004565b620003fc600180600b806040805190810160405280600381526020017f666c750000000000000000000000000000000000000000000000000000000000815250600060206040519081016040528060008152506040805190810160405280600381526020017f79657300000000000000000000000000000000000000000000000000000000008152506020604051908101604052806000815250600262000bf3640100000000026401000000009004565b620004b960016040805190810160405280600281526020017f6d310000000000000000000000000000000000000000000000000000000000008152506040805190810160405280600281526020017f64310000000000000000000000000000000000000000000000000000000000008152506040805190810160405280600281526020017f703100000000000000000000000000000000000000000000000000000000000081525062000cf2640100000000026401000000009004565b6200057660016040805190810160405280600281526020017f6d320000000000000000000000000000000000000000000000000000000000008152506040805190810160405280600281526020017f64320000000000000000000000000000000000000000000000000000000000008152506040805190810160405280600281526020017f703200000000000000000000000000000000000000000000000000000000000081525062000cf2640100000000026401000000009004565b604080518082018252600581527f636f75676800000000000000000000000000000000000000000000000000000060208083019190915282518084018452600481527f74657374000000000000000000000000000000000000000000000000000000008183015283518085018552600381527f7965730000000000000000000000000000000000000000000000000000000000818401528451928301909452600082526200063b936001938493600b9384936002928764010000000062000bf3810204565b620006f860026040805190810160405280600281526020017f6d330000000000000000000000000000000000000000000000000000000000008152506040805190810160405280600281526020017f64330000000000000000000000000000000000000000000000000000000000008152506040805190810160405280600281526020017f703300000000000000000000000000000000000000000000000000000000000081525062000cf2640100000000026401000000009004565b620007f460026001600b806040805190810160405280600d81526020017f636f75676820616e6420666c750000000000000000000000000000000000000081525060016040805190810160405280600481526020017f74657374000000000000000000000000000000000000000000000000000000008152506040805190810160405280600481526020017f6e6f6e65000000000000000000000000000000000000000000000000000000008152506040805190810160405280600481526020017f6e6f6e6500000000000000000000000000000000000000000000000000000000815250600262000bf3640100000000026401000000009004565b620008b160036040805190810160405280600281526020017f6d340000000000000000000000000000000000000000000000000000000000008152506040805190810160405280600281526020017f64340000000000000000000000000000000000000000000000000000000000008152506040805190810160405280600281526020017f703400000000000000000000000000000000000000000000000000000000000081525062000cf2640100000000026401000000009004565b6200096e60036040805190810160405280600281526020017f6d350000000000000000000000000000000000000000000000000000000000008152506040805190810160405280600281526020017f64350000000000000000000000000000000000000000000000000000000000008152506040805190810160405280600281526020017f703400000000000000000000000000000000000000000000000000000000000081525062000cf2640100000000026401000000009004565b620009f96001806037806040805190810160405280600381526020017f52424300000000000000000000000000000000000000000000000000000000008152506040805190810160405280600481526020017f676f6f640000000000000000000000000000000000000000000000000000000081525062000da2640100000000026401000000009004565b62000a85600260016037806040805190810160405280600381526020017f57424300000000000000000000000000000000000000000000000000000000008152506040805190810160405280600881526020017f6d6f64657261746500000000000000000000000000000000000000000000000081525062000da2640100000000026401000000009004565b62000fb1565b6001805481018082556040805160608101825282815260208082018681526000838501819052948552600682529290932081518155915180519194929362000ad99385019291019062000f0c565b506040820151816002015590505050565b600080546001908101808355604080516101608101825282815260208082018e81528284018e8152606084018e9052608084018d905260a084018c905260c084018b905260e084018a9052610100840189905261012084018890526101408401889052948752600782529290952081518155915193820193909355905180519293919262000b7f926002850192019062000f0c565b50606082015160038201556080820151600482015560a0820151600582015560c0820151805162000bbb91600684019160209091019062000f0c565b5060e082015160078201556101008201516008820155610120820151600982015561014090910151600a909101555050505050505050565b600280546001018082556040805160e081018252918252602082018d905281018b9052606081018a90526080810189905260a081018890529060c0820190879081111562000c3d57fe5b815250600860006002548152602001908152602001600020600082015181600001556020820151816001015560408201518160020155606082015181600301556080820151816004015560a082015181600501908051906020019062000ca592919062000f0c565b5060c082015160068201805460ff1916600183600281111562000cc457fe5b02179055505060025462000ce691508585858564010000000062000e57810204565b50505050505050505050565b600580546001908101918290556040805160a081018252838152602080820189815282840189815260608401899052608084018890526000968752600b835293909520825181559451938501939093559051805191939262000d5d9260028501929091019062000f0c565b506060820151805162000d7b91600384019160209091019062000f0c565b506080820151805162000d9991600484019160209091019062000f0c565b50505050505050565b6003805460019081018083556040805160e08101825282815260208082018c81528284018c8152606084018c8152608085018c815260a086018c815260c087018c9052600098895260098652969097208551815592519783019790975551600282015594519585019590955591516004840155518051919362000e2e9260058501929091019062000f0c565b5060c0820151805162000e4c91600684019160209091019062000f0c565b505050505050505050565b6040805160c0810182528681526020808201878152828401879052606083018690526080830185905260055460a08401526000898152600a835293909320825181559251805192939262000eb2926001850192019062000f0c565b506040820151805162000ed091600284019160209091019062000f0c565b506060820151805162000eee91600384019160209091019062000f0c565b506080820151600482015560a0909101516005909101555050505050565b828054600181600116156101000203166002900490600052602060002090601f016020900481019282601f1062000f4f57805160ff191683800117855562000f7f565b8280016001018555821562000f7f579182015b8281111562000f7f57825182559160200191906001019062000f62565b5062000f8d92915062000f91565b5090565b62000fae91905b8082111562000f8d576000815560010162000f98565b90565b611e9f8062000fc16000396000f3fe6080604052600436106100fb5763ffffffff7c01000000000000000000000000000000000000000000000000000000006000350416630496649a81146101005780631d79812d146101275780632c5e64601461028257806339aaa6e8146104055780633e2bd0c21461041a57806345a4e11914610502578063483cf89a146107705780636151b7cd1461093a57806362e59cf714610a145780637b9fc95914610a295780637fc08cc614610b705780638039176014610c205780638aa08e1d14610d725780639955f2b414610d87578063b675e5d714610f4f578063b6b1289d14611089578063c249bf7e1461109e578063ff779a09146110b3575b600080fd5b34801561010c57600080fd5b50610115611166565b60408051918252519081900360200190f35b34801561013357600080fd5b50610280600480360361010081101561014b57600080fd5b8135919081019060408101602082013564010000000081111561016d57600080fd5b82018360208201111561017f57600080fd5b803590602001918460018302840111640100000000831117156101a157600080fd5b91908080601f016020809104026020016040519081016040528093929190818152602001838380828437600092019190915250929584359560208601359560408101359550919350915060808101906060013564010000000081111561020657600080fd5b82018360208201111561021857600080fd5b8035906020019184600183028401116401000000008311171561023a57600080fd5b91908080601f016020809104026020016040519081016040528093929190818152602001838380828437600092019190915250929550508235935050506020013561116c565b005b34801561028e57600080fd5b506102ac600480360360208110156102a557600080fd5b5035611271565b60405180878152602001806020018060200180602001868152602001858152602001848103845289818151815260200191508051906020019080838360005b838110156103035781810151838201526020016102eb565b50505050905090810190601f1680156103305780820380516001836020036101000a031916815260200191505b5084810383528851815288516020918201918a019080838360005b8381101561036357818101518382015260200161034b565b50505050905090810190601f1680156103905780820380516001836020036101000a031916815260200191505b50848103825287518152875160209182019189019080838360005b838110156103c35781810151838201526020016103ab565b50505050905090810190601f1680156103f05780820380516001836020036101000a031916815260200191505b50995050505050505050505060405180910390f35b34801561041157600080fd5b50610115611446565b34801561042657600080fd5b506104446004803603602081101561043d57600080fd5b503561144c565b604051808881526020018781526020018681526020018581526020018481526020018060200180602001838103835285818151815260200191508051906020019080838360005b838110156104a357818101518382015260200161048b565b50505050905090810190601f1680156104d05780820380516001836020036101000a031916815260200191505b5083810382528451815284516020918201918601908083836000838110156103c35781810151838201526020016103ab565b34801561050e57600080fd5b50610280600480360361014081101561052657600080fd5b81359160208101359160408201359160608101359181019060a08101608082013564010000000081111561055957600080fd5b82018360208201111561056b57600080fd5b8035906020019184600183028401116401000000008311171561058d57600080fd5b91908080601f016020809104026020016040519081016040528093929190818152602001838380828437600092019190915250929560ff8535169590949093506040810192506020013590506401000000008111156105eb57600080fd5b8201836020820111156105fd57600080fd5b8035906020019184600183028401116401000000008311171561061f57600080fd5b91908080601f016020809104026020016040519081016040528093929190818152602001838380828437600092019190915250929594936020810193503591505064010000000081111561067257600080fd5b82018360208201111561068457600080fd5b803590602001918460018302840111640100000000831117156106a657600080fd5b91908080601f01602080910402602001604051908101604052809392919081815260200183838082843760009201919091525092959493602081019350359150506401000000008111156106f957600080fd5b82018360208201111561070b57600080fd5b8035906020019184600183028401116401000000008311171561072d57600080fd5b91908080601f01602080910402602001604051908101604052809392919081815260200183838082843760009201919091525092955050913592506115b0915050565b34801561077c57600080fd5b50610280600480360360a081101561079357600080fd5b813591908101906040810160208201356401000000008111156107b557600080fd5b8201836020820111156107c757600080fd5b803590602001918460018302840111640100000000831117156107e957600080fd5b91908080601f016020809104026020016040519081016040528093929190818152602001838380828437600092019190915250929594936020810193503591505064010000000081111561083c57600080fd5b82018360208201111561084e57600080fd5b8035906020019184600183028401116401000000008311171561087057600080fd5b91908080601f01602080910402602001604051908101604052809392919081815260200183838082843760009201919091525092959493602081019350359150506401000000008111156108c357600080fd5b8201836020820111156108d557600080fd5b803590602001918460018302840111640100000000831117156108f757600080fd5b91908080601f01602080910402602001604051908101604052809392919081815260200183838082843760009201919091525092955050913592506116a0915050565b34801561094657600080fd5b506109646004803603602081101561095d57600080fd5b503561174f565b604051808881526020018781526020018681526020018581526020018481526020018060200183600281111561099657fe5b60ff168152602001828103825284818151815260200191508051906020019080838360005b838110156109d35781810151838201526020016109bb565b50505050905090810190601f168015610a005780820380516001836020036101000a031916815260200191505b509850505050505050505060405180910390f35b348015610a2057600080fd5b5061011561182c565b348015610a3557600080fd5b50610a5360048036036020811015610a4c57600080fd5b5035611832565b604051808c81526020018b8152602001806020018a81526020018981526020018881526020018060200187815260200186815260200185815260200184815260200183810383528c818151815260200191508051906020019080838360005b83811015610aca578181015183820152602001610ab2565b50505050905090810190601f168015610af75780820380516001836020036101000a031916815260200191505b5083810382528851815288516020918201918a019080838360005b83811015610b2a578181015183820152602001610b12565b50505050905090810190601f168015610b575780820380516001836020036101000a031916815260200191505b509d505050505050505050505050505060405180910390f35b348015610b7c57600080fd5b50610b9a60048036036020811015610b9357600080fd5b5035611998565b6040518084815260200180602001838152602001828103825284818151815260200191508051906020019080838360005b83811015610be3578181015183820152602001610bcb565b50505050905090810190601f168015610c105780820380516001836020036101000a031916815260200191505b5094505050505060405180910390f35b348015610c2c57600080fd5b50610280600480360360c0811015610c4357600080fd5b81359160208101359160408201359160608101359181019060a081016080820135640100000000811115610c7657600080fd5b820183602082011115610c8857600080fd5b80359060200191846001830284011164010000000083111715610caa57600080fd5b91908080601f0160208091040260200160405190810160405280939291908181526020018383808284376000920191909152509295949360208101935035915050640100000000811115610cfd57600080fd5b820183602082011115610d0f57600080fd5b80359060200191846001830284011164010000000083111715610d3157600080fd5b91908080601f016020809104026020016040519081016040528093929190818152602001838380828437600092019190915250929550611a45945050505050565b348015610d7e57600080fd5b50610115611af6565b348015610d9357600080fd5b5061028060048036036080811015610daa57600080fd5b81359190810190604081016020820135640100000000811115610dcc57600080fd5b820183602082011115610dde57600080fd5b80359060200191846001830284011164010000000083111715610e0057600080fd5b91908080601f0160208091040260200160405190810160405280939291908181526020018383808284376000920191909152509295949360208101935035915050640100000000811115610e5357600080fd5b820183602082011115610e6557600080fd5b80359060200191846001830284011164010000000083111715610e8757600080fd5b91908080601f0160208091040260200160405190810160405280939291908181526020018383808284376000920191909152509295949360208101935035915050640100000000811115610eda57600080fd5b820183602082011115610eec57600080fd5b80359060200191846001830284011164010000000083111715610f0e57600080fd5b91908080601f016020809104026020016040519081016040528093929190818152602001838380828437600092019190915250929550611afc945050505050565b348015610f5b57600080fd5b50610f7960048036036020811015610f7257600080fd5b5035611ba6565b60405180868152602001858152602001806020018060200180602001848103845287818151815260200191508051906020019080838360005b83811015610fca578181015183820152602001610fb2565b50505050905090810190601f168015610ff75780820380516001836020036101000a031916815260200191505b50848103835286518152865160209182019188019080838360005b8381101561102a578181015183820152602001611012565b50505050905090810190601f1680156110575780820380516001836020036101000a031916815260200191505b5084810382528551815285516020918201918701908083836000838110156109d35781810151838201526020016109bb565b34801561109557600080fd5b50610115611d6f565b3480156110aa57600080fd5b50610115611d75565b3480156110bf57600080fd5b50610280600480360360208110156110d657600080fd5b8101906020810181356401000000008111156110f157600080fd5b82018360208201111561110357600080fd5b8035906020019184600183028401116401000000008311171561112557600080fd5b91908080601f016020809104026020016040519081016040528093929190818152602001838380828437600092019190915250929550611d7b945050505050565b60055481565b600080546001908101808355604080516101608101825282815260208082018e81528284018e8152606084018e9052608084018d905260a084018c905260c084018b905260e084018a905261010084018990526101208401889052610140840188905294875260078252929095208151815591519382019390935590518051929391926111ff9260028501920190611dd8565b50606082015160038201556080820151600482015560a0820151600582015560c08201518051611239916006840191602090910190611dd8565b5060e082015160078201556101008201516008820155610120820151600982015561014090910151600a909101555050505050505050565b600a602090815260009182526040918290208054600180830180548651600293821615610100026000190190911692909204601f81018690048602830186019096528582529194929390929083018282801561130e5780601f106112e35761010080835404028352916020019161130e565b820191906000526020600020905b8154815290600101906020018083116112f157829003601f168201915b50505060028085018054604080516020601f60001961010060018716150201909416959095049283018590048502810185019091528181529596959450909250908301828280156113a05780601f10611375576101008083540402835291602001916113a0565b820191906000526020600020905b81548152906001019060200180831161138357829003601f168201915b5050505060038301805460408051602060026001851615610100026000190190941693909304601f81018490048402820184019092528181529495949350908301828280156114305780601f1061140557610100808354040283529160200191611430565b820191906000526020600020905b81548152906001019060200180831161141357829003601f168201915b5050505050908060040154908060050154905086565b60045481565b6009602052806000526040600020600091509050806000015490806001015490806002015490806003015490806004015490806005018054600181600116156101000203166002900480601f0160208091040260200160405190810160405280929190818152602001828054600181600116156101000203166002900480156115165780601f106114eb57610100808354040283529160200191611516565b820191906000526020600020905b8154815290600101906020018083116114f957829003601f168201915b5050505060068301805460408051602060026001851615610100026000190190941693909304601f81018490048402820184019092528181529495949350908301828280156115a65780601f1061157b576101008083540402835291602001916115a6565b820191906000526020600020905b81548152906001019060200180831161158957829003601f168201915b5050505050905087565b600280546001018082556040805160e081018252918252602082018d905281018b9052606081018a90526080810189905260a081018890529060c082019087908111156115f957fe5b815250600860006002548152602001908152602001600020600082015181600001556020820151816001015560408201518160020155606082015181600301556080820151816004015560a082015181600501908051906020019061165f929190611dd8565b5060c082015160068201805460ff1916600183600281111561167d57fe5b0217905550905050611694600254858585856116a0565b50505050505050505050565b6040805160c0810182528681526020808201878152828401879052606083018690526080830185905260055460a08401526000898152600a83529390932082518155925180519293926116f99260018501920190611dd8565b5060408201518051611715916002840191602090910190611dd8565b5060608201518051611731916003840191602090910190611dd8565b506080820151600482015560a0909101516005909101555050505050565b6008602052806000526040600020600091509050806000015490806001015490806002015490806003015490806004015490806005018054600181600116156101000203166002900480601f0160208091040260200160405190810160405280929190818152602001828054600181600116156101000203166002900480156118195780601f106117ee57610100808354040283529160200191611819565b820191906000526020600020905b8154815290600101906020018083116117fc57829003601f168201915b5050506006909301549192505060ff1687565b60025481565b60076020908152600091825260409182902080546001808301546002808501805488519481161561010002600019011691909104601f8101879004870284018701909752868352929590949192918301828280156118d15780601f106118a6576101008083540402835291602001916118d1565b820191906000526020600020905b8154815290600101906020018083116118b457829003601f168201915b505050600384015460048501546005860154600687018054604080516020601f600260001961010060018816150201909516949094049384018190048102820181019092528281529899959894975092955090918301828280156119765780601f1061194b57610100808354040283529160200191611976565b820191906000526020600020905b81548152906001019060200180831161195957829003601f168201915b50505050509080600701549080600801549080600901549080600a015490508b565b6006602090815260009182526040918290208054600180830180548651600293821615610100026000190190911692909204601f810186900486028301860190965285825291949293909290830182828015611a355780601f10611a0a57610100808354040283529160200191611a35565b820191906000526020600020905b815481529060010190602001808311611a1857829003601f168201915b5050505050908060020154905083565b6003805460019081018083556040805160e08101825282815260208082018c81528284018c8152606084018c8152608085018c815260a086018c815260c087018c90526000988952600986529690972085518155925197830197909755516002820155945195850195909555915160048401555180519193611acf92600585019290910190611dd8565b5060c08201518051611aeb916006840191602090910190611dd8565b505050505050505050565b60035481565b600580546001908101918290556040805160a081018252838152602080820189815282840189815260608401899052608084018890526000968752600b8352939095208251815594519385019390935590518051919392611b6592600285019290910190611dd8565b5060608201518051611b81916003840191602090910190611dd8565b5060808201518051611b9d916004840191602090910190611dd8565b50505050505050565b600b6020908152600091825260409182902080546001808301546002808501805488519481161561010002600019011691909104601f810187900487028401870190975286835292959094919291830182828015611c455780601f10611c1a57610100808354040283529160200191611c45565b820191906000526020600020905b815481529060010190602001808311611c2857829003601f168201915b5050505060038301805460408051602060026001851615610100026000190190941693909304601f8101849004840282018401909252818152949594935090830182828015611cd55780601f10611caa57610100808354040283529160200191611cd5565b820191906000526020600020905b815481529060010190602001808311611cb857829003601f168201915b5050505060048301805460408051602060026001851615610100026000190190941693909304601f8101849004840282018401909252818152949594935090830182828015611d655780601f10611d3a57610100808354040283529160200191611d65565b820191906000526020600020905b815481529060010190602001808311611d4857829003601f168201915b5050505050905085565b60005481565b60015481565b60018054810180825560408051606081018252828152602080820186815260008385018190529485526006825292909320815181559151805191949293611dc793850192910190611dd8565b506040820151816002015590505050565b828054600181600116156101000203166002900490600052602060002090601f016020900481019282601f10611e1957805160ff1916838001178555611e46565b82800160010185558215611e46579182015b82811115611e46578251825591602001919060010190611e2b565b50611e52929150611e56565b5090565b611e7091905b80821115611e525760008155600101611e5c565b9056fea165627a7a7230582024b3e5ed723061f58ede78570a88f00fcaf5bc47fc41a47705e0297ea1c7c9790029",
  "source": "pragma solidity ^0.5.0;\n\ncontract EHR {\n    enum VisitTypes {\n        periodicCheckup,\n        caseManagement,\n        complain\n    }\n\n    int256 public patientsCount = 0;\n    int256 public clinicsCount = 0;\n    int256 public regularVisitsCount = 0;\n    int256 public labVisitsCount = 0;\n    int256 public prescriptionsCount = 0;\n    int256 public medicinesCount = 0;\n\n    struct Clinic {\n        int256 clinicID;\n        string location;\n        int256 numberOfPatients;\n    }\n\n    struct Patient {\n        int256 patientID;\n        int256 clinicID;\n        string name;\n        int256 age;\n        int256 weight;\n        int256 height;\n        string gender;\n        int256 initialHeartRate;\n        int256 initialTemperature;\n        int256 numberOfRegularVisits; //TODO\n        int256 numberOfLabVisits; //TODO\n    }\n\n    struct RegularVisit {\n        int256 regularVisitID;\n        int256 patientID;\n        int256 clinicID;\n        int256 visitHeartRate;\n        int256 visitTemperature;\n        string diagnosis;\n        VisitTypes visitType;\n    }\n\n    struct LabVisit {\n        int256 labVisitID;\n        int256 patientID;\n        int256 clinicID;\n        int256 visitHeartRate;\n        int256 visitTemperature;\n        string testType;\n        string testResult;\n    }\n\n    struct Prescription {\n        int256 regularVisitID;\n        string referral;\n        string followUp;\n        string lab;\n        int256 numberOfMedicines;\n        int256 medicineOffset;\n    }\n\n    struct Medicine {\n        int256 medicineId;\n        int256 regularVisitID;\n        string name;\n        string dose;\n        string period;\n    }\n\n    mapping(int256 => Clinic) public clinics;\n    mapping(int256 => Patient) public patients;\n    mapping(int256 => RegularVisit) public regularVisits;\n    mapping(int256 => LabVisit) public labVisits;\n    mapping(int256 => Prescription) public prescriptions;\n    mapping(int256 => Medicine) public medicines;\n\n    constructor() public {\n        // Initial clinics\n        createClinic(\"Egypt\");\n        createClinic(\"KSA\");\n        createClinic(\"Germany\");\n\n        // Initial patients\n        createPatient(1, \"Sarah\", 23, 53, 171, \"female\", 68, 36);\n        createPatient(1, \"Mohammed\", 25, 63, 181, \"male\", 68, 36);\n        createPatient(2, \"Ahmed\", 25, 63, 181, \"male\", 68, 36);\n        createPatient(2, \"Alaa\", 25, 63, 181, \"female\", 68, 36);\n\n        // Initial regular visits (with their medicines)\n        createRegularVisit(\n            1,\n            1,\n            11,\n            11,\n            \"flu\",\n            VisitTypes.periodicCheckup,\n            \"\",\n            \"yes\",\n            \"\",\n            2\n        );\n        createMedicine(1, \"m1\", \"d1\", \"p1\");\n        createMedicine(1, \"m2\", \"d2\", \"p2\");\n\n        createRegularVisit(\n            1,\n            1,\n            11,\n            11,\n            \"cough\",\n            VisitTypes.complain,\n            \"test\",\n            \"yes\",\n            \"\",\n            1\n        );\n        createMedicine(2, \"m3\", \"d3\", \"p3\");\n\n        createRegularVisit(\n            2,\n            1,\n            11,\n            11,\n            \"cough and flu\",\n            VisitTypes.caseManagement,\n            \"test\",\n            \"none\",\n            \"none\",\n            2\n        );\n        createMedicine(3, \"m4\", \"d4\", \"p4\");\n        createMedicine(3, \"m5\", \"d5\", \"p4\");\n\n        // Initial lab visits\n        createLabVisit(1, 1, 55, 55, \"RBC\", \"good\");\n        createLabVisit(2, 1, 55, 55, \"WBC\", \"moderate\");\n    }\n\n    function createClinic(string memory _location) public {\n        clinicsCount++;\n        clinics[clinicsCount] = Clinic(clinicsCount, _location, 0);\n    }\n\n    function createPatient(\n        int256 _clinicID,\n        string memory _name,\n        int256 _age,\n        int256 _weight,\n        int256 _height,\n        string memory _gender,\n        int256 _initialHeartRate,\n        int256 _initialTemperature\n    ) public {\n        patientsCount++;\n        patients[patientsCount] = Patient(\n            patientsCount,\n            _clinicID,\n            _name,\n            _age,\n            _weight,\n            _height,\n            _gender,\n            _initialHeartRate,\n            _initialTemperature,\n            0,\n            0\n        );\n    }\n\n    function createRegularVisit(\n        int256 _patientID,\n        int256 _clinicID,\n        int256 _visitHeartRate,\n        int256 _visitTemperature,\n        string memory _diagnosis,\n        VisitTypes _visitType,\n        string memory _referral,\n        string memory _followUp,\n        string memory _lab,\n        int256 _numberOfMedicines\n    ) public {\n        regularVisitsCount++;\n\n        regularVisits[regularVisitsCount] = RegularVisit(\n            regularVisitsCount,\n            _patientID,\n            _clinicID,\n            _visitHeartRate,\n            _visitTemperature,\n            _diagnosis,\n            _visitType\n        );\n\n        createPrescription(\n            regularVisitsCount,\n            _referral,\n            _followUp,\n            _lab,\n            _numberOfMedicines\n        );\n    }\n\n    function createLabVisit(\n        int256 _patientID,\n        int256 _clinicID,\n        int256 _visitHeartRate,\n        int256 _visitTemperature,\n        string memory _testType,\n        string memory _testResult\n    ) public {\n        labVisitsCount++;\n        labVisits[labVisitsCount] = LabVisit(\n            labVisitsCount,\n            _patientID,\n            _clinicID,\n            _visitHeartRate,\n            _visitTemperature,\n            _testType,\n            _testResult\n        );\n    }\n\n    function createPrescription(\n        int256 _regularVisitID,\n        string memory _referral,\n        string memory _followUp,\n        string memory _lab,\n        int256 _numberOfMedicines\n    ) public {\n        prescriptions[_regularVisitID] = Prescription(\n            _regularVisitID,\n            _referral,\n            _followUp,\n            _lab,\n            _numberOfMedicines,\n            medicinesCount\n        );\n\n        // for (int256 i = 0; i < _medicinesArr.length; i++) {\n        //     medicinesCount++;\n        //     createMedicine(\n        //         medicinesCount,\n        //         _regularVisitID,\n        //         _medicinesArr[i].name,\n        //         _medicinesArr[i].dose,\n        //         _medicinesArr[i].period\n        //     );\n        // }\n    }\n\n    function createMedicine(\n        int256 _regularVisitID,\n        string memory _name,\n        string memory _dose,\n        string memory _period\n    ) public {\n        medicinesCount++;\n        medicines[medicinesCount] = Medicine(\n            medicinesCount,\n            _regularVisitID,\n            _name,\n            _dose,\n            _period\n        );\n    }\n}\n\n// Creating a regular visit --> creates a prescription --> creates medicines\n",
  "sourcePath": "/Users/sarah/GUC/Semester 10/Security/security-project/contracts/EHR.sol",
  "compiler": {
    "name": "solc",
    "version": "0.5.0+commit.1d4f565a.Emscripten.clang"
  },
  "schemaVersion": "3.0.1",
  "updatedAt": "2022-06-08T20:32:35.398Z",
  "devdoc": {
    "methods": {}
  },
  "userdoc": {
    "methods": {}
  }
}