{
  "contractName": "EHR",
  "abi": [
    {
      "constant": true,
      "inputs": [
        {
          "name": "",
          "type": "address"
        }
      ],
      "name": "mapClinicAddressToID",
      "outputs": [
        {
          "name": "",
          "type": "int256"
        }
      ],
      "payable": false,
      "stateMutability": "view",
      "type": "function",
      "signature": "0x3c5ff371"
    },
    {
      "constant": true,
      "inputs": [
        {
          "name": "",
          "type": "int256"
        }
      ],
      "name": "labVisits",
      "outputs": [
        {
          "name": "labVisitID",
          "type": "int256"
        },
        {
          "name": "patientID",
          "type": "int256"
        },
        {
          "name": "clinicAddress",
          "type": "address"
        },
        {
          "name": "hashMessage",
          "type": "bytes32"
        },
        {
          "name": "data",
          "type": "string"
        }
      ],
      "payable": false,
      "stateMutability": "view",
      "type": "function",
      "signature": "0x3e2bd0c2"
    },
    {
      "constant": true,
      "inputs": [
        {
          "name": "",
          "type": "int256"
        }
      ],
      "name": "regularVisits",
      "outputs": [
        {
          "name": "regularVisitID",
          "type": "int256"
        },
        {
          "name": "patientID",
          "type": "int256"
        },
        {
          "name": "clinicAddress",
          "type": "address"
        },
        {
          "name": "hashMessage",
          "type": "bytes32"
        },
        {
          "name": "data",
          "type": "string"
        }
      ],
      "payable": false,
      "stateMutability": "view",
      "type": "function",
      "signature": "0x6151b7cd"
    },
    {
      "constant": true,
      "inputs": [],
      "name": "regularVisitsCount",
      "outputs": [
        {
          "name": "",
          "type": "int256"
        }
      ],
      "payable": false,
      "stateMutability": "view",
      "type": "function",
      "signature": "0x62e59cf7"
    },
    {
      "constant": true,
      "inputs": [
        {
          "name": "",
          "type": "address"
        }
      ],
      "name": "availableClinics",
      "outputs": [
        {
          "name": "",
          "type": "bool"
        }
      ],
      "payable": false,
      "stateMutability": "view",
      "type": "function",
      "signature": "0x64cb4303"
    },
    {
      "constant": true,
      "inputs": [
        {
          "name": "",
          "type": "int256"
        }
      ],
      "name": "patients",
      "outputs": [
        {
          "name": "patientID",
          "type": "int256"
        },
        {
          "name": "patientAddress",
          "type": "address"
        },
        {
          "name": "hashMessage",
          "type": "bytes32"
        },
        {
          "name": "data",
          "type": "string"
        },
        {
          "name": "addedBy",
          "type": "address"
        }
      ],
      "payable": false,
      "stateMutability": "view",
      "type": "function",
      "signature": "0x7b9fc959"
    },
    {
      "constant": true,
      "inputs": [
        {
          "name": "",
          "type": "int256"
        }
      ],
      "name": "clinics",
      "outputs": [
        {
          "name": "clinicID",
          "type": "int256"
        },
        {
          "name": "clinicAddress",
          "type": "address"
        },
        {
          "name": "hashMessage",
          "type": "bytes32"
        },
        {
          "name": "data",
          "type": "string"
        }
      ],
      "payable": false,
      "stateMutability": "view",
      "type": "function",
      "signature": "0x7fc08cc6"
    },
    {
      "constant": true,
      "inputs": [],
      "name": "labVisitsCount",
      "outputs": [
        {
          "name": "",
          "type": "int256"
        }
      ],
      "payable": false,
      "stateMutability": "view",
      "type": "function",
      "signature": "0x8aa08e1d"
    },
    {
      "constant": true,
      "inputs": [],
      "name": "patientsCount",
      "outputs": [
        {
          "name": "",
          "type": "int256"
        }
      ],
      "payable": false,
      "stateMutability": "view",
      "type": "function",
      "signature": "0xb6b1289d"
    },
    {
      "constant": true,
      "inputs": [],
      "name": "clinicsCount",
      "outputs": [
        {
          "name": "",
          "type": "int256"
        }
      ],
      "payable": false,
      "stateMutability": "view",
      "type": "function",
      "signature": "0xc249bf7e"
    },
    {
      "inputs": [],
      "payable": false,
      "stateMutability": "nonpayable",
      "type": "constructor",
      "signature": "constructor"
    },
    {
      "constant": false,
      "inputs": [
        {
          "name": "_clinicAddress",
          "type": "address"
        },
        {
          "name": "_hash",
          "type": "bytes32"
        },
        {
          "name": "_signature",
          "type": "bytes"
        },
        {
          "name": "_data",
          "type": "string"
        }
      ],
      "name": "createClinic",
      "outputs": [],
      "payable": false,
      "stateMutability": "nonpayable",
      "type": "function",
      "signature": "0x5bad2e54"
    },
    {
      "constant": true,
      "inputs": [
        {
          "name": "_id",
          "type": "int256"
        }
      ],
      "name": "getClinic",
      "outputs": [
        {
          "components": [
            {
              "name": "clinicID",
              "type": "int256"
            },
            {
              "name": "clinicAddress",
              "type": "address"
            },
            {
              "name": "hashMessage",
              "type": "bytes32"
            },
            {
              "name": "data",
              "type": "string"
            }
          ],
          "name": "",
          "type": "tuple"
        }
      ],
      "payable": false,
      "stateMutability": "view",
      "type": "function",
      "signature": "0x29fee749"
    },
    {
      "constant": false,
      "inputs": [
        {
          "name": "_patientAddress",
          "type": "address"
        },
        {
          "name": "_hash",
          "type": "bytes32"
        },
        {
          "name": "_signature",
          "type": "bytes"
        },
        {
          "name": "_data",
          "type": "string"
        }
      ],
      "name": "createPatient",
      "outputs": [],
      "payable": false,
      "stateMutability": "nonpayable",
      "type": "function",
      "signature": "0xc9573f93"
    },
    {
      "constant": true,
      "inputs": [
        {
          "name": "_id",
          "type": "int256"
        }
      ],
      "name": "getPatient",
      "outputs": [
        {
          "components": [
            {
              "name": "patientID",
              "type": "int256"
            },
            {
              "name": "patientAddress",
              "type": "address"
            },
            {
              "name": "hashMessage",
              "type": "bytes32"
            },
            {
              "name": "data",
              "type": "string"
            },
            {
              "name": "addedBy",
              "type": "address"
            }
          ],
          "name": "",
          "type": "tuple"
        }
      ],
      "payable": false,
      "stateMutability": "view",
      "type": "function",
      "signature": "0xab0cca85"
    },
    {
      "constant": true,
      "inputs": [
        {
          "name": "_sender",
          "type": "address"
        }
      ],
      "name": "getMyPatientsCount",
      "outputs": [
        {
          "name": "",
          "type": "uint256"
        }
      ],
      "payable": false,
      "stateMutability": "view",
      "type": "function",
      "signature": "0x1781a297"
    },
    {
      "constant": true,
      "inputs": [
        {
          "name": "_id",
          "type": "uint256"
        },
        {
          "name": "_sender",
          "type": "address"
        }
      ],
      "name": "getMyPatients",
      "outputs": [
        {
          "components": [
            {
              "name": "patientID",
              "type": "int256"
            },
            {
              "name": "patientAddress",
              "type": "address"
            },
            {
              "name": "hashMessage",
              "type": "bytes32"
            },
            {
              "name": "data",
              "type": "string"
            },
            {
              "name": "addedBy",
              "type": "address"
            }
          ],
          "name": "",
          "type": "tuple"
        }
      ],
      "payable": false,
      "stateMutability": "view",
      "type": "function",
      "signature": "0xfa968cdc"
    },
    {
      "constant": false,
      "inputs": [
        {
          "name": "_patientID",
          "type": "int256"
        },
        {
          "name": "_hash",
          "type": "bytes32"
        },
        {
          "name": "_signature",
          "type": "bytes"
        },
        {
          "name": "_data",
          "type": "string"
        }
      ],
      "name": "createLabVisit",
      "outputs": [],
      "payable": false,
      "stateMutability": "nonpayable",
      "type": "function",
      "signature": "0xac624631"
    },
    {
      "constant": true,
      "inputs": [
        {
          "name": "_id",
          "type": "int256"
        },
        {
          "name": "_sender",
          "type": "address"
        }
      ],
      "name": "getPatientLabVisitsCount",
      "outputs": [
        {
          "name": "",
          "type": "uint256"
        }
      ],
      "payable": false,
      "stateMutability": "view",
      "type": "function",
      "signature": "0xf57f0f4e"
    },
    {
      "constant": true,
      "inputs": [
        {
          "name": "_id",
          "type": "int256"
        },
        {
          "name": "_visitID",
          "type": "uint256"
        },
        {
          "name": "_sender",
          "type": "address"
        }
      ],
      "name": "getPatientLabVisits",
      "outputs": [
        {
          "components": [
            {
              "name": "labVisitID",
              "type": "int256"
            },
            {
              "name": "patientID",
              "type": "int256"
            },
            {
              "name": "clinicAddress",
              "type": "address"
            },
            {
              "name": "hashMessage",
              "type": "bytes32"
            },
            {
              "name": "data",
              "type": "string"
            }
          ],
          "name": "",
          "type": "tuple"
        }
      ],
      "payable": false,
      "stateMutability": "view",
      "type": "function",
      "signature": "0x4e8d9f79"
    },
    {
      "constant": true,
      "inputs": [
        {
          "name": "_sender",
          "type": "address"
        }
      ],
      "name": "getClinicLabVisitsCount",
      "outputs": [
        {
          "name": "",
          "type": "uint256"
        }
      ],
      "payable": false,
      "stateMutability": "view",
      "type": "function",
      "signature": "0xd79ebfcf"
    },
    {
      "constant": true,
      "inputs": [
        {
          "name": "_visitID",
          "type": "uint256"
        },
        {
          "name": "_sender",
          "type": "address"
        }
      ],
      "name": "getClinicLabVisits",
      "outputs": [
        {
          "components": [
            {
              "name": "labVisitID",
              "type": "int256"
            },
            {
              "name": "patientID",
              "type": "int256"
            },
            {
              "name": "clinicAddress",
              "type": "address"
            },
            {
              "name": "hashMessage",
              "type": "bytes32"
            },
            {
              "name": "data",
              "type": "string"
            }
          ],
          "name": "",
          "type": "tuple"
        }
      ],
      "payable": false,
      "stateMutability": "view",
      "type": "function",
      "signature": "0x9f0e37db"
    },
    {
      "constant": false,
      "inputs": [
        {
          "name": "_patientID",
          "type": "int256"
        },
        {
          "name": "_hash",
          "type": "bytes32"
        },
        {
          "name": "_signature",
          "type": "bytes"
        },
        {
          "name": "_data",
          "type": "string"
        }
      ],
      "name": "createRegularVisit",
      "outputs": [],
      "payable": false,
      "stateMutability": "nonpayable",
      "type": "function",
      "signature": "0x34b9db5c"
    },
    {
      "constant": true,
      "inputs": [
        {
          "name": "_id",
          "type": "int256"
        },
        {
          "name": "_sender",
          "type": "address"
        }
      ],
      "name": "getPatientRegularVisitsCount",
      "outputs": [
        {
          "name": "",
          "type": "uint256"
        }
      ],
      "payable": false,
      "stateMutability": "view",
      "type": "function",
      "signature": "0xdcbdc022"
    },
    {
      "constant": true,
      "inputs": [
        {
          "name": "_id",
          "type": "int256"
        },
        {
          "name": "_visitID",
          "type": "uint256"
        },
        {
          "name": "_sender",
          "type": "address"
        }
      ],
      "name": "getPatientRegularVisits",
      "outputs": [
        {
          "components": [
            {
              "name": "regularVisitID",
              "type": "int256"
            },
            {
              "name": "patientID",
              "type": "int256"
            },
            {
              "name": "clinicAddress",
              "type": "address"
            },
            {
              "name": "hashMessage",
              "type": "bytes32"
            },
            {
              "name": "data",
              "type": "string"
            }
          ],
          "name": "",
          "type": "tuple"
        }
      ],
      "payable": false,
      "stateMutability": "view",
      "type": "function",
      "signature": "0x2e309026"
    },
    {
      "constant": true,
      "inputs": [
        {
          "name": "_sender",
          "type": "address"
        }
      ],
      "name": "getClinicRegularVisitsCount",
      "outputs": [
        {
          "name": "",
          "type": "uint256"
        }
      ],
      "payable": false,
      "stateMutability": "view",
      "type": "function",
      "signature": "0x0906952a"
    },
    {
      "constant": true,
      "inputs": [
        {
          "name": "_visitID",
          "type": "uint256"
        },
        {
          "name": "_sender",
          "type": "address"
        }
      ],
      "name": "getClinicRegularVisits",
      "outputs": [
        {
          "components": [
            {
              "name": "regularVisitID",
              "type": "int256"
            },
            {
              "name": "patientID",
              "type": "int256"
            },
            {
              "name": "clinicAddress",
              "type": "address"
            },
            {
              "name": "hashMessage",
              "type": "bytes32"
            },
            {
              "name": "data",
              "type": "string"
            }
          ],
          "name": "",
          "type": "tuple"
        }
      ],
      "payable": false,
      "stateMutability": "view",
      "type": "function",
      "signature": "0x70b68d95"
    },
    {
      "constant": true,
      "inputs": [
        {
          "name": "_a",
          "type": "address"
        }
      ],
      "name": "isClinic",
      "outputs": [
        {
          "name": "",
          "type": "bool"
        }
      ],
      "payable": false,
      "stateMutability": "view",
      "type": "function",
      "signature": "0x67644a81"
    },
    {
      "constant": true,
      "inputs": [
        {
          "name": "_id",
          "type": "int256"
        },
        {
          "name": "_a",
          "type": "address"
        }
      ],
      "name": "patientBelongsToSender",
      "outputs": [
        {
          "name": "",
          "type": "bool"
        }
      ],
      "payable": false,
      "stateMutability": "view",
      "type": "function",
      "signature": "0xf064ef02"
    },
    {
      "constant": true,
      "inputs": [
        {
          "name": "a",
          "type": "string"
        },
        {
          "name": "b",
          "type": "string"
        }
      ],
      "name": "compareStrings",
      "outputs": [
        {
          "name": "",
          "type": "bool"
        }
      ],
      "payable": false,
      "stateMutability": "pure",
      "type": "function",
      "signature": "0xbed34bba"
    },
    {
      "constant": true,
      "inputs": [
        {
          "name": "hash",
          "type": "bytes32"
        },
        {
          "name": "signature",
          "type": "bytes"
        }
      ],
      "name": "recover",
      "outputs": [
        {
          "name": "",
          "type": "address"
        }
      ],
      "payable": false,
      "stateMutability": "pure",
      "type": "function",
      "signature": "0x19045a25"
    }
  ],
  "bytecode": "0x6080604052600060015560006002556000600355600060045534801561002457600080fd5b5060008054600160a060020a031916331790556121e6806100466000396000f3fe60806040526004361061017f5763ffffffff7c01000000000000000000000000000000000000000000000000000000006000350416630906952a81146101845780631781a297146101ba57806319045a25146101da57806329fee749146102075780632e3090261461023457806334b9db5c146102615780633c5ff371146102835780633e2bd0c2146102a35780634e8d9f79146102d45780635bad2e54146102f45780636151b7cd1461031457806362e59cf71461033457806364cb43031461034957806367644a811461037657806370b68d95146103965780637b9fc959146103b65780637fc08cc6146103e75780638aa08e1d146104175780639f0e37db1461042c578063ab0cca851461044c578063ac62463114610479578063b6b1289d14610499578063bed34bba146104ae578063c249bf7e146104ce578063c9573f93146104e3578063d79ebfcf14610503578063dcbdc02214610523578063f064ef0214610543578063f57f0f4e14610563578063fa968cdc14610583575b600080fd5b34801561019057600080fd5b506101a461019f366004611bba565b6105a3565b6040516101b19190611fb7565b60405180910390f35b3480156101c657600080fd5b506101a46101d5366004611bba565b6105f4565b3480156101e657600080fd5b506101fa6101f5366004611c71565b61063c565b6040516101b19190611f9b565b34801561021357600080fd5b50610227610222366004611cc3565b61071c565b6040516101b191906120c4565b34801561024057600080fd5b5061025461024f366004611d33565b610829565b6040516101b191906120d5565b34801561026d57600080fd5b5061028161027c366004611d11565b61095e565b005b34801561028f57600080fd5b506101a461029e366004611bba565b610b86565b3480156102af57600080fd5b506102c36102be366004611cc3565b610b98565b6040516101b1959493929190612052565b3480156102e057600080fd5b506102546102ef366004611d33565b610c5a565b34801561030057600080fd5b5061028161030f366004611be0565b610ca6565b34801561032057600080fd5b506102c361032f366004611cc3565b610d98565b34801561034057600080fd5b506101a4610e25565b34801561035557600080fd5b50610369610364366004611bba565b610e2b565b6040516101b19190611fa9565b34801561038257600080fd5b50610369610391366004611bba565b610e40565b3480156103a257600080fd5b506102546103b1366004611ce1565b610e5e565b3480156103c257600080fd5b506103d66103d1366004611cc3565b610f9c565b6040516101b1959493929190612009565b3480156103f357600080fd5b50610407610402366004611cc3565b611069565b6040516101b19493929190611fc5565b34801561042357600080fd5b506101a4611127565b34801561043857600080fd5b50610254610447366004611ce1565b61112d565b34801561045857600080fd5b5061046c610467366004611cc3565b611183565b6040516101b191906120e6565b34801561048557600080fd5b50610281610494366004611d11565b6112b6565b3480156104a557600080fd5b506101a46114cd565b3480156104ba57600080fd5b506103696104c9366004611d80565b6114d3565b3480156104da57600080fd5b506101a46115ba565b3480156104ef57600080fd5b506102816104fe366004611be0565b6115c0565b34801561050f57600080fd5b506101a461051e366004611bba565b61175b565b34801561052f57600080fd5b506101a461053e366004611ce1565b6117a3565b34801561054f57600080fd5b5061036961055e366004611ce1565b6117f4565b34801561056f57600080fd5b506101a461057e366004611ce1565b611818565b34801561058f57600080fd5b5061046c61059e366004611ce1565b611869565b60006105ae82610e40565b15156105d85760405160e560020a62461bcd0281526004016105cf906120b4565b60405180910390fd5b50600160a060020a03166000908152600d602052604090205490565b60006105ff82610e40565b15156106205760405160e560020a62461bcd0281526004016105cf906120b4565b50600160a060020a03166000908152600b602052604090205490565b600080600080845160411415156106595760009350505050610716565b50505060208201516040830151606084015160001a601b60ff8216101561067e57601b015b8060ff16601b1415801561069657508060ff16601c14155b156106a75760009350505050610716565b6040805160008152602080820180845289905260ff8416828401526060820186905260808201859052915160019260a0808401939192601f1981019281900390910190855afa1580156106fe573d6000803e3d6000fd5b505050602060405103519350505050610716565b5050505b92915050565b6107246119b1565b600054600160a060020a031633146107515760405160e560020a62461bcd0281526004016105cf906120a4565b600082815260056020908152604091829020825160808101845281548152600180830154600160a060020a0316828501526002808401548387015260038401805487516101009482161594909402600019011691909104601f8101869004860283018601909652858252919492936060860193919291908301828280156108195780601f106107ee57610100808354040283529160200191610819565b820191906000526020600020905b8154815290600101906020018083116107fc57829003601f168201915b5050505050815250509050919050565b6108316119d7565b61083a82610e40565b151561085b5760405160e560020a62461bcd0281526004016105cf906120b4565b6000848152600c6020526040902080548490811061087557fe5b60009182526020918290206040805160a0810182526005939093029091018054835260018082015484860152600280830154600160a060020a0316858501526003830154606086015260048301805485516101009482161594909402600019011691909104601f8101879004870283018701909452838252939491936080860193919290919083018282801561094c5780601f106109215761010080835404028352916020019161094c565b820191906000526020600020905b81548152906001019060200180831161092f57829003601f168201915b50505050508152505090509392505050565b600061096a848461063c565b905061097581610e40565b8015610986575061098685826117f4565b15156109a75760405160e560020a62461bcd0281526004016105cf906120b4565b6003805460019081018083556040805160a08101825282815260208082018b8152600160a060020a03888116848601908152606085018d8152608086018c815260009889526007865296909720855181559251978301979097559551600282018054600160a060020a0319169190971617909555925194840194909455518051610a379260048501920190611a13565b5050506000858152600c60209081526040808320600380548552600784529184208154600181810180855593875294909520815460059096020194855583810154858501556002808201548187018054600160a060020a031916600160a060020a03909216919091179055818401549386019390935560048082018054939692959294610ad99492860193919291821615610100026000190190911604611a91565b505050600160a060020a038083166000908152600d60209081526040808320600380548552600784529184208154600181810180855593875294909520815460059096020194855583810154858501556002808201548187018054600160a060020a03191691909816179096558083015492850192909255600480830180549297509295610b7b94918601939291821615610100026000190190911604611a91565b505050505050505050565b600a6020526000908152604090205481565b600860209081526000918252604091829020805460018083015460028085015460038601546004870180548a516101009782161597909702600019011693909304601f810189900489028601890190995288855294979296600160a060020a0390911695939290830182828015610c505780601f10610c2557610100808354040283529160200191610c50565b820191906000526020600020905b815481529060010190602001808311610c3357829003601f168201915b5050505050905085565b610c626119d7565b610c6b82610e40565b1515610c8c5760405160e560020a62461bcd0281526004016105cf906120b4565b6000848152600e6020526040902080548490811061087557fe5b6000610cb2848461063c565b600054909150600160a060020a03808316911614610ce55760405160e560020a62461bcd0281526004016105cf906120b4565b60028054600190810180835560408051608081018252828152600160a060020a038a811660208084019182528385018c8152606085018b8152600097885260058352959096208451815591519682018054600160a060020a03191697909316969096179091559251948301949094555180519192610d6b92600385019290910190611a13565b505050600160a060020a039094166000908152600960205260409020805460ff1916600117905550505050565b600760209081526000918252604091829020805460018083015460028085015460038601546004870180548a516101009782161597909702600019011693909304601f810189900489028601890190995288855294979296600160a060020a0390911695939290830182828015610c505780601f10610c2557610100808354040283529160200191610c50565b60035481565b60096020526000908152604090205460ff1681565b600160a060020a031660009081526009602052604090205460ff1690565b610e666119d7565b610e6f82610e40565b1515610e905760405160e560020a62461bcd0281526004016105cf906120b4565b600160a060020a0382166000908152600d60205260409020805484908110610eb457fe5b60009182526020918290206040805160a0810182526005939093029091018054835260018082015484860152600280830154600160a060020a0316858501526003830154606086015260048301805485516101009482161594909402600019011691909104601f81018790048702830187019094528382529394919360808601939192909190830182828015610f8b5780601f10610f6057610100808354040283529160200191610f8b565b820191906000526020600020905b815481529060010190602001808311610f6e57829003601f168201915b505050505081525050905092915050565b600660209081526000918252604091829020805460018083015460028085015460038601805489516101009682161596909602600019011692909204601f81018890048802850188019098528784529396600160a060020a03909216959394939091908301828280156110505780601f1061102557610100808354040283529160200191611050565b820191906000526020600020905b81548152906001019060200180831161103357829003601f168201915b50505060049093015491925050600160a060020a031685565b600560209081526000918252604091829020805460018083015460028085015460038601805489516101009682161596909602600019011692909204601f81018890048802850188019098528784529396600160a060020a039092169593949390919083018282801561111d5780601f106110f25761010080835404028352916020019161111d565b820191906000526020600020905b81548152906001019060200180831161110057829003601f168201915b5050505050905084565b60045481565b6111356119d7565b61113e82610e40565b151561115f5760405160e560020a62461bcd0281526004016105cf906120b4565b600160a060020a0382166000908152600f60205260409020805484908110610eb457fe5b61118b611b06565b61119433610e40565b806111a95750600054600160a060020a031633145b15156111ca5760405160e560020a62461bcd0281526004016105cf906120b4565b600082815260066020908152604091829020825160a08101845281548152600180830154600160a060020a0316828501526002808401548387015260038401805487516101009482161594909402600019011691909104601f8101869004860283018601909652858252919492936060860193919291908301828280156112925780601f1061126757610100808354040283529160200191611292565b820191906000526020600020905b81548152906001019060200180831161127557829003601f168201915b505050918352505060049190910154600160a060020a031660209091015292915050565b60006112c2848461063c565b90506112cd81610e40565b80156112de57506112de85826117f4565b15156112ff5760405160e560020a62461bcd0281526004016105cf906120b4565b6004805460019081018083556040805160a08101825282815260208082018b8152600160a060020a03888116848601908152606085018d8152608086018c815260009889526008865296909720855181559251978301979097559551600282018054600160a060020a0319169190971617909555925160038501559051805191946113909390850192910190611a13565b5050506000858152600e60209081526040808320600480548552600884529184208154600181810180855593875294909520815460059096020194855583810154858501556002808201548187018054600160a060020a031916600160a060020a0390921691909117905560038083015490870155818401805493969295929461142d949086019391929181161561010002600019011604611a91565b505050600160a060020a038083166000908152600f60209081526040808320600480548552600884529184208154600181810180855593875294909520815460059096020194855583810154858501556002808201548187018054600160a060020a03191691909816179096556003808201549086015580830180549297509095610b7b9493860193919291821615610100026000190190911604611a91565b60015481565b6000816040516020018082805190602001908083835b602083106115085780518252601f1990920191602091820191016114e9565b6001836020036101000a03801982511681845116808217855250505050505090500191505060405160208183030381529060405280519060200120836040516020018082805190602001908083835b602083106115765780518252601f199092019160209182019101611557565b6001836020036101000a0380198251168184511680821785525050505050509050019150506040516020818303038152906040528051906020012014905092915050565b60025481565b60006115cc848461063c565b90506115d781610e40565b15156115f85760405160e560020a62461bcd0281526004016105cf906120b4565b6001805481018082556040805160a081018252828152600160a060020a0389811660208084019182528385018b8152606085018a81528985166080870152600097885260068352959096208451815591519682018054600160a060020a03191697909316969096179091559251600284015590518051919361168292600385019290910190611a13565b506080919091015160049091018054600160a060020a03928316600160a060020a0319918216179091558282166000908152600b6020908152604080832060018054855260068452918420815480840180845592865293909420845460059094020192835583820154838301805490961696169590951790935560028083015481830155600380840180549495939461172d9492860193919281161561010002600019011604611a91565b5060049182015491018054600160a060020a031916600160a060020a03909216919091179055505050505050565b600061176682610e40565b15156117875760405160e560020a62461bcd0281526004016105cf906120b4565b50600160a060020a03166000908152600f602052604090205490565b60006117ae82610e40565b80156117bf57506117bf83836117f4565b15156117e05760405160e560020a62461bcd0281526004016105cf906120b4565b50506000908152600c602052604090205490565b60009182526006602052604090912060040154600160a060020a0391821691161490565b600061182382610e40565b8015611834575061183483836117f4565b15156118555760405160e560020a62461bcd0281526004016105cf906120b4565b50506000908152600e602052604090205490565b611871611b06565b61187a82610e40565b151561189b5760405160e560020a62461bcd0281526004016105cf906120b4565b600160a060020a0382166000908152600b602052604090208054849081106118bf57fe5b60009182526020918290206040805160a08101825260059390930290910180548352600180820154600160a060020a0316848601526002808301548585015260038301805485516101009482161594909402600019011691909104601f8101879004870283018701909452838252939491936060860193919290919083018282801561198c5780601f106119615761010080835404028352916020019161198c565b820191906000526020600020905b81548152906001019060200180831161196f57829003601f168201915b505050918352505060049190910154600160a060020a03166020909101529392505050565b604080516080810182526000808252602082018190529181019190915260608082015290565b60a06040519081016040528060008152602001600081526020016000600160a060020a0316815260200160008019168152602001606081525090565b828054600181600116156101000203166002900490600052602060002090601f016020900481019282601f10611a5457805160ff1916838001178555611a81565b82800160010185558215611a81579182015b82811115611a81578251825591602001919060010190611a66565b50611a8d929150611b33565b5090565b828054600181600116156101000203166002900490600052602060002090601f016020900481019282601f10611aca5780548555611a81565b82800160010185558215611a8157600052602060002091601f016020900482015b82811115611a81578254825591600101919060010190611aeb565b6040805160a081018252600080825260208201819052918101829052606080820152608081019190915290565b611b4d91905b80821115611a8d5760008155600101611b39565b90565b6000611b5c823561214a565b9392505050565b6000611b5c8235611b4d565b6000601f82018313611b8057600080fd5b8135611b93611b8e8261211e565b6120f7565b91508082526020830160208301858383011115611baf57600080fd5b610712838284612166565b600060208284031215611bcc57600080fd5b6000611bd88484611b50565b949350505050565b60008060008060808587031215611bf657600080fd5b6000611c028787611b50565b9450506020611c1387828801611b63565b935050604085013567ffffffffffffffff811115611c3057600080fd5b611c3c87828801611b6f565b925050606085013567ffffffffffffffff811115611c5957600080fd5b611c6587828801611b6f565b91505092959194509250565b60008060408385031215611c8457600080fd5b6000611c908585611b63565b925050602083013567ffffffffffffffff811115611cad57600080fd5b611cb985828601611b6f565b9150509250929050565b600060208284031215611cd557600080fd5b6000611bd88484611b63565b60008060408385031215611cf457600080fd5b6000611d008585611b63565b9250506020611cb985828601611b50565b60008060008060808587031215611d2757600080fd5b6000611c028787611b63565b600080600060608486031215611d4857600080fd5b6000611d548686611b63565b9350506020611d6586828701611b63565b9250506040611d7686828701611b50565b9150509250925092565b60008060408385031215611d9357600080fd5b823567ffffffffffffffff811115611daa57600080fd5b611c9085828601611b6f565b611dbf8161214a565b82525050565b611dbf81612155565b611dbf81611b4d565b6000611de282612146565b808452611df6816020860160208601612172565b611dff816121a2565b9093016020019392505050565b601c81527f536f7272792c20796f7520617265206e6f20617574686f72697a656400000000602082015260400190565b601d81527f536f7272792c20796f7520617265206e6f7420617574686f72697a6564000000602082015260400190565b80516000906080840190611e808582611dce565b506020830151611e936020860182611db6565b506040830151611ea66040860182611dce565b5060608301518482036060860152611ebe8282611dd7565b95945050505050565b805160009060a0840190611edb8582611dce565b506020830151611eee6020860182611dce565b506040830151611f016040860182611db6565b506060830151611f146060860182611dce565b5060808301518482036080860152611ebe8282611dd7565b805160009060a0840190611f408582611dce565b506020830151611f536020860182611db6565b506040830151611f666040860182611dce565b5060608301518482036060860152611f7e8282611dd7565b9150506080830151611f936080860182611db6565b509392505050565b602081016107168284611db6565b602081016107168284611dc5565b602081016107168284611dce565b60808101611fd38287611dce565b611fe06020830186611db6565b611fed6040830185611dce565b8181036060830152611fff8184611dd7565b9695505050505050565b60a081016120178288611dce565b6120246020830187611db6565b6120316040830186611dce565b81810360608301526120438185611dd7565b9050611fff6080830184611db6565b60a081016120608288611dce565b61206d6020830187611dce565b61207a6040830186611db6565b6120876060830185611dce565b81810360808301526120998184611dd7565b979650505050505050565b6020808252810161071681611e0c565b6020808252810161071681611e3c565b60208082528101611b5c8184611e6c565b60208082528101611b5c8184611ec7565b60208082528101611b5c8184611f2c565b60405181810167ffffffffffffffff8111828210171561211657600080fd5b604052919050565b600067ffffffffffffffff82111561213557600080fd5b506020601f91909101601f19160190565b5190565b60006107168261215a565b151590565b600160a060020a031690565b82818337506000910152565b60005b8381101561218d578181015183820152602001612175565b8381111561219c576000848401525b50505050565b601f01601f19169056fea265627a7a72305820d26b6aec4439fc3d6db2c372db58ee476f0a9abb0b61808a673acc36c14e790d6c6578706572696d656e74616cf50037",
  "source": "pragma solidity ^0.5.0;\npragma experimental ABIEncoderV2;\n\n// Creating a regular visit --> creates a prescription --> creates medicines\n// Address = public key\n// Only 1 admin\n\n/******************* ROLES OF ADMINS ********************/\n// Admin can add clinics\n\n/******************* ROLES OF CLINICS ********************/\n// Clinics can add patients\n\ncontract EHR {\n    address systemAdmin;\n\n    int256 public patientsCount = 0;\n    int256 public clinicsCount = 0;\n    int256 public regularVisitsCount = 0;\n    int256 public labVisitsCount = 0;\n    // int256 public prescriptionsCount = 0;\n    // int256 public medicinesCount = 0;\n\n    mapping(int256 => Clinic) public clinics;\n    mapping(int256 => Patient) public patients;\n    mapping(int256 => RegularVisit) public regularVisits;\n    mapping(int256 => LabVisit) public labVisits;\n    // mapping(int256 => Prescription) public prescriptions;\n    // mapping(int256 => Medicine) public medicines;\n\n    mapping(address => bool) public availableClinics;\n    mapping(address => int256) public mapClinicAddressToID;\n    mapping(address => Patient[]) clinicPatients; //Clinic Address -> patients\n\n    mapping(int256 => RegularVisit[]) patientsRegularVisits; //Patient ID -> regularVisits\n    mapping(address => RegularVisit[]) clinicsRegularVisits; //Clininc Address -> regularVisits\n\n    mapping(int256 => LabVisit[]) patientsLabVisits; //Patient ID -> labVisits\n    mapping(address => LabVisit[]) clinicsLabVisits; //Clininc Address -> labVisits\n\n    enum VisitTypes {\n        periodicCheckup,\n        caseManagement,\n        complain\n    }\n\n    struct Clinic {\n        int256 clinicID;\n        address clinicAddress;\n        bytes32 hashMessage;\n        string data;\n    }\n\n    struct Patient {\n        int256 patientID;\n        address patientAddress;\n        bytes32 hashMessage;\n        string data;\n        address addedBy;\n    }\n\n    struct RegularVisit {\n        int256 regularVisitID;\n        int256 patientID;\n        address clinicAddress; //the clinic that added it\n        bytes32 hashMessage;\n        string data; //visitHeartRate + visitTemperature + diagnosis + visitType + Prescription\n        // Prescription prescription;\n    }\n\n    struct LabVisit {\n        int256 labVisitID;\n        int256 patientID;\n        address clinicAddress; //the clinic that added it\n        bytes32 hashMessage;\n        string data; //visitHeartRate + visitTemperature + testType + testResult\n    }\n\n    // struct Prescription {\n    //     int256 regularVisitID;\n    //     string referral;\n    //     string followUp;\n    //     strin regular;\n    //     int256 numberOfMedicines;\n    //     int256 medicineOffset;\n    // }\n\n    // struct Medicine {\n    //     int256 medicineId;\n    //     int256 regularVisitID;\n    //     string name;\n    //     string dose;\n    //     string period;\n    // }\n\n    constructor() public {\n        systemAdmin = msg.sender;\n    }\n\n    function createClinic(\n        address _clinicAddress,\n        bytes32 _hash,\n        bytes memory _signature,\n        string memory _data\n    ) public {\n        // string memory hashedMessage\n        // string memory hashedRes = string(\n        //     abi.encodePacked(_signature, systemAdmin)\n        // );\n        // require(\n        //     compareStrings(hashedRes, hashedMessage),\n        //     \"Sorry, digest message is different\"\n        // );\n\n        address recoveredAddress = recover(_hash, _signature);\n        require(\n            recoveredAddress == systemAdmin,\n            \"Sorry, you are not authorized\"\n        );\n\n        clinicsCount++;\n        clinics[clinicsCount] = Clinic(\n            clinicsCount,\n            _clinicAddress,\n            _hash,\n            _data\n        );\n\n        availableClinics[_clinicAddress] = true;\n        // mapClinicAddressToID[_clinicAddress] = clinicsCount;\n        // clinicPatients[_clinicAddress] = [];\n    }\n\n    function getClinic(int256 _id) public view returns (Clinic memory) {\n        require(msg.sender == systemAdmin, \"Sorry, you are no authorized\");\n        return clinics[_id];\n    }\n\n    function createPatient(\n        address _patientAddress,\n        bytes32 _hash,\n        bytes memory _signature,\n        string memory _data\n    ) public {\n        address recoveredAddress = recover(_hash, _signature);\n        require(isClinic(recoveredAddress), \"Sorry, you are not authorized\");\n\n        patientsCount++;\n        patients[patientsCount] = Patient(\n            patientsCount,\n            _patientAddress,\n            _hash,\n            _data,\n            recoveredAddress\n        );\n\n        clinicPatients[recoveredAddress].push(patients[patientsCount]);\n    }\n\n    function getPatient(int256 _id) public view returns (Patient memory) {\n        require(\n            isClinic(msg.sender) || msg.sender == systemAdmin,\n            \"Sorry, you are not authorized\"\n        );\n        return patients[_id];\n    }\n\n    function getMyPatientsCount(address _sender) public view returns (uint256) {\n        require(isClinic(_sender), \"Sorry, you are not authorized\");\n        return clinicPatients[_sender].length;\n    }\n\n    function getMyPatients(uint256 _id, address _sender)\n        public\n        view\n        returns (Patient memory)\n    {\n        require(isClinic(_sender), \"Sorry, you are not authorized\");\n        return clinicPatients[_sender][_id];\n    }\n\n    function createLabVisit(\n        int256 _patientID,\n        bytes32 _hash,\n        bytes memory _signature,\n        string memory _data\n    ) public {\n        address recoveredAddress = recover(_hash, _signature);\n        require(\n            isClinic(recoveredAddress) &&\n                patientBelongsToSender(_patientID, recoveredAddress),\n            \"Sorry, you are not authorized\"\n        );\n\n        labVisitsCount++;\n        labVisits[labVisitsCount] = LabVisit(\n            labVisitsCount,\n            _patientID,\n            recoveredAddress,\n            _hash,\n            _data\n        );\n\n        patientsLabVisits[_patientID].push(labVisits[labVisitsCount]);\n        clinicsLabVisits[recoveredAddress].push(labVisits[labVisitsCount]);\n    }\n\n    function getPatientLabVisitsCount(int256 _id, address _sender)\n        public\n        view\n        returns (uint256)\n    {\n        require(\n            isClinic(_sender) && patientBelongsToSender(_id, _sender),\n            \"Sorry, you are not authorized\"\n        );\n        return patientsLabVisits[_id].length;\n    }\n\n    function getPatientLabVisits(\n        int256 _id,\n        uint256 _visitID,\n        address _sender\n    ) public view returns (LabVisit memory) {\n        require(isClinic(_sender), \"Sorry, you are not authorized\");\n        return patientsLabVisits[_id][_visitID];\n    }\n\n    function getClinicLabVisitsCount(address _sender)\n        public\n        view\n        returns (uint256)\n    {\n        require(isClinic(_sender), \"Sorry, you are not authorized\");\n        return clinicsLabVisits[_sender].length;\n    }\n\n    function getClinicLabVisits(uint256 _visitID, address _sender)\n        public\n        view\n        returns (LabVisit memory)\n    {\n        require(isClinic(_sender), \"Sorry, you are not authorized\");\n        return clinicsLabVisits[_sender][_visitID];\n    }\n\n    function createRegularVisit(\n        int256 _patientID,\n        bytes32 _hash,\n        bytes memory _signature,\n        string memory _data\n    ) public {\n        address recoveredAddress = recover(_hash, _signature);\n        require(\n            isClinic(recoveredAddress) &&\n                patientBelongsToSender(_patientID, recoveredAddress),\n            \"Sorry, you are not authorized\"\n        );\n\n        regularVisitsCount++;\n        regularVisits[regularVisitsCount] = RegularVisit(\n            regularVisitsCount,\n            _patientID,\n            recoveredAddress,\n            _hash,\n            _data\n        );\n\n        patientsRegularVisits[_patientID].push(\n            regularVisits[regularVisitsCount]\n        );\n        clinicsRegularVisits[recoveredAddress].push(\n            regularVisits[regularVisitsCount]\n        );\n    }\n\n    function getPatientRegularVisitsCount(int256 _id, address _sender)\n        public\n        view\n        returns (uint256)\n    {\n        require(\n            isClinic(_sender) && patientBelongsToSender(_id, _sender),\n            \"Sorry, you are not authorized\"\n        );\n        return patientsRegularVisits[_id].length;\n    }\n\n    function getPatientRegularVisits(\n        int256 _id,\n        uint256 _visitID,\n        address _sender\n    ) public view returns (RegularVisit memory) {\n        require(isClinic(_sender), \"Sorry, you are not authorized\");\n        return patientsRegularVisits[_id][_visitID];\n    }\n\n    function getClinicRegularVisitsCount(address _sender)\n        public\n        view\n        returns (uint256)\n    {\n        require(isClinic(_sender), \"Sorry, you are not authorized\");\n        return clinicsRegularVisits[_sender].length;\n    }\n\n    function getClinicRegularVisits(uint256 _visitID, address _sender)\n        public\n        view\n        returns (RegularVisit memory)\n    {\n        require(isClinic(_sender), \"Sorry, you are not authorized\");\n        return clinicsRegularVisits[_sender][_visitID];\n    }\n\n    // function createPrescription(\n    //     int256 _regularVisitID,\n    //     string memory _referral,\n    //     string memory _followUp,\n    //     string memory _lab,\n    //     int256 _numberOfMedicines\n    // ) public {\n    //     prescriptionsCount++;\n    //     prescriptions[_regularVisitID] = Prescription(\n    //         _regularVisitID,\n    //         _referral,\n    //         _followUp,\n    //         _lab,\n    //         _numberOfMedicines,\n    //         medicinesCount\n    //     );\n    // }\n\n    // function createMedicine(\n    //     int256 _regularVisitID,\n    //     string memory _name,\n    //     string memory _dose,\n    //     string memory _period\n    // ) public {\n    //     medicinesCount++;\n    //     medicines[medicinesCount] = Medicine(\n    //         medicinesCount,\n    //         _regularVisitID,\n    //         _name,\n    //         _dose,\n    //         _period\n    //     );\n    // }\n\n    /**************************** HELPER FUNCTIONS *****************************/\n    function isClinic(address _a) public view returns (bool) {\n        return (availableClinics[_a]);\n    }\n\n    function patientBelongsToSender(int256 _id, address _a)\n        public\n        view\n        returns (bool)\n    {\n        return (patients[_id].addedBy == _a);\n    }\n\n    // function getClinicID(int256 _id) public view returns (Clinic memory) {\n    //     require(msg.sender == systemAdmin, \"Sorry, you are no authorized\");\n    //     return clinics[_id];\n    // }\n\n    function compareStrings(string memory a, string memory b)\n        public\n        pure\n        returns (bool)\n    {\n        return keccak256(abi.encodePacked(a)) == keccak256(abi.encodePacked(b));\n    }\n\n    /**\n     * Based upon ECDSA library from OpenZeppelin Solidity\n     * https://github.com/OpenZeppelin/openzeppelin-solidity/blob/master/contracts/cryptography/ECDSA.sol\n     */\n    function recover(bytes32 hash, bytes memory signature)\n        public\n        pure\n        returns (address)\n    {\n        bytes32 r;\n        bytes32 s;\n        uint8 v;\n\n        if (signature.length != 65) {\n            return (address(0));\n        }\n\n        assembly {\n            r := mload(add(signature, 0x20))\n            s := mload(add(signature, 0x40))\n            v := byte(0, mload(add(signature, 0x60)))\n        }\n\n        if (v < 27) {\n            v += 27;\n        }\n\n        if (v != 27 && v != 28) {\n            return (address(0));\n        } else {\n            return ecrecover(hash, v, r, s);\n        }\n    }\n}\n",
  "sourcePath": "/Users/sarah/GUC/Semester 10/Security/security-project/contracts/EHR.sol",
  "compiler": {
    "name": "solc",
    "version": "0.5.0+commit.1d4f565a.Emscripten.clang"
  },
  "schemaVersion": "3.0.1",
  "updatedAt": "2022-06-12T09:28:15.748Z",
  "devdoc": {
    "methods": {}
  },
  "userdoc": {
    "methods": {
      "isClinic(address)": {
        "notice": "************************** HELPER FUNCTIONS ****************************"
      },
      "recover(bytes32,bytes)": {
        "notice": "Based upon ECDSA library from OpenZeppelin Solidity https://github.com/OpenZeppelin/openzeppelin-solidity/blob/master/contracts/cryptography/ECDSA.sol"
      }
    },
    "notice": "***************** ROLES OF CLINICS *******************"
  }
}