{
  "contractName": "EHR",
  "abi": [
    {
      "constant": true,
      "inputs": [],
      "name": "medicinesCount",
      "outputs": [
        {
          "name": "",
          "type": "int256"
        }
      ],
      "payable": false,
      "stateMutability": "view",
      "type": "function",
      "signature": "0x0496649a"
    },
    {
      "constant": true,
      "inputs": [
        {
          "name": "",
          "type": "int256"
        }
      ],
      "name": "prescriptions",
      "outputs": [
        {
          "name": "regularVisitID",
          "type": "int256"
        },
        {
          "name": "referral",
          "type": "string"
        },
        {
          "name": "followUp",
          "type": "string"
        },
        {
          "name": "lab",
          "type": "string"
        },
        {
          "name": "numberOfMedicines",
          "type": "int256"
        },
        {
          "name": "medicineOffset",
          "type": "int256"
        }
      ],
      "payable": false,
      "stateMutability": "view",
      "type": "function",
      "signature": "0x2c5e6460"
    },
    {
      "constant": true,
      "inputs": [],
      "name": "prescriptionsCount",
      "outputs": [
        {
          "name": "",
          "type": "int256"
        }
      ],
      "payable": false,
      "stateMutability": "view",
      "type": "function",
      "signature": "0x39aaa6e8"
    },
    {
      "constant": true,
      "inputs": [
        {
          "name": "",
          "type": "int256"
        }
      ],
      "name": "labVisits",
      "outputs": [
        {
          "name": "labVisitID",
          "type": "int256"
        },
        {
          "name": "patientID",
          "type": "int256"
        },
        {
          "name": "clinicID",
          "type": "int256"
        },
        {
          "name": "visitHeartRate",
          "type": "int256"
        },
        {
          "name": "visitTemperature",
          "type": "int256"
        },
        {
          "name": "testType",
          "type": "string"
        },
        {
          "name": "testResult",
          "type": "string"
        }
      ],
      "payable": false,
      "stateMutability": "view",
      "type": "function",
      "signature": "0x3e2bd0c2"
    },
    {
      "constant": true,
      "inputs": [
        {
          "name": "",
          "type": "int256"
        }
      ],
      "name": "regularVisits",
      "outputs": [
        {
          "name": "regularVisitID",
          "type": "int256"
        },
        {
          "name": "patientID",
          "type": "int256"
        },
        {
          "name": "clinicID",
          "type": "int256"
        },
        {
          "name": "visitHeartRate",
          "type": "int256"
        },
        {
          "name": "visitTemperature",
          "type": "int256"
        },
        {
          "name": "diagnosis",
          "type": "string"
        },
        {
          "name": "visitType",
          "type": "uint8"
        }
      ],
      "payable": false,
      "stateMutability": "view",
      "type": "function",
      "signature": "0x6151b7cd"
    },
    {
      "constant": true,
      "inputs": [],
      "name": "regularVisitsCount",
      "outputs": [
        {
          "name": "",
          "type": "int256"
        }
      ],
      "payable": false,
      "stateMutability": "view",
      "type": "function",
      "signature": "0x62e59cf7"
    },
    {
      "constant": true,
      "inputs": [
        {
          "name": "",
          "type": "int256"
        }
      ],
      "name": "patients",
      "outputs": [
        {
          "name": "patientID",
          "type": "int256"
        },
        {
          "name": "humanID",
          "type": "int256"
        },
        {
          "name": "clinicID",
          "type": "int256"
        },
        {
          "name": "initialHeartRate",
          "type": "int256"
        },
        {
          "name": "initialTemperature",
          "type": "int256"
        },
        {
          "name": "numberOfRegularVisits",
          "type": "int256"
        },
        {
          "name": "numberOfLabVisits",
          "type": "int256"
        }
      ],
      "payable": false,
      "stateMutability": "view",
      "type": "function",
      "signature": "0x7b9fc959"
    },
    {
      "constant": true,
      "inputs": [
        {
          "name": "",
          "type": "int256"
        }
      ],
      "name": "clinics",
      "outputs": [
        {
          "name": "clinicID",
          "type": "int256"
        },
        {
          "name": "location",
          "type": "string"
        },
        {
          "name": "numberOfPatients",
          "type": "int256"
        }
      ],
      "payable": false,
      "stateMutability": "view",
      "type": "function",
      "signature": "0x7fc08cc6"
    },
    {
      "constant": true,
      "inputs": [],
      "name": "labVisitsCount",
      "outputs": [
        {
          "name": "",
          "type": "int256"
        }
      ],
      "payable": false,
      "stateMutability": "view",
      "type": "function",
      "signature": "0x8aa08e1d"
    },
    {
      "constant": true,
      "inputs": [
        {
          "name": "",
          "type": "int256"
        }
      ],
      "name": "humans",
      "outputs": [
        {
          "name": "humanID",
          "type": "int256"
        },
        {
          "name": "name",
          "type": "string"
        },
        {
          "name": "age",
          "type": "int256"
        },
        {
          "name": "weight",
          "type": "int256"
        },
        {
          "name": "height",
          "type": "int256"
        },
        {
          "name": "gender",
          "type": "string"
        }
      ],
      "payable": false,
      "stateMutability": "view",
      "type": "function",
      "signature": "0x91b1798f"
    },
    {
      "constant": true,
      "inputs": [
        {
          "name": "",
          "type": "int256"
        }
      ],
      "name": "medicines",
      "outputs": [
        {
          "name": "medicineId",
          "type": "int256"
        },
        {
          "name": "regularVisitID",
          "type": "int256"
        },
        {
          "name": "name",
          "type": "string"
        },
        {
          "name": "dose",
          "type": "string"
        },
        {
          "name": "period",
          "type": "string"
        }
      ],
      "payable": false,
      "stateMutability": "view",
      "type": "function",
      "signature": "0xb675e5d7"
    },
    {
      "constant": true,
      "inputs": [],
      "name": "patientsCount",
      "outputs": [
        {
          "name": "",
          "type": "int256"
        }
      ],
      "payable": false,
      "stateMutability": "view",
      "type": "function",
      "signature": "0xb6b1289d"
    },
    {
      "constant": true,
      "inputs": [],
      "name": "clinicsCount",
      "outputs": [
        {
          "name": "",
          "type": "int256"
        }
      ],
      "payable": false,
      "stateMutability": "view",
      "type": "function",
      "signature": "0xc249bf7e"
    },
    {
      "constant": true,
      "inputs": [],
      "name": "humansCount",
      "outputs": [
        {
          "name": "",
          "type": "int256"
        }
      ],
      "payable": false,
      "stateMutability": "view",
      "type": "function",
      "signature": "0xed225b3b"
    },
    {
      "inputs": [],
      "payable": false,
      "stateMutability": "nonpayable",
      "type": "constructor",
      "signature": "constructor"
    },
    {
      "constant": false,
      "inputs": [
        {
          "name": "_name",
          "type": "string"
        },
        {
          "name": "_age",
          "type": "int256"
        },
        {
          "name": "_weight",
          "type": "int256"
        },
        {
          "name": "_height",
          "type": "int256"
        },
        {
          "name": "_gender",
          "type": "string"
        }
      ],
      "name": "createHuman",
      "outputs": [],
      "payable": false,
      "stateMutability": "nonpayable",
      "type": "function",
      "signature": "0xf7726588"
    },
    {
      "constant": false,
      "inputs": [
        {
          "name": "_location",
          "type": "string"
        }
      ],
      "name": "createClinic",
      "outputs": [],
      "payable": false,
      "stateMutability": "nonpayable",
      "type": "function",
      "signature": "0xff779a09"
    },
    {
      "constant": false,
      "inputs": [
        {
          "name": "_humanID",
          "type": "int256"
        },
        {
          "name": "_clinicID",
          "type": "int256"
        },
        {
          "name": "_initialHeartRate",
          "type": "int256"
        },
        {
          "name": "_initialTemperature",
          "type": "int256"
        }
      ],
      "name": "createPatient",
      "outputs": [],
      "payable": false,
      "stateMutability": "nonpayable",
      "type": "function",
      "signature": "0x70fe71b4"
    },
    {
      "constant": false,
      "inputs": [
        {
          "name": "_patientID",
          "type": "int256"
        },
        {
          "name": "_clinicID",
          "type": "int256"
        },
        {
          "name": "_visitHeartRate",
          "type": "int256"
        },
        {
          "name": "_visitTemperature",
          "type": "int256"
        },
        {
          "name": "_diagnosis",
          "type": "string"
        },
        {
          "name": "_visitType",
          "type": "uint8"
        },
        {
          "name": "_referral",
          "type": "string"
        },
        {
          "name": "_followUp",
          "type": "string"
        },
        {
          "name": "_lab",
          "type": "string"
        },
        {
          "name": "_numberOfMedicines",
          "type": "int256"
        }
      ],
      "name": "createRegularVisit",
      "outputs": [],
      "payable": false,
      "stateMutability": "nonpayable",
      "type": "function",
      "signature": "0x45a4e119"
    },
    {
      "constant": false,
      "inputs": [
        {
          "name": "_patientID",
          "type": "int256"
        },
        {
          "name": "_clinicID",
          "type": "int256"
        },
        {
          "name": "_visitHeartRate",
          "type": "int256"
        },
        {
          "name": "_visitTemperature",
          "type": "int256"
        },
        {
          "name": "_testType",
          "type": "string"
        },
        {
          "name": "_testResult",
          "type": "string"
        }
      ],
      "name": "createLabVisit",
      "outputs": [],
      "payable": false,
      "stateMutability": "nonpayable",
      "type": "function",
      "signature": "0x80391760"
    },
    {
      "constant": false,
      "inputs": [
        {
          "name": "_regularVisitID",
          "type": "int256"
        },
        {
          "name": "_referral",
          "type": "string"
        },
        {
          "name": "_followUp",
          "type": "string"
        },
        {
          "name": "_lab",
          "type": "string"
        },
        {
          "name": "_numberOfMedicines",
          "type": "int256"
        }
      ],
      "name": "createPrescription",
      "outputs": [],
      "payable": false,
      "stateMutability": "nonpayable",
      "type": "function",
      "signature": "0x483cf89a"
    },
    {
      "constant": false,
      "inputs": [
        {
          "name": "_regularVisitID",
          "type": "int256"
        },
        {
          "name": "_name",
          "type": "string"
        },
        {
          "name": "_dose",
          "type": "string"
        },
        {
          "name": "_period",
          "type": "string"
        }
      ],
      "name": "createMedicine",
      "outputs": [],
      "payable": false,
      "stateMutability": "nonpayable",
      "type": "function",
      "signature": "0x9955f2b4"
    }
  ],
  "bytecode": "0x6080604052600080556000600155600060025560006003556000600455600060055560006006553480156200003357600080fd5b5060408051808201909152600581527f456779707400000000000000000000000000000000000000000000000000000060208201526200007c9064010000000062000ae5810204565b60408051808201909152600381527f4b534100000000000000000000000000000000000000000000000000000000006020820152620000c49064010000000062000ae5810204565b60408051808201909152600781527f4765726d616e790000000000000000000000000000000000000000000000000060208201526200010c9064010000000062000ae5810204565b620001976040805190810160405280600581526020017f53617261680000000000000000000000000000000000000000000000000000008152506017603560ab6040805190810160405280600681526020017f66656d616c65000000000000000000000000000000000000000000000000000081525062000b49640100000000026401000000009004565b620002226040805190810160405280600881526020017f4d6f68616d6d65640000000000000000000000000000000000000000000000008152506019603f60b56040805190810160405280600481526020017f6d616c650000000000000000000000000000000000000000000000000000000081525062000b49640100000000026401000000009004565b620002ad6040805190810160405280600581526020017f41686d65640000000000000000000000000000000000000000000000000000008152506019603f60b56040805190810160405280600481526020017f6d616c650000000000000000000000000000000000000000000000000000000081525062000b49640100000000026401000000009004565b620003386040805190810160405280600481526020017f416c6161000000000000000000000000000000000000000000000000000000008152506019603f60b56040805190810160405280600681526020017f66656d616c65000000000000000000000000000000000000000000000000000081525062000b49640100000000026401000000009004565b620003526001806044602464010000000062000bf4810204565b6200036d600260016044602464010000000062000bf4810204565b62000388600360026044602464010000000062000bf4810204565b620003a3600460026044602464010000000062000bf4810204565b62000454600180600b806040805190810160405280600381526020017f666c750000000000000000000000000000000000000000000000000000000000815250600060206040519081016040528060008152506040805190810160405280600381526020017f79657300000000000000000000000000000000000000000000000000000000008152506020604051908101604052806000815250600262000c72640100000000026401000000009004565b6200051160016040805190810160405280600281526020017f6d310000000000000000000000000000000000000000000000000000000000008152506040805190810160405280600281526020017f64310000000000000000000000000000000000000000000000000000000000008152506040805190810160405280600281526020017f703100000000000000000000000000000000000000000000000000000000000081525062000d8e640100000000026401000000009004565b620005ce60016040805190810160405280600281526020017f6d320000000000000000000000000000000000000000000000000000000000008152506040805190810160405280600281526020017f64320000000000000000000000000000000000000000000000000000000000008152506040805190810160405280600281526020017f703200000000000000000000000000000000000000000000000000000000000081525062000d8e640100000000026401000000009004565b604080518082018252600581527f636f75676800000000000000000000000000000000000000000000000000000060208083019190915282518084018452600481527f74657374000000000000000000000000000000000000000000000000000000008183015283518085018552600381527f79657300000000000000000000000000000000000000000000000000000000008184015284519283019094526000825262000693936001938493600b9384936002928764010000000062000c72810204565b6200075060026040805190810160405280600281526020017f6d330000000000000000000000000000000000000000000000000000000000008152506040805190810160405280600281526020017f64330000000000000000000000000000000000000000000000000000000000008152506040805190810160405280600281526020017f703300000000000000000000000000000000000000000000000000000000000081525062000d8e640100000000026401000000009004565b6200084c60026001600b806040805190810160405280600d81526020017f636f75676820616e6420666c750000000000000000000000000000000000000081525060016040805190810160405280600481526020017f74657374000000000000000000000000000000000000000000000000000000008152506040805190810160405280600481526020017f6e6f6e65000000000000000000000000000000000000000000000000000000008152506040805190810160405280600481526020017f6e6f6e6500000000000000000000000000000000000000000000000000000000815250600262000c72640100000000026401000000009004565b6200090960036040805190810160405280600281526020017f6d340000000000000000000000000000000000000000000000000000000000008152506040805190810160405280600281526020017f64340000000000000000000000000000000000000000000000000000000000008152506040805190810160405280600281526020017f703400000000000000000000000000000000000000000000000000000000000081525062000d8e640100000000026401000000009004565b620009c660036040805190810160405280600281526020017f6d350000000000000000000000000000000000000000000000000000000000008152506040805190810160405280600281526020017f64350000000000000000000000000000000000000000000000000000000000008152506040805190810160405280600281526020017f703400000000000000000000000000000000000000000000000000000000000081525062000d8e640100000000026401000000009004565b62000a52600180602c60376040805190810160405280600381526020017f52424300000000000000000000000000000000000000000000000000000000008152506040805190810160405280600481526020017f676f6f640000000000000000000000000000000000000000000000000000000081525062000e3e640100000000026401000000009004565b62000adf60026001602c60376040805190810160405280600381526020017f57424300000000000000000000000000000000000000000000000000000000008152506040805190810160405280600881526020017f6d6f64657261746500000000000000000000000000000000000000000000000081525062000e3e640100000000026401000000009004565b6200106e565b600280546001908101918290556040805160608101825283815260208082018681526000838501819052958652600882529290942081518155915180519194929362000b38939085019291019062000fc9565b506040820151816002015590505050565b6000805460019081018083556040805160c08101825282815260208082018b81528284018b9052606083018a90526080830189905260a0830188905293865260078152919094208451815591518051929362000bae9390850192919091019062000fc9565b5060408201516002820155606082015160038201556080820151600482015560a0820151805162000bea91600584019160209091019062000fc9565b5050505050505050565b6001805481018082556040805160e08101825282815260208082019889528183019788526060820196875260808201958652600060a0830181815260c0840182815295825260099092529290922090518155965192870192909255935160028601559151600385015551600484015551600583015551600690910155565b60008a815260096020908152604091829020600501805460019081019091556003805490910190819055825160e0810184529081529081018c90529081018a9052606081018990526080810188905260a0810187905260c0810186600281111562000cd957fe5b815250600a60006003548152602001908152602001600020600082015181600001556020820151816001015560408201518160020155606082015181600301556080820151816004015560a082015181600501908051906020019062000d4192919062000fc9565b5060c082015160068201805460ff1916600183600281111562000d6057fe5b02179055505060035462000d8291508585858564010000000062000f07810204565b50505050505050505050565b600680546001908101918290556040805160a081018252838152602080820189815282840189815260608401899052608084018890526000968752600d835293909520825181559451938501939093559051805191939262000df99260028501929091019062000fc9565b506060820151805162000e1791600384019160209091019062000fc9565b506080820151805162000e3591600484019160209091019062000fc9565b50505050505050565b600086815260096020908152604080832060060180546001908101909155600480548201808255835160e0810185528181528086018d81528186018d8152606083018d8152608084018d815260a085018d815260c086018d9052958b52600b8a529790992083518155915195820195909555935160028501559551600384015592519082015590518051919262000ede9260058501929091019062000fc9565b5060c0820151805162000efc91600684019160209091019062000fc9565b505050505050505050565b6005805460019081019091556040805160c0810182528781526020808201888152828401889052606083018790526080830186905260065460a084015260008a8152600c8352939093208251815592518051929462000f6f9390850192919091019062000fc9565b506040820151805162000f8d91600284019160209091019062000fc9565b506060820151805162000fab91600384019160209091019062000fc9565b506080820151600482015560a0909101516005909101555050505050565b828054600181600116156101000203166002900490600052602060002090601f016020900481019282601f106200100c57805160ff19168380011785556200103c565b828001600101855582156200103c579182015b828111156200103c5782518255916020019190600101906200101f565b506200104a9291506200104e565b5090565b6200106b91905b808211156200104a576000815560010162001055565b90565b611f8c806200107e6000396000f3fe60806040526004361061011c5763ffffffff7c01000000000000000000000000000000000000000000000000000000006000350416630496649a81146101215780632c5e64601461014857806339aaa6e8146102cb5780633e2bd0c2146102e057806345a4e119146103c8578063483cf89a146106385780636151b7cd1461080257806362e59cf7146108dc57806370fe71b4146108f15780637b9fc9591461092d5780637fc08cc61461098f5780638039176014610a3f5780638aa08e1d14610b9157806391b1798f14610ba65780639955f2b414610c88578063b675e5d714610e50578063b6b1289d14610f8a578063c249bf7e14610f9f578063ed225b3b14610fb4578063f772658814610fc9578063ff779a0914611115575b600080fd5b34801561012d57600080fd5b506101366111c8565b60408051918252519081900360200190f35b34801561015457600080fd5b506101726004803603602081101561016b57600080fd5b50356111ce565b60405180878152602001806020018060200180602001868152602001858152602001848103845289818151815260200191508051906020019080838360005b838110156101c95781810151838201526020016101b1565b50505050905090810190601f1680156101f65780820380516001836020036101000a031916815260200191505b5084810383528851815288516020918201918a019080838360005b83811015610229578181015183820152602001610211565b50505050905090810190601f1680156102565780820380516001836020036101000a031916815260200191505b50848103825287518152875160209182019189019080838360005b83811015610289578181015183820152602001610271565b50505050905090810190601f1680156102b65780820380516001836020036101000a031916815260200191505b50995050505050505050505060405180910390f35b3480156102d757600080fd5b506101366113a3565b3480156102ec57600080fd5b5061030a6004803603602081101561030357600080fd5b50356113a9565b604051808881526020018781526020018681526020018581526020018481526020018060200180602001838103835285818151815260200191508051906020019080838360005b83811015610369578181015183820152602001610351565b50505050905090810190601f1680156103965780820380516001836020036101000a031916815260200191505b508381038252845181528451602091820191860190808383600083811015610289578181015183820152602001610271565b3480156103d457600080fd5b5061063660048036036101408110156103ec57600080fd5b81359160208101359160408201359160608101359181019060a08101608082013564010000000081111561041f57600080fd5b82018360208201111561043157600080fd5b8035906020019184600183028401116401000000008311171561045357600080fd5b91908080601f016020809104026020016040519081016040528093929190818152602001838380828437600092019190915250929560ff8535169590949093506040810192506020013590506401000000008111156104b157600080fd5b8201836020820111156104c357600080fd5b803590602001918460018302840111640100000000831117156104e557600080fd5b91908080601f016020809104026020016040519081016040528093929190818152602001838380828437600092019190915250929594936020810193503591505064010000000081111561053857600080fd5b82018360208201111561054a57600080fd5b8035906020019184600183028401116401000000008311171561056c57600080fd5b91908080601f01602080910402602001604051908101604052809392919081815260200183838082843760009201919091525092959493602081019350359150506401000000008111156105bf57600080fd5b8201836020820111156105d157600080fd5b803590602001918460018302840111640100000000831117156105f357600080fd5b91908080601f016020809104026020016040519081016040528093929190818152602001838380828437600092019190915250929550509135925061150d915050565b005b34801561064457600080fd5b50610636600480360360a081101561065b57600080fd5b8135919081019060408101602082013564010000000081111561067d57600080fd5b82018360208201111561068f57600080fd5b803590602001918460018302840111640100000000831117156106b157600080fd5b91908080601f016020809104026020016040519081016040528093929190818152602001838380828437600092019190915250929594936020810193503591505064010000000081111561070457600080fd5b82018360208201111561071657600080fd5b8035906020019184600183028401116401000000008311171561073857600080fd5b91908080601f016020809104026020016040519081016040528093929190818152602001838380828437600092019190915250929594936020810193503591505064010000000081111561078b57600080fd5b82018360208201111561079d57600080fd5b803590602001918460018302840111640100000000831117156107bf57600080fd5b91908080601f016020809104026020016040519081016040528093929190818152602001838380828437600092019190915250929550509135925061161a915050565b34801561080e57600080fd5b5061082c6004803603602081101561082557600080fd5b50356116d6565b604051808881526020018781526020018681526020018581526020018481526020018060200183600281111561085e57fe5b60ff168152602001828103825284818151815260200191508051906020019080838360005b8381101561089b578181015183820152602001610883565b50505050905090810190601f1680156108c85780820380516001836020036101000a031916815260200191505b509850505050505050505060405180910390f35b3480156108e857600080fd5b506101366117b3565b3480156108fd57600080fd5b506106366004803603608081101561091457600080fd5b50803590602081013590604081013590606001356117b9565b34801561093957600080fd5b506109576004803603602081101561095057600080fd5b5035611837565b604080519788526020880196909652868601949094526060860192909252608085015260a084015260c0830152519081900360e00190f35b34801561099b57600080fd5b506109b9600480360360208110156109b257600080fd5b5035611874565b6040518084815260200180602001838152602001828103825284818151815260200191508051906020019080838360005b83811015610a025781810151838201526020016109ea565b50505050905090810190601f168015610a2f5780820380516001836020036101000a031916815260200191505b5094505050505060405180910390f35b348015610a4b57600080fd5b50610636600480360360c0811015610a6257600080fd5b81359160208101359160408201359160608101359181019060a081016080820135640100000000811115610a9557600080fd5b820183602082011115610aa757600080fd5b80359060200191846001830284011164010000000083111715610ac957600080fd5b91908080601f0160208091040260200160405190810160405280939291908181526020018383808284376000920191909152509295949360208101935035915050640100000000811115610b1c57600080fd5b820183602082011115610b2e57600080fd5b80359060200191846001830284011164010000000083111715610b5057600080fd5b91908080601f016020809104026020016040519081016040528093929190818152602001838380828437600092019190915250929550611921945050505050565b348015610b9d57600080fd5b506101366119e6565b348015610bb257600080fd5b50610bd060048036036020811015610bc957600080fd5b50356119ec565b604051808781526020018060200186815260200185815260200184815260200180602001838103835288818151815260200191508051906020019080838360005b83811015610c29578181015183820152602001610c11565b50505050905090810190601f168015610c565780820380516001836020036101000a031916815260200191505b50838103825284518152845160209182019186019080838360008381101561089b578181015183820152602001610883565b348015610c9457600080fd5b5061063660048036036080811015610cab57600080fd5b81359190810190604081016020820135640100000000811115610ccd57600080fd5b820183602082011115610cdf57600080fd5b80359060200191846001830284011164010000000083111715610d0157600080fd5b91908080601f0160208091040260200160405190810160405280939291908181526020018383808284376000920191909152509295949360208101935035915050640100000000811115610d5457600080fd5b820183602082011115610d6657600080fd5b80359060200191846001830284011164010000000083111715610d8857600080fd5b91908080601f0160208091040260200160405190810160405280939291908181526020018383808284376000920191909152509295949360208101935035915050640100000000811115610ddb57600080fd5b820183602082011115610ded57600080fd5b80359060200191846001830284011164010000000083111715610e0f57600080fd5b91908080601f016020809104026020016040519081016040528093929190818152602001838380828437600092019190915250929550611b37945050505050565b348015610e5c57600080fd5b50610e7a60048036036020811015610e7357600080fd5b5035611be1565b60405180868152602001858152602001806020018060200180602001848103845287818151815260200191508051906020019080838360005b83811015610ecb578181015183820152602001610eb3565b50505050905090810190601f168015610ef85780820380516001836020036101000a031916815260200191505b50848103835286518152865160209182019188019080838360005b83811015610f2b578181015183820152602001610f13565b50505050905090810190601f168015610f585780820380516001836020036101000a031916815260200191505b50848103825285518152855160209182019187019080838360008381101561089b578181015183820152602001610883565b348015610f9657600080fd5b50610136611daa565b348015610fab57600080fd5b50610136611db0565b348015610fc057600080fd5b50610136611db6565b348015610fd557600080fd5b50610636600480360360a0811015610fec57600080fd5b81019060208101813564010000000081111561100757600080fd5b82018360208201111561101957600080fd5b8035906020019184600183028401116401000000008311171561103b57600080fd5b91908080601f01602080910402602001604051908101604052809392919081815260200183838082843760009201919091525092958435956020860135956040810135955091935091506080810190606001356401000000008111156110a057600080fd5b8201836020820111156110b257600080fd5b803590602001918460018302840111640100000000831117156110d457600080fd5b91908080601f016020809104026020016040519081016040528093929190818152602001838380828437600092019190915250929550611dbc945050505050565b34801561112157600080fd5b506106366004803603602081101561113857600080fd5b81019060208101813564010000000081111561115357600080fd5b82018360208201111561116557600080fd5b8035906020019184600183028401116401000000008311171561118757600080fd5b91908080601f016020809104026020016040519081016040528093929190818152602001838380828437600092019190915250929550611e63945050505050565b60065481565b600c602090815260009182526040918290208054600180830180548651600293821615610100026000190190911692909204601f81018690048602830186019096528582529194929390929083018282801561126b5780601f106112405761010080835404028352916020019161126b565b820191906000526020600020905b81548152906001019060200180831161124e57829003601f168201915b50505060028085018054604080516020601f60001961010060018716150201909416959095049283018590048502810185019091528181529596959450909250908301828280156112fd5780601f106112d2576101008083540402835291602001916112fd565b820191906000526020600020905b8154815290600101906020018083116112e057829003601f168201915b5050505060038301805460408051602060026001851615610100026000190190941693909304601f810184900484028201840190925281815294959493509083018282801561138d5780601f106113625761010080835404028352916020019161138d565b820191906000526020600020905b81548152906001019060200180831161137057829003601f168201915b5050505050908060040154908060050154905086565b60055481565b600b602052806000526040600020600091509050806000015490806001015490806002015490806003015490806004015490806005018054600181600116156101000203166002900480601f0160208091040260200160405190810160405280929190818152602001828054600181600116156101000203166002900480156114735780601f1061144857610100808354040283529160200191611473565b820191906000526020600020905b81548152906001019060200180831161145657829003601f168201915b5050505060068301805460408051602060026001851615610100026000190190941693909304601f81018490048402820184019092528181529495949350908301828280156115035780601f106114d857610100808354040283529160200191611503565b820191906000526020600020905b8154815290600101906020018083116114e657829003601f168201915b5050505050905087565b60008a815260096020908152604091829020600501805460019081019091556003805490910190819055825160e0810184529081529081018c90529081018a9052606081018990526080810188905260a0810187905260c0810186600281111561157357fe5b815250600a60006003548152602001908152602001600020600082015181600001556020820151816001015560408201518160020155606082015181600301556080820151816004015560a08201518160050190805190602001906115d9929190611ec5565b5060c082015160068201805460ff191660018360028111156115f757fe5b021790555090505061160e6003548585858561161a565b50505050505050505050565b6005805460019081019091556040805160c0810182528781526020808201888152828401889052606083018790526080830186905260065460a084015260008a8152600c8352939093208251815592518051929461168093908501929190910190611ec5565b506040820151805161169c916002840191602090910190611ec5565b50606082015180516116b8916003840191602090910190611ec5565b506080820151600482015560a0909101516005909101555050505050565b600a602052806000526040600020600091509050806000015490806001015490806002015490806003015490806004015490806005018054600181600116156101000203166002900480601f0160208091040260200160405190810160405280929190818152602001828054600181600116156101000203166002900480156117a05780601f10611775576101008083540402835291602001916117a0565b820191906000526020600020905b81548152906001019060200180831161178357829003601f168201915b5050506006909301549192505060ff1687565b60035481565b6001805481018082556040805160e08101825282815260208082019889528183019788526060820196875260808201958652600060a0830181815260c0840182815295825260099092529290922090518155965192870192909255935160028601559151600385015551600484015551600583015551600690910155565b6009602052600090815260409020805460018201546002830154600384015460048501546005860154600690960154949593949293919290919087565b6008602090815260009182526040918290208054600180830180548651600293821615610100026000190190911692909204601f8101869004860283018601909652858252919492939092908301828280156119115780601f106118e657610100808354040283529160200191611911565b820191906000526020600020905b8154815290600101906020018083116118f457829003601f168201915b5050505050908060020154905083565b600086815260096020908152604080832060060180546001908101909155600480548201808255835160e0810185528181528086018d81528186018d8152606083018d8152608084018d815260a085018d815260c086018d9052958b52600b8a52979099208351815591519582019590955593516002850155955160038401559251908201559051805191926119bf92600585019290910190611ec5565b5060c082015180516119db916006840191602090910190611ec5565b505050505050505050565b60045481565b6007602090815260009182526040918290208054600180830180548651600293821615610100026000190190911692909204601f810186900486028301860190965285825291949293909290830182828015611a895780601f10611a5e57610100808354040283529160200191611a89565b820191906000526020600020905b815481529060010190602001808311611a6c57829003601f168201915b50505050600283810154600385015460048601546005870180546040805160206001841615610100026000190190931697909704601f8101839004830288018301909152808752979894979396509194929091830182828015611b2d5780601f10611b0257610100808354040283529160200191611b2d565b820191906000526020600020905b815481529060010190602001808311611b1057829003601f168201915b5050505050905086565b600680546001908101918290556040805160a081018252838152602080820189815282840189815260608401899052608084018890526000968752600d8352939095208251815594519385019390935590518051919392611ba092600285019290910190611ec5565b5060608201518051611bbc916003840191602090910190611ec5565b5060808201518051611bd8916004840191602090910190611ec5565b50505050505050565b600d6020908152600091825260409182902080546001808301546002808501805488519481161561010002600019011691909104601f810187900487028401870190975286835292959094919291830182828015611c805780601f10611c5557610100808354040283529160200191611c80565b820191906000526020600020905b815481529060010190602001808311611c6357829003601f168201915b5050505060038301805460408051602060026001851615610100026000190190941693909304601f8101849004840282018401909252818152949594935090830182828015611d105780601f10611ce557610100808354040283529160200191611d10565b820191906000526020600020905b815481529060010190602001808311611cf357829003601f168201915b5050505060048301805460408051602060026001851615610100026000190190941693909304601f8101849004840282018401909252818152949594935090830182828015611da05780601f10611d7557610100808354040283529160200191611da0565b820191906000526020600020905b815481529060010190602001808311611d8357829003601f168201915b5050505050905085565b60015481565b60025481565b60005481565b6000805460019081018083556040805160c08101825282815260208082018b81528284018b9052606083018a90526080830189905260a08301889052938652600781529190942084518155915180519293611e1f93908501929190910190611ec5565b5060408201516002820155606082015160038201556080820151600482015560a08201518051611e59916005840191602090910190611ec5565b5050505050505050565b6002805460019081019182905560408051606081018252838152602080820186815260008385018190529586526008825292909420815181559151805191949293611eb49390850192910190611ec5565b506040820151816002015590505050565b828054600181600116156101000203166002900490600052602060002090601f016020900481019282601f10611f0657805160ff1916838001178555611f33565b82800160010185558215611f33579182015b82811115611f33578251825591602001919060010190611f18565b50611f3f929150611f43565b5090565b611f5d91905b80821115611f3f5760008155600101611f49565b9056fea165627a7a72305820fcc371ddeecaa6b4b2654b5282bdf89a965a1ac570e443d5430eea4dc0a54c210029",
  "source": "pragma solidity ^0.5.0;\n\ncontract EHR {\n    enum VisitTypes {\n        periodicCheckup,\n        caseManagement,\n        complain\n    }\n\n    int256 public humansCount = 0;\n    int256 public patientsCount = 0;\n    int256 public clinicsCount = 0;\n    int256 public regularVisitsCount = 0;\n    int256 public labVisitsCount = 0;\n    int256 public prescriptionsCount = 0;\n    int256 public medicinesCount = 0;\n\n    struct Human {\n        int256 humanID;\n        string name;\n        int256 age;\n        int256 weight;\n        int256 height;\n        string gender;\n    }\n\n    struct Clinic {\n        int256 clinicID;\n        string location;\n        int256 numberOfPatients;\n    }\n\n    struct Patient {\n        int256 patientID;\n        int256 humanID;\n        int256 clinicID;\n        int256 initialHeartRate;\n        int256 initialTemperature;\n        int256 numberOfRegularVisits;\n        int256 numberOfLabVisits;\n    }\n\n    struct RegularVisit {\n        int256 regularVisitID;\n        int256 patientID;\n        int256 clinicID;\n        int256 visitHeartRate;\n        int256 visitTemperature;\n        string diagnosis;\n        VisitTypes visitType;\n    }\n\n    struct LabVisit {\n        int256 labVisitID;\n        int256 patientID;\n        int256 clinicID;\n        int256 visitHeartRate;\n        int256 visitTemperature;\n        string testType;\n        string testResult;\n    }\n\n    struct Prescription {\n        int256 regularVisitID;\n        string referral;\n        string followUp;\n        string lab;\n        int256 numberOfMedicines;\n        int256 medicineOffset;\n    }\n\n    struct Medicine {\n        int256 medicineId;\n        int256 regularVisitID;\n        string name;\n        string dose;\n        string period;\n    }\n\n    mapping(int256 => Human) public humans;\n    mapping(int256 => Clinic) public clinics;\n    mapping(int256 => Patient) public patients;\n    mapping(int256 => RegularVisit) public regularVisits;\n    mapping(int256 => LabVisit) public labVisits;\n    mapping(int256 => Prescription) public prescriptions;\n    mapping(int256 => Medicine) public medicines;\n\n    constructor() public {\n        // Initial clinics\n        createClinic(\"Egypt\");\n        createClinic(\"KSA\");\n        createClinic(\"Germany\");\n\n        // Initial humans\n        createHuman(\"Sarah\", 23, 53, 171, \"female\");\n        createHuman(\"Mohammed\", 25, 63, 181, \"male\");\n        createHuman(\"Ahmed\", 25, 63, 181, \"male\");\n        createHuman(\"Alaa\", 25, 63, 181, \"female\");\n\n        // Initial patients\n        createPatient(1, 1, 68, 36);\n        createPatient(2, 1, 68, 36);\n        createPatient(3, 2, 68, 36);\n        createPatient(4, 2, 68, 36);\n\n        // Initial regular visits (with their medicines)\n        createRegularVisit(\n            1,\n            1,\n            11,\n            11,\n            \"flu\",\n            VisitTypes.periodicCheckup,\n            \"\",\n            \"yes\",\n            \"\",\n            2\n        );\n        createMedicine(1, \"m1\", \"d1\", \"p1\");\n        createMedicine(1, \"m2\", \"d2\", \"p2\");\n\n        createRegularVisit(\n            1,\n            1,\n            11,\n            11,\n            \"cough\",\n            VisitTypes.complain,\n            \"test\",\n            \"yes\",\n            \"\",\n            1\n        );\n        createMedicine(2, \"m3\", \"d3\", \"p3\");\n\n        createRegularVisit(\n            2,\n            1,\n            11,\n            11,\n            \"cough and flu\",\n            VisitTypes.caseManagement,\n            \"test\",\n            \"none\",\n            \"none\",\n            2\n        );\n        createMedicine(3, \"m4\", \"d4\", \"p4\");\n        createMedicine(3, \"m5\", \"d5\", \"p4\");\n\n        // Initial lab visits\n        createLabVisit(1, 1, 44, 55, \"RBC\", \"good\");\n        createLabVisit(2, 1, 44, 55, \"WBC\", \"moderate\");\n    }\n\n    function createHuman(\n        string memory _name,\n        int256 _age,\n        int256 _weight,\n        int256 _height,\n        string memory _gender\n    ) public {\n        humansCount++;\n        humans[humansCount] = Human(\n            humansCount,\n            _name,\n            _age,\n            _weight,\n            _height,\n            _gender\n        );\n    }\n\n    function createClinic(string memory _location) public {\n        clinicsCount++;\n        clinics[clinicsCount] = Clinic(clinicsCount, _location, 0);\n    }\n\n    function createPatient(\n        int256 _humanID,\n        int256 _clinicID,\n        int256 _initialHeartRate,\n        int256 _initialTemperature\n    ) public {\n        patientsCount++;\n        patients[patientsCount] = Patient(\n            patientsCount,\n            _humanID,\n            _clinicID,\n            _initialHeartRate,\n            _initialTemperature,\n            0,\n            0\n        );\n    }\n\n    function createRegularVisit(\n        int256 _patientID,\n        int256 _clinicID,\n        int256 _visitHeartRate,\n        int256 _visitTemperature,\n        string memory _diagnosis,\n        VisitTypes _visitType,\n        string memory _referral,\n        string memory _followUp,\n        string memory _lab,\n        int256 _numberOfMedicines\n    ) public {\n        // VisitTypes temp = VisitTypes.periodicCheckup;\n        // if (_visitType == 0) {\n        //     temp = VisitTypes.periodicCheckup;\n        // } else if (_visitType == 1) {\n        //     temp = VisitTypes.caseManagement;\n        // } else {\n        //     temp = VisitTypes.complain;\n        // }\n\n        patients[_patientID].numberOfRegularVisits =\n            patients[_patientID].numberOfRegularVisits +\n            1;\n\n        regularVisitsCount++;\n\n        regularVisits[regularVisitsCount] = RegularVisit(\n            regularVisitsCount,\n            _patientID,\n            _clinicID,\n            _visitHeartRate,\n            _visitTemperature,\n            _diagnosis,\n            _visitType\n        );\n\n        createPrescription(\n            regularVisitsCount,\n            _referral,\n            _followUp,\n            _lab,\n            _numberOfMedicines\n        );\n    }\n\n    function createLabVisit(\n        int256 _patientID,\n        int256 _clinicID,\n        int256 _visitHeartRate,\n        int256 _visitTemperature,\n        string memory _testType,\n        string memory _testResult\n    ) public {\n        patients[_patientID].numberOfLabVisits =\n            patients[_patientID].numberOfLabVisits +\n            1;\n\n        labVisitsCount++;\n        labVisits[labVisitsCount] = LabVisit(\n            labVisitsCount,\n            _patientID,\n            _clinicID,\n            _visitHeartRate,\n            _visitTemperature,\n            _testType,\n            _testResult\n        );\n    }\n\n    function createPrescription(\n        int256 _regularVisitID,\n        string memory _referral,\n        string memory _followUp,\n        string memory _lab,\n        int256 _numberOfMedicines\n    ) public {\n        prescriptionsCount++;\n        prescriptions[_regularVisitID] = Prescription(\n            _regularVisitID,\n            _referral,\n            _followUp,\n            _lab,\n            _numberOfMedicines,\n            medicinesCount\n        );\n    }\n\n    function createMedicine(\n        int256 _regularVisitID,\n        string memory _name,\n        string memory _dose,\n        string memory _period\n    ) public {\n        medicinesCount++;\n        medicines[medicinesCount] = Medicine(\n            medicinesCount,\n            _regularVisitID,\n            _name,\n            _dose,\n            _period\n        );\n    }\n}\n\n// Creating a regular visit --> creates a prescription --> creates medicines\n",
  "sourcePath": "/Users/sarah/GUC/Semester 10/Security/security-project/contracts/EHR.sol",
  "compiler": {
    "name": "solc",
    "version": "0.5.0+commit.1d4f565a.Emscripten.clang"
  },
  "schemaVersion": "3.0.1",
  "updatedAt": "2022-06-09T00:50:40.229Z",
  "devdoc": {
    "methods": {}
  },
  "userdoc": {
    "methods": {}
  }
}