{
  "contractName": "EHR",
  "abi": [
    {
      "constant": true,
      "inputs": [],
      "name": "medicinesCount",
      "outputs": [
        {
          "name": "",
          "type": "int256"
        }
      ],
      "payable": false,
      "stateMutability": "view",
      "type": "function",
      "signature": "0x0496649a"
    },
    {
      "constant": true,
      "inputs": [],
      "name": "regularVisitsCount",
      "outputs": [
        {
          "name": "",
          "type": "int256"
        }
      ],
      "payable": false,
      "stateMutability": "view",
      "type": "function",
      "signature": "0x62e59cf7"
    },
    {
      "constant": true,
      "inputs": [
        {
          "name": "",
          "type": "int256"
        }
      ],
      "name": "patients",
      "outputs": [
        {
          "name": "patientID",
          "type": "int256"
        },
        {
          "name": "clinicID",
          "type": "int256"
        },
        {
          "name": "name",
          "type": "string"
        },
        {
          "name": "age",
          "type": "int256"
        },
        {
          "name": "weight",
          "type": "int256"
        },
        {
          "name": "height",
          "type": "int256"
        },
        {
          "name": "gender",
          "type": "string"
        },
        {
          "name": "initialHeartRate",
          "type": "int256"
        },
        {
          "name": "initialTemperature",
          "type": "int256"
        },
        {
          "name": "numberOfRegularVisits",
          "type": "int256"
        },
        {
          "name": "numberOfLabVisits",
          "type": "int256"
        }
      ],
      "payable": false,
      "stateMutability": "view",
      "type": "function",
      "signature": "0x7b9fc959"
    },
    {
      "constant": true,
      "inputs": [
        {
          "name": "",
          "type": "int256"
        }
      ],
      "name": "clinics",
      "outputs": [
        {
          "name": "clinicID",
          "type": "int256"
        },
        {
          "name": "location",
          "type": "string"
        },
        {
          "name": "numberOfPatients",
          "type": "int256"
        }
      ],
      "payable": false,
      "stateMutability": "view",
      "type": "function",
      "signature": "0x7fc08cc6"
    },
    {
      "constant": true,
      "inputs": [],
      "name": "labVisitsCount",
      "outputs": [
        {
          "name": "",
          "type": "int256"
        }
      ],
      "payable": false,
      "stateMutability": "view",
      "type": "function",
      "signature": "0x8aa08e1d"
    },
    {
      "constant": true,
      "inputs": [],
      "name": "patientsCount",
      "outputs": [
        {
          "name": "",
          "type": "int256"
        }
      ],
      "payable": false,
      "stateMutability": "view",
      "type": "function",
      "signature": "0xb6b1289d"
    },
    {
      "constant": true,
      "inputs": [],
      "name": "clinicsCount",
      "outputs": [
        {
          "name": "",
          "type": "int256"
        }
      ],
      "payable": false,
      "stateMutability": "view",
      "type": "function",
      "signature": "0xc249bf7e"
    },
    {
      "inputs": [],
      "payable": false,
      "stateMutability": "nonpayable",
      "type": "constructor",
      "signature": "constructor"
    },
    {
      "constant": false,
      "inputs": [
        {
          "name": "_location",
          "type": "string"
        }
      ],
      "name": "createClinic",
      "outputs": [],
      "payable": false,
      "stateMutability": "nonpayable",
      "type": "function",
      "signature": "0xff779a09"
    },
    {
      "constant": false,
      "inputs": [
        {
          "name": "_clinicID",
          "type": "int256"
        },
        {
          "name": "_name",
          "type": "string"
        },
        {
          "name": "_age",
          "type": "int256"
        },
        {
          "name": "_weight",
          "type": "int256"
        },
        {
          "name": "_height",
          "type": "int256"
        },
        {
          "name": "_gender",
          "type": "string"
        },
        {
          "name": "_initialHeartRate",
          "type": "int256"
        },
        {
          "name": "_initialTemperature",
          "type": "int256"
        }
      ],
      "name": "createPatient",
      "outputs": [],
      "payable": false,
      "stateMutability": "nonpayable",
      "type": "function",
      "signature": "0x1d79812d"
    }
  ],
  "bytecode": "0x60806040526000805560006001556000600255600060035560006004553480156200002957600080fd5b5060408051808201909152600581527f4567797074000000000000000000000000000000000000000000000000000000602082015262000072906401000000006200034c810204565b60408051808201909152600381527f4b534100000000000000000000000000000000000000000000000000000000006020820152620000ba906401000000006200034c810204565b60408051808201909152600781527f4765726d616e7900000000000000000000000000000000000000000000000000602082015262000102906401000000006200034c810204565b6200019360016040805190810160405280600581526020017f53617261680000000000000000000000000000000000000000000000000000008152506017603560ab6040805190810160405280600681526020017f66656d616c65000000000000000000000000000000000000000000000000000081525060446024620003ab640100000000026401000000009004565b6200022460016040805190810160405280600881526020017f4d6f68616d6d65640000000000000000000000000000000000000000000000008152506019603f60b56040805190810160405280600481526020017f6d616c650000000000000000000000000000000000000000000000000000000081525060446024620003ab640100000000026401000000009004565b620002b560026040805190810160405280600581526020017f41686d65640000000000000000000000000000000000000000000000000000008152506019603f60b56040805190810160405280600481526020017f6d616c650000000000000000000000000000000000000000000000000000000081525060446024620003ab640100000000026401000000009004565b6200034660026040805190810160405280600481526020017f416c6161000000000000000000000000000000000000000000000000000000008152506019603f60b56040805190810160405280600681526020017f66656d616c65000000000000000000000000000000000000000000000000000081525060446024620003ab640100000000026401000000009004565b6200063c565b600180548101808255604080516060810182528281526020808201868152600083850181905294855260058252929093208151815591518051919492936200039a938501929101906200055a565b506040820151816002015590505050565b60008081548092919060010191905055506101a0604051908101604052806000548152602001898152602001888152602001878152602001868152602001858152602001848152602001838152602001828152602001600081526020016000815260200160006040519080825280602002602001820160405280156200043b578160200160208202803883390190505b50815260200160006040519080825280602002602001820160405280156200046d578160200160208202803883390190505b5090526000805481526006602090815260409182902083518155838201516001820155918301518051620004a892600285019201906200055a565b50606082015160038201556080820151600482015560a0820151600582015560c08201518051620004e49160068401916020909101906200055a565b5060e0820151600782015561010082015160088201556101208201516009820155610140820151600a82015561016082015180516200052e91600b840191602090910190620005df565b5061018082015180516200054d91600c840191602090910190620005df565b5050505050505050505050565b828054600181600116156101000203166002900490600052602060002090601f016020900481019282601f106200059d57805160ff1916838001178555620005cd565b82800160010185558215620005cd579182015b82811115620005cd578251825591602001919060010190620005b0565b50620005db9291506200061c565b5090565b828054828255906000526020600020908101928215620005cd5791602002820182811115620005cd578251825591602001919060010190620005b0565b6200063991905b80821115620005db576000815560010162000623565b90565b610a51806200064c6000396000f3fe6080604052600436106100985763ffffffff7c01000000000000000000000000000000000000000000000000000000006000350416630496649a811461009d5780631d79812d146100c457806362e59cf71461021f5780637b9fc959146102345780637fc08cc61461037b5780638aa08e1d1461042b578063b6b1289d14610440578063c249bf7e14610455578063ff779a091461046a575b600080fd5b3480156100a957600080fd5b506100b261051d565b60408051918252519081900360200190f35b3480156100d057600080fd5b5061021d60048036036101008110156100e857600080fd5b8135919081019060408101602082013564010000000081111561010a57600080fd5b82018360208201111561011c57600080fd5b8035906020019184600183028401116401000000008311171561013e57600080fd5b91908080601f01602080910402602001604051908101604052809392919081815260200183838082843760009201919091525092958435956020860135956040810135955091935091506080810190606001356401000000008111156101a357600080fd5b8201836020820111156101b557600080fd5b803590602001918460018302840111640100000000831117156101d757600080fd5b91908080601f0160208091040260200160405190810160405280939291908181526020018383808284376000920191909152509295505082359350505060200135610523565b005b34801561022b57600080fd5b506100b26106c8565b34801561024057600080fd5b5061025e6004803603602081101561025757600080fd5b50356106ce565b604051808c81526020018b8152602001806020018a81526020018981526020018881526020018060200187815260200186815260200185815260200184815260200183810383528c818151815260200191508051906020019080838360005b838110156102d55781810151838201526020016102bd565b50505050905090810190601f1680156103025780820380516001836020036101000a031916815260200191505b5083810382528851815288516020918201918a019080838360005b8381101561033557818101518382015260200161031d565b50505050905090810190601f1680156103625780820380516001836020036101000a031916815260200191505b509d505050505050505050505050505060405180910390f35b34801561038757600080fd5b506103a56004803603602081101561039e57600080fd5b5035610834565b6040518084815260200180602001838152602001828103825284818151815260200191508051906020019080838360005b838110156103ee5781810151838201526020016103d6565b50505050905090810190601f16801561041b5780820380516001836020036101000a031916815260200191505b5094505050505060405180910390f35b34801561043757600080fd5b506100b26108e1565b34801561044c57600080fd5b506100b26108e7565b34801561046157600080fd5b506100b26108ed565b34801561047657600080fd5b5061021d6004803603602081101561048d57600080fd5b8101906020810181356401000000008111156104a857600080fd5b8201836020820111156104ba57600080fd5b803590602001918460018302840111640100000000831117156104dc57600080fd5b91908080601f0160208091040260200160405190810160405280939291908181526020018383808284376000920191909152509295506108f3945050505050565b60045481565b60008081548092919060010191905055506101a0604051908101604052806000548152602001898152602001888152602001878152602001868152602001858152602001848152602001838152602001828152602001600081526020016000815260200160006040519080825280602002602001820160405280156105b2578160200160208202803883390190505b50815260200160006040519080825280602002602001820160405280156105e3578160200160208202803883390190505b509052600080548152600660209081526040918290208351815583820151600182015591830151805161061c9260028501920190610950565b50606082015160038201556080820151600482015560a0820151600582015560c08201518051610656916006840191602090910190610950565b5060e0820151600782015561010082015160088201556101208201516009820155610140820151600a820155610160820151805161069e91600b8401916020909101906109ce565b5061018082015180516106bb91600c8401916020909101906109ce565b5050505050505050505050565b60025481565b60066020908152600091825260409182902080546001808301546002808501805488519481161561010002600019011691909104601f81018790048702840187019097528683529295909491929183018282801561076d5780601f106107425761010080835404028352916020019161076d565b820191906000526020600020905b81548152906001019060200180831161075057829003601f168201915b505050600384015460048501546005860154600687018054604080516020601f600260001961010060018816150201909516949094049384018190048102820181019092528281529899959894975092955090918301828280156108125780601f106107e757610100808354040283529160200191610812565b820191906000526020600020905b8154815290600101906020018083116107f557829003601f168201915b50505050509080600701549080600801549080600901549080600a015490508b565b6005602090815260009182526040918290208054600180830180548651600293821615610100026000190190911692909204601f8101869004860283018601909652858252919492939092908301828280156108d15780601f106108a6576101008083540402835291602001916108d1565b820191906000526020600020905b8154815290600101906020018083116108b457829003601f168201915b5050505050908060020154905083565b60035481565b60005481565b60015481565b6001805481018082556040805160608101825282815260208082018681526000838501819052948552600582529290932081518155915180519194929361093f93850192910190610950565b506040820151816002015590505050565b828054600181600116156101000203166002900490600052602060002090601f016020900481019282601f1061099157805160ff19168380011785556109be565b828001600101855582156109be579182015b828111156109be5782518255916020019190600101906109a3565b506109ca929150610a08565b5090565b8280548282559060005260206000209081019282156109be57916020028201828111156109be5782518255916020019190600101906109a3565b610a2291905b808211156109ca5760008155600101610a0e565b9056fea165627a7a7230582052045d159fdc749963e26ac1f0baa418221eb74fdc3e8075da95a3c54aff0acf0029",
  "source": "pragma solidity ^0.5.0;\n\ncontract EHR {\n    enum VisitTypes {\n        periodicCheckup,\n        caseManagement,\n        complain\n    }\n\n    int256 public patientsCount = 0;\n    int256 public clinicsCount = 0;\n    int256 public regularVisitsCount = 0;\n    int256 public labVisitsCount = 0;\n    int256 public medicinesCount = 0;\n\n    struct Clinic {\n        int256 clinicID;\n        string location;\n        int256 numberOfPatients;\n    }\n\n    struct Patient {\n        int256 patientID;\n        int256 clinicID;\n        string name;\n        int256 age;\n        int256 weight;\n        int256 height;\n        string gender;\n        int256 initialHeartRate;\n        int256 initialTemperature;\n        int256 numberOfRegularVisits;\n        int256 numberOfLabVisits;\n        int256[] regularVisitsIds;\n        int256[] labVisitsIds;\n        // mapping(uint256 => RegularVisit) regularVisits;\n        // mapping(uint256 => LabVisit) labVisits;\n    }\n\n    struct RegularVisit {\n        int256 patientID;\n        int256 clinicID;\n        int256 regularVisitID;\n        int256 visitHeartRate;\n        int256 visitTemperature;\n        string diagnosis;\n        VisitTypes visitType;\n        Prescription prescription;\n    }\n\n    struct LabVisit {\n        int256 patientID;\n        int256 clinicID;\n        int256 labVisitID;\n        int256 visitHeartRate;\n        int256 visitTemperature;\n        string testType;\n        string testResult;\n    }\n\n    struct Prescription {\n        int256 prescriptionId;\n        string referral;\n        string followUp;\n        string lab;\n        int256 numberOfMedicines;\n        int256[] medicines;\n        // mapping(uint256 => Medicine) medicines;\n    }\n\n    struct Medicine {\n        int256 medicineId;\n        int256 prescriptionId;\n        string name;\n        string dose;\n        string period;\n    }\n\n    mapping(int256 => Clinic) public clinics;\n    mapping(int256 => Patient) public patients;\n\n    constructor() public {\n        // Initial clinics\n        createClinic(\"Egypt\");\n        createClinic(\"KSA\");\n        createClinic(\"Germany\");\n\n        // Initial patients\n        createPatient(1, \"Sarah\", 23, 53, 171, \"female\", 68, 36);\n        createPatient(1, \"Mohammed\", 25, 63, 181, \"male\", 68, 36);\n        createPatient(2, \"Ahmed\", 25, 63, 181, \"male\", 68, 36);\n        createPatient(2, \"Alaa\", 25, 63, 181, \"female\", 68, 36);\n    }\n\n    // mapping(uint => RegularVisit) public regularVisits;\n    // mapping(uint => LabVisit) public labVisits;\n\n    function createClinic(string memory _location) public {\n        clinicsCount++;\n        clinics[clinicsCount] = Clinic(clinicsCount, _location, 0);\n    }\n\n    function createPatient(\n        int256 _clinicID,\n        string memory _name,\n        int256 _age,\n        int256 _weight,\n        int256 _height,\n        string memory _gender,\n        int256 _initialHeartRate,\n        int256 _initialTemperature\n    ) public {\n        patientsCount++;\n        patients[patientsCount] = Patient(\n            patientsCount,\n            _clinicID,\n            _name,\n            _age,\n            _weight,\n            _height,\n            _gender,\n            _initialHeartRate,\n            _initialTemperature,\n            0,\n            0,\n            new int256[](0),\n            new int256[](0)\n        );\n    }\n}\n",
  "sourcePath": "/Users/sarah/GUC/Semester 10/Security/security-project/contracts/EHR.sol",
  "compiler": {
    "name": "solc",
    "version": "0.5.0+commit.1d4f565a.Emscripten.clang"
  },
  "schemaVersion": "3.0.1",
  "updatedAt": "2022-06-08T17:12:56.493Z",
  "devdoc": {
    "methods": {}
  },
  "userdoc": {
    "methods": {}
  }
}