{
  "contractName": "EHR",
  "abi": [
    {
      "constant": true,
      "inputs": [],
      "name": "medicinesCount",
      "outputs": [
        {
          "name": "",
          "type": "int256"
        }
      ],
      "payable": false,
      "stateMutability": "view",
      "type": "function",
      "signature": "0x0496649a"
    },
    {
      "constant": true,
      "inputs": [
        {
          "name": "",
          "type": "int256"
        }
      ],
      "name": "prescriptions",
      "outputs": [
        {
          "name": "regularVisitID",
          "type": "int256"
        },
        {
          "name": "referral",
          "type": "string"
        },
        {
          "name": "followUp",
          "type": "string"
        },
        {
          "name": "lab",
          "type": "string"
        },
        {
          "name": "numberOfMedicines",
          "type": "int256"
        },
        {
          "name": "medicineOffset",
          "type": "int256"
        }
      ],
      "payable": false,
      "stateMutability": "view",
      "type": "function",
      "signature": "0x2c5e6460"
    },
    {
      "constant": true,
      "inputs": [],
      "name": "prescriptionsCount",
      "outputs": [
        {
          "name": "",
          "type": "int256"
        }
      ],
      "payable": false,
      "stateMutability": "view",
      "type": "function",
      "signature": "0x39aaa6e8"
    },
    {
      "constant": true,
      "inputs": [
        {
          "name": "",
          "type": "address"
        }
      ],
      "name": "mapClinicAddressToID",
      "outputs": [
        {
          "name": "",
          "type": "int256"
        }
      ],
      "payable": false,
      "stateMutability": "view",
      "type": "function",
      "signature": "0x3c5ff371"
    },
    {
      "constant": true,
      "inputs": [
        {
          "name": "",
          "type": "int256"
        }
      ],
      "name": "labVisits",
      "outputs": [
        {
          "name": "labVisitID",
          "type": "int256"
        },
        {
          "name": "patientID",
          "type": "int256"
        },
        {
          "name": "clinicAddress",
          "type": "address"
        },
        {
          "name": "hashMessage",
          "type": "bytes32"
        },
        {
          "name": "data",
          "type": "string"
        }
      ],
      "payable": false,
      "stateMutability": "view",
      "type": "function",
      "signature": "0x3e2bd0c2"
    },
    {
      "constant": true,
      "inputs": [
        {
          "name": "",
          "type": "int256"
        }
      ],
      "name": "regularVisits",
      "outputs": [
        {
          "name": "regularVisitID",
          "type": "int256"
        },
        {
          "name": "patientID",
          "type": "int256"
        },
        {
          "name": "clinicID",
          "type": "int256"
        },
        {
          "name": "visitHeartRate",
          "type": "int256"
        },
        {
          "name": "visitTemperature",
          "type": "int256"
        },
        {
          "name": "diagnosis",
          "type": "string"
        }
      ],
      "payable": false,
      "stateMutability": "view",
      "type": "function",
      "signature": "0x6151b7cd"
    },
    {
      "constant": true,
      "inputs": [],
      "name": "regularVisitsCount",
      "outputs": [
        {
          "name": "",
          "type": "int256"
        }
      ],
      "payable": false,
      "stateMutability": "view",
      "type": "function",
      "signature": "0x62e59cf7"
    },
    {
      "constant": true,
      "inputs": [
        {
          "name": "",
          "type": "address"
        }
      ],
      "name": "availableClinics",
      "outputs": [
        {
          "name": "",
          "type": "bool"
        }
      ],
      "payable": false,
      "stateMutability": "view",
      "type": "function",
      "signature": "0x64cb4303"
    },
    {
      "constant": true,
      "inputs": [
        {
          "name": "",
          "type": "int256"
        }
      ],
      "name": "patients",
      "outputs": [
        {
          "name": "patientID",
          "type": "int256"
        },
        {
          "name": "patientAddress",
          "type": "address"
        },
        {
          "name": "hashMessage",
          "type": "bytes32"
        },
        {
          "name": "data",
          "type": "string"
        },
        {
          "name": "addedBy",
          "type": "address"
        }
      ],
      "payable": false,
      "stateMutability": "view",
      "type": "function",
      "signature": "0x7b9fc959"
    },
    {
      "constant": true,
      "inputs": [
        {
          "name": "",
          "type": "int256"
        }
      ],
      "name": "clinics",
      "outputs": [
        {
          "name": "clinicID",
          "type": "int256"
        },
        {
          "name": "clinicAddress",
          "type": "address"
        },
        {
          "name": "hashMessage",
          "type": "bytes32"
        },
        {
          "name": "data",
          "type": "string"
        }
      ],
      "payable": false,
      "stateMutability": "view",
      "type": "function",
      "signature": "0x7fc08cc6"
    },
    {
      "constant": true,
      "inputs": [],
      "name": "labVisitsCount",
      "outputs": [
        {
          "name": "",
          "type": "int256"
        }
      ],
      "payable": false,
      "stateMutability": "view",
      "type": "function",
      "signature": "0x8aa08e1d"
    },
    {
      "constant": true,
      "inputs": [
        {
          "name": "",
          "type": "int256"
        }
      ],
      "name": "medicines",
      "outputs": [
        {
          "name": "medicineId",
          "type": "int256"
        },
        {
          "name": "regularVisitID",
          "type": "int256"
        },
        {
          "name": "name",
          "type": "string"
        },
        {
          "name": "dose",
          "type": "string"
        },
        {
          "name": "period",
          "type": "string"
        }
      ],
      "payable": false,
      "stateMutability": "view",
      "type": "function",
      "signature": "0xb675e5d7"
    },
    {
      "constant": true,
      "inputs": [],
      "name": "patientsCount",
      "outputs": [
        {
          "name": "",
          "type": "int256"
        }
      ],
      "payable": false,
      "stateMutability": "view",
      "type": "function",
      "signature": "0xb6b1289d"
    },
    {
      "constant": true,
      "inputs": [],
      "name": "clinicsCount",
      "outputs": [
        {
          "name": "",
          "type": "int256"
        }
      ],
      "payable": false,
      "stateMutability": "view",
      "type": "function",
      "signature": "0xc249bf7e"
    },
    {
      "inputs": [],
      "payable": false,
      "stateMutability": "nonpayable",
      "type": "constructor",
      "signature": "constructor"
    },
    {
      "constant": false,
      "inputs": [
        {
          "name": "_clinicAddress",
          "type": "address"
        },
        {
          "name": "_hash",
          "type": "bytes32"
        },
        {
          "name": "_signature",
          "type": "bytes"
        },
        {
          "name": "_data",
          "type": "string"
        }
      ],
      "name": "createClinic",
      "outputs": [],
      "payable": false,
      "stateMutability": "nonpayable",
      "type": "function",
      "signature": "0x5bad2e54"
    },
    {
      "constant": true,
      "inputs": [
        {
          "name": "_id",
          "type": "int256"
        }
      ],
      "name": "getClinic",
      "outputs": [
        {
          "components": [
            {
              "name": "clinicID",
              "type": "int256"
            },
            {
              "name": "clinicAddress",
              "type": "address"
            },
            {
              "name": "hashMessage",
              "type": "bytes32"
            },
            {
              "name": "data",
              "type": "string"
            }
          ],
          "name": "",
          "type": "tuple"
        }
      ],
      "payable": false,
      "stateMutability": "view",
      "type": "function",
      "signature": "0x29fee749"
    },
    {
      "constant": false,
      "inputs": [
        {
          "name": "_patientAddress",
          "type": "address"
        },
        {
          "name": "_hash",
          "type": "bytes32"
        },
        {
          "name": "_signature",
          "type": "bytes"
        },
        {
          "name": "_data",
          "type": "string"
        }
      ],
      "name": "createPatient",
      "outputs": [],
      "payable": false,
      "stateMutability": "nonpayable",
      "type": "function",
      "signature": "0xc9573f93"
    },
    {
      "constant": true,
      "inputs": [
        {
          "name": "_id",
          "type": "int256"
        }
      ],
      "name": "getPatient",
      "outputs": [
        {
          "components": [
            {
              "name": "patientID",
              "type": "int256"
            },
            {
              "name": "patientAddress",
              "type": "address"
            },
            {
              "name": "hashMessage",
              "type": "bytes32"
            },
            {
              "name": "data",
              "type": "string"
            },
            {
              "name": "addedBy",
              "type": "address"
            }
          ],
          "name": "",
          "type": "tuple"
        }
      ],
      "payable": false,
      "stateMutability": "view",
      "type": "function",
      "signature": "0xab0cca85"
    },
    {
      "constant": true,
      "inputs": [
        {
          "name": "_sender",
          "type": "address"
        }
      ],
      "name": "getMyPatientsCount",
      "outputs": [
        {
          "name": "",
          "type": "uint256"
        }
      ],
      "payable": false,
      "stateMutability": "view",
      "type": "function",
      "signature": "0x1781a297"
    },
    {
      "constant": true,
      "inputs": [
        {
          "name": "_id",
          "type": "uint256"
        },
        {
          "name": "_sender",
          "type": "address"
        }
      ],
      "name": "getMyPatients",
      "outputs": [
        {
          "components": [
            {
              "name": "patientID",
              "type": "int256"
            },
            {
              "name": "patientAddress",
              "type": "address"
            },
            {
              "name": "hashMessage",
              "type": "bytes32"
            },
            {
              "name": "data",
              "type": "string"
            },
            {
              "name": "addedBy",
              "type": "address"
            }
          ],
          "name": "",
          "type": "tuple"
        }
      ],
      "payable": false,
      "stateMutability": "view",
      "type": "function",
      "signature": "0xfa968cdc"
    },
    {
      "constant": false,
      "inputs": [
        {
          "name": "_patientID",
          "type": "int256"
        },
        {
          "name": "_hash",
          "type": "bytes32"
        },
        {
          "name": "_signature",
          "type": "bytes"
        },
        {
          "name": "_data",
          "type": "string"
        }
      ],
      "name": "createLabVisit",
      "outputs": [],
      "payable": false,
      "stateMutability": "nonpayable",
      "type": "function",
      "signature": "0xac624631"
    },
    {
      "constant": true,
      "inputs": [
        {
          "name": "_id",
          "type": "int256"
        },
        {
          "name": "_sender",
          "type": "address"
        }
      ],
      "name": "getPatientLabVisitsCount",
      "outputs": [
        {
          "name": "",
          "type": "uint256"
        }
      ],
      "payable": false,
      "stateMutability": "view",
      "type": "function",
      "signature": "0xf57f0f4e"
    },
    {
      "constant": true,
      "inputs": [
        {
          "name": "_id",
          "type": "int256"
        },
        {
          "name": "_visitID",
          "type": "uint256"
        },
        {
          "name": "_sender",
          "type": "address"
        }
      ],
      "name": "getPatientLabVisits",
      "outputs": [
        {
          "components": [
            {
              "name": "labVisitID",
              "type": "int256"
            },
            {
              "name": "patientID",
              "type": "int256"
            },
            {
              "name": "clinicAddress",
              "type": "address"
            },
            {
              "name": "hashMessage",
              "type": "bytes32"
            },
            {
              "name": "data",
              "type": "string"
            }
          ],
          "name": "",
          "type": "tuple"
        }
      ],
      "payable": false,
      "stateMutability": "view",
      "type": "function",
      "signature": "0x4e8d9f79"
    },
    {
      "constant": true,
      "inputs": [
        {
          "name": "_sender",
          "type": "address"
        }
      ],
      "name": "getClinicLabVisitsCount",
      "outputs": [
        {
          "name": "",
          "type": "uint256"
        }
      ],
      "payable": false,
      "stateMutability": "view",
      "type": "function",
      "signature": "0xd79ebfcf"
    },
    {
      "constant": true,
      "inputs": [
        {
          "name": "_visitID",
          "type": "uint256"
        },
        {
          "name": "_sender",
          "type": "address"
        }
      ],
      "name": "getClinicLabVisits",
      "outputs": [
        {
          "components": [
            {
              "name": "labVisitID",
              "type": "int256"
            },
            {
              "name": "patientID",
              "type": "int256"
            },
            {
              "name": "clinicAddress",
              "type": "address"
            },
            {
              "name": "hashMessage",
              "type": "bytes32"
            },
            {
              "name": "data",
              "type": "string"
            }
          ],
          "name": "",
          "type": "tuple"
        }
      ],
      "payable": false,
      "stateMutability": "view",
      "type": "function",
      "signature": "0x9f0e37db"
    },
    {
      "constant": true,
      "inputs": [
        {
          "name": "_a",
          "type": "address"
        }
      ],
      "name": "isClinic",
      "outputs": [
        {
          "name": "",
          "type": "bool"
        }
      ],
      "payable": false,
      "stateMutability": "view",
      "type": "function",
      "signature": "0x67644a81"
    },
    {
      "constant": true,
      "inputs": [
        {
          "name": "_id",
          "type": "int256"
        },
        {
          "name": "_a",
          "type": "address"
        }
      ],
      "name": "patientBelongsToSender",
      "outputs": [
        {
          "name": "",
          "type": "bool"
        }
      ],
      "payable": false,
      "stateMutability": "view",
      "type": "function",
      "signature": "0xf064ef02"
    },
    {
      "constant": true,
      "inputs": [
        {
          "name": "a",
          "type": "string"
        },
        {
          "name": "b",
          "type": "string"
        }
      ],
      "name": "compareStrings",
      "outputs": [
        {
          "name": "",
          "type": "bool"
        }
      ],
      "payable": false,
      "stateMutability": "pure",
      "type": "function",
      "signature": "0xbed34bba"
    },
    {
      "constant": true,
      "inputs": [
        {
          "name": "hash",
          "type": "bytes32"
        },
        {
          "name": "signature",
          "type": "bytes"
        }
      ],
      "name": "recover",
      "outputs": [
        {
          "name": "",
          "type": "address"
        }
      ],
      "payable": false,
      "stateMutability": "pure",
      "type": "function",
      "signature": "0x19045a25"
    }
  ],
  "bytecode": "0x608060405260006001556000600255600060035560006004556000600555600060065534801561002e57600080fd5b5060008054600160a060020a03191633179055612346806100506000396000f3fe6080604052600436106101745763ffffffff7c01000000000000000000000000000000000000000000000000000000006000350416630496649a81146101795780631781a297146101a457806319045a25146101c457806329fee749146101f15780632c5e64601461021e57806339aaa6e8146102505780633c5ff371146102655780633e2bd0c2146102855780634e8d9f79146102b65780635bad2e54146102e35780636151b7cd1461030557806362e59cf71461033757806364cb43031461034c57806367644a81146103795780637b9fc959146103995780637fc08cc6146103ca5780638aa08e1d146103fa5780639f0e37db1461040f578063ab0cca851461042f578063ac6246311461045c578063b675e5d71461047c578063b6b1289d146104ad578063bed34bba146104c2578063c249bf7e146104e2578063c9573f93146104f7578063d79ebfcf14610517578063f064ef0214610537578063f57f0f4e14610557578063fa968cdc14610577575b600080fd5b34801561018557600080fd5b5061018e610597565b60405161019b9190611ffe565b60405180910390f35b3480156101b057600080fd5b5061018e6101bf366004611c01565b61059d565b3480156101d057600080fd5b506101e46101df366004611cb8565b6105ee565b60405161019b9190611fe2565b3480156101fd57600080fd5b5061021161020c366004611d0a565b6106ce565b60405161019b9190612224565b34801561022a57600080fd5b5061023e610239366004611d0a565b6107db565b60405161019b969594939291906121a0565b34801561025c57600080fd5b5061018e6109b0565b34801561027157600080fd5b5061018e610280366004611c01565b6109b6565b34801561029157600080fd5b506102a56102a0366004611d0a565b6109c8565b60405161019b959493929190612099565b3480156102c257600080fd5b506102d66102d1366004611d7a565b610a8a565b60405161019b9190612235565b3480156102ef57600080fd5b506103036102fe366004611c27565b610bbf565b005b34801561031157600080fd5b50610325610320366004611d0a565b610cb1565b60405161019b969594939291906120eb565b34801561034357600080fd5b5061018e610d85565b34801561035857600080fd5b5061036c610367366004611c01565b610d8b565b60405161019b9190611ff0565b34801561038557600080fd5b5061036c610394366004611c01565b610da0565b3480156103a557600080fd5b506103b96103b4366004611d0a565b610dbe565b60405161019b959493929190612050565b3480156103d657600080fd5b506103ea6103e5366004611d0a565b610e8b565b60405161019b949392919061200c565b34801561040657600080fd5b5061018e610f49565b34801561041b57600080fd5b506102d661042a366004611d28565b610f4f565b34801561043b57600080fd5b5061044f61044a366004611d0a565b61108d565b60405161019b9190612246565b34801561046857600080fd5b50610303610477366004611d58565b6111c0565b34801561048857600080fd5b5061049c610497366004611d0a565b6113e2565b60405161019b95949392919061214b565b3480156104b957600080fd5b5061018e611576565b3480156104ce57600080fd5b5061036c6104dd366004611dc7565b61157c565b3480156104ee57600080fd5b5061018e611663565b34801561050357600080fd5b50610303610512366004611c27565b611669565b34801561052357600080fd5b5061018e610532366004611c01565b611804565b34801561054357600080fd5b5061036c610552366004611d28565b61184c565b34801561056357600080fd5b5061018e610572366004611d28565b611870565b34801561058357600080fd5b5061044f610592366004611d28565b6118b0565b60065481565b60006105a882610da0565b15156105d25760405160e560020a62461bcd0281526004016105c990612214565b60405180910390fd5b50600160a060020a03166000908152600f602052604090205490565b6000806000808451604114151561060b57600093505050506106c8565b50505060208201516040830151606084015160001a601b60ff8216101561063057601b015b8060ff16601b1415801561064857508060ff16601c14155b1561065957600093505050506106c8565b6040805160008152602080820180845289905260ff8416828401526060820186905260808201859052915160019260a0808401939192601f1981019281900390910190855afa1580156106b0573d6000803e3d6000fd5b5050506020604051035193505050506106c8565b5050505b92915050565b6106d66119f8565b600054600160a060020a031633146107035760405160e560020a62461bcd0281526004016105c990612204565b600082815260076020908152604091829020825160808101845281548152600180830154600160a060020a0316828501526002808401548387015260038401805487516101009482161594909402600019011691909104601f8101869004860283018601909652858252919492936060860193919291908301828280156107cb5780601f106107a0576101008083540402835291602001916107cb565b820191906000526020600020905b8154815290600101906020018083116107ae57829003601f168201915b5050505050815250509050919050565b600b602090815260009182526040918290208054600180830180548651600293821615610100026000190190911692909204601f8101869004860283018601909652858252919492939092908301828280156108785780601f1061084d57610100808354040283529160200191610878565b820191906000526020600020905b81548152906001019060200180831161085b57829003601f168201915b50505060028085018054604080516020601f600019610100600187161502019094169590950492830185900485028101850190915281815295969594509092509083018282801561090a5780601f106108df5761010080835404028352916020019161090a565b820191906000526020600020905b8154815290600101906020018083116108ed57829003601f168201915b5050505060038301805460408051602060026001851615610100026000190190941693909304601f810184900484028201840190925281815294959493509083018282801561099a5780601f1061096f5761010080835404028352916020019161099a565b820191906000526020600020905b81548152906001019060200180831161097d57829003601f168201915b5050505050908060040154908060050154905086565b60055481565b600e6020526000908152604090205481565b600a60209081526000918252604091829020805460018083015460028085015460038601546004870180548a516101009782161597909702600019011693909304601f810189900489028601890190995288855294979296600160a060020a0390911695939290830182828015610a805780601f10610a5557610100808354040283529160200191610a80565b820191906000526020600020905b815481529060010190602001808311610a6357829003601f168201915b5050505050905085565b610a92611a1e565b610a9b82610da0565b1515610abc5760405160e560020a62461bcd0281526004016105c990612214565b6000848152601060205260409020805484908110610ad657fe5b60009182526020918290206040805160a0810182526005939093029091018054835260018082015484860152600280830154600160a060020a0316858501526003830154606086015260048301805485516101009482161594909402600019011691909104601f81018790048702830187019094528382529394919360808601939192909190830182828015610bad5780601f10610b8257610100808354040283529160200191610bad565b820191906000526020600020905b815481529060010190602001808311610b9057829003601f168201915b50505050508152505090509392505050565b6000610bcb84846105ee565b600054909150600160a060020a03808316911614610bfe5760405160e560020a62461bcd0281526004016105c990612214565b60028054600190810180835560408051608081018252828152600160a060020a038a811660208084019182528385018c8152606085018b8152600097885260078352959096208451815591519682018054600160a060020a03191697909316969096179091559251948301949094555180519192610c8492600385019290910190611a5a565b505050600160a060020a039094166000908152600d60205260409020805460ff1916600117905550505050565b6009602052806000526040600020600091509050806000015490806001015490806002015490806003015490806004015490806005018054600181600116156101000203166002900480601f016020809104026020016040519081016040528092919081815260200182805460018160011615610100020316600290048015610d7b5780601f10610d5057610100808354040283529160200191610d7b565b820191906000526020600020905b815481529060010190602001808311610d5e57829003601f168201915b5050505050905086565b60035481565b600d6020526000908152604090205460ff1681565b600160a060020a03166000908152600d602052604090205460ff1690565b600860209081526000918252604091829020805460018083015460028085015460038601805489516101009682161596909602600019011692909204601f81018890048802850188019098528784529396600160a060020a0390921695939493909190830182828015610e725780601f10610e4757610100808354040283529160200191610e72565b820191906000526020600020905b815481529060010190602001808311610e5557829003601f168201915b50505060049093015491925050600160a060020a031685565b600760209081526000918252604091829020805460018083015460028085015460038601805489516101009682161596909602600019011692909204601f81018890048802850188019098528784529396600160a060020a0390921695939493909190830182828015610f3f5780601f10610f1457610100808354040283529160200191610f3f565b820191906000526020600020905b815481529060010190602001808311610f2257829003601f168201915b5050505050905084565b60045481565b610f57611a1e565b610f6082610da0565b1515610f815760405160e560020a62461bcd0281526004016105c990612214565b600160a060020a0382166000908152601160205260409020805484908110610fa557fe5b60009182526020918290206040805160a0810182526005939093029091018054835260018082015484860152600280830154600160a060020a0316858501526003830154606086015260048301805485516101009482161594909402600019011691909104601f8101879004870283018701909452838252939491936080860193919290919083018282801561107c5780601f106110515761010080835404028352916020019161107c565b820191906000526020600020905b81548152906001019060200180831161105f57829003601f168201915b505050505081525050905092915050565b611095611ad8565b61109e33610da0565b806110b35750600054600160a060020a031633145b15156110d45760405160e560020a62461bcd0281526004016105c990612214565b600082815260086020908152604091829020825160a08101845281548152600180830154600160a060020a0316828501526002808401548387015260038401805487516101009482161594909402600019011691909104601f81018690048602830186019096528582529194929360608601939192919083018282801561119c5780601f106111715761010080835404028352916020019161119c565b820191906000526020600020905b81548152906001019060200180831161117f57829003601f168201915b505050918352505060049190910154600160a060020a031660209091015292915050565b60006111cc84846105ee565b90506111d781610da0565b80156111e857506111e8858261184c565b15156112095760405160e560020a62461bcd0281526004016105c990612214565b6004805460019081018083556040805160a08101825282815260208082018b8152600160a060020a03888116848601908152606085018d8152608086018c81526000988952600a865296909720855181559251978301979097559551600282018054600160a060020a03191691909716179095559251600385015590518051919461129a9390850192910190611a5a565b5050506000858152601060209081526040808320600480548552600a84529184208154600181810180855593875294909520815460059096020194855583810154858501556002808201548187018054600160a060020a031916600160a060020a03909216919091179055600380830154908701558184018054939692959294611337949086019391929181161561010002600019011604611b05565b505050600160a060020a038083166000908152601160209081526040808320600480548552600a84529184208154600181810180855593875294909520815460059096020194855583810154858501556002808201548187018054600160a060020a031916919098161790965560038082015490860155808301805492975090956113d79493860193919291821615610100026000190190911604611b05565b505050505050505050565b600c6020908152600091825260409182902080546001808301546002808501805488519481161561010002600019011691909104601f8101879004870284018701909752868352929590949192918301828280156114815780601f1061145657610100808354040283529160200191611481565b820191906000526020600020905b81548152906001019060200180831161146457829003601f168201915b5050505060038301805460408051602060026001851615610100026000190190941693909304601f81018490048402820184019092528181529495949350908301828280156115115780601f106114e657610100808354040283529160200191611511565b820191906000526020600020905b8154815290600101906020018083116114f457829003601f168201915b5050505060048301805460408051602060026001851615610100026000190190941693909304601f8101849004840282018401909252818152949594935090830182828015610a805780601f10610a5557610100808354040283529160200191610a80565b60015481565b6000816040516020018082805190602001908083835b602083106115b15780518252601f199092019160209182019101611592565b6001836020036101000a03801982511681845116808217855250505050505090500191505060405160208183030381529060405280519060200120836040516020018082805190602001908083835b6020831061161f5780518252601f199092019160209182019101611600565b6001836020036101000a0380198251168184511680821785525050505050509050019150506040516020818303038152906040528051906020012014905092915050565b60025481565b600061167584846105ee565b905061168081610da0565b15156116a15760405160e560020a62461bcd0281526004016105c990612214565b6001805481018082556040805160a081018252828152600160a060020a0389811660208084019182528385018b8152606085018a81528985166080870152600097885260088352959096208451815591519682018054600160a060020a03191697909316969096179091559251600284015590518051919361172b92600385019290910190611a5a565b506080919091015160049091018054600160a060020a03928316600160a060020a0319918216179091558282166000908152600f602090815260408083206001805485526008845291842081548084018084559286529390942084546005909402019283558382015483830180549096169616959095179093556002808301548183015560038084018054949593946117d69492860193919281161561010002600019011604611b05565b5060049182015491018054600160a060020a031916600160a060020a03909216919091179055505050505050565b600061180f82610da0565b15156118305760405160e560020a62461bcd0281526004016105c990612214565b50600160a060020a031660009081526011602052604090205490565b60009182526008602052604090912060040154600160a060020a0391821691161490565b600061187b82610da0565b151561189c5760405160e560020a62461bcd0281526004016105c990612214565b505060009081526010602052604090205490565b6118b8611ad8565b6118c182610da0565b15156118e25760405160e560020a62461bcd0281526004016105c990612214565b600160a060020a0382166000908152600f6020526040902080548490811061190657fe5b60009182526020918290206040805160a08101825260059390930290910180548352600180820154600160a060020a0316848601526002808301548585015260038301805485516101009482161594909402600019011691909104601f810187900487028301870190945283825293949193606086019391929091908301828280156119d35780601f106119a8576101008083540402835291602001916119d3565b820191906000526020600020905b8154815290600101906020018083116119b657829003601f168201915b505050918352505060049190910154600160a060020a03166020909101529392505050565b604080516080810182526000808252602082018190529181019190915260608082015290565b60a06040519081016040528060008152602001600081526020016000600160a060020a0316815260200160008019168152602001606081525090565b828054600181600116156101000203166002900490600052602060002090601f016020900481019282601f10611a9b57805160ff1916838001178555611ac8565b82800160010185558215611ac8579182015b82811115611ac8578251825591602001919060010190611aad565b50611ad4929150611b7a565b5090565b6040805160a081018252600080825260208201819052918101829052606080820152608081019190915290565b828054600181600116156101000203166002900490600052602060002090601f016020900481019282601f10611b3e5780548555611ac8565b82800160010185558215611ac857600052602060002091601f016020900482015b82811115611ac8578254825591600101919060010190611b5f565b611b9491905b80821115611ad45760008155600101611b80565b90565b6000611ba382356122aa565b9392505050565b6000611ba38235611b94565b6000601f82018313611bc757600080fd5b8135611bda611bd58261227e565b612257565b91508082526020830160208301858383011115611bf657600080fd5b6106c48382846122c6565b600060208284031215611c1357600080fd5b6000611c1f8484611b97565b949350505050565b60008060008060808587031215611c3d57600080fd5b6000611c498787611b97565b9450506020611c5a87828801611baa565b935050604085013567ffffffffffffffff811115611c7757600080fd5b611c8387828801611bb6565b925050606085013567ffffffffffffffff811115611ca057600080fd5b611cac87828801611bb6565b91505092959194509250565b60008060408385031215611ccb57600080fd5b6000611cd78585611baa565b925050602083013567ffffffffffffffff811115611cf457600080fd5b611d0085828601611bb6565b9150509250929050565b600060208284031215611d1c57600080fd5b6000611c1f8484611baa565b60008060408385031215611d3b57600080fd5b6000611d478585611baa565b9250506020611d0085828601611b97565b60008060008060808587031215611d6e57600080fd5b6000611c498787611baa565b600080600060608486031215611d8f57600080fd5b6000611d9b8686611baa565b9350506020611dac86828701611baa565b9250506040611dbd86828701611b97565b9150509250925092565b60008060408385031215611dda57600080fd5b823567ffffffffffffffff811115611df157600080fd5b611cd785828601611bb6565b611e06816122aa565b82525050565b611e06816122b5565b611e0681611b94565b6000611e29826122a6565b808452611e3d8160208601602086016122d2565b611e4681612302565b9093016020019392505050565b601c81527f536f7272792c20796f7520617265206e6f20617574686f72697a656400000000602082015260400190565b601d81527f536f7272792c20796f7520617265206e6f7420617574686f72697a6564000000602082015260400190565b80516000906080840190611ec78582611e15565b506020830151611eda6020860182611dfd565b506040830151611eed6040860182611e15565b5060608301518482036060860152611f058282611e1e565b95945050505050565b805160009060a0840190611f228582611e15565b506020830151611f356020860182611e15565b506040830151611f486040860182611dfd565b506060830151611f5b6060860182611e15565b5060808301518482036080860152611f058282611e1e565b805160009060a0840190611f878582611e15565b506020830151611f9a6020860182611dfd565b506040830151611fad6040860182611e15565b5060608301518482036060860152611fc58282611e1e565b9150506080830151611fda6080860182611dfd565b509392505050565b602081016106c88284611dfd565b602081016106c88284611e0c565b602081016106c88284611e15565b6080810161201a8287611e15565b6120276020830186611dfd565b6120346040830185611e15565b81810360608301526120468184611e1e565b9695505050505050565b60a0810161205e8288611e15565b61206b6020830187611dfd565b6120786040830186611e15565b818103606083015261208a8185611e1e565b90506120466080830184611dfd565b60a081016120a78288611e15565b6120b46020830187611e15565b6120c16040830186611dfd565b6120ce6060830185611e15565b81810360808301526120e08184611e1e565b979650505050505050565b60c081016120f98289611e15565b6121066020830188611e15565b6121136040830187611e15565b6121206060830186611e15565b61212d6080830185611e15565b81810360a083015261213f8184611e1e565b98975050505050505050565b60a081016121598288611e15565b6121666020830187611e15565b81810360408301526121788186611e1e565b9050818103606083015261218c8185611e1e565b905081810360808301526120e08184611e1e565b60c081016121ae8289611e15565b81810360208301526121c08188611e1e565b905081810360408301526121d48187611e1e565b905081810360608301526121e88186611e1e565b90506121f76080830185611e15565b6120e060a0830184611e15565b602080825281016106c881611e53565b602080825281016106c881611e83565b60208082528101611ba38184611eb3565b60208082528101611ba38184611f0e565b60208082528101611ba38184611f73565b60405181810167ffffffffffffffff8111828210171561227657600080fd5b604052919050565b600067ffffffffffffffff82111561229557600080fd5b506020601f91909101601f19160190565b5190565b60006106c8826122ba565b151590565b600160a060020a031690565b82818337506000910152565b60005b838110156122ed5781810151838201526020016122d5565b838111156122fc576000848401525b50505050565b601f01601f19169056fea265627a7a72305820f39d5b595a0f083024db006b4c5518bd3d72704c2b69a14df9bb68f584914aae6c6578706572696d656e74616cf50037",
  "source": "pragma solidity ^0.5.0;\npragma experimental ABIEncoderV2;\n\n// Creating a regular visit --> creates a prescription --> creates medicines\n// Address = public key\n// Only 1 admin\n\n/******************* ROLES OF ADMINS ********************/\n// Admin can add clinics\n\n/******************* ROLES OF CLINICS ********************/\n// Clinics can add patients\n\ncontract EHR {\n    address systemAdmin;\n\n    int256 public patientsCount = 0;\n    int256 public clinicsCount = 0;\n    int256 public regularVisitsCount = 0;\n    int256 public labVisitsCount = 0;\n    int256 public prescriptionsCount = 0;\n    int256 public medicinesCount = 0;\n\n    mapping(int256 => Clinic) public clinics;\n    mapping(int256 => Patient) public patients;\n    mapping(int256 => RegularVisit) public regularVisits;\n    mapping(int256 => LabVisit) public labVisits;\n    mapping(int256 => Prescription) public prescriptions;\n    mapping(int256 => Medicine) public medicines;\n\n    mapping(address => bool) public availableClinics;\n    mapping(address => int256) public mapClinicAddressToID;\n    mapping(address => Patient[]) clinicPatients; //Clinic Address -> patients\n\n    mapping(int256 => LabVisit[]) patientsLabVisits; //Patient ID -> labVisits\n    mapping(address => LabVisit[]) clinicsLabVisits; //Clininc Address -> labVisits\n\n    enum VisitTypes {\n        periodicCheckup,\n        caseManagement,\n        complain\n    }\n\n    struct Clinic {\n        int256 clinicID;\n        address clinicAddress;\n        bytes32 hashMessage;\n        string data;\n    }\n\n    struct Patient {\n        int256 patientID;\n        address patientAddress;\n        bytes32 hashMessage;\n        string data;\n        address addedBy;\n    }\n\n    struct RegularVisit {\n        int256 regularVisitID;\n        int256 patientID;\n        int256 clinicID;\n        int256 visitHeartRate;\n        int256 visitTemperature;\n        string diagnosis;\n        // VisitTypes visitType;\n    }\n\n    struct LabVisit {\n        int256 labVisitID;\n        int256 patientID;\n        address clinicAddress; //the clinic that added it\n        bytes32 hashMessage;\n        string data; //visitHeartRate + visitTemperature + testType + testResult\n    }\n\n    struct Prescription {\n        int256 regularVisitID;\n        string referral;\n        string followUp;\n        string lab;\n        int256 numberOfMedicines;\n        int256 medicineOffset;\n    }\n\n    struct Medicine {\n        int256 medicineId;\n        int256 regularVisitID;\n        string name;\n        string dose;\n        string period;\n    }\n\n    constructor() public {\n        systemAdmin = msg.sender;\n    }\n\n    function createClinic(\n        address _clinicAddress,\n        bytes32 _hash,\n        bytes memory _signature,\n        string memory _data\n    ) public {\n        // string memory hashedMessage\n        // string memory hashedRes = string(\n        //     abi.encodePacked(_signature, systemAdmin)\n        // );\n        // require(\n        //     compareStrings(hashedRes, hashedMessage),\n        //     \"Sorry, digest message is different\"\n        // );\n\n        address recoveredAddress = recover(_hash, _signature);\n        require(\n            recoveredAddress == systemAdmin,\n            \"Sorry, you are not authorized\"\n        );\n\n        clinicsCount++;\n        clinics[clinicsCount] = Clinic(\n            clinicsCount,\n            _clinicAddress,\n            _hash,\n            _data\n        );\n\n        availableClinics[_clinicAddress] = true;\n        // mapClinicAddressToID[_clinicAddress] = clinicsCount;\n        // clinicPatients[_clinicAddress] = [];\n    }\n\n    function getClinic(int256 _id) public view returns (Clinic memory) {\n        require(msg.sender == systemAdmin, \"Sorry, you are no authorized\");\n        return clinics[_id];\n    }\n\n    function createPatient(\n        address _patientAddress,\n        bytes32 _hash,\n        bytes memory _signature,\n        string memory _data\n    ) public {\n        address recoveredAddress = recover(_hash, _signature);\n        require(isClinic(recoveredAddress), \"Sorry, you are not authorized\");\n\n        patientsCount++;\n        patients[patientsCount] = Patient(\n            patientsCount,\n            _patientAddress,\n            _hash,\n            _data,\n            recoveredAddress\n        );\n\n        clinicPatients[recoveredAddress].push(patients[patientsCount]);\n    }\n\n    function getPatient(int256 _id) public view returns (Patient memory) {\n        require(\n            isClinic(msg.sender) || msg.sender == systemAdmin,\n            \"Sorry, you are not authorized\"\n        );\n        return patients[_id];\n    }\n\n    function getMyPatientsCount(address _sender) public view returns (uint256) {\n        require(isClinic(_sender), \"Sorry, you are not authorized\");\n        return clinicPatients[_sender].length;\n    }\n\n    function getMyPatients(uint256 _id, address _sender)\n        public\n        view\n        returns (Patient memory)\n    {\n        require(isClinic(_sender), \"Sorry, you are not authorized\");\n        return clinicPatients[_sender][_id];\n    }\n\n    function createLabVisit(\n        int256 _patientID,\n        bytes32 _hash,\n        bytes memory _signature,\n        string memory _data\n    ) public {\n        address recoveredAddress = recover(_hash, _signature);\n        require(\n            isClinic(recoveredAddress) &&\n                patientBelongsToSender(_patientID, recoveredAddress),\n            \"Sorry, you are not authorized\"\n        );\n\n        labVisitsCount++;\n        labVisits[labVisitsCount] = LabVisit(\n            labVisitsCount,\n            _patientID,\n            recoveredAddress,\n            _hash,\n            _data\n        );\n\n        patientsLabVisits[_patientID].push(labVisits[labVisitsCount]);\n        clinicsLabVisits[recoveredAddress].push(labVisits[labVisitsCount]);\n    }\n\n    function getPatientLabVisitsCount(int256 _id, address _sender)\n        public\n        view\n        returns (uint256)\n    {\n        require(isClinic(_sender), \"Sorry, you are not authorized\");\n        return patientsLabVisits[_id].length;\n    }\n\n    function getPatientLabVisits(\n        int256 _id,\n        uint256 _visitID,\n        address _sender\n    ) public view returns (LabVisit memory) {\n        require(isClinic(_sender), \"Sorry, you are not authorized\");\n        return patientsLabVisits[_id][_visitID];\n    }\n\n    function getClinicLabVisitsCount(address _sender)\n        public\n        view\n        returns (uint256)\n    {\n        require(isClinic(_sender), \"Sorry, you are not authorized\");\n        return clinicsLabVisits[_sender].length;\n    }\n\n    function getClinicLabVisits(uint256 _visitID, address _sender)\n        public\n        view\n        returns (LabVisit memory)\n    {\n        require(isClinic(_sender), \"Sorry, you are not authorized\");\n        return clinicsLabVisits[_sender][_visitID];\n    }\n\n    // function createRegularVisit(\n    //     int256 _patientID,\n    //     int256 _clinicID,\n    //     int256 _visitHeartRate,\n    //     int256 _visitTemperature,\n    //     string memory _diagnosis,\n    //     VisitTypes _visitType,\n    //     string memory _referral,\n    //     string memory _followUp,\n    //     string memory _lab,\n    //     int256 _numberOfMedicines\n    // ) public {\n    //     // VisitTypes temp = VisitTypes.periodicCheckup;\n    //     // if (_visitType == 0) {\n    //     //     temp = VisitTypes.periodicCheckup;\n    //     // } else if (_visitType == 1) {\n    //     //     temp = VisitTypes.caseManagement;\n    //     // } else {\n    //     //     temp = VisitTypes.complain;\n    //     // }\n\n    //     patients[_patientID].numberOfRegularVisits =\n    //         patients[_patientID].numberOfRegularVisits +\n    //         1;\n\n    //     regularVisitsCount++;\n\n    //     regularVisits[regularVisitsCount] = RegularVisit(\n    //         regularVisitsCount,\n    //         _patientID,\n    //         _clinicID,\n    //         _visitHeartRate,\n    //         _visitTemperature,\n    //         _diagnosis,\n    //         _visitType\n    //     );\n\n    //     createPrescription(\n    //         regularVisitsCount,\n    //         _referral,\n    //         _followUp,\n    //         _lab,\n    //         _numberOfMedicines\n    //     );\n    // }\n\n    // function createLabVisit(\n    //     int256 _patientID,\n    //     int256 _clinicID,\n    //     int256 _visitHeartRate,\n    //     int256 _visitTemperature,\n    //     string memory _testType,\n    //     string memory _testResult\n    // ) public {\n    //     patients[_patientID].numberOfLabVisits =\n    //         patients[_patientID].numberOfLabVisits +\n    //         1;\n\n    //     labVisitsCount++;\n    //     labVisits[labVisitsCount] = LabVisit(\n    //         labVisitsCount,\n    //         _patientID,\n    //         _clinicID,\n    //         _visitHeartRate,\n    //         _visitTemperature,\n    //         _testType,\n    //         _testResult\n    //     );\n    // }\n\n    // function createPrescription(\n    //     int256 _regularVisitID,\n    //     string memory _referral,\n    //     string memory _followUp,\n    //     string memory _lab,\n    //     int256 _numberOfMedicines\n    // ) public {\n    //     prescriptionsCount++;\n    //     prescriptions[_regularVisitID] = Prescription(\n    //         _regularVisitID,\n    //         _referral,\n    //         _followUp,\n    //         _lab,\n    //         _numberOfMedicines,\n    //         medicinesCount\n    //     );\n    // }\n\n    // function createMedicine(\n    //     int256 _regularVisitID,\n    //     string memory _name,\n    //     string memory _dose,\n    //     string memory _period\n    // ) public {\n    //     medicinesCount++;\n    //     medicines[medicinesCount] = Medicine(\n    //         medicinesCount,\n    //         _regularVisitID,\n    //         _name,\n    //         _dose,\n    //         _period\n    //     );\n    // }\n\n    /**************************** HELPER FUNCTIONS *****************************/\n    function isClinic(address _a) public view returns (bool) {\n        return (availableClinics[_a]);\n    }\n\n    function patientBelongsToSender(int256 _id, address _a)\n        public\n        view\n        returns (bool)\n    {\n        return (patients[_id].addedBy == _a);\n    }\n\n    // function getClinicID(int256 _id) public view returns (Clinic memory) {\n    //     require(msg.sender == systemAdmin, \"Sorry, you are no authorized\");\n    //     return clinics[_id];\n    // }\n\n    function compareStrings(string memory a, string memory b)\n        public\n        pure\n        returns (bool)\n    {\n        return keccak256(abi.encodePacked(a)) == keccak256(abi.encodePacked(b));\n    }\n\n    /**\n     * Based upon ECDSA library from OpenZeppelin Solidity\n     * https://github.com/OpenZeppelin/openzeppelin-solidity/blob/master/contracts/cryptography/ECDSA.sol\n     */\n    function recover(bytes32 hash, bytes memory signature)\n        public\n        pure\n        returns (address)\n    {\n        bytes32 r;\n        bytes32 s;\n        uint8 v;\n\n        if (signature.length != 65) {\n            return (address(0));\n        }\n\n        assembly {\n            r := mload(add(signature, 0x20))\n            s := mload(add(signature, 0x40))\n            v := byte(0, mload(add(signature, 0x60)))\n        }\n\n        if (v < 27) {\n            v += 27;\n        }\n\n        if (v != 27 && v != 28) {\n            return (address(0));\n        } else {\n            return ecrecover(hash, v, r, s);\n        }\n    }\n}\n",
  "sourcePath": "/Users/sarah/GUC/Semester 10/Security/security-project/contracts/EHR.sol",
  "compiler": {
    "name": "solc",
    "version": "0.5.0+commit.1d4f565a.Emscripten.clang"
  },
  "schemaVersion": "3.0.1",
  "updatedAt": "2022-06-10T22:03:44.324Z",
  "devdoc": {
    "methods": {}
  },
  "userdoc": {
    "methods": {
      "isClinic(address)": {
        "notice": "************************** HELPER FUNCTIONS ****************************"
      },
      "recover(bytes32,bytes)": {
        "notice": "Based upon ECDSA library from OpenZeppelin Solidity https://github.com/OpenZeppelin/openzeppelin-solidity/blob/master/contracts/cryptography/ECDSA.sol"
      }
    },
    "notice": "***************** ROLES OF CLINICS *******************"
  }
}