{
  "contractName": "EHR",
  "abi": [
    {
      "constant": true,
      "inputs": [],
      "name": "medicinesCount",
      "outputs": [
        {
          "name": "",
          "type": "int256"
        }
      ],
      "payable": false,
      "stateMutability": "view",
      "type": "function",
      "signature": "0x0496649a"
    },
    {
      "constant": true,
      "inputs": [
        {
          "name": "",
          "type": "int256"
        }
      ],
      "name": "prescriptions",
      "outputs": [
        {
          "name": "regularVisitID",
          "type": "int256"
        },
        {
          "name": "referral",
          "type": "string"
        },
        {
          "name": "followUp",
          "type": "string"
        },
        {
          "name": "lab",
          "type": "string"
        },
        {
          "name": "numberOfMedicines",
          "type": "int256"
        },
        {
          "name": "medicineOffset",
          "type": "int256"
        }
      ],
      "payable": false,
      "stateMutability": "view",
      "type": "function",
      "signature": "0x2c5e6460"
    },
    {
      "constant": true,
      "inputs": [],
      "name": "prescriptionsCount",
      "outputs": [
        {
          "name": "",
          "type": "int256"
        }
      ],
      "payable": false,
      "stateMutability": "view",
      "type": "function",
      "signature": "0x39aaa6e8"
    },
    {
      "constant": true,
      "inputs": [
        {
          "name": "",
          "type": "int256"
        }
      ],
      "name": "labVisits",
      "outputs": [
        {
          "name": "labVisitID",
          "type": "int256"
        },
        {
          "name": "patientID",
          "type": "int256"
        },
        {
          "name": "clinicID",
          "type": "int256"
        },
        {
          "name": "visitHeartRate",
          "type": "int256"
        },
        {
          "name": "visitTemperature",
          "type": "int256"
        },
        {
          "name": "testType",
          "type": "string"
        },
        {
          "name": "testResult",
          "type": "string"
        }
      ],
      "payable": false,
      "stateMutability": "view",
      "type": "function",
      "signature": "0x3e2bd0c2"
    },
    {
      "constant": true,
      "inputs": [
        {
          "name": "",
          "type": "int256"
        }
      ],
      "name": "regularVisits",
      "outputs": [
        {
          "name": "regularVisitID",
          "type": "int256"
        },
        {
          "name": "patientID",
          "type": "int256"
        },
        {
          "name": "clinicID",
          "type": "int256"
        },
        {
          "name": "visitHeartRate",
          "type": "int256"
        },
        {
          "name": "visitTemperature",
          "type": "int256"
        },
        {
          "name": "diagnosis",
          "type": "string"
        },
        {
          "name": "visitType",
          "type": "uint8"
        }
      ],
      "payable": false,
      "stateMutability": "view",
      "type": "function",
      "signature": "0x6151b7cd"
    },
    {
      "constant": true,
      "inputs": [],
      "name": "regularVisitsCount",
      "outputs": [
        {
          "name": "",
          "type": "int256"
        }
      ],
      "payable": false,
      "stateMutability": "view",
      "type": "function",
      "signature": "0x62e59cf7"
    },
    {
      "constant": true,
      "inputs": [
        {
          "name": "",
          "type": "int256"
        }
      ],
      "name": "patients",
      "outputs": [
        {
          "name": "patientID",
          "type": "int256"
        },
        {
          "name": "patientAddress",
          "type": "address"
        },
        {
          "name": "clinicID",
          "type": "int256"
        },
        {
          "name": "name",
          "type": "string"
        },
        {
          "name": "age",
          "type": "int256"
        },
        {
          "name": "weight",
          "type": "int256"
        },
        {
          "name": "height",
          "type": "int256"
        },
        {
          "name": "gender",
          "type": "string"
        },
        {
          "name": "initialHeartRate",
          "type": "int256"
        },
        {
          "name": "initialTemperature",
          "type": "int256"
        },
        {
          "name": "numberOfRegularVisits",
          "type": "int256"
        },
        {
          "name": "numberOfLabVisits",
          "type": "int256"
        }
      ],
      "payable": false,
      "stateMutability": "view",
      "type": "function",
      "signature": "0x7b9fc959"
    },
    {
      "constant": true,
      "inputs": [
        {
          "name": "",
          "type": "int256"
        }
      ],
      "name": "clinics",
      "outputs": [
        {
          "name": "clinicID",
          "type": "int256"
        },
        {
          "name": "clinicAddress",
          "type": "address"
        },
        {
          "name": "location",
          "type": "string"
        },
        {
          "name": "numberOfPatients",
          "type": "int256"
        },
        {
          "name": "hashMessage",
          "type": "bytes32"
        }
      ],
      "payable": false,
      "stateMutability": "view",
      "type": "function",
      "signature": "0x7fc08cc6"
    },
    {
      "constant": true,
      "inputs": [],
      "name": "labVisitsCount",
      "outputs": [
        {
          "name": "",
          "type": "int256"
        }
      ],
      "payable": false,
      "stateMutability": "view",
      "type": "function",
      "signature": "0x8aa08e1d"
    },
    {
      "constant": true,
      "inputs": [
        {
          "name": "",
          "type": "int256"
        }
      ],
      "name": "medicines",
      "outputs": [
        {
          "name": "medicineId",
          "type": "int256"
        },
        {
          "name": "regularVisitID",
          "type": "int256"
        },
        {
          "name": "name",
          "type": "string"
        },
        {
          "name": "dose",
          "type": "string"
        },
        {
          "name": "period",
          "type": "string"
        }
      ],
      "payable": false,
      "stateMutability": "view",
      "type": "function",
      "signature": "0xb675e5d7"
    },
    {
      "constant": true,
      "inputs": [],
      "name": "patientsCount",
      "outputs": [
        {
          "name": "",
          "type": "int256"
        }
      ],
      "payable": false,
      "stateMutability": "view",
      "type": "function",
      "signature": "0xb6b1289d"
    },
    {
      "constant": true,
      "inputs": [],
      "name": "clinicsCount",
      "outputs": [
        {
          "name": "",
          "type": "int256"
        }
      ],
      "payable": false,
      "stateMutability": "view",
      "type": "function",
      "signature": "0xc249bf7e"
    },
    {
      "inputs": [],
      "payable": false,
      "stateMutability": "nonpayable",
      "type": "constructor",
      "signature": "constructor"
    },
    {
      "constant": false,
      "inputs": [
        {
          "name": "_clinicAddress",
          "type": "address"
        },
        {
          "name": "_location",
          "type": "string"
        },
        {
          "name": "_hash",
          "type": "bytes32"
        },
        {
          "name": "_signature",
          "type": "bytes"
        }
      ],
      "name": "createClinic",
      "outputs": [],
      "payable": false,
      "stateMutability": "nonpayable",
      "type": "function",
      "signature": "0x7ca7d668"
    },
    {
      "constant": true,
      "inputs": [
        {
          "name": "_id",
          "type": "int256"
        }
      ],
      "name": "getClinic",
      "outputs": [
        {
          "components": [
            {
              "name": "clinicID",
              "type": "int256"
            },
            {
              "name": "clinicAddress",
              "type": "address"
            },
            {
              "name": "location",
              "type": "string"
            },
            {
              "name": "numberOfPatients",
              "type": "int256"
            },
            {
              "name": "hashMessage",
              "type": "bytes32"
            }
          ],
          "name": "",
          "type": "tuple"
        }
      ],
      "payable": false,
      "stateMutability": "view",
      "type": "function",
      "signature": "0x29fee749"
    },
    {
      "constant": false,
      "inputs": [
        {
          "name": "_patientAddress",
          "type": "address"
        },
        {
          "name": "_clinicID",
          "type": "int256"
        },
        {
          "name": "_name",
          "type": "string"
        },
        {
          "name": "_age",
          "type": "int256"
        },
        {
          "name": "_weight",
          "type": "int256"
        },
        {
          "name": "_height",
          "type": "int256"
        },
        {
          "name": "_gender",
          "type": "string"
        },
        {
          "name": "_initialHeartRate",
          "type": "int256"
        },
        {
          "name": "_initialTemperature",
          "type": "int256"
        }
      ],
      "name": "createPatient",
      "outputs": [],
      "payable": false,
      "stateMutability": "nonpayable",
      "type": "function",
      "signature": "0x3b73cdf1"
    },
    {
      "constant": false,
      "inputs": [
        {
          "name": "_patientID",
          "type": "int256"
        },
        {
          "name": "_clinicID",
          "type": "int256"
        },
        {
          "name": "_visitHeartRate",
          "type": "int256"
        },
        {
          "name": "_visitTemperature",
          "type": "int256"
        },
        {
          "name": "_diagnosis",
          "type": "string"
        },
        {
          "name": "_visitType",
          "type": "uint8"
        },
        {
          "name": "_referral",
          "type": "string"
        },
        {
          "name": "_followUp",
          "type": "string"
        },
        {
          "name": "_lab",
          "type": "string"
        },
        {
          "name": "_numberOfMedicines",
          "type": "int256"
        }
      ],
      "name": "createRegularVisit",
      "outputs": [],
      "payable": false,
      "stateMutability": "nonpayable",
      "type": "function",
      "signature": "0x45a4e119"
    },
    {
      "constant": false,
      "inputs": [
        {
          "name": "_patientID",
          "type": "int256"
        },
        {
          "name": "_clinicID",
          "type": "int256"
        },
        {
          "name": "_visitHeartRate",
          "type": "int256"
        },
        {
          "name": "_visitTemperature",
          "type": "int256"
        },
        {
          "name": "_testType",
          "type": "string"
        },
        {
          "name": "_testResult",
          "type": "string"
        }
      ],
      "name": "createLabVisit",
      "outputs": [],
      "payable": false,
      "stateMutability": "nonpayable",
      "type": "function",
      "signature": "0x80391760"
    },
    {
      "constant": false,
      "inputs": [
        {
          "name": "_regularVisitID",
          "type": "int256"
        },
        {
          "name": "_referral",
          "type": "string"
        },
        {
          "name": "_followUp",
          "type": "string"
        },
        {
          "name": "_lab",
          "type": "string"
        },
        {
          "name": "_numberOfMedicines",
          "type": "int256"
        }
      ],
      "name": "createPrescription",
      "outputs": [],
      "payable": false,
      "stateMutability": "nonpayable",
      "type": "function",
      "signature": "0x483cf89a"
    },
    {
      "constant": false,
      "inputs": [
        {
          "name": "_regularVisitID",
          "type": "int256"
        },
        {
          "name": "_name",
          "type": "string"
        },
        {
          "name": "_dose",
          "type": "string"
        },
        {
          "name": "_period",
          "type": "string"
        }
      ],
      "name": "createMedicine",
      "outputs": [],
      "payable": false,
      "stateMutability": "nonpayable",
      "type": "function",
      "signature": "0x9955f2b4"
    },
    {
      "constant": true,
      "inputs": [
        {
          "name": "a",
          "type": "string"
        },
        {
          "name": "b",
          "type": "string"
        }
      ],
      "name": "compareStrings",
      "outputs": [
        {
          "name": "",
          "type": "bool"
        }
      ],
      "payable": false,
      "stateMutability": "pure",
      "type": "function",
      "signature": "0xbed34bba"
    },
    {
      "constant": true,
      "inputs": [
        {
          "name": "hash",
          "type": "bytes32"
        },
        {
          "name": "signature",
          "type": "bytes"
        }
      ],
      "name": "recover",
      "outputs": [
        {
          "name": "",
          "type": "address"
        }
      ],
      "payable": false,
      "stateMutability": "pure",
      "type": "function",
      "signature": "0x19045a25"
    }
  ],
  "bytecode": "0x608060405260006001556000600255600060035560006004556000600555600060065534801561002e57600080fd5b5060008054600160a060020a031916331790556120e3806100506000396000f3fe60806040526004361061011c5763ffffffff7c01000000000000000000000000000000000000000000000000000000006000350416630496649a811461012157806319045a251461014c57806329fee749146101795780632c5e6460146101a657806339aaa6e8146101d85780633b73cdf1146101ed5780633e2bd0c21461020f57806345a4e11914610242578063483cf89a146102625780636151b7cd1461028257806362e59cf7146102b55780637b9fc959146102ca5780637ca7d668146103025780637fc08cc61461032257806380391760146103535780638aa08e1d146103735780639955f2b414610388578063b675e5d7146103a8578063b6b1289d146103d9578063bed34bba146103ee578063c249bf7e1461041b575b600080fd5b34801561012d57600080fd5b50610136610430565b6040516101439190611cd3565b60405180910390f35b34801561015857600080fd5b5061016c6101673660046117ba565b610436565b6040516101439190611cb7565b34801561018557600080fd5b5061019961019436600461180c565b610516565b6040516101439190611fbd565b3480156101b257600080fd5b506101c66101c136600461180c565b61064c565b60405161014396959493929190611f39565b3480156101e457600080fd5b50610136610821565b3480156101f957600080fd5b5061020d610208366004611635565b610827565b005b34801561021b57600080fd5b5061022f61022a36600461180c565b610967565b6040516101439796959493929190611e64565b34801561024e57600080fd5b5061020d61025d366004611832565b610acb565b34801561026e57600080fd5b5061020d61027d366004611a96565b610bd8565b34801561028e57600080fd5b506102a261029d36600461180c565b610c94565b6040516101439796959493929190611df5565b3480156102c157600080fd5b50610136610d71565b3480156102d657600080fd5b506102ea6102e536600461180c565b610d77565b6040516101439c9b9a99989796959493929190611ce1565b34801561030e57600080fd5b5061020d61031d366004611729565b610ef2565b34801561032e57600080fd5b5061034261033d36600461180c565b610ff5565b604051610143959493929190611da2565b34801561035f57600080fd5b5061020d61036e36600461196b565b6110b7565b34801561037f57600080fd5b5061013661117c565b34801561039457600080fd5b5061020d6103a3366004611a22565b611182565b3480156103b457600080fd5b506103c86103c336600461180c565b61122c565b604051610143959493929190611ed9565b3480156103e557600080fd5b506101366113f5565b3480156103fa57600080fd5b5061040e610409366004611b53565b6113fb565b6040516101439190611cc5565b34801561042757600080fd5b506101366114e2565b60065481565b600080600080845160411415156104535760009350505050610510565b50505060208201516040830151606084015160001a601b60ff8216101561047857601b015b8060ff16601b1415801561049057508060ff16601c14155b156104a15760009350505050610510565b6040805160008152602080820180845289905260ff8416828401526060820186905260808201859052915160019260a0808401939192601f1981019281900390910190855afa1580156104f8573d6000803e3d6000fd5b505050602060405103519350505050610510565b5050505b92915050565b61051e6114e8565b600054600160a060020a0316331461056b576040517f08c379a000000000000000000000000000000000000000000000000000000000815260040161056290611f9d565b60405180910390fd5b600082815260076020908152604091829020825160a08101845281548152600180830154600160a060020a0316828501526002808401805487516101009482161594909402600019011691909104601f810186900486028301860187528083529295939493860193919290918301828280156106285780601f106105fd57610100808354040283529160200191610628565b820191906000526020600020905b81548152906001019060200180831161060b57829003601f168201915b50505050508152602001600382015481526020016004820154815250509050919050565b600b602090815260009182526040918290208054600180830180548651600293821615610100026000190190911692909204601f8101869004860283018601909652858252919492939092908301828280156106e95780601f106106be576101008083540402835291602001916106e9565b820191906000526020600020905b8154815290600101906020018083116106cc57829003601f168201915b50505060028085018054604080516020601f600019610100600187161502019094169590950492830185900485028101850190915281815295969594509092509083018282801561077b5780601f106107505761010080835404028352916020019161077b565b820191906000526020600020905b81548152906001019060200180831161075e57829003601f168201915b5050505060038301805460408051602060026001851615610100026000190190941693909304601f810184900484028201840190925281815294959493509083018282801561080b5780601f106107e05761010080835404028352916020019161080b565b820191906000526020600020905b8154815290600101906020018083116107ee57829003601f168201915b5050505050908060040154908060050154905086565b60055481565b6001805481018082556040805161018081018252828152600160a060020a038d811660208084019182528385018f8152606085018f8152608086018f905260a086018e905260c086018d905260e086018c905261010086018b905261012086018a90526000610140870181905261016087018190529788526008835295909620845181559151968201805473ffffffffffffffffffffffffffffffffffffffff19169790931696909617909155925160028401559051805191936108f392600385019290910190611524565b506080820151600482015560a0820151600582015560c0820151600682015560e0820151805161092d916007840191602090910190611524565b5061010082015160088201556101208201516009820155610140820151600a82015561016090910151600b90910155505050505050505050565b600a602052806000526040600020600091509050806000015490806001015490806002015490806003015490806004015490806005018054600181600116156101000203166002900480601f016020809104026020016040519081016040528092919081815260200182805460018160011615610100020316600290048015610a315780601f10610a0657610100808354040283529160200191610a31565b820191906000526020600020905b815481529060010190602001808311610a1457829003601f168201915b5050505060068301805460408051602060026001851615610100026000190190941693909304601f8101849004840282018401909252818152949594935090830182828015610ac15780601f10610a9657610100808354040283529160200191610ac1565b820191906000526020600020905b815481529060010190602001808311610aa457829003601f168201915b5050505050905087565b60008a815260086020908152604091829020600a01805460019081019091556003805490910190819055825160e0810184529081529081018c90529081018a9052606081018990526080810188905260a0810187905260c08101866002811115610b3157fe5b815250600960006003548152602001908152602001600020600082015181600001556020820151816001015560408201518160020155606082015181600301556080820151816004015560a0820151816005019080519060200190610b97929190611524565b5060c082015160068201805460ff19166001836002811115610bb557fe5b0217905550905050610bcc60035485858585610bd8565b50505050505050505050565b6005805460019081019091556040805160c0810182528781526020808201888152828401889052606083018790526080830186905260065460a084015260008a8152600b83529390932082518155925180519294610c3e93908501929190910190611524565b5060408201518051610c5a916002840191602090910190611524565b5060608201518051610c76916003840191602090910190611524565b506080820151600482015560a0909101516005909101555050505050565b6009602052806000526040600020600091509050806000015490806001015490806002015490806003015490806004015490806005018054600181600116156101000203166002900480601f016020809104026020016040519081016040528092919081815260200182805460018160011615610100020316600290048015610d5e5780601f10610d3357610100808354040283529160200191610d5e565b820191906000526020600020905b815481529060010190602001808311610d4157829003601f168201915b5050506006909301549192505060ff1687565b60035481565b600860209081526000918252604091829020805460018083015460028085015460038601805489516101009682161596909602600019011692909204601f81018890048802850188019098528784529396600160a060020a0390921695939493909190830182828015610e2b5780601f10610e0057610100808354040283529160200191610e2b565b820191906000526020600020905b815481529060010190602001808311610e0e57829003601f168201915b505050600484015460058501546006860154600787018054604080516020601f60026000196101006001881615020190951694909404938401819004810282018101909252828152989995989497509295509091830182828015610ed05780601f10610ea557610100808354040283529160200191610ed0565b820191906000526020600020905b815481529060010190602001808311610eb357829003601f168201915b50505050509080600801549080600901549080600a01549080600b015490508c565b6000610efe8383610436565b600054909150600160a060020a03808316911614610f48576040517f08c379a000000000000000000000000000000000000000000000000000000000815260040161056290611fad565b6002805460019081018083556040805160a081018252828152600160a060020a038a811660208084019182528385018c8152600060608601819052608086018d90529687526007825294909520835181559051958101805473ffffffffffffffffffffffffffffffffffffffff191696909216959095179055905180519194610fd79390850192910190611524565b50606082015160038201556080909101516004909101555050505050565b60076020908152600091825260409182902080546001808301546002808501805488516101009582161595909502600019011691909104601f81018790048702840187019097528683529295600160a060020a03909116949192918301828280156110a15780601f10611076576101008083540402835291602001916110a1565b820191906000526020600020905b81548152906001019060200180831161108457829003601f168201915b5050505050908060030154908060040154905085565b6000868152600860209081526040808320600b0180546001908101909155600480548201808255835160e0810185528181528086018d81528186018d8152606083018d8152608084018d815260a085018d815260c086018d9052958b52600a8a529790992083518155915195820195909555935160028501559551600384015592519082015590518051919261115592600585019290910190611524565b5060c08201518051611171916006840191602090910190611524565b505050505050505050565b60045481565b600680546001908101918290556040805160a081018252838152602080820189815282840189815260608401899052608084018890526000968752600c83529390952082518155945193850193909355905180519193926111eb92600285019290910190611524565b5060608201518051611207916003840191602090910190611524565b5060808201518051611223916004840191602090910190611524565b50505050505050565b600c6020908152600091825260409182902080546001808301546002808501805488519481161561010002600019011691909104601f8101879004870284018701909752868352929590949192918301828280156112cb5780601f106112a0576101008083540402835291602001916112cb565b820191906000526020600020905b8154815290600101906020018083116112ae57829003601f168201915b5050505060038301805460408051602060026001851615610100026000190190941693909304601f810184900484028201840190925281815294959493509083018282801561135b5780601f106113305761010080835404028352916020019161135b565b820191906000526020600020905b81548152906001019060200180831161133e57829003601f168201915b5050505060048301805460408051602060026001851615610100026000190190941693909304601f81018490048402820184019092528181529495949350908301828280156113eb5780601f106113c0576101008083540402835291602001916113eb565b820191906000526020600020905b8154815290600101906020018083116113ce57829003601f168201915b5050505050905085565b60015481565b6000816040516020018082805190602001908083835b602083106114305780518252601f199092019160209182019101611411565b6001836020036101000a03801982511681845116808217855250505050505090500191505060405160208183030381529060405280519060200120836040516020018082805190602001908083835b6020831061149e5780518252601f19909201916020918201910161147f565b6001836020036101000a0380198251168184511680821785525050505050509050019150506040516020818303038152906040528051906020012014905092915050565b60025481565b60a060405190810160405280600081526020016000600160a060020a031681526020016060815260200160008152602001600080191681525090565b828054600181600116156101000203166002900490600052602060002090601f016020900481019282601f1061156557805160ff1916838001178555611592565b82800160010185558215611592579182015b82811115611592578251825591602001919060010190611577565b5061159e9291506115a2565b5090565b6115bc91905b8082111561159e57600081556001016115a8565b90565b60006115cb8235612021565b9392505050565b60006115cb82356115bc565b6000601f820183136115ef57600080fd5b81356116026115fd82611ff5565b611fce565b9150808252602083016020830185838301111561161e57600080fd5b61050c838284612063565b60006115cb8235612049565b60008060008060008060008060006101208a8c03121561165457600080fd5b60006116608c8c6115bf565b99505060206116718c828d016115d2565b98505060408a013567ffffffffffffffff81111561168e57600080fd5b61169a8c828d016115de565b97505060606116ab8c828d016115d2565b96505060806116bc8c828d016115d2565b95505060a06116cd8c828d016115d2565b94505060c08a013567ffffffffffffffff8111156116ea57600080fd5b6116f68c828d016115de565b93505060e06117078c828d016115d2565b9250506101006117198c828d016115d2565b9150509295985092959850929598565b6000806000806080858703121561173f57600080fd5b600061174b87876115bf565b945050602085013567ffffffffffffffff81111561176857600080fd5b611774878288016115de565b9350506040611785878288016115d2565b925050606085013567ffffffffffffffff8111156117a257600080fd5b6117ae878288016115de565b91505092959194509250565b600080604083850312156117cd57600080fd5b60006117d985856115d2565b925050602083013567ffffffffffffffff8111156117f657600080fd5b611802858286016115de565b9150509250929050565b60006020828403121561181e57600080fd5b600061182a84846115d2565b949350505050565b6000806000806000806000806000806101408b8d03121561185257600080fd5b600061185e8d8d6115d2565b9a5050602061186f8d828e016115d2565b99505060406118808d828e016115d2565b98505060606118918d828e016115d2565b97505060808b013567ffffffffffffffff8111156118ae57600080fd5b6118ba8d828e016115de565b96505060a06118cb8d828e01611629565b95505060c08b013567ffffffffffffffff8111156118e857600080fd5b6118f48d828e016115de565b94505060e08b013567ffffffffffffffff81111561191157600080fd5b61191d8d828e016115de565b9350506101008b013567ffffffffffffffff81111561193b57600080fd5b6119478d828e016115de565b9250506101206119598d828e016115d2565b9150509295989b9194979a5092959850565b60008060008060008060c0878903121561198457600080fd5b600061199089896115d2565b96505060206119a189828a016115d2565b95505060406119b289828a016115d2565b94505060606119c389828a016115d2565b935050608087013567ffffffffffffffff8111156119e057600080fd5b6119ec89828a016115de565b92505060a087013567ffffffffffffffff811115611a0957600080fd5b611a1589828a016115de565b9150509295509295509295565b60008060008060808587031215611a3857600080fd5b6000611a4487876115d2565b945050602085013567ffffffffffffffff811115611a6157600080fd5b611a6d878288016115de565b935050604085013567ffffffffffffffff811115611a8a57600080fd5b611785878288016115de565b600080600080600060a08688031215611aae57600080fd5b6000611aba88886115d2565b955050602086013567ffffffffffffffff811115611ad757600080fd5b611ae3888289016115de565b945050604086013567ffffffffffffffff811115611b0057600080fd5b611b0c888289016115de565b935050606086013567ffffffffffffffff811115611b2957600080fd5b611b35888289016115de565b9250506080611b46888289016115d2565b9150509295509295909350565b60008060408385031215611b6657600080fd5b823567ffffffffffffffff811115611b7d57600080fd5b6117d9858286016115de565b611b9281612021565b82525050565b611b928161202c565b611b92816115bc565b611b9281612058565b6000611bbe8261201d565b808452611bd281602086016020860161206f565b611bdb8161209f565b9093016020019392505050565b601c81527f536f7272792c20796f7520617265206e6f20617574686f72697a656400000000602082015260400190565b601d81527f536f7272792c20796f7520617265206e6f7420617574686f72697a6564000000602082015260400190565b805160009060a0840190611c5c8582611ba1565b506020830151611c6f6020860182611b89565b5060408301518482036040860152611c878282611bb3565b9150506060830151611c9c6060860182611ba1565b506080830151611caf6080860182611ba1565b509392505050565b602081016105108284611b89565b602081016105108284611b98565b602081016105108284611ba1565b6101808101611cf0828f611ba1565b611cfd602083018e611b89565b611d0a604083018d611ba1565b8181036060830152611d1c818c611bb3565b9050611d2b608083018b611ba1565b611d3860a083018a611ba1565b611d4560c0830189611ba1565b81810360e0830152611d578188611bb3565b9050611d67610100830187611ba1565b611d75610120830186611ba1565b611d83610140830185611ba1565b611d91610160830184611ba1565b9d9c50505050505050505050505050565b60a08101611db08288611ba1565b611dbd6020830187611b89565b8181036040830152611dcf8186611bb3565b9050611dde6060830185611ba1565b611deb6080830184611ba1565b9695505050505050565b60e08101611e03828a611ba1565b611e106020830189611ba1565b611e1d6040830188611ba1565b611e2a6060830187611ba1565b611e376080830186611ba1565b81810360a0830152611e498185611bb3565b9050611e5860c0830184611baa565b98975050505050505050565b60e08101611e72828a611ba1565b611e7f6020830189611ba1565b611e8c6040830188611ba1565b611e996060830187611ba1565b611ea66080830186611ba1565b81810360a0830152611eb88185611bb3565b905081810360c0830152611ecc8184611bb3565b9998505050505050505050565b60a08101611ee78288611ba1565b611ef46020830187611ba1565b8181036040830152611f068186611bb3565b90508181036060830152611f1a8185611bb3565b90508181036080830152611f2e8184611bb3565b979650505050505050565b60c08101611f478289611ba1565b8181036020830152611f598188611bb3565b90508181036040830152611f6d8187611bb3565b90508181036060830152611f818186611bb3565b9050611f906080830185611ba1565b611f2e60a0830184611ba1565b6020808252810161051081611be8565b6020808252810161051081611c18565b602080825281016115cb8184611c48565b60405181810167ffffffffffffffff81118282101715611fed57600080fd5b604052919050565b600067ffffffffffffffff82111561200c57600080fd5b506020601f91909101601f19160190565b5190565b60006105108261203d565b151590565b60006003821061159e57fe5b600160a060020a031690565b60006003821061159e57600080fd5b600061051082612031565b82818337506000910152565b60005b8381101561208a578181015183820152602001612072565b83811115612099576000848401525b50505050565b601f01601f19169056fea265627a7a723058200294c9f029771bf2d7df4974ebd0882421d174d15dfa1287a2b43e0ff667bd3e6c6578706572696d656e74616cf50037",
  "source": "pragma solidity ^0.5.0;\npragma experimental ABIEncoderV2;\n\n// Creating a regular visit --> creates a prescription --> creates medicines\n// Address = public key\n// Only 1 admin\n\n/******************* ROLES OF ADMINS ********************/\n// Admin can add clinics\n\n/******************* ROLES OF CLINICS ********************/\n// Clinics can add patients\n\ncontract EHR {\n    address systemAdmin;\n\n    enum VisitTypes {\n        periodicCheckup,\n        caseManagement,\n        complain\n    }\n\n    int256 public patientsCount = 0;\n    int256 public clinicsCount = 0;\n    int256 public regularVisitsCount = 0;\n    int256 public labVisitsCount = 0;\n    int256 public prescriptionsCount = 0;\n    int256 public medicinesCount = 0;\n\n    struct Clinic {\n        int256 clinicID;\n        address clinicAddress;\n        string location;\n        int256 numberOfPatients;\n        bytes32 hashMessage;\n    }\n\n    struct Patient {\n        int256 patientID;\n        address patientAddress;\n        int256 clinicID;\n        string name;\n        int256 age;\n        int256 weight;\n        int256 height;\n        string gender;\n        int256 initialHeartRate;\n        int256 initialTemperature;\n        int256 numberOfRegularVisits;\n        int256 numberOfLabVisits;\n    }\n\n    struct RegularVisit {\n        int256 regularVisitID;\n        int256 patientID;\n        int256 clinicID;\n        int256 visitHeartRate;\n        int256 visitTemperature;\n        string diagnosis;\n        VisitTypes visitType;\n    }\n\n    struct LabVisit {\n        int256 labVisitID;\n        int256 patientID;\n        int256 clinicID;\n        int256 visitHeartRate;\n        int256 visitTemperature;\n        string testType;\n        string testResult;\n    }\n\n    struct Prescription {\n        int256 regularVisitID;\n        string referral;\n        string followUp;\n        string lab;\n        int256 numberOfMedicines;\n        int256 medicineOffset;\n    }\n\n    struct Medicine {\n        int256 medicineId;\n        int256 regularVisitID;\n        string name;\n        string dose;\n        string period;\n    }\n\n    mapping(int256 => Clinic) public clinics;\n    mapping(int256 => Patient) public patients;\n    mapping(int256 => RegularVisit) public regularVisits;\n    mapping(int256 => LabVisit) public labVisits;\n    mapping(int256 => Prescription) public prescriptions;\n    mapping(int256 => Medicine) public medicines;\n\n    constructor() public {\n        systemAdmin = msg.sender;\n    }\n\n    function createClinic(\n        address _clinicAddress,\n        string memory _location,\n        bytes32 _hash,\n        bytes memory _signature\n    ) public {\n        // string memory hashedMessage\n        // string memory hashedRes = string(\n        //     abi.encodePacked(_signature, systemAdmin)\n        // );\n        // require(\n        //     compareStrings(hashedRes, hashedMessage),\n        //     \"Sorry, digest message is different\"\n        // );\n\n        address recoveredAddress = recover(_hash, _signature);\n        require(\n            recoveredAddress == systemAdmin,\n            \"Sorry, you are not authorized\"\n        );\n\n        clinicsCount++;\n        clinics[clinicsCount] = Clinic(\n            clinicsCount,\n            _clinicAddress,\n            _location,\n            0,\n            _hash\n        );\n    }\n\n    function getClinic(int256 _id) public view returns (Clinic memory) {\n        require(msg.sender == systemAdmin, \"Sorry, you are no authorized\");\n        return clinics[_id];\n    }\n\n    function createPatient(\n        address _patientAddress,\n        int256 _clinicID,\n        string memory _name,\n        int256 _age,\n        int256 _weight,\n        int256 _height,\n        string memory _gender,\n        int256 _initialHeartRate,\n        int256 _initialTemperature\n    ) public {\n        patientsCount++;\n        patients[patientsCount] = Patient(\n            patientsCount,\n            _patientAddress,\n            _clinicID,\n            _name,\n            _age,\n            _weight,\n            _height,\n            _gender,\n            _initialHeartRate,\n            _initialTemperature,\n            0,\n            0\n        );\n    }\n\n    function createRegularVisit(\n        int256 _patientID,\n        int256 _clinicID,\n        int256 _visitHeartRate,\n        int256 _visitTemperature,\n        string memory _diagnosis,\n        VisitTypes _visitType,\n        string memory _referral,\n        string memory _followUp,\n        string memory _lab,\n        int256 _numberOfMedicines\n    ) public {\n        // VisitTypes temp = VisitTypes.periodicCheckup;\n        // if (_visitType == 0) {\n        //     temp = VisitTypes.periodicCheckup;\n        // } else if (_visitType == 1) {\n        //     temp = VisitTypes.caseManagement;\n        // } else {\n        //     temp = VisitTypes.complain;\n        // }\n\n        patients[_patientID].numberOfRegularVisits =\n            patients[_patientID].numberOfRegularVisits +\n            1;\n\n        regularVisitsCount++;\n\n        regularVisits[regularVisitsCount] = RegularVisit(\n            regularVisitsCount,\n            _patientID,\n            _clinicID,\n            _visitHeartRate,\n            _visitTemperature,\n            _diagnosis,\n            _visitType\n        );\n\n        createPrescription(\n            regularVisitsCount,\n            _referral,\n            _followUp,\n            _lab,\n            _numberOfMedicines\n        );\n    }\n\n    function createLabVisit(\n        int256 _patientID,\n        int256 _clinicID,\n        int256 _visitHeartRate,\n        int256 _visitTemperature,\n        string memory _testType,\n        string memory _testResult\n    ) public {\n        patients[_patientID].numberOfLabVisits =\n            patients[_patientID].numberOfLabVisits +\n            1;\n\n        labVisitsCount++;\n        labVisits[labVisitsCount] = LabVisit(\n            labVisitsCount,\n            _patientID,\n            _clinicID,\n            _visitHeartRate,\n            _visitTemperature,\n            _testType,\n            _testResult\n        );\n    }\n\n    function createPrescription(\n        int256 _regularVisitID,\n        string memory _referral,\n        string memory _followUp,\n        string memory _lab,\n        int256 _numberOfMedicines\n    ) public {\n        prescriptionsCount++;\n        prescriptions[_regularVisitID] = Prescription(\n            _regularVisitID,\n            _referral,\n            _followUp,\n            _lab,\n            _numberOfMedicines,\n            medicinesCount\n        );\n    }\n\n    function createMedicine(\n        int256 _regularVisitID,\n        string memory _name,\n        string memory _dose,\n        string memory _period\n    ) public {\n        medicinesCount++;\n        medicines[medicinesCount] = Medicine(\n            medicinesCount,\n            _regularVisitID,\n            _name,\n            _dose,\n            _period\n        );\n    }\n\n    function compareStrings(string memory a, string memory b)\n        public\n        pure\n        returns (bool)\n    {\n        return keccak256(abi.encodePacked(a)) == keccak256(abi.encodePacked(b));\n    }\n\n    /**\n     * Based upon ECDSA library from OpenZeppelin Solidity\n     * https://github.com/OpenZeppelin/openzeppelin-solidity/blob/master/contracts/cryptography/ECDSA.sol\n     */\n    function recover(bytes32 hash, bytes memory signature)\n        public\n        pure\n        returns (address)\n    {\n        bytes32 r;\n        bytes32 s;\n        uint8 v;\n\n        if (signature.length != 65) {\n            return (address(0));\n        }\n\n        assembly {\n            r := mload(add(signature, 0x20))\n            s := mload(add(signature, 0x40))\n            v := byte(0, mload(add(signature, 0x60)))\n        }\n\n        if (v < 27) {\n            v += 27;\n        }\n\n        if (v != 27 && v != 28) {\n            return (address(0));\n        } else {\n            return ecrecover(hash, v, r, s);\n        }\n    }\n}\n",
  "sourcePath": "/Users/sarah/GUC/Semester 10/Security/security-project/contracts/EHR.sol",
  "compiler": {
    "name": "solc",
    "version": "0.5.0+commit.1d4f565a.Emscripten.clang"
  },
  "schemaVersion": "3.0.1",
  "updatedAt": "2022-06-10T12:35:17.537Z",
  "devdoc": {
    "methods": {}
  },
  "userdoc": {
    "methods": {
      "recover(bytes32,bytes)": {
        "notice": "Based upon ECDSA library from OpenZeppelin Solidity https://github.com/OpenZeppelin/openzeppelin-solidity/blob/master/contracts/cryptography/ECDSA.sol"
      }
    },
    "notice": "***************** ROLES OF CLINICS *******************"
  }
}